:100000000215CC8F99D2092009FD220210B6E4FF17
:10001000FE12013C600C0FEF70010E09E970F20A4C
:1000200080EF2202179B75985053890F43892075E2
:100030008DFA758BFA438780D2ACD28ED29CD2AF28
:01004000229D
:1000430002173AE709F608DFFA8046E709F208DF04
:10005300FA803E88828C83E709F0A3DFFA8032E3DB
:1000630009F608DFFA8078E309F208DFFA8070887E
:10007300828C83E309F0A3DFFA806489828A83E0B8
:10008300A3F608DFFA805889828A83E0A3F208DFA7
:10009300FA804C80D280FA80C680D4806980F28056
:1000A30033801080A680EA809A80A880DA80E2807C
:1000B300CA803389828A83ECFAE493A3C8C582C8D1
:1000C300CCC583CCF0A3C8C582C8CCC583CCDFE93B
:1000D300DEE7800D89828A83E493A3F608DFF9ECD7
:1000E300FAA9F0EDFB2289828A83ECFAE0A3C8C562
:1000F30082C8CCC583CCF0A3C8C582C8CCC583CC89
:10010300DFEADEE880DB89828A83E493A3F208DFF7
:10011300F980CC88F0EF60010E4E60C388F0ED24C7
:1001230002B4040050B9F582EB2402B4040050AFCA
:10013300232345822390009673BB010689828A8319
:10014300E0225002E722BBFE02E32289828A83E493
:100153009322BB010CE58229F582E5833AF583E01E
:10016300225006E92582F8E622BBFE06E92582F83D
:10017300E222E58229F582E5833AF583E49322C2FC
:10018300D5EC30E709B2D5E4C39DFDE49CFCEE3029
:10019300E715B2D5E4C39FFFE49EFE12036DC3E4EB
:1001A3009DFDE49CFC800312036D30D507C3E49FDF
:1001B300FFE49EFE22C5F0F8A3E028F0C5F0F8E5C1
:1001C30082158270021583E038F022A3F8E0C5F0AF
:1001D30025F0F0E582158270021583E0C838F0E857
:1001E30022E88FF0A4CC8BF0A42CFCE98EF0A42C95
:1001F300FC8AF0EDA42CFCEA8EF0A4CDA8F08BF0E1
:10020300A42DCC3825F0FDE98FF0A42CCD35F0FCDE
:10021300EB8EF0A4FEA9F0EB8FF0A4CFC5F02ECDAA
:1002230039FEE43CFCEAA42DCE35F0FDE43CFC228F
:1002330075F008758200EF2FFFEE33FECD33CDCC82
:1002430033CCC58233C5829BED9AEC99E582984005
:100253000CF582EE9BFEED9AFDEC99FC0FD5F0D6E2
:10026300E4CEFBE4CDFAE4CCF9A88222B800C1B90C
:100273000059BA002DEC8BF084CFCECDFCE5F0CB4A
:10028300F97818EF2FFFEE33FEED33FDEC33FCEB83
:1002930033FB10D703994004EB99FB0FD8E5E4F93E
:1002A300FA227818EF2FFFEE33FEED33FDEC33FC2B
:1002B300C933C910D7059BE99A4007EC9BFCE99A1F
:1002C300F90FD8E0E4C9FAE4CCFB2275F010EF2F64
:1002D300FFEE33FEED33FDCC33CCC833C810D70764
:1002E3009BEC9AE899400AED9BFDEC9AFCE899F89F
:1002F3000FD5F0DAE4CDFBE4CCFAE4C8F922EB9FA6
:10030300F5F0EA9E42F0E99D42F0E89C45F022ECCC
:10031300F0A3EDF0A3EEF0A3EFF022A8828583F023
:10032300D083D082120335120335120335120335FD
:10033300E473E493A3C583C5F0C583C8C582C8F03D
:10034300A3C583C5F0C583C8C582C822A42582F589
:1003530082E5F03583F58322BB010689828A83F027
:10036300225002F722BBFE01F322BC000BBE002980
:10037300EF8DF084FFADF022E4CCF875F008EF2F99
:10038300FFEE33FEEC33FCEE9DEC984005FCEE9D56
:10039300FE0FD5F0E9E4CEFD22EDF8F5F0EE842072
:1003A300D21CFEADF075F008EF2FFFED33FD4007D3
:1003B300985006D5F0F222C398FD0FD5F0EA22F843
:1003C300E0FBA3A3E0F925F0F0E5821582700215A6
:1003D30083E0FA38F022EBF0A3EAF0A3E9F022D0AD
:1003E30083D082F8E4937012740193700DA3A393E6
:1003F300F8740193F5828883E4737402936860EF61
:10040300A3A3A380DFE510244CF582E43401F58334
:10041300E005102290014930070390014CE475F088
:10042300011203C202013C2000E97F2ED200801892
:10043300EF540F2490D43440D4FF30040BEF24BF87
:10044300B41A0050032461FFE5116002151105146D
:10045300E5147002051330070E900149E475F001AD
:100463001203C2EF02035B0200037403D20780038B
:10047300E4C207F5109001491203D9E4F511F5130D
:10048300F514E51160077F2012044B80F57512FF08
:10049300C201C200C202C203C205C206C2081204DC
:1004A30017FF700D3007057F0012045CAF14AE1305
:1004B30022B4255FC2D5C204120417FF24D0B40AA4
:1004C30000501A75F00A781130D50508B6FF0106F9
:1004D300C6A426F620D5047002D20380D924CFB453
:1004E3001A00EF5004C2E5D20402065DD20180C6B1
:1004F300D20080C0D20280BCD2D580BAD20580B4EB
:100503007F2012044B2002077401B5110040F11241
:100513000408FF12044B020485D208D20680951208
:100523000408FB120408FA120408F94A4B7006790E
:100533002E7A077BFF20022EE511602A7E008E8231
:1005430075830012015560060EEE651270F0C2D578
:10055300EBC0E0EAC0E0E9C0E0EE1206A4D0E0F9A7
:10056300D0E0FAD0E0FB12013CFF60AAEBC0E0EA66
:10057300C0E0E9C0E012044BD0E02401F9D0E0343C
:1005830000FAD0E0FBE5120460DCD512D980877B4A
:10059300FF7A0679A0D202809C791080027908C282
:1005A30006C2088008D2D5790A8004790AC2D5E543
:1005B30012047002F512E4FAFDFEFF120408FC7B3C
:1005C30008200113120408FD7B1030000A120408EE
:1005D300FE120408FF7B20EC3382D592D55013C35F
:1005E300E43000069FFFE49EFEE42001039DFDE44A
:1005F3009CFCE4CBF8C201EC700CCFCECDCCE8244C
:10060300F8F870F38017C3EF33FFEE33FEED33FDDD
:10061300EC33FCEB33FB994002FB0FD8E9EB3001E1
:1006230005F8D0E0C448B201C0E00AEC4D4E4F7863
:10063300207B0070C2EAB5120040BCC0E01206A6DF
:10064300D0F0D0E0200104C4C0E0C4B201C0F01275
:100653000434D0F0D5F0EB0204851203E2052253F3
:10066300059C5804F34C04EF4205A04F05A844052C
:10067300A84905084305AE550592460592450592DE
:1006830047074E5004F72D04FB2E051E2B04FF23B2
:10069300051C2007372A04B748000005163F3F3FD3
:1006A30000790AA2D5200314300509B91002040405
:1006B300B9080104A2D52006025001042002689261
:1006C30002B511005034C0E07F203003197F30A2FF
:1006D3000272067205500F1206FDC202C206C2055F
:1006E300C2087F30800F300503E9C0E012044B30AD
:1006F3000503D0E0F9D0E0B511CC3005177F30B950
:10070300100C12044B7F583004077F788003B9081C
:100713000312044B3002057F2D02044B7F20200877
:10072300F87F2B2006F322920280CF286E756C6C23
:100733002900D2011204083001F8C201781130D522
:100743000108F60204B72D50434958120408240344
:10075300B405004001E49007499312043C743A1233
:10076300043CD20375110402059C9001F2ECF0A342
:10077300EDF0A3EAF0A3EBF09001F0EEF0A3EFF0BD
:100783009001FFEEF0A3EFF09001F8E0FBA3E0FA95
:10079300A3E0F912013C70030209F4C394805003EF
:1007A3000209E7E49001FDF0A3F09001FDE0FEA350
:1007B300E0FFC3941CEE940040030209CC9001F8BF
:1007C300E0FBA3E0FAA3E0F912013CFD901C87755E
:1007D300F022EF12034FEE75F022A42583F583E494
:1007E300936D60030209BB900001120155FF900154
:1007F300FDE0FCA3E0901C8875F02212034FEC751A
:10080300F022A42583F583E4936F60030209BB9070
:1008130001FBF0E49001FCF09001FDE0FEA3E09009
:100823001C8975F02212034FEE75F022A42583F57F
:1008330083C083C0829001FBE0FDD082D08375F03A
:100843000212034FE493FB3395E0FA9001FCE0FCC2
:1008530074807E00A804088006CEA2E713CE13D8C6
:10086300F8FFEE5AFEEF5B4E6021ECFF9001F1E0E2
:100873002FFF9001F0E03400FE9001F3E02DFD9096
:1008830001F2E03400FC9001F4803B9001F6E0FEBD
:10089300A3E0FF9001F4E06E7003A3E06F602A9081
:1008A30001FCE0FF9001F1E02FFF9001F0E0340044
:1008B300FE9001FBE0FD9001F3E02DFD9001F2E0DD
:1008C3003400FC9001F61218A29001FCE004F0E061
:1008D300C39408500302081BE49001FCF09001FD4F
:1008E300E0FEA3E0901C8A75F02212034FEE75F030
:1008F30022A42583F583C083C0829001FBE0FDD051
:1009030082D08375F00212034FE493FB3395E0FA30
:100913009001FCE0FC74807E00A804088006CEA24F
:10092300E713CE13D8F8FFEE5AFEEF5B4E6027ECC9
:10093300FF9001F1E02FFF9001F0E03400CF240895
:10094300CF3400FE9001F3E02DFD9001F2E034007E
:10095300FC9001F480419001F6E0FEA3E0FF9001DA
:10096300F4E06E7003A3E06F60309001FCE0FF9051
:1009730001F1E02FFF9001F0E03400CF2408CF34E1
:1009830000FE9001FBE0FD9001F3E02DFD9001F2EC
:10099300E03400FC9001F61218A29001FCE004F090
:1009A300E0C3940850030208E09001FBE004F0E088
:1009B300C3941050030208169001FEE004F0700681
:1009C3009001FDE004F00207AD9001F9E475F00237
:1009D3001201B89001F1E02410F09001F0E034002E
:1009E300F002078B9001F9E475F0011201B80207D8
:1009F3008B22900171EEF0A3EFF0A3ECF0A3EDF0E6
:100A0300A3EBF0A3EAF0A3E9F0E490017CF0A3F0F8
:100A1300900175E0FBA3E0FAA3E0F912000E900148
:100A23007CE0FCA3E0FDC39FEC9E4003020BDC9043
:100A33000175E0FBA3E0FAA3E0F98D828C83120138
:100A430055FFC394A140099001A8EFF0E4A3F0225D
:100A5300900175E0FBA3E0FAA3E0F990017CE0FECE
:100A6300A3E0F5828E83120155FFE4FCFDFE7B10AB
:100A7300FAF9F81201E4900184120312E4FBFA90EC
:100A83000184A3A3E0FEA3E02BFFEE3AFE74852FBF
:100A9300F582741E3EF583E493FF74882BF582740C
:100AA300013AF583EFF00BBB00010AEB64104A70C7
:100AB300CEE4900180F0A3F0E490017EF0A3F090E7
:100AC300017EE0FEA3E0FFC39408EE6480948040BF
:100AD30003020BA97C007D0812018274807E00A8AA
:100AE30005088006CEA2E713CE13D8F8FF90018045
:100AF300E0FCA3E0FD2488F58274013CF583E0FB70
:100B03003395E05EFEEF5B4E604190017EE0FEA315
:100B1300E0FF900172E02FFB900171E03EFA90013B
:100B23007CE0FEA3E07803C333CE33CED8F92BFFAA
:100B3300EA3EFE900182F0A3EFF0900173E0FAA386
:100B4300E02DFDEC3AFC900178804790017EE0FEB9
:100B5300A3E0FF900172E02FFD900171E03EFC9055
:100B6300017CE0FEA3E07803C333CE33CED8F92D66
:100B7300FFEC3EFE900182F0A3EFF0900173E0FCE6
:100B8300A3E0FD900181E02DFD900180E03CFC900D
:100B9300017A1218A290017FE004F0700690017EA2
:100BA300E004F0020AC2900181E004F070069001B3
:100BB30080E004F0C3900181E09410900180E06430
:100BC3008094805003020ABB90017DE004F070061C
:100BD30090017CE004F0020A1322121C5E7F1112C2
:100BE3001C6C7F787E00121B677FB1121C6C7F0127
:100BF300121C3C7F2C121C3C7F2D121C3C7FB2121A
:100C03001C6C7F01121C3C7F2C121C3C7F2D121C80
:100C13003C7FB3121C6C7F01121C3C7F2C121C3CCA
:100C23007F2D121C3C7F01121C3C7F2C121C3C7F2D
:100C33002D121C3C7FB4121C6C7F07121C3C7FC01E
:100C4300121C6C7FA2121C3C7F02121C3C7F84127C
:100C53001C3C7FC1121C6C7FC5121C3C7FC2121C42
:100C63006C7F0A121C3CE4FF121C3C7FC3121C6CF9
:100C73007F8A121C3C7F2A121C3C7FC4121C6C7F8F
:100C83008A121C3C7FEE121C3C7FC5121C6C7F0E2B
:100C9300121C3C7F36121C6C7FC8121C3C7FE01276
:100CA3001C6C7F0F121C3C7F1A121C3C7F0F121C02
:100CB3003C7F18121C3C7F2F121C3C7F28121C3CCB
:100CC3007F20121C3C7F22121C3C7F1F121C3C7F86
:100CD3001B121C3C7F23121C3C7F37121C3CE4FF7D
:100CE300121C3C7F07121C3C7F02121C3C7F10121B
:100CF3001C3C7FE1121C6C7F0F121C3C7F1B121CDF
:100D03003C7F0F121C3C7F17121C3C7F33121C3C90
:100D13007F2C121C3C7F29121C3C7F2E121C3C7F13
:100D230030121C3C7F30121C3C7F39121C3C7F3F2D
:100D3300121C3CE4FF121C3C7F07121C3C7F031275
:100D43001C3C7F10121C3C121C357F02121C3CE41D
:100D5300FF121C3C7F82121C3C7F2B121C377F032B
:100D6300121C3CE4FF121C3C7F83121C3C7FF012DC
:100D73001C6C7F01121C3C7FF6121C377F3A121C3D
:100D83006C7F05121C3C7F29021C6C9001AAEEF0BB
:100D9300A3EFF0A3ECF0A3EDF0A3EBF0A3EAF0A331
:100DA300E9F0E4A3F0A3F09001AEE0FBA3E0FAA323
:100DB300E0F912000E9001B1E0FCA3E0FDC39FEC4B
:100DC3009E4003020F259001AEE0FBA3E0FAA3E0EF
:100DD300F98D828C83120155FFC394A140099001C0
:100DE300DBEFF0E4A3F0229001AEE0FBA3E0FAA373
:100DF300E0F9A3E0FEA3E0F5828E83120155FFE440
:100E0300FCFDFE7B10FAF9F81201E49001B712031E
:100E130012E4FBFA9001B7A3A3E0FEA3E02BFFEEDD
:100E23003AFE74852FF582741E3EF583E493FF74B6
:100E3300BB2BF58274013AF583EFF00BBB00010A7B
:100E4300EB64104A70CEE49001B5F0A3F0E4900196
:100E5300B3F0A3F09001B3E0FEA3E0FFC39408EE68
:100E6300648094804003020EEF7C007D08120182AF
:100E730074807E00A805088006CEA2E713CE13D89F
:100E8300F8FF9001B5E0FCA3E0FD24BBF5827401FB
:100E93003CF583E0FB3395E05EFEEF5B4E603C90F8
:100EA30001B3E0FEA3E0FF9001ABE02FFB9001AAAA
:100EB300E03EFA9001B1E0FEA3E07803C333CE3302
:100EC300CED8F92BFFEA3EFE9001ACE0FAA3E02D69
:100ED300FDEC3AFC7B007AF81218A79001B4E00409
:100EE300F070069001B3E004F0020E579001B6E0F3
:100EF30004F070069001B5E004F0C39001B6E094ED
:100F0300109001B5E0648094805003020E5090016C
:100F1300B2E004F06003020DAA9001B1E004F00214
:100F23000DAA22900107EEF0A3EFF0A3ECF0A3EDDE
:100F3300F0A3EAF0A3EBF0900114E4F0A3740FF034
:100F430090010FE0FBA3E0FAA3E0F912013C700368
:100F53000210B5C3948050030210A8E4900112F06C
:100F6300A3F0900114E0FEA3E0FF900112E0FCA3C4
:100F7300E0FDC39FEC9E400302108D90010FE0FB48
:100F8300A3E0FAA3E0F912013CFF901C8775F0225D
:100F9300ED12034FEC75F022A42583F583E4936FE0
:100FA300600302107C900001120155FF900112A30F
:100FB300E0901C8875F02212034FEC75F022A425F3
:100FC30083F583E4936F600302107C900107E0FADA
:100FD300A3E0FBFFAE02C006C007A3E0FCA3E0FD55
:100FE300EB240FFBE43AFA900109E0FEA3E0240F9F
:100FF300FFE43E90011CF0A3EFF0D007D0061219D6
:1010030091E4FBE4FA900112E0FEA3E0901C8975E1
:10101300F02212034FEE75F022A42583F583E582B7
:101023002BF582E43583F583E493FD3395E0FC747B
:10103300807E00A802088006CEA2E713CE13D8F85C
:10104300FFEE5CFEEF5D4E600590010B8017900193
:101053000DE0FEA3E0FF90010BE06E7003A3E06FD1
:10106300600B90010DE0FEA3E0FF121BA60AEA64E9
:101073000870920BEB6420708A900113E004F07007
:1010830006900112E004F0020F65900110E475F080
:10109300021201B8900108E02410F0900107E03437
:1010A30000F0020F43900110E475F0011201B80241
:1010B3000F4322C0E0C0F0C083C082C0D075D0000F
:1010C300C000C001C002C003C004C005C006C00701
:1010D300758C4C758A00E47F307E75FDFC900201AF
:1010E300E0F8A3E0F9A3E0FAA3E0FBC31203019045
:1010F3000201501EE0FCA3E0FDA3E0FEA3E02401F7
:10110300FFE43EFEE43DFDE43CFC900201120312C9
:10111300800712031E00000000E47B14FAF9F89024
:101123000201E0FCA3E0FDA3E0FEA3E0FF12026FD7
:10113300AC00AD01AE02AF03E4FBFAF9F8C312034E
:1011430001700590020804F0E47B0FFAF9F89002AD
:1011530001E0FCA3E0FDA3E0FEA3E0FF12026FACFD
:1011630000AD01AE02AF03E4FBFAF9F8C3120301C9
:10117300700590020904F0E47B28FAF9F890020163
:10118300E0FCA3E0FDA3E0FEA3E0FF12026FAC00CE
:10119300AD01AE02AF03E4FBFAF9F8C31203017029
:1011A3000590020704F0900205E0D394004005E0A7
:1011B30014F0800690020A7401F0900206E0D394C2
:1011C300004005E014F0800690020B7401F09000DB
:1011D30000E06018900083E0D394004005E014F031
:1011E300800A900000E4F090008104F0900085E014
:1011F3006018900084E0D394004005E014F0800A66
:10120300900085E4F090010604F0D007D006D005E5
:10121300D004D003D002D001D000D0D0D082D0836C
:10122300D0F0D0E032900107EBF0A3EAF0A3E9F0AD
:1012330090014C74FFF0A3742EF0A374BBF09001E3
:1012430007E0F9A3E0FAA3E090014FC9F0A3EAF0A5
:10125300A3E9F07B017A01790D12046D90014C74BE
:10126300FFF0A3742EF0A3748BF0A3E4F0A37464D3
:10127300F07BFF7A2E79CA121673EF60037FFA228E
:1012830090014C74FFF0A3742EF0A3748BF0A3E4CD
:10129300F0A37464F07BFF7A2E79D6121673EF6095
:1012A300037FF92290014C74FFF0A3742EF0A37412
:1012B3008BF0A3E4F0A374C8F07BFF7A2E79E712D6
:1012C3001673EF60037FF82290014C74FFF0A37450
:1012D3002EF0A3748BF0A3E4F0A37464F07BFF7A85
:1012E3002E79F2121673EF60037FF72290014C748C
:1012F300FFF0A3742FF0A37408F0A3E4F0A374C861
:10130300F07B017A01790D121673EF60037FF622E9
:1013130090014C74FFF0A3742FF0A3740AF0E4A3BC
:10132300F0A3F090010AE0FBA3E0FAA3E0F91216A0
:101333007390010D741AF0E4A3F090014C74FFF064
:10134300A3742FF0A3740BF0A37407F0A374D0F06D
:101353007B017A01790D121673EF7F0060027FF52E
:1013630022121C1F900208E060081217FAE4900290
:1013730008F0900209E0600812184EE4900209F0A8
:10138300900207E06008121B42E4900207F090010C
:10139300EFE0700302143B208502E4F0900081E04B
:1013A30060157B017A007901121946121B87E490BC
:1013B3000081F0900080F030813C90020AE06031BF
:1013C30090020CE0F9A3E0FAA3E090010AC9F0A3AC
:1013D300EAF0A3E9F0900212E0FBA3E0FAA3E0F93C
:1013E300121228EF600BE490020AF090020574C811
:1013F300F0D28302136720820302136790020BE08B
:10140300603190020FE0F9A3E0FAA3E090010AC96A
:10141300F0A3EAF0A3E9F0900212E0FBA3E0FAA341
:10142300E0F9121228EF600BE490020BF090020631
:1014330074C8F0D2830213672085069001EF74010C
:10144300F0900081E070030213677B017A00790159
:10145300121946E4900081F0900080F00213679027
:101463000155EBF0A3EAF0A3E9F0A3E0FBA3E0FA54
:10147300A3E0F912013C700302150E900155E0FB45
:10148300A3E0FAA3E0F912013C700302151A9001DC
:1014930058E0F9A3E0FAA3E0A3C9F0A3EAF0A3E9B3
:1014A300F0900155A3E0FAA3E0F990015EEBF0A3FD
:1014B300EAF0A3E9F090015BE0FBA3E0FAA3E0F913
:1014C30012013CFF602690015EE0FBA3E0FAA3E07B
:1014D300F912013C6F701590015C75F0011201B8AF
:1014E30090015FE475F0011201B880C990015BE0DF
:1014F300FBA3E0FAA3E0F912013C7002800D900116
:1015030056E475F0011201B802147E900155E0FB18
:10151300A3E0FAA3E0F9227B007A007900221216F5
:1015230058EF6009121658EF60037FFF2290014CB9
:1015330074FFF0A3742EF0A37499F0A37401F0A3C5
:101543007490F07BFF7A2E798E121673EF60037F0F
:10155300FE2290014C74FFF0A3742EF0A374AAF042
:10156300A37401F0A37490F07BFF7A2E799F121677
:1015730073EF605290015874FFF0A3742EF0A374BC
:10158300AEF07B017A007986121462E94A4B703619
:1015930090014C74FFF0A3742EF0A3748BF0A3E4BA
:1015A300F0A374C8F07BFF7A2E79B2121673EF7032
:1015B30012781F7C027D017B017A007995FE7F0200
:1015C3001201167FFD227F0022787FE4F6D8FD7595
:1015D3008121021613021364E493A3F8E493A34056
:1015E30003F68001F208DFF48029E493A3F854079B
:1015F300240CC8C333C4540F4420C8834004F45696
:10160300800146F6DFE4800B0102040810204080CD
:101613009018F6E47E019360BCA3FF543F30E509C4
:10162300541FFEE493A360010ECF54C025E060A8CD
:1016330040B8E493A3FAE493A3F8E493A3C8C58260
:10164300C8CAC583CAF0A3C8C582C8CAC583CADFCE
:10165300E9DEE780BE90014C74FFF0A3742EF0A383
:10166300748BF0A3E4F0A37464F07BFF7A2E798685
:10167300E4900151F0121AB590014CE0FBA3E0FA9B
:10168300A3E0F9EA494B6045A3E07002A3E0603DA3
:1016930090014F74FFF5F01201B845F060207F0A06
:1016A3007E00121BC0900106E060E590014CE0FB58
:1016B300A3E0FAA3E0F91219D4EA494B60D29001EE
:1016C3004FE07002A3E0700590015104F0900151C6
:1016D300E0FF2274FFFFFE121A4C74FF90010DF01D
:1016E300A3F0A3F0A3742FF0A37461F07B1F7A001F
:1016F3007D0A7C007F0F7E00120F2674FF90010D80
:10170300F0A3F0A3F0A3742FF0A3746EF0E4FBFA3C
:101713007D28FC7F05FE120F2674FF90010DF0A3B8
:10172300F0A3F0A3742FF0A37474F0E4FBFA7D50DC
:10173300FC7F05FE020F26C0E0C083C082C0D075C7
:10174300D008E59A30E03E539AFE900106E070051A
:1017530090008504F0900105E0C3947F501C900035
:10176300847401F0900105E0FF04F074862FF58284
:10177300E43400F583E59BF0800B9001067401F0DF
:10178300900105E4F0E59A30E105539AFDC20AD0D1
:10179300D0D082D083D0E032C0E0C083C082C0D03A
:1017A30075D000C00730983DC298900081E0700565
:1017B30090000004F0900080E0C3947F501C9000E0
:1017C300837401F0900080E0FF04F074012FF58230
:1017D300E43400F583E599F0800B9000817401F007
:1017E300900080E4F0309904C299C209D007D0D0A8
:1017F300D082D083D0E03230811990021E7401F080
:1018030074FF90010DF0A3F0A3F0A3742FF0A37461
:101813007A8016E490021EF074FF90010DF0A3F09D
:10182300A3F0A3742FF0A3747FF0E4FBFA7D28FCEC
:101833007F32FE120F26E490021BF0A3F0A3F07B8D
:10184300017A02791BFD7F05021A12308219900278
:101853001E7401F074FF90010DF0A3F0A3F0A374C4
:101863002FF0A374848016E490021EF074FF90019D
:101873000DF0A3F0A3F0A3742FF0A3748CF0E4FB9A
:10188300FA7D50FC7F32FE120F26E490021BF0A378
:10189300F0A3F07B017A02791BFD7F07021A12E0A5
:1018A300FAA3E0FB900215EEF0A3EFF0900219EA21
:1018B300F0A3EBF0900217ECF0A3EDF0900215E02B
:1018C300FAA3E0FFAE02C006C0072401FBE43AFA24
:1018D300A3E0FEA3E02401FFE43E90011CF0A3EF8C
:1018E300F0D007D006121991900219E0FEA3E0FF91
:1018F300021BA64102080041020900410207004100
:10190300020A014102050041020B014102060041A6
:1019130001EF005201DDEECC000000000000006A80
:1019230000000000000000FF4100810041010600AB
:10193300430212FF2F1243020CFF2F3F43020FFFFC
:101943002F500012013C64EE7043900001120155C8
:1019530064CC7039900011120155F4703090000975
:10196300120155FFB42A0A9000101201559001EF9D
:10197300F0EFB4801890000A12015524EE700E9017
:101983000010120155D2839002077401F0229001D6
:1019930016EEF0A3EFF0121C35900116A3E024021B
:1019A300FF121C3CE4FF121C3CEB2402FF121C3C04
:1019B3007F2B121C37ED2403FF121C3CE4FF121C87
:1019C3003C90011CA3E02403FF121C3C7F2C021C4F
:1019D3006C900152EBF0A3EAF0A3E9F07B007A00EC
:1019E3007900900106E06026900152E0F9A3E0FA45
:1019F300A3E0900158C9F0A3EAF0A3E9F00B7A0041
:101A03007986121462E4900106F0900105F02290A9
:101A130001E8EDF012013C9001EAF090000112019F
:101A2300559001EBF09000021201559001ECF090FB
:101A330000031201559001EDF09001E7EFF07B01F7
:101A43007A0179DD7D12021AE8900107EEF0A3EF27
:101A5300F090011CE4F0A3747FF0FB7A00E4FDFC3A
:101A6300FFFE121991E4FBE4FA900107E0FEA3E004
:101A7300FF121BA60AEAB480F00BEBB480E92290B4
:101A83000223EBF0A3EAF0A3E9F0900223E0FBA327
:101A9300E0FAA3E0F912013C6017900223A3E47576
:101AA300F0011201CEA9F0FA12013CFF12000380EB
:101AB300D922900152EBF0A3EAF0A3E9F09001528E
:101AC300E0FBA3E0FAA3E0F912013C601790015296
:101AD300A3E475F0011201CEA9F0FA12013CFF1242
:101AE3001C7F80D922900107EBF0A3EAF0A3E9F071
:101AF300E4FEEEC39D501A900107E0FBA3E0FAA3B6
:101B0300E0F98E82758300120155FF1200030E80E7
:101B1300E122900226EBF0A3EAF0A3E9F0E4FEEE63
:101B2300C39D501A900226E0FBA3E0FAA3E0F98ECE
:101B330082758300120155FF121C7F0E80E1223053
:101B4300830890021E7401F08005E490021EF0E405
:101B530090021BF0A3F0A3F07B017A02791BFD7FB7
:101B630012021A12E4FDFCC3ED9FEC9E5015E4FB38
:101B7300FA0BBB00010AEB64FA4A70F50DBD0001D4
:101B83000C80E422E4FFFE74012FF58274003EF51D
:101B930083E4F0900080F00FBF00010EEF647F4EEE
:101BA30070E522AD07AC06E4900116F0C2A0D2A204
:101BB300ECFF121C08AF05121C08D2A022AD07AC23
:101BC30006D3ED9400EC9400400A121C76ED1D70D0
:101BD300F01C80ED22438E08E59A543F4440F59A69
:101BE300439A10438E10759CFA43AF0122E4FF74AD
:101BF300862FF582E43400F583E4F0900105F00FBD
:101C0300EFB47FEB227E08EF30E704D2A38002C259
:101C1300A3C2A5D2A5EF25E0FFDEEC221200261217
:101C23001BD8121C4B120BDD1216D6121521EF70A6
:101C3300FA227F2A121C6CE4FFE490011EF0C2A07A
:101C4300D2A2121C08D2A0225389F0438901758CB9
:101C53004CE4F58AD28CD2A9D2AF22C2A17F647E92
:101C630000121B67D2A1021B67C2A0C2A2121C08EA
:101C7300D2A0227F0C7EA9DEFEDFFC228F9BD20A3C
:101C8300200AFD22B3B50200020002007FFC04001B
:101C93000900110021003FF801000100FFFE0100CF
:101CA300010001000100C1BE200023FE2050FC50B2
:101CB300405053FE9252FE52125212AA1EA6F30233
:101CC30052021202120A1204B7C000407C204420C0
:101CD3004BFE48805080488048FC448444844484BC
:101CE30068845104410442284410B5C140802080D7
:101CF30009FC12042448E04020A023182C0600000D
:101D03003FF8244824482448FFFE0000CFB500F8DC
:101D13003F000400082010403F800100061018080F
:101D23007FFC010409201110210845040200CDB3F2
:101D330010401020202023FE4840F888110423FE81
:101D43004092F890409000901912E112420E040064
:101D5300C8CB010001000100010001000100028065
:101D6300028004400440082008201010200840048A
:101D73008002CCE5084008400840104017FC304082
:101D830030E050E091501150124815F418421040C1
:101D930010401040D5F03FF801007FFE41029D74D2
:101DA30001001D7000003FFC20002FF820003FFCC5
:101DB30024484430860EB6AF004000407C400040CB
:101DC30001FC0044FE44204420442084488444848D
:101DD300FD04450402280410BCEC1040104010A080
:101DE30010A0FD10120835F6380054885048924868
:101DF30011501110102017FE1000B2E2000427C486
:101E030014441454855445544554155415542554B9
:101E1300E55421042284224424140808D3D0020068
:101E23000200FFFE040004000FF0081018102FF04A
:101E3300481088100FF00810081008500820CEDE54
:101E430000003FF002000200020002007FFC048059
:101E5300048004800880088010842084407C8000F3
:101E63003A00000000000000000000000000000035
:101E7300000000003000300000003000300000009F
:101E8300000000000000000000000000000000004F
:101E9300000000000000000000000000000000003F
:101EA300000000000000000000000000000000002F
:101EB300000000000000000000000000000000001F
:101EC300000000000000000000000000000000000F
:101ED30000000000000000000000000000000000FF
:101EE30000000000000000000000000000000000EF
:101EF30000000000000000000000000000000000DF
:101F030000000000001808C80808000000000000D6
:101F1300000000007F6060606060606060E06020DF
:101F230000000000000000000000000000000000AE
:101F33000000000018181810101000000000000026
:101F4300000000000000000000000808080C0C0C52
:101F5300000000000000000000000000000000007E
:101F6300000000006C3810007CC6701CC67C0000AA
:101F73000000000010386C00780C7CCCCC7600009C
:101F830000000000000000007CC670C0C67C00009A
:101F930000000000000000006C967CD0D66C0000AE
:101FA30000000000000000007CC60606C67C00009E
:101FB3000000000000386CC6C6FEC6C66C380000C0
:101FC300000000000000001038286C44C6C6000062
:101FD30000000000000000007CC606FEC67C000076
:101FE3000000000000000000DC666666F606066678
:101FF3003C000000006C38F80C7EC6C6C67C0000AE
:1020030000000000000E1B18181818181818D870B4
:1020130000000000000000FE860C180C0606C67CBB
:102023000000000076DC0000780C7CCCCC7600004D
:102033000000000076DC00007CC60606C67C0000BB
:102043000000000076DC0000DC6666666666000061
:10205300000000000000000076999F98996F00002F
:10206300000000000000000000000000000C060655
:102073000000000000000000000000003C66663C19
:10208300000000000000000000000000000000004D
:102093000000000000183C3C3C1818001818000011
:1020A30000000000C6C6C644000000000000000097
:1020B30000000000006C6CFE6C6C6CFE6C6C00002D
:1020C30000000018187CC6C2C07C0686C67C18189F
:1020D30000000000000000C3C60C183063C30000FA
:1020E3000000000000386C6C3876DCCCCC76000045
:1020F30000000000303030600000000000000000ED
:10210300000000000018306060606060301800005C
:102113000000000000180C06060606060C18000056
:10212300000000000000006C38FE386C0000000066
:102133000000000000001818187E1818180000008E
:102143000000000000000000000000181818300014
:10215300000000000000000000FE0000000000007E
:10216300000000000000000000000000181800003C
:10217300000000000002060C183060C08000000060
:1021830000000000007CC6CEDEF6E6C6C67C00007A
:10219300000000000018387818181818187E00007E
:1021A30000000000007CC6060C183060C6FE00006C
:1021B30000000000007CC606063C0606C67C000044
:1021C30000000000000C1C3C6CCCFE0C0C1E00003C
:1021D3000000000000FEC0C0C0FC0606C67C000074
:1021E30000000000003860C0C0FCC6C6C67C00000A
:1021F3000000000000FEC6060C183030303000002E
:1022030000000000007CC6C6C67CC6C6C67C0000B3
:1022130000000000007CC6C6C67E06060C780000DF
:10222300000000000000181800000018180000004B
:10223300000000000000181800000018183000000B
:102243000000000000060C18306030180C06000077
:1022530000000000000000007E00007E000000007F
:1022630000000000006030180C060C1830600000FD
:1022730000000000007CC6C60C18180018180000E7
:1022830000000000007CC6C6DEDEDEDCC07C000091
:10229300000000000010386CC6C6FEC6C6C60000AB
:1022A3000000000000FC6666667C666666FC000053
:1022B30000000000003C66C2C0C0C0C2663C000013
:1022C3000000000000F86C66666666666CF8000045
:1022D3000000000000FE66626878686266FE000027
:1022E3000000000000FE66626878686060F000002D
:1022F30000000000003C66C2C0C0DEC6663A0000B3
:102303000000000000C6C6C6C6FEC6C6C6C600009C
:1023130000000000003C181818181818183C00009A
:1023230000000000001E0C0C0C0C0CCCCC78000040
:102333000000000000E6666C6C786C6C66E60000DA
:102343000000000000F060606060606266FE0000F4
:102353000000000000C6EEFED6C6C6C6C6C6000014
:102363000000000000C6E6F6FEDECEC6C6C60000CC
:102373000000000000386CC6C6C6C6C66C38000034
:102383000000000000FC6666667C606060F0000090
:1023930000000000007CC6C6C6D6DE7C0C0E000022
:1023A3000000000000FC6666667C6C6666E6000062
:1023B30000000000007CC6C660380CC6C67C000066
:1023C30000000000007E5A1818181818183C000066
:1023D3000000000000C6C6C6C6C6C6C6C67C00004E
:1023E3000000000000C6C6C6C6C6C66C3810000092
:1023F3000000000000C6C6C6C6C6D6FEEEC6000074
:102403000000000000C6C6C66C386CC6C6C6000015
:102413000000000000C6C6C66C383838387C00009F
:102423000000000000FEC68C183060C2C6FE00002B
:1024330000000000003C303030303030303C0000D1
:10244300000000000080C0E070381C0E060200008F
:1024530000000000003C0C0C0C0C0C0C0C3C0000AD
:1024630000000010386CC6000000000000000000EF
:10247300000000000000000000000000000000FE5B
:1024830000000000303018000000000000000000D1
:102493000000000000000000780C7CCCCC7600002B
:1024A3000000000000E06060786C666666DC000097
:1024B30000000000000000007CC6C0C0C67C000015
:1024C30000000000001C0C0C3C6CCCCCCC76000053
:1024D30000000000000000007CC6FEC0C67C0000B7
:1024E30000000000001C3632307C303030780000B1
:1024F300000000000000000076CCCCCC7C0CCC7833
:102503000000000000E060606C76666666E600002E
:10251300000000000018180038181818183C0000B4
:1025230000000000000606000E0606060666663C6E
:102533000000000000E06060666C786C66E60000F6
:10254300000000000038181818181818183C00006C
:10255300000000000000000044FED6D6D6D60000DE
:102563000000000000000000DC666666666600008E
:1025730000000000000000007CC6C6C6C67C000048
:102583000000000000000000DC6666667C6060F00E
:10259300000000000000000076CCCCCC7C0C0C1EAC
:1025A3000000000000000000DC76666060F00000C0
:1025B30000000000000000007CC6701CC67C000008
:1025C3000000000000103030FC303030361C0000BA
:1025D3000000000000000000CCCCCCCCCC76000086
:1025E3000000000000000000C6C6C66C38100000E2
:1025F3000000000000000000C6C6C6D6FE6C000046
:102603000000000000000000C66C38386CC60000F3
:102613000000000000000000C6C6C6C67E060C7897
:102623000000000000000000FECC183066FE000031
:1026330000000000000E181818701818180E00007B
:1026430000000000001818181800181818180000C7
:102653000000000000701818180E181818700000F9
:10266300000000000076DC00000000000000000015
:102673000000000000000000000000000000000057
:102683000000000000000000000000000000000047
:102693000000000000000000000000000000000037
:1026A3000000000000000000000000000000000027
:102E830000000041540D0A004F4B0041542B4350A6
:102E9300494E3F0D0A0052454144590041542B43CA
:102EA3005245473F0D0A00302C3100302C3500418C
:102EB300542B4353510D0A0041542B434D47533D6B
:102EC300222573220D0A0041542B434D47463D31C1
:102ED3000D0A0041542B435343533D225543533270
:102EE300220D0A0041542B435343413F0D0A004135
:102EF300542B43534D503D31372C3136372C302C26
:102F030032340D0A003E00002B434D47533A003044
:102F13003033313030333830303331303033343094
:102F23003033313030333930303332303033313085
:102F3300303336303033363030333100344542416C
:102F43003534353836324135384236360039373044
:102F53003735324138363241353842363600B3B52B
:102F6300C1BEB7C0B5C1CFB5CDB300C8CBCCE53A70
:102F730000D5F0B6AF3A00D3D0C8CB00CEDEC8CB75
:102F830000D3D0D5F0B6AF3A00CEDED5F0B6AF3A27
:012F9300003D
:00000001FF
