:1000000002157C8F99D2092009FD220210B6E4FF67
:10001000FE12013C600C0FEF70010E09E970F20A4C
:1000200080EF2202174B75985053890F4389207532
:100030008DFA758BFA438780D2ACD28ED29CD2AF28
:01004000229D
:100043000216EAE709F608DFFA8046E709F208DF55
:10005300FA803E88828C83E709F0A3DFFA8032E3DB
:1000630009F608DFFA8078E309F208DFFA8070887E
:10007300828C83E309F0A3DFFA806489828A83E0B8
:10008300A3F608DFFA805889828A83E0A3F208DFA7
:10009300FA804C80D280FA80C680D4806980F28056
:1000A30033801080A680EA809A80A880DA80E2807C
:1000B300CA803389828A83ECFAE493A3C8C582C8D1
:1000C300CCC583CCF0A3C8C582C8CCC583CCDFE93B
:1000D300DEE7800D89828A83E493A3F608DFF9ECD7
:1000E300FAA9F0EDFB2289828A83ECFAE0A3C8C562
:1000F30082C8CCC583CCF0A3C8C582C8CCC583CC89
:10010300DFEADEE880DB89828A83E493A3F208DFF7
:10011300F980CC88F0EF60010E4E60C388F0ED24C7
:1001230002B4040050B9F582EB2402B4040050AFCA
:10013300232345822390009673BB010689828A8319
:10014300E0225002E722BBFE02E32289828A83E493
:100153009322BB010CE58229F582E5833AF583E01E
:10016300225006E92582F8E622BBFE06E92582F83D
:10017300E222E58229F582E5833AF583E49322C2FC
:10018300D5EC30E709B2D5E4C39DFDE49CFCEE3029
:10019300E715B2D5E4C39FFFE49EFE12036DC3E4EB
:1001A3009DFDE49CFC800312036D30D507C3E49FDF
:1001B300FFE49EFE22C5F0F8A3E028F0C5F0F8E5C1
:1001C30082158270021583E038F022A3F8E0C5F0AF
:1001D30025F0F0E582158270021583E0C838F0E857
:1001E30022E88FF0A4CC8BF0A42CFCE98EF0A42C95
:1001F300FC8AF0EDA42CFCEA8EF0A4CDA8F08BF0E1
:10020300A42DCC3825F0FDE98FF0A42CCD35F0FCDE
:10021300EB8EF0A4FEA9F0EB8FF0A4CFC5F02ECDAA
:1002230039FEE43CFCEAA42DCE35F0FDE43CFC228F
:1002330075F008758200EF2FFFEE33FECD33CDCC82
:1002430033CCC58233C5829BED9AEC99E582984005
:100253000CF582EE9BFEED9AFDEC99FC0FD5F0D6E2
:10026300E4CEFBE4CDFAE4CCF9A88222B800C1B90C
:100273000059BA002DEC8BF084CFCECDFCE5F0CB4A
:10028300F97818EF2FFFEE33FEED33FDEC33FCEB83
:1002930033FB10D703994004EB99FB0FD8E5E4F93E
:1002A300FA227818EF2FFFEE33FEED33FDEC33FC2B
:1002B300C933C910D7059BE99A4007EC9BFCE99A1F
:1002C300F90FD8E0E4C9FAE4CCFB2275F010EF2F64
:1002D300FFEE33FEED33FDCC33CCC833C810D70764
:1002E3009BEC9AE899400AED9BFDEC9AFCE899F89F
:1002F3000FD5F0DAE4CDFBE4CCFAE4C8F922EB9FA6
:10030300F5F0EA9E42F0E99D42F0E89C45F022ECCC
:10031300F0A3EDF0A3EEF0A3EFF022A8828583F023
:10032300D083D082120335120335120335120335FD
:10033300E473E493A3C583C5F0C583C8C582C8F03D
:10034300A3C583C5F0C583C8C582C822A42582F589
:1003530082E5F03583F58322BB010689828A83F027
:10036300225002F722BBFE01F322BC000BBE002980
:10037300EF8DF084FFADF022E4CCF875F008EF2F99
:10038300FFEE33FEEC33FCEE9DEC984005FCEE9D56
:10039300FE0FD5F0E9E4CEFD22EDF8F5F0EE842072
:1003A300D21CFEADF075F008EF2FFFED33FD4007D3
:1003B300985006D5F0F222C398FD0FD5F0EA22F843
:1003C300E0FBA3A3E0F925F0F0E5821582700215A6
:1003D30083E0FA38F022EBF0A3EAF0A3E9F022D0AD
:1003E30083D082F8E4937012740193700DA3A393E6
:1003F300F8740193F5828883E4737402936860EF61
:10040300A3A3A380DFE510244CF582E43401F58334
:10041300E005102290014930070390014CE475F088
:10042300011203C202013C2000E97F2ED200801892
:10043300EF540F2490D43440D4FF30040BEF24BF87
:10044300B41A0050032461FFE5116002151105146D
:10045300E5147002051330070E900149E475F001AD
:100463001203C2EF02035B0200037403D20780038B
:10047300E4C207F5109001491203D9E4F511F5130D
:10048300F514E51160077F2012044B80F57512FF08
:10049300C201C200C202C203C205C206C2081204DC
:1004A30017FF700D3007057F0012045CAF14AE1305
:1004B30022B4255FC2D5C204120417FF24D0B40AA4
:1004C30000501A75F00A781130D50508B6FF0106F9
:1004D300C6A426F620D5047002D20380D924CFB453
:1004E3001A00EF5004C2E5D20402065DD20180C6B1
:1004F300D20080C0D20280BCD2D580BAD20580B4EB
:100503007F2012044B2002077401B5110040F11241
:100513000408FF12044B020485D208D20680951208
:100523000408FB120408FA120408F94A4B7006790E
:100533002E7A077BFF20022EE511602A7E008E8231
:1005430075830012015560060EEE651270F0C2D578
:10055300EBC0E0EAC0E0E9C0E0EE1206A4D0E0F9A7
:10056300D0E0FAD0E0FB12013CFF60AAEBC0E0EA66
:10057300C0E0E9C0E012044BD0E02401F9D0E0343C
:1005830000FAD0E0FBE5120460DCD512D980877B4A
:10059300FF7A0679A0D202809C791080027908C282
:1005A30006C2088008D2D5790A8004790AC2D5E543
:1005B30012047002F512E4FAFDFEFF120408FC7B3C
:1005C30008200113120408FD7B1030000A120408EE
:1005D300FE120408FF7B20EC3382D592D55013C35F
:1005E300E43000069FFFE49EFEE42001039DFDE44A
:1005F3009CFCE4CBF8C201EC700CCFCECDCCE8244C
:10060300F8F870F38017C3EF33FFEE33FEED33FDDD
:10061300EC33FCEB33FB994002FB0FD8E9EB3001E1
:1006230005F8D0E0C448B201C0E00AEC4D4E4F7863
:10063300207B0070C2EAB5120040BCC0E01206A6DF
:10064300D0F0D0E0200104C4C0E0C4B201C0F01275
:100653000434D0F0D5F0EB0204851203E2052253F3
:10066300059C5804F34C04EF4205A04F05A844052C
:10067300A84905084305AE550592460592450592DE
:1006830047074E5004F72D04FB2E051E2B04FF23B2
:10069300051C2007372A04B748000005163F3F3FD3
:1006A30000790AA2D5200314300509B91002040405
:1006B300B9080104A2D52006025001042002689261
:1006C30002B511005034C0E07F203003197F30A2FF
:1006D3000272067205500F1206FDC202C206C2055F
:1006E300C2087F30800F300503E9C0E012044B30AD
:1006F3000503D0E0F9D0E0B511CC3005177F30B950
:10070300100C12044B7F583004077F788003B9081C
:100713000312044B3002057F2D02044B7F20200877
:10072300F87F2B2006F322920280CF286E756C6C23
:100733002900D2011204083001F8C201781130D522
:100743000108F60204B72D50434958120408240344
:10075300B405004001E49007499312043C743A1233
:10076300043CD20375110402059C9001DFECF0A355
:10077300EDF0A3EAF0A3EBF09001DDEEF0A3EFF0D0
:100783009001ECEEF0A3EFF09001E5E0FBA3E0FABB
:10079300A3E0F912013C70030209F4C394805003EF
:1007A3000209E7E49001EAF0A3F09001EAE0FEA376
:1007B300E0FFC3941CEE940040030209CC9001E5D2
:1007C300E0FBA3E0FAA3E0F912013CFD901C0875DD
:1007D300F022EF12034FEE75F022A42583F583E494
:1007E300936D60030209BB900001120155FF900154
:1007F300EAE0FCA3E0901C0975F02212034FEC75AC
:10080300F022A42583F583E4936F60030209BB9070
:1008130001E8F0E49001E9F09001EAE0FEA3E09042
:100823001C0A75F02212034FEE75F022A42583F5FE
:1008330083C083C0829001E8E0FDD082D08375F04D
:100843000212034FE493FB3395E0FA9001E9E0FCD5
:1008530074807E00A804088006CEA2E713CE13D8C6
:10086300F8FFEE5AFEEF5B4E6021ECFF9001DEE0F5
:100873002FFF9001DDE03400FE9001E0E02DFD90BC
:1008830001DFE03400FC9001E1803B9001E3E0FEF6
:10089300A3E0FF9001E1E06E7003A3E06F602A9094
:1008A30001E9E0FF9001DEE02FFF9001DDE034007D
:1008B300FE9001E8E0FD9001E0E02DFD9001DFE016
:1008C3003400FC9001E31218529001E9E004F0E0D7
:1008D300C39408500302081BE49001E9F09001EA75
:1008E300E0FEA3E0901C0B75F02212034FEE75F0AF
:1008F30022A42583F583C083C0829001E8E0FDD064
:1009030082D08375F00212034FE493FB3395E0FA30
:100913009001E9E0FC74807E00A804088006CEA262
:10092300E713CE13D8F8FFEE5AFEEF5B4E6027ECC9
:10093300FF9001DEE02FFF9001DDE03400CF2408BB
:10094300CF3400FE9001E0E02DFD9001DFE03400A4
:10095300FC9001E180419001E3E0FEA3E0FF900100
:10096300E1E06E7003A3E06F60309001E9E0FF9077
:1009730001DEE02FFF9001DDE03400CF2408CF3407
:1009830000FE9001E8E0FD9001E0E02DFD9001DF25
:10099300E03400FC9001E31218529001E9E004F006
:1009A300E0C3940850030208E09001E8E004F0E09B
:1009B300C3941050030208169001EBE004F0700694
:1009C3009001EAE004F00207AD9001E6E475F0025D
:1009D3001201B89001DEE02410F09001DDE0340054
:1009E300F002078B9001E6E475F0011201B80207EB
:1009F3008B22900171EEF0A3EFF0A3ECF0A3EDF0E6
:100A0300A3EBF0A3EAF0A3E9F0E490017CF0A3F0F8
:100A1300900175E0FBA3E0FAA3E0F912000E900148
:100A23007CE0FCA3E0FDC39FEC9E4003020BDC9043
:100A33000175E0FBA3E0FAA3E0F98D828C83120138
:100A430055FFC394A140099001A8EFF0E4A3F0225D
:100A5300900175E0FBA3E0FAA3E0F990017CE0FECE
:100A6300A3E0F5828E83120155FFE4FCFDFE7B10AB
:100A7300FAF9F81201E4900184120312E4FBFA90EC
:100A83000184A3A3E0FEA3E02BFFEE3AFE74062F3E
:100A9300F582741E3EF583E493FF74882BF582740C
:100AA300013AF583EFF00BBB00010AEB64104A70C7
:100AB300CEE4900180F0A3F0E490017EF0A3F090E7
:100AC300017EE0FEA3E0FFC39408EE6480948040BF
:100AD30003020BA97C007D0812018274807E00A8AA
:100AE30005088006CEA2E713CE13D8F8FF90018045
:100AF300E0FCA3E0FD2488F58274013CF583E0FB70
:100B03003395E05EFEEF5B4E604190017EE0FEA315
:100B1300E0FF900172E02FFB900171E03EFA90013B
:100B23007CE0FEA3E07803C333CE33CED8F92BFFAA
:100B3300EA3EFE900182F0A3EFF0900173E0FAA386
:100B4300E02DFDEC3AFC900178804790017EE0FEB9
:100B5300A3E0FF900172E02FFD900171E03EFC9055
:100B6300017CE0FEA3E07803C333CE33CED8F92D66
:100B7300FFEC3EFE900182F0A3EFF0900173E0FCE6
:100B8300A3E0FD900181E02DFD900180E03CFC900D
:100B9300017A12185290017FE004F0700690017EF2
:100BA300E004F0020AC2900181E004F070069001B3
:100BB30080E004F0C3900181E09410900180E06430
:100BC3008094805003020ABB90017DE004F070061C
:100BD30090017CE004F0020A1322121BDF7F111242
:100BE3001BED7F787E00121AE87FB1121BED7F01A7
:100BF300121BBD7F2C121BBD7F2D121BBD7FB2129A
:100C03001BED7F01121BBD7F2C121BBD7F2D121B01
:100C1300BD7FB3121BED7F01121BBD7F2C121BBDC9
:100C23007F2D121BBD7F01121BBD7F2C121BBD7FAD
:100C33002D121BBD7FB4121BED7F07121BBD7FC09E
:100C4300121BED7FA2121BBD7F02121BBD7F8412FC
:100C53001BBD7FC1121BED7FC5121BBD7FC2121BC3
:100C6300ED7F0A121BBDE4FF121BBD7FC3121BEDF8
:100C73007F8A121BBD7F2A121BBD7FC4121BED7F0F
:100C83008A121BBD7FEE121BBD7FC5121BED7F0EAB
:100C9300121BBD7F36121BED7FC8121BBD7FE012F6
:100CA3001BED7F0F121BBD7F1A121BBD7F0F121B83
:100CB300BD7F18121BBD7F2F121BBD7F28121BBDCA
:100CC3007F20121BBD7F22121BBD7F1F121BBD7F06
:100CD3001B121BBD7F23121BBD7F37121BBDE4FFFD
:100CE300121BBD7F07121BBD7F02121BBD7F10129B
:100CF3001BBD7FE1121BED7F0F121BBD7F1B121B60
:100D0300BD7F0F121BBD7F17121BBD7F33121BBD8F
:100D13007F2C121BBD7F29121BBD7F2E121BBD7F93
:100D230030121BBD7F30121BBD7F39121BBD7F3FAD
:100D3300121BBDE4FF121BBD7F07121BBD7F0312F5
:100D43001BBD7F10121BBD121BB67F02121BBDE41D
:100D5300FF121BBD7F82121BBD7F2B121BB87F03AB
:100D6300121BBDE4FF121BBD7F83121BBD7FF0125C
:100D73001BED7F01121BBD7FF6121BB87F3A121BBE
:100D8300ED7F05121BBD7F29021BED9001AAEEF03A
:100D9300A3EFF0A3ECF0A3EDF0A3EBF0A3EAF0A331
:100DA300E9F0E4A3F0A3F09001AEE0FBA3E0FAA323
:100DB300E0F912000E9001B1E0FCA3E0FDC39FEC4B
:100DC3009E4003020F259001AEE0FBA3E0FAA3E0EF
:100DD300F98D828C83120155FFC394A140099001C0
:100DE300DBEFF0E4A3F0229001AEE0FBA3E0FAA373
:100DF300E0F9A3E0FEA3E0F5828E83120155FFE440
:100E0300FCFDFE7B10FAF9F81201E49001B712031E
:100E130012E4FBFA9001B7A3A3E0FEA3E02BFFEEDD
:100E23003AFE74062FF582741E3EF583E493FF7435
:100E3300BB2BF58274013AF583EFF00BBB00010A7B
:100E4300EB64104A70CEE49001B5F0A3F0E4900196
:100E5300B3F0A3F09001B3E0FEA3E0FFC39408EE68
:100E6300648094804003020EEF7C007D08120182AF
:100E730074807E00A805088006CEA2E713CE13D89F
:100E8300F8FF9001B5E0FCA3E0FD24BBF5827401FB
:100E93003CF583E0FB3395E05EFEEF5B4E603C90F8
:100EA30001B3E0FEA3E0FF9001ABE02FFB9001AAAA
:100EB300E03EFA9001B1E0FEA3E07803C333CE3302
:100EC300CED8F92BFFEA3EFE9001ACE0FAA3E02D69
:100ED300FDEC3AFC7B007AF81218579001B4E00459
:100EE300F070069001B3E004F0020E579001B6E0F3
:100EF30004F070069001B5E004F0C39001B6E094ED
:100F0300109001B5E0648094805003020E5090016C
:100F1300B2E004F06003020DAA9001B1E004F00214
:100F23000DAA22900107EEF0A3EFF0A3ECF0A3EDDE
:100F3300F0A3EAF0A3EBF0900114E4F0A3740FF034
:100F430090010FE0FBA3E0FAA3E0F912013C700368
:100F53000210B5C3948050030210A8E4900112F06C
:100F6300A3F0900114E0FEA3E0FF900112E0FCA3C4
:100F7300E0FDC39FEC9E400302108D90010FE0FB48
:100F8300A3E0FAA3E0F912013CFF901C0875F022DC
:100F9300ED12034FEC75F022A42583F583E4936FE0
:100FA300600302107C900001120155FF900112A30F
:100FB300E0901C0975F02212034FEC75F022A42572
:100FC30083F583E4936F600302107C900107E0FADA
:100FD300A3E0FBFFAE02C006C007A3E0FCA3E0FD55
:100FE300EB240FFBE43AFA900109E0FEA3E0240F9F
:100FF300FFE43E90011CF0A3EFF0D007D0061219D6
:1010030037E4FBE4FA900112E0FEA3E0901C0A75BA
:10101300F02212034FEE75F022A42583F583E582B7
:101023002BF582E43583F583E493FD3395E0FC747B
:10103300807E00A802088006CEA2E713CE13D8F85C
:10104300FFEE5CFEEF5D4E600590010B8017900193
:101053000DE0FEA3E0FF90010BE06E7003A3E06FD1
:10106300600B90010DE0FEA3E0FF121B270AEA6468
:101073000870920BEB6420708A900113E004F07007
:1010830006900112E004F0020F65900110E475F080
:10109300021201B8900108E02410F0900107E03437
:1010A30000F0020F43900110E475F0011201B80241
:1010B3000F4322C0E0C0F0C083C082C0D075D0000F
:1010C300C000C001C002C003C004C005C006C00701
:1010D300758C4C758A00E47F307E75FDFC9001FDB4
:1010E300E0F8A3E0F9A3E0FAA3E0FBC31203019045
:1010F30001FD501EE0FCA3E0FDA3E0FEA3E02401FC
:10110300FFE43EFEE43DFDE43CFC9001FD120312CE
:10111300800712031E00000000E47B14FAF9F89024
:1011230001FDE0FCA3E0FDA3E0FEA3E0FF12026FDC
:10113300AC00AD01AE02AF03E4FBFAF9F8C312034E
:1011430001700590020404F0E47B0FFAF9F89001B2
:10115300FDE0FCA3E0FDA3E0FEA3E0FF12026FAC01
:1011630000AD01AE02AF03E4FBFAF9F8C3120301C9
:10117300700590020504F0900201E0D3940040054D
:10118300E014F080069002067401F0900202E0D3AE
:1011930094004005E014F080069002077401F0907B
:1011A3000000E06018900083E0D394004005E01451
:1011B300F0800A900000E4F090008104F090008534
:1011C300E06018900084E0D394004005E014F080C0
:1011D3000A900085E4F090010604F0D007D006D011
:1011E30005D004D003D002D001D000D0D0D082D01B
:1011F30083D0F0D0E032900107EBF0A3EAF0A3E94B
:10120300F090014C74FFF0A3742EF0A3743CF090A3
:101213000107E0F9A3E0FAA3E090014FC9F0A3EAC4
:10122300F0A3E9F07B017A01790D12046D90014C72
:1012330074FFF0A3742EF0A3740CF0A3E4F0A37472
:1012430064F07BFF7A2E794B121623EF60037FFA4B
:101253002290014C74FFF0A3742EF0A3740CF0A33E
:10126300E4F0A37464F07BFF7A2E7957121623EF10
:1012730060037FF92290014C74FFF0A3742EF0A356
:10128300740CF0A3E4F0A374C8F07BFF7A2E7968A2
:10129300121623EF60037FF82290014C74FFF0A332
:1012A300742EF0A3740CF0A3E4F0A37464F07BFF3A
:1012B3007A2E7973121623EF60037FF72290014C85
:1012C30074FFF0A3742EF0A37489F0A3E4F0A37465
:1012D300C8F07B017A01790D121623EF60037FF6C4
:1012E3002290014C74FFF0A3742EF0A3748BF0E4EE
:1012F300A3F0A3F090010AE0FBA3E0FAA3E0F91244
:10130300162390010D741AF0E4A3F090014C74FFBE
:10131300F0A3742EF0A3748CF0A37407F0A374D01D
:10132300F07B017A01790D121623EF7F0060027FB3
:10133300F522121BA0900204E060081217AAE490A1
:101343000204F0900205E060081217FEE490020523
:10135300F09001FCE070030213F4900081E060154B
:101363007B017A0079011218F2121B08E4900081C4
:10137300F0900080F0308136900206E060B7900272
:1013830008E0F9A3E0FAA3E090010AC9F0A3EAF0A8
:10139300A3E9F090020EE0FBA3E0FAA3E0F9121137
:1013A300F9EF6091E4900206F0900201803D3082F3
:1013B30084900207E0700302133890020BE0F9A354
:1013C300E0FAA3E090010AC9F0A3EAF0A3E9F090E0
:1013D300020EE0FBA3E0FAA3E0F91211F9EF7003A8
:1013E300021338E4900207F090020274C8F002136B
:1013F30038900081E070030213387B017A00790191
:101403001218F2E4900081F0900080F002133890FB
:101413000155EBF0A3EAF0A3E9F0A3E0FBA3E0FAA4
:10142300A3E0F912013C70030214BE900155E0FBE6
:10143300A3E0FAA3E0F912013C70030214CA90017D
:1014430058E0F9A3E0FAA3E0A3C9F0A3EAF0A3E903
:10145300F0900155A3E0FAA3E0F990015EEBF0A34D
:10146300EAF0A3E9F090015BE0FBA3E0FAA3E0F963
:1014730012013CFF602690015EE0FBA3E0FAA3E0CB
:10148300F912013C6F701590015C75F0011201B8FF
:1014930090015FE475F0011201B880C990015BE02F
:1014A300FBA3E0FAA3E0F912013C7002800D900166
:1014B30056E475F0011201B802142E900155E0FBB9
:1014C300A3E0FAA3E0F9227B007A00790022121646
:1014D30008EF6009121608EF60037FFF2290014CAA
:1014E30074FFF0A3742EF0A3741AF0A37401F0A395
:1014F3007490F07BFF7A2E790F121623EF60037F2F
:10150300FE2290014C74FFF0A3742EF0A3742BF011
:10151300A37401F0A37490F07BFF7A2E7920121646
:1015230023EF605290015874FFF0A3742EF0A3745C
:101533002FF07B017A007986121412E94A4B703638
:1015430090014C74FFF0A3742EF0A3740CF0A3E489
:10155300F0A374C8F07BFF7A2E7933121623EF7051
:1015630012781B7C027D017B017A007995FE7F0254
:101573001201167FFD227F0022787FE4F6D8FD75E5
:1015830081210215C3021335E493A3F8E493A34026
:1015930003F68001F208DFF48029E493A3F85407EB
:1015A300240CC8C333C4540F4420C8834004F456E6
:1015B300800146F6DFE4800B01020408102040801E
:1015C3009018A6E47E019360BCA3FF543F30E50965
:1015D300541FFEE493A360010ECF54C025E060A81E
:1015E30040B8E493A3FAE493A3F8E493A3C8C582B1
:1015F300C8CAC583CAF0A3C8C582C8CAC583CADF1F
:10160300E9DEE780BE90014C74FFF0A3742EF0A3D3
:10161300740CF0A3E4F0A37464F07BFF7A2E7907D3
:10162300E4900151F0121A5B90014CE0FBA3E0FA45
:10163300A3E0F9EA494B6045A3E07002A3E0603DF3
:1016430090014F74FFF5F01201B845F060207F0A56
:101653007E00121B41900106E060E590014CE0FB27
:10166300A3E0FAA3E0F912197AEA494B60D2900198
:101673004FE07002A3E0700590015104F090015116
:10168300E0FF2274FFFFFE1219F274FF90010DF0C8
:10169300A3F0A3F0A3742EF0A374E2F07B1F7A00EF
:1016A3007D0A7C007F0F7E00120F2674FF90010DD0
:1016B300F0A3F0A3F0A3742EF0A374EFF0E4FBFA0D
:1016C3007D28FC7F05FE120F2674FF90010DF0A309
:1016D300F0A3F0A3742EF0A374F5F0E4FBFA7D50AD
:1016E300FC7F05FE020F26C0E0C083C082C0D07518
:1016F300D008E59A30E03E539AFE900106E070056B
:1017030090008504F0900105E0C3947F501C900085
:10171300847401F0900105E0FF04F074862FF582D4
:10172300E43400F583E59BF0800B9001067401F02F
:10173300900105E4F0E59A30E105539AFDC20AD021
:10174300D0D082D083D0E032C0E0C083C082C0D08A
:1017530075D000C00730983DC298900081E07005B5
:1017630090000004F0900080E0C3947F501C900030
:10177300837401F0900080E0FF04F074012FF58280
:10178300E43400F583E599F0800B9000817401F057
:10179300900080E4F0309904C299C209D007D0D0F8
:1017A300D082D083D0E03230811990021A7401F0D4
:1017B30074FF90010DF0A3F0A3F0A3742EF0A374B3
:1017C300FB8016E490021AF074FF90010DF0A3F071
:1017D300A3F0A3742FF0A37400F0E4FBFA7D28FCBC
:1017E3007F32FE120F26E4900217F0A3F0A3F07BE2
:1017F300017A027917FD7F050219B8308219900228
:101803001A7401F074FF90010DF0A3F0A3F0A37418
:101813002FF0A374058016E490021AF074FF900170
:101823000DF0A3F0A3F0A3742FF0A3740DF0E4FB69
:10183300FA7D50FC7F32FE120F26E4900217F0A3CC
:10184300F0A3F07B017A027917FD7F070219B8E054
:10185300FAA3E0FB900211EEF0A3EFF0900215EA79
:10186300F0A3EBF0900213ECF0A3EDF0900211E083
:10187300FAA3E0FFAE02C006C0072401FBE43AFA74
:10188300A3E0FEA3E02401FFE43E90011CF0A3EFDC
:10189300F0D007D006121937900215E0FEA3E0FF3F
:1018A300021B2741020400410205004102030041DB
:1018B3000206014102010041020701410202004107
:1018C30001FC004E01EEEECC000000006A000000B7
:1018D300000000FF410081004101060043020EFFAA
:1018E3002E93430208FF2EC043020BFF2ED100129A
:1018F300013C64EE703D90000112015564CC7033DD
:1019030090000D120155F4702A900009120155FF41
:10191300B42A0A90000C1201559001FCF0EFB48038
:101923001290000812015524EE700890000C120169
:1019330055D28322900116EEF0A3EFF0121BB6905E
:101943000116A3E02402FF121BBDE4FF121BBDEB33
:101953002402FF121BBD7F2B121BB8ED2403FF12C1
:101963001BBDE4FF121BBD90011CA3E02403FF1267
:101973001BBD7F2C021BED900152EBF0A3EAF0A3F9
:10198300E9F07B007A007900900106E0602690017F
:1019930052E0F9A3E0FAA3E0900158C9F0A3EAF0FA
:1019A300A3E9F00B7A007986121412E4900106F091
:1019B300900105F0229001F6EDF012013C9001F741
:1019C300F09000011201559001F8F090000212010D
:1019D300559001F9F09000031201559001FAF0902F
:1019E30001F5EFF07B017A0179EE7D0E021A8E90FC
:1019F3000107EEF0A3EFF090011CE4F0A3747FF075
:101A0300FB7A00E4FDFCFFFE121937E4FBE4FA90D5
:101A13000107E0FEA3E0FF121B270AEAB480F00BE4
:101A2300EBB480E92290021FEBF0A3EAF0A3E9F004
:101A330090021FE0FBA3E0FAA3E0F912013C601758
:101A430090021FA3E475F0011201CEA9F0FA12016E
:101A53003CFF12000380D922900152EBF0A3EAF07D
:101A6300A3E9F0900152E0FBA3E0FAA3E0F912012D
:101A73003C6017900152A3E475F0011201CEA9F066
:101A8300FA12013CFF121C0080D922900107EBF0EF
:101A9300A3EAF0A3E9F0E4FEEEC39D501A90010718
:101AA300E0FBA3E0FAA3E0F98E82758300120155EF
:101AB300FF1200030E80E122900222EBF0A3EAF072
:101AC300A3E9F0E4FEEEC39D501A900222E0FBA3CB
:101AD300E0FAA3E0F98E82758300120155FF121C10
:101AE300000E80E122E4FDFCC3ED9FEC9E5015E463
:101AF300FBFA0BBB00010AEB64FA4A70F50DBD005B
:101B0300010C80E422E4FFFE74012FF58274003E91
:101B1300F583E4F0900080F00FBF00010EEF647FC7
:101B23004E70E522AD07AC06E4900116F0C2A0D2D8
:101B3300A2ECFF121B89AF05121B89D2A022AD07AD
:101B4300AC06D3ED9400EC9400400A121BF7ED1D94
:101B530070F01C80ED22438E08E59A543F4440F513
:101B63009A439A10438E10759CFA43AF0122E4FF07
:101B730074862FF582E43400F583E4F0900105F0D8
:101B83000FEFB47FEB227E08EF30E704D2A380028D
:101B9300C2A3C2A5D2A5EF25E0FFDEEC22120026E8
:101BA300121B59121BCC120BDD1216861214D1EF25
:101BB30070FA227F2A121BEDE4FFE490011EF0C2AB
:101BC300A0D2A2121B89D2A0225389F043890175A6
:101BD3008C4CE4F58AD28CD2A9D2AF22C2A17F6405
:101BE3007E00121AE8D2A1021AE8C2A0C2A2121BF6
:101BF30089D2A0227F0C7EA9DEFEDFFC228F9BD23E
:101C03000A200AFD22B3B50200020002007FFC0491
:101C1300000900110021003FF801000100FFFE014F
:101C230000010001000100C1BE200023FE2050FC82
:101C330050405053FE9252FE52125212AA1EA6F365
:101C43000252021202120A1204B7C000407C20445E
:101C5300204BFE48805080488048FC4484448444A0
:101C63008468845104410442284410B5C140802053
:101C73008009FC12042448E04020A023182C06000D
:101C8300003FF8244824482448FFFE0000CFB50055
:101C9300F83F000400082010403F800100061018A0
:101CA300087FFC010409201110210845040200CD1E
:101CB300B310401020202023FE4840F8881104234D
:101CC300FE4092F890409000901912E112420E04E7
:101CD30000C8CB0100010001000100010001000266
:101CE300800280044004400820082010102008408F
:101CF300048002CCE5084008400840104017FC303F
:101D03004030E050E091501150124815F418421041
:101D13004010401040D5F03FF801007FFE41029D86
:101D23007401001D7000003FFC20002FF820003FCD
:101D3300FC24484430860EB6AF004000407C40008F
:101D43004001FC0044FE4420442044208448844451
:101D530084FD04450402280410BCEC10401040101C
:101D6300A010A0FD10120835F63800548850489290
:101D73004811501110102017FE1000B2E200042782
:101D8300C4144414548554455445541554155425CA
:101D930054E55421042284224424140808D3D00295
:101DA300000200FFFE040004000FF0081018102FBB
:101DB300F0481088100FF00810081008500820CEC3
:101DC300DE00003FF002000200020002007FFC047C
:101DD30080048004800880088010842084407C80F4
:101DE300003A0000000000000000000000000000B6
:101DF3000000000000300030000000300030000020
:101E030000000000000000000000000000000000CF
:101E130000000000000000000000000000000000BF
:101E230000000000000000000000000000000000AF
:101E3300000000000000000000000000000000009F
:101E4300000000000000000000000000000000008F
:101E5300000000000000000000000000000000007F
:101E6300000000000000000000000000000000006F
:101E7300000000000000000000000000000000005F
:101E83000000000000001808C80808000000000057
:101E930000000000007F6060606060606060E06080
:101EA300200000000000000000000000000000000F
:101EB30000000000001818181010100000000000A7
:101EC30000000000000000000000000808080C0CDF
:101ED3000C000000000000000000000000000000F3
:101EE30000000000006C3810007CC6701CC67C002B
:101EF300000000000010386C00780C7CCCCC76001D
:101F03000000000000000000007CC670C0C67C001A
:101F13000000000000000000006C967CD0D66C002E
:101F23000000000000000000007CC60606C67C001E
:101F3300000000000000386CC6C6FEC6C66C380040
:101F430000000000000000001038286C44C6C600E2
:101F53000000000000000000007CC606FEC67C00F6
:101F6300000000000000000000DC666666F606065E
:101F7300663C000000006C38F80C7EC6C6C67C00C8
:101F83000000000000000E1B18181818181818D8A5
:101F93007000000000000000FE860C180C0606C648
:101FA3007C0000000076DC0000780C7CCCCC760052
:101FB300000000000076DC00007CC60606C67C003C
:101FC300000000000076DC0000DC666666666600E2
:101FD30000000000000000000076999F98996F00B0
:101FE30000000000000000000000000000000C06DC
:101FF300060000000000000000000000003C6666D0
:102003003C00000000000000000000000000000091
:10201300000000000000183C3C3C18180018180091
:102023000000000000C6C6C6440000000000000017
:102033000000000000006C6CFE6C6C6CFE6C6C00AD
:102043000000000018187CC6C2C07C0686C67C1837
:102053001800000000000000C3C60C183063C30062
:10206300000000000000386C6C3876DCCCCC7600C5
:10207300000000000030303060000000000000006D
:1020830000000000000018306060606060301800DD
:10209300000000000000180C06060606060C1800D7
:1020A30000000000000000006C38FE386C000000E7
:1020B300000000000000001818187E18181800000F
:1020C3000000000000000000000000001818183095
:1020D30000000000000000000000FE0000000000FF
:1020E30000000000000000000000000000181800BD
:1020F30000000000000002060C183060C0800000E1
:102103000000000000007CC6CEDEF6E6C6C67C00FA
:1021130000000000000018387818181818187E00FE
:102123000000000000007CC6060C183060C6FE00EC
:102133000000000000007CC606063C0606C67C00C4
:102143000000000000000C1C3C6CCCFE0C0C1E00BC
:10215300000000000000FEC0C0C0FC0606C67C00F4
:102163000000000000003860C0C0FCC6C6C67C008A
:10217300000000000000FEC6060C183030303000AE
:102183000000000000007CC6C6C67CC6C6C67C0034
:102193000000000000007CC6C6C67E06060C780060
:1021A30000000000000000181800000018180000CC
:1021B300000000000000001818000000181830008C
:1021C300000000000000060C18306030180C0600F8
:1021D3000000000000000000007E00007E00000000
:1021E3000000000000006030180C060C183060007E
:1021F3000000000000007CC6C60C18180018180068
:102203000000000000007CC6C6DEDEDEDCC07C0011
:1022130000000000000010386CC6C6FEC6C6C6002B
:10222300000000000000FC6666667C666666FC00D3
:102233000000000000003C66C2C0C0C0C2663C0093
:10224300000000000000F86C66666666666CF800C5
:10225300000000000000FE66626878686266FE00A7
:10226300000000000000FE66626878686060F000AD
:102273000000000000003C66C2C0C0DEC6663A0033
:10228300000000000000C6C6C6C6FEC6C6C6C6001D
:102293000000000000003C181818181818183C001B
:1022A3000000000000001E0C0C0C0C0CCCCC7800C1
:1022B300000000000000E6666C6C786C6C66E6005B
:1022C300000000000000F060606060606266FE0075
:1022D300000000000000C6EEFED6C6C6C6C6C60095
:1022E300000000000000C6E6F6FEDECEC6C6C6004D
:1022F300000000000000386CC6C6C6C6C66C3800B5
:10230300000000000000FC6666667C606060F00010
:102313000000000000007CC6C6C6D6DE7C0C0E00A2
:10232300000000000000FC6666667C6C6666E600E2
:102333000000000000007CC6C660380CC6C67C00E6
:102343000000000000007E5A1818181818183C00E6
:10235300000000000000C6C6C6C6C6C6C6C67C00CE
:10236300000000000000C6C6C6C6C6C66C38100012
:10237300000000000000C6C6C6C6C6D6FEEEC600F4
:10238300000000000000C6C6C66C386CC6C6C60096
:10239300000000000000C6C6C66C383838387C0020
:1023A300000000000000FEC68C183060C2C6FE00AC
:1023B3000000000000003C303030303030303C0052
:1023C30000000000000080C0E070381C0E06020010
:1023D3000000000000003C0C0C0C0C0C0C0C3C002E
:1023E3000000000010386CC6000000000000000070
:1023F30000000000000000000000000000000000DA
:10240300FE00000000303018000000000000000053
:10241300000000000000000000780C7CCCCC7600AB
:10242300000000000000E06060786C666666DC0017
:102433000000000000000000007CC6C0C0C67C0095
:102443000000000000001C0C0C3C6CCCCCCC7600D3
:102453000000000000000000007CC6FEC0C67C0037
:102463000000000000001C3632307C303030780031
:1024730000000000000000000076CCCCCC7C0CCC2B
:10248300780000000000E060606C76666666E60037
:1024930000000000000018180038181818183C0035
:1024A3000000000000000606000E0606060666662B
:1024B3003C0000000000E06060666C786C66E6003B
:1024C30000000000000038181818181818183C00ED
:1024D30000000000000000000044FED6D6D6D6005F
:1024E300000000000000000000DC6666666666000F
:1024F3000000000000000000007CC6C6C6C67C00C9
:10250300000000000000000000DC6666667C60607E
:10251300F0000000000000000076CCCCCC7C0C0C5A
:102523001E0000000000000000DC76666060F00022
:102533000000000000000000007CC6701CC67C0088
:10254300000000000000103030FC303030361C003A
:10255300000000000000000000CCCCCCCCCC760006
:10256300000000000000000000C6C6C66C38100062
:10257300000000000000000000C6C6C6D6FE6C00C6
:10258300000000000000000000C66C38386CC60074
:10259300000000000000000000C6C6C6C67E060C90
:1025A300780000000000000000FECC183066FE003A
:1025B3000000000000000E181818701818180E00FC
:1025C3000000000000001818181800181818180048
:1025D300000000000000701818180E18181870007A
:1025E30000000000000076DC000000000000000096
:1025F30000000000000000000000000000000000D8
:1026030000000000000000000000000000000000C7
:1026130000000000000000000000000000000000B7
:1026230000000000000000000000000000000000A7
:102E03000000000041540D0A004F4B0041542B4376
:102E130050494E3F0D0A0052454144590041542B3D
:102E2300435245473F0D0A00302C3100302C35000A
:102E330041542B4353510D0A0041542B434D4753E7
:102E43003D222573220D0A0041542B434D47463D35
:102E5300310D0A0041542B435343533D22554353F1
:102E630032220D0A0041542B435343413F0D0A00C4
:102E730041542B43534D503D31372C3136372C3091
:102E83002C32340D0A003E00002B434D47533A00C9
:102E93003030333130303338303033313030333415
:102EA3003030333130303339303033323030333106
:102EB30030303336303033363030333100344542FE
:102EC30041353435383632413538423636003937B4
:102ED300303735324138363241353842363600B331
:102EE300B5C1BEB7C0B5C1CFB5CDB300C8CBCCE576
:102EF3003A00D5F0B6AF3A00D3D0C8CB00CEDEC887
:102F0300CB00D3D0D5F0B6AF3A00CEDED5F0B6AF16
:022F13003A0082
:00000001FF
