:020000040000FA
:06000000020D3002035E58
:03002B00020B5A6B
:0300330002092C93
:030043000209F6B9
:0300530002028F17
:03006B0002091275
:100083000202F30101FF050301F212F212F212F26E
:1000930012AE11A811F212A926000000000B2700CE
:1000A3000000000C0000000C0001040000D214004A
:1000B30000000000008C150000000000000000009C
:1000C30000FFFFEECC01000000000000070000006D
:1000D30000000000FF010101003D050000008E0546
:1000E300E80364006400B80102020008000005028E
:1000F30007051E02051E0A03B80B02010234120291
:100103001F00E007965118000202061200120D4F5D
:10011300604F120D7C6012E7548066F6120BE1709B
:1001230011120DBB703B090909F4F618F618F618FD
:10013300F622120BF67015120DC508080860EAE6E0
:10014300447FF618768018E4F618F622120DC5607F
:1001530016120DBB7012E4F608F608F608E6548092
:10016300F609090918181822EAC0E0EBC0E0ECC050
:10017300E0EDC0E0E687F0A4FBACF008E687F0A46E
:100183002CFCE435F0FA1809E687F0A42C4B600246
:100193007401CA35F0FCE433FB09E687F0D2F7A417
:1001A3002CCB35F0FC1908E687F0A42BCC35F0FBFB
:1001B300E433FD0819E687F0D2E7A42C4ACB35F0E7
:1001C300CD3400FC09E687F0D2E7A42DCC35F0FD51
:1001D300E433FA0918E687F0D2F7A42CCD35F0CA38
:1001E3003400FC08E687F0D2E7D2F7A42ACC35F036
:1001F3007A7E20E70B0ACB33CBCD33CDCC33CC3354
:10020300CB3350147004ED30E00ED2F1E4CD3DCD8C
:10021300CC3CCC3B5005DA05C2F1EB547FC6330826
:10022300E63392F0FBE73309E733C39A502D2B7083
:10023300190C0D4C4D70151806E608C333700D20CC
:10024300F10AA2F013F6E418800B4024E4F630F030
:1002530002768018F618F618F68024D33B14501053
:1002630074FFA2F013F6187680E418F618F6800FE0
:10027300A2F013F618E63303F618ECF618EDF6D0F1
:10028300E0FDD0E0FCD0E0FBD0E0FA22C0E074F265
:10029300120606A2AFE433FED2AFE5A7FFE5A1F550
:1002A300085F54106006121C2E75A1EFE5085F5419
:1002B300086008121C3475A1F7802BEFA2E0C0D0B0
:1002C300E508A2E092F0120C93158182F05017908A
:1002D3006198E0F8900869E0C398A2D265D03350E2
:1002E30002E8F075A1FEEEA2E092AF7F0102071AC9
:1002F300C0E074F2120606A2AFE433FED2AF9061FF
:10030300A4E0F8759B00E59158540860087591F7CF
:10031300121C7C802AE59158541060087591EF12E5
:100323001C82801BE8A2E0C0D0E591A2E092F0120B
:100333000C93158182F05007E0C2E0F0121DC690C5
:1003430061A3E0F8E5E9585404600E121D9C75E9B9
:10035300FB906193E0A2E640F2808BC0E074F2125E
:100363000606A2AFE433FED2AF9061A5E0F8E5BF85
:10037300585404600675BFFB121DDE0202E9C3E494
:1003830098F8E499F91203C28026C3E49AFAE49B2D
:10039300FBE920E7E91203C2E498F8E499F922C3E0
:1003A300E498F8E499F91203C2E498F8E499F9C3DC
:1003B300E49AFAE49BFB22EB20E7CFE920E7E0B9DC
:1003C3000010BB0008E88AF084F8AAF022E4FBC816
:1003D300FA22EB70227B10C833C8C933C9335007E4
:1003E300C39AC3DBF280069A50012ADBEAC833F4CE
:1003F300C8C933F4C9FA2275F008E4C833C8C9334D
:10040300C933C99AC99B5004C92AC93BD5F0ECFB2F
:10041300C833F4C8E4C9FA2212045B20F01430E7AD
:100423002B74FFFCFBFA747F8022E4FCFBFA7480DC
:10043300801AB48008BC00F2BB00EF800F50EBF9C8
:10044300E4C39AFAE49BFBE49CFCE499C6CC18C68B
:10045300CB18C6CA18C6F922E4C9C608CAC608CB4F
:10046300C6D3330308CCC63392F0C3947F402E9493
:10047300184019C9B90704CACBCC225025C309CAED
:1004830033CACB33CBCC33CC33D9F422F4600DC98C
:10049300CCC313CB13CBCA13CAD9F6CC22E4FCFBCF
:1004A300FA2214FCFBFA22080808EAC0E0EBC0E0D9
:1004B30086F0E7A4FA180986F0E7A42AFA18098651
:1004C300F0E7A42AFA180986F0E7A42AFA1986F0B5
:1004D300E7A4FBE5F02AFA190886F0E7A42BFBE56D
:1004E300F03AFA190886F0E7A42BFBE5F03AFA187C
:1004F300180986F0E7A4C5F02BFBE43AFA1908E7DC
:10050300C5F0C6A426F6E5F03BFBE43AFA1886F0FC
:10051300E7A4F6E5F00826F6E43B08F6E43A08F625
:10052300D0E0FBD0E0FA22E4CFC0E0E4CEC0E0E4C8
:10053300CDC0E0E4CCC0E075F020C3E633F608E6B6
:1005430033F608E633F608E633F6181818EC33FCEE
:10055300ED33FDEE33FEEF33FFC3EC9709ED97095F
:10056300EE9709EF97191919400FFFEC97FC09ED66
:1005730097FD09EE97FE191906D5F0BEECF709EDC4
:10058300F709EEF709EFF7191919D0E0FCD0E0FDF0
:10059300D0E0FED0E0FF222518C582C0E0E5193483
:1005A300FFC583C0E0E518C3958224F810AF088522
:1005B30083198582188008858319858218D2AFCE66
:1005C300F0A3E520F0A37808E608F0A3DEFAEFF045
:1005D300A3E58124FAF8E608F0A3E608F0A3E60809
:1005E300F0A30808E608F0A3E608F0A31581158137
:1005F300D0E0FED0E0F8158115811581E8C0E0EE6A
:10060300C0E022C0D02518C582C0E0E51934FFC57B
:1006130083C0E0E518C3958224F310AF08858319DE
:100623008582188008858319858218D2AFC8F0A304
:10063300E9F0A3EAF0A3EBF0A37908E709F0A3D864
:10064300FAECF0A3EDF0A3EEF0A3EFF0A3D0E0F00B
:10065300A3D0E0F0A3D0E0F0A3E520F0A3E5F0F011
:10066300A322E9799EC608CAC608CBC608CCC6C36E
:1006730070207996CACBCC7019798ECBCC70137954
:1006830086CC700EF9802ACA33CACB33CBCC33CC99
:10069300331930E7F2CCCBCA3350147004EA30E09C
:1006A3000DE4CA3ACACB3BCBCC3CCC500209C3E9DC
:1006B30013C6CC182313C6CB18C6CA18C6F9221200
:1006C3000DB0B90003020704E490030178C0790A6E
:1006D3008002F0A3D8FCD9FA900CC0AA82AB839015
:1006E3000086788A79018015E493A3AC82AD838A6E
:1006F300828B83F0A3AA82AB838C828D83D8E9D9C2
:10070300E77582C07583A17403120AB97582A8754F
:1007130083207400120AB9851983851882E0C0E02A
:10072300A3E0F9A3E0FAA3E0FBA37808E0F608A3AB
:10073300DFFAE0FCA3E0FDA3E0FEA3E0FFA3E0C03B
:10074300E0A3E0C0E0A3E0F5D0A3E0F520A3E0A39D
:10075300F5F010AF08858319858218800885831901
:10076300858218D2AFD082D083D0E0F8D0E032E8CF
:100773000375F0108E1A8F1B85821F85831E8518C3
:1007830082851983E0CEA3E0CF851F82851E83EB8C
:10079300C9EAC8EDCBECCAC3E833C8E933C9EA33C5
:1007A300CAEB33CBC3EA9EF51DEB9FF51CB3500494
:1007B300AB1CAA1DEC33CCED33CDD5F0DAAE1AAFBA
:1007C3001B22D083D082ECC0E0EDC0E0E493A3FC15
:1007D300E493A3FDED4C600D12089DEC24FFFCEDAA
:1007E30034FFFD80EFE493A3FCE493A3FDED4C60A1
:1007F3000D1209A1EC24FFFCED34FFFD80EFD0E0E6
:10080300FDD0E0FCE493A3C0E0E493C0E022D083F6
:10081300D082E9C0E0E493A3C386F0C5F095F0F974
:1008230008E493A386F0C5F095F0700BE493A3C39B
:10083300994005E9048002A3E475F002A42582F53A
:1008430082E5F03583F583D0E0F9E493A3C0E0E4D7
:1008530093C0E022851983851882E0A3FEE0A3F507
:10086300207808E0A3F608DFFAE0A3FFE0A3C0E0E6
:10087300E0A3C0E0E0A3C0E0E0A3C0E0E0A3C0E0E9
:1008830010AF0885821885831980088582188583AF
:1008930019D2AFD083D082020ABFC0E0C3E49396DB
:1008A300087401939618400FE49366700808740166
:1008B30093661870007019A3A3C3E4939608740198
:1008C300939618A3A3400DD0E0D0E0D0E002080136
:1008D300A3A3A3A3A3A3D0E022D083D082C5F0E433
:1008E30093A3C5F0C395F0F5F0E493A3C395F0404B
:1008F30005E5F0048001E475F002A42582F582E5A4
:10090300F03583F583E493A3C0E0E493C0E022C011
:10091300E074F2120606E589A2E15003121AEA75A1
:100923008900C2C57F0102071AC0E074F2120606ED
:10093300E58BA2E05003121AEA758B00C2E880E44B
:100943007404800474028000CCC0E0EDC0E0E518BC
:10095300C39CCCAD1950011D10AF068C188D1980A6
:10096300068C188D19D2AF120A3BD0E0FDD0E0FC03
:100973002274028000CCC0E0EDC0E0E518C39CCC3B
:10098300AD1950011D10AF068C188D1980068C18F7
:100993008D19D2AF120A19D0E0FDD0E0FC22C0E0DD
:1009A300C0F088F0E49366700808740193661870C9
:1009B30000A8F0A3A3700BD0F0D0E0D0E0D0E00209
:1009C3000801A3A3D0F0D0E022D083D082CCC0E032
:1009D300E493A36006120A5C1470FAE493A360061E
:1009E300120BA11470FAD0E0FCE493A3C0E0E493EB
:1009F300C0E022C0E074F2120606A2AFE433FED2D6
:100A0300AFC2C0E5D1A2E45003121BA4EEA2E09250
:100A1300AF7F0102071ACAC0E0E493A3C582CCC525
:100A230082C583CDC583F0A3C582CCC582C583CDE2
:100A3300C583DAE5D0E0CA22CAC0E0E0A3C582CC10
:100A4300C582C583CDC583F0A3C582CCC582C583CA
:100A5300CDC583DAE6D0E0CA22C0E0E493A3D39CF9
:100A63005010E493A3C39C400AD0E0D0E0D0E0024E
:100A730009E9A3A3A3D0E022C008C3E096F50808C0
:100A8300A3E096420808A3E096420808A3E096452F
:100A9300087001D3D00822700908080822601618CC
:100AA3001818C6C333C608C633C608C633C608C635
:100AB30033C6D5E0EA22C09FF59FE473D09F22D0CE
:100AC30083D082C09FE493C0E0740193C0E07402BA
:100AD30093F59F227404800A7403800674028002D3
:100AE3007401C0E0F404120AF2D0E0120D8B222547
:100AF30018F58210AF08F518400215198008F5188B
:100B030040021519D2AF85198322BB0102E722C027
:100B130082C08389828A83BB0003E08002E493D08E
:100B230083D08222C0D0251810AF08F518500205D3
:100B3300198008F51850020519D2AFD0D0226016DB
:100B4300080808C6C313C618C613C618C613C618A2
:100B5300C613C6D5E0EA22C0E0C0D0E8C0E0E5A8ED
:100B6300D2AFC2C7A2E792AFD0E0F8D0D0D0E03284
:100B7300C3E0C696F608A3E0C696F608A3E0C696B9
:100B8300F608A3E0C696F622251810AF08F518401C
:100B93000215198008F51840021519D2AF22C0E0DA
:100BA300E493A36C7009D0E0D0E0D0E00209E9A39C
:100BB300A3D0E022C3E09608A3E09608A3E096083A
:100BC300A3E096A2D265D03322E066701008A3E0BA
:100BD30066700A08A3E066700408A3E0662218188A
:100BE30018E6084608700AE608C3337005E633F4CE
:100BF300220822191919E7094709700AE709C333BB
:100C03007005E733F4220922E76670100809E766E6
:100C1300700A0809E76670040809E76622C3E096CC
:100C2300F008A3E096F008A3E096F008A3E096F09E
:100C330022E056F008A3E056F008A3E056F008A31C
:100C4300E056F022E647F60809E647F60809E647C4
:100C5300F60809E647F622E026F008A3E036F00896
:100C6300A3E036F008A3E036F022E056F608A3E04E
:100C730056F608A3E056F608A3E056F622E657F622
:100C83000809E657F60809E657F60809E657F62273
:100C9300C0E0E8C0E0E58124FCF8E6A2E7D0E0F894
:100CA300D0E022E627F60809E637F60809E637F624
:100CB3000809E637F622700422600D18C6C333C64E
:100CC30008C633C6D5E0F41822E026F608A3E036BA
:100CD300F608A3E036F608A3E036F622E4C396F658
:100CE30008E496F608E496F608E496F622C3E0963E
:100CF30008A3E09608A3E09608A3E09622C6F4C6EC
:100D030008C6F4C608C6F4C608C6F4C622600D08B1
:100D1300C6A2E713C618C613C6D5E0F322C3E796E7
:100D23000809E7960809E7960809E7962275D000AF
:100D3300758140751801751903000206C2E6F008B3
:100D4300A3E6F008A3E6F008A3E6F022E6084608C7
:100D5300C3134608336002E633F422600C08C6C3AB
:100D630013C618C613C6D5E0F422E0F608A3E0F6CE
:100D730008A3E0F608A3E0F622E7094709C31347EF
:100D830009336002E733F422CAC0E0E6F0A308DACD
:100D9300FAD0E0FA22EAF0A3EBF0A3ECF0A3EDF033
:100DA30022E0FAA3E0FBA3E0FCA3E0FD22E5C754A5
:100DB300F84401F5C7790122E7C3331947194719E5
:100DC3004722E6C333184618461846222518F582EB
:100DD300E43519F58322C2AF75D69F0200002212B3
:100DE3000AC23CDC01120AC29DDC01120AC227DDE1
:100DF30001120AC2CBDD01120AC21FDE01120AC2AE
:100E030038DE01120AC25EDE01120AC299DE011245
:100E13000AC2DDDE01120AC204DF01120AC255DF73
:100E230001120AC205E001120AC2BDE001120AC2A0
:100E330085E101120AC262E201120AC2E8E201126A
:100E43000AC2F7E201120AC202E301120AC20BE468
:100E530001120AC21CE401120AC292E401120AC27C
:100E630024E501120AC27CE501120AC242E601121C
:100E73000AC273E601120AC2B8E601120AC2C5E643
:100E830001120AC259E801120AC2BCE901120AC2DC
:100E9300D8EA01120AC242ED01120AC24DED011253
:100EA3000AC257ED01120AC262ED01120AC26CEDC9
:100EB30001120AC276ED01120AC281ED01120AC2C1
:100EC3008CED01120AC2BDED01120AC2E1ED01125D
:100ED3000AC205EE01120AC26AEE01120AC2AEEE9E
:100EE30001120AC2CAEE01120AC241EF01120AC27A
:100EF30079EF01120AC2C5EF01120AC222F00112F0
:100F03000AC204F201120AC28AF201120AC25BF394
:100F130001120AC26BF601120AC2C0F601120AC21A
:100F2300ECF601120AC238F801120AC288F801125B
:100F33000AC2DDF801120AC2DEF901120AC276FA08
:100F430001120AC2F8FA01120AC298FB01120AC27C
:100F53002B2900120AC2642900120AC23E2B001276
:100F63000AC27D2B00120AC2C72B00120AC26C2CC4
:100F730000120AC2CB2C00120AC2FF2C00120AC2B2
:100F83006C2D00120AC2892E00120AC2912F001280
:100F93000AC2273000120AC26E3300120AC2173483
:100FA30000120AC2F33400120AC2543500120AC2F4
:100FB300713600120AC29B3800120AC2523900125B
:100FC3000AC25C3900120AC28F3900120AC2563AA9
:100FD30000120AC2F13A00120AC2563B00120AC2B8
:100FE3007F3B00120AC2A13B00120AC2D03D00128D
:100FF3000AC2A73E00120AC2EB3E00120AC2583FC1
:1010030000120AC2134000120AC2454000120AC26B
:10101300894000120AC2BC4000120AC211410012E8
:101023000AC2664100120AC2FA4100120AC25C42B5
:1010330000120AC2C44200120AC26D4400120AC25C
:10104300554500120AC2974600120AC2C54800124B
:101053000AC2854900120AC2B44B00120AC2574C95
:1010630000120AC2954C00120AC2414E00120AC273
:10107300554E00120AC25F4E00120AC2894E001278
:101083000AC2954E00120AC2B44E00120AC26B4F36
:1010930000120AC2AA4F00120AC2B44F00120AC2B7
:1010A300685000120AC2675100120AC2605200124D
:1010B3000AC2FD5200120AC29F5300120AC2B6535B
:1010C30000120AC2ED5300120AC20B5400120AC2E4
:1010D3004F5400120AC2745400120AC25A55001225
:1010E3000AC2C65500120AC2405600120AC24F571E
:1010F30000120AC28E5800120AC2F05800120AC225
:10110300AA5900120AC2CD5900120AC2A15A0012EA
:101113000AC2EC5A00120AC22E5B00120AC2855B95
:1011230000120AC2BC5B00120AC2EA5B00120AC2C6
:10113300235C00120AC2485C00120AC2D05C00128F
:101143000AC2F35E00120AC2525F00120AC2E65FCD
:1011530000120AC2526000120AC2A66000120AC23A
:101163006FBB03120AC2AEBB03120AC2A1B40112BF
:101173000AC2FBB401120AC257B501120AC2A3B5CF
:1011830001120AC2BEB501120AC2EFB501120AC2A8
:101193000CB601120AC218B601120AC28CB70112A8
:1011A3000AC2A5B701120AC20CB801120AC21FB8BB
:1011B30001120AC22DB801120AC2E1B801120AC211
:1011C300C5B901120AC2CBBA01120AC251BB01123C
:1011D3000AC25BBB01120AC2C8BB01120AC2DFBB4F
:1011E30001120AC211BC01120AC24ABC01120AC28C
:1011F30074BC01120AC2D5BC01120AC2F5BC0112A9
:101203000AC213BD01120AC259BD01120AC27FBE2E
:1012130001120AC2CCBE01120AC2FBBE01120AC2EB
:1012230071BF01120AC299BF01120AC2D2BF0112D1
:101233000AC2E0BF01120AC238C001120AC287C043
:1012430001120AC2C6C001120AC2F6C001120AC2C2
:1012530022C101120AC22DC101120AC24BC10112DD
:101263000AC20DC201120AC217C201120AC252C235
:1012730001120AC268C201120AC271C201120AC271
:10128300C6C201120AC2DAC201120AC2E8C30112BB
:101293000AC2FBC301120AC210C401120AC2B2C4B9
:1012A30001120AC235C501120AC2F3C501120AC2EC
:1012B300FEC501120AC224C701120AC240C70112A5
:1012C3000AC292C701120AC2D1C701120AC2E6C7F3
:1012D30001120AC228C801120AC275CA01120AC23F
:1012E300F3CA01120AC266CB01120AC288CD0112E7
:1012F3000AC2A0CD01120AC2A3CD01120AC2AFCD08
:1013030001120AC2C3CD01120AC2CBCD01120AC215
:10131300FECD01120AC2AECE01120AC224CF0112BF
:101323000AC297CF01120AC24BD001120AC200D1DE
:1013330001120AC21FD101120AC2BFD101120AC28D
:10134300CBD101120AC2F6D101120AC2F9D101129C
:101353000AC263D201120AC28BD301120AC263D436
:1013630001120AC2EED401120AC207D601120AC23E
:10137300C4D601120AC2FDD601120AC22ED7011227
:101383000AC2CED701120AC2FED701120AC2D9D8A5
:1013930001120AC272D901120AC2FDD901120AC28C
:1013A300AEDA01120AC230DB01120AC262DB011299
:1013B3000AC2A3DB01120AC220C802120AC285C8EC
:1013C30002120AC2C2C802120AC211C902120AC216
:1013D30027CB02120AC20ACD02120AC274D0021229
:1013E3000AC2AFD002120AC2D1D002120AC234D149
:1013F30002120AC268D102120AC28BD102120AC2B5
:10140300B8D102120AC214D202120AC25BBC02127F
:101413000AC2D9BC02120AC20FBD02120AC27BBDA4
:1014230002120AC2EEBE02120AC20ABF02120AC2A4
:101433004FBF02120AC2DDBF02120AC236C0021235
:101443000AC263C102120AC275C202120AC2D2C21E
:1014530002120AC23EC302120AC29FC302120AC286
:10146300E0C302120AC28DC402120AC29FC502124D
:101473000AC2CAC502120AC215C602120AC25CC651
:1014830002120AC2EEC602120AC2A9C702120AC295
:10149300DBA303120AC20BA403120AC260A4031241
:1014A3000AC22FAE03120AC240AE03120AC291AEA1
:1014B30003120AC2D6AE03120AC280AF03120AC2D3
:1014C300ADB603120AC2FBAA03120AC253AC03123B
:1014D3000AC22E7500120AC2D37500120AC2F3752E
:1014E30000120AC2137600120AC2277600120AC239
:1014F3007F7600120AC2AF7600120AC23078001259
:101503000AC2D67800120AC2B87900120AC2097A4E
:1015130000120AC24C7A00120AC28F7A00120AC25F
:10152300F57A00120AC2167B00120AC2A27B0012CD
:101533000AC2D37B00120AC2477C00120AC2F57D9D
:1015430000120AC2CF7E00120AC2117F00120AC221
:101553006B7F00120AC2AEA503120AC2CFA5031203
:101563000AC208A703120AC232A703120AC282A739
:1015730003120AC2FDA703120AC208A803120AC271
:1015830029A803120AC21EB002120AC221B0021213
:101593000AC2DBB002120AC206B102120AC24DB17C
:1015A30002120AC272B102120AC293B102120AC231
:1015B300C7B102120AC200B202120AC229B302124E
:1015C3000AC260B302120AC280B302120AC21BB477
:1015D30002120AC2E0B402120AC217B502120AC208
:1015E3008CB602120AC22FB702120AC228B802121C
:1015F3000AC251B802120AC2A5B802120AC26BB9D2
:1016030002120AC299B902120AC22EBB02120AC2FC
:10161300AFBB02120AC2E2BB02120AC260D20212BA
:101623000AC26AD202120AC2B6D202120AC224D370
:1016330002120AC245D302120AC25CD302120AC2C0
:101643000CD402120AC2A0D602120AC2A9D60212EE
:101653000AC2FCD602120AC225D702120AC28CD7CA
:1016630002120AC21DD802120AC25FD802120AC2AB
:10167300A9D802120AC2D8AA01120AC299D902121F
:101683000AC2D8D902120AC217DA02120AC24CDA03
:1016930002120AC25EDA02120AC270DA02120AC225
:1016A3008FDA02120AC298DA02120AC24EDB02125F
:1016B3000AC28EDB02120AC2B48403120AC28785ED
:1016C30003120AC2A18503120AC2B28503120AC217
:1016D300C78703120AC2E68703120AC28E9F031248
:1016E3000AC2EADB01120AC20DA003120AC25DA1FB
:1016F30003120AC2E06000120AC21F6200120AC289
:101703005B6200120AC21A6400120AC24364001226
:101713000AC2D66600120AC21A6700120AC2A36876
:1017230000120AC23B6900120AC2A36900120AC26C
:10173300446A00120AC2866A00120AC2C66A00120A
:101743000AC2516C00120AC2C16D00120AC2E66FCE
:1017530000120AC2147000120AC23B7000120AC2BD
:10176300447000120AC29F7000120AC23271001242
:101773000AC2507400120AC2D17400120AC2E37F73
:1017830000120AC224BB03120AC2BF8C03120AC28C
:10179300D28C03120AC26F8D03120AC2AA8D0312DE
:1017A3000AC2C58D03120AC2EA8D03120AC22F8E22
:1017B30003120AC2608E03120AC2918E03120AC276
:1017C300179003120AC2F8B003120AC22EB1031211
:1017D3000AC24AB103120AC28CB103120AC29CB1F3
:1017E30003120AC231B203120AC23BB203120AC283
:1017F3004AEB02120AC2F8EB02120AC2C8ED021245
:101803000AC20DEE02120AC268EE02120AC2E0EE2A
:1018130002120AC2C0EF02120AC244F002120AC242
:10182300D7F002120AC28FA002120AC2E7A0021264
:101833000AC291A102120AC239A202120AC296A2D4
:1018430002120AC2EFA202120AC203A302120AC2BE
:10185300CDA402120AC248A502120AC272A502123C
:101863000AC22FA702120AC24AA702120AC299A7E2
:1018730002120AC2AFA702120AC2BCA702120AC20C
:10188300F0A702120AC206A802120AC28CA8021208
:101893000AC29BA802120AC2F4A802120AC24EA9E3
:1018A30002120AC29CA902120AC2A6AA02120AC200
:1018B30028AD02120AC2C2AD02120AC204AE02125B
:1018C3000AC299AE02120AC2B6AE02120AC2B9AE77
:1018D30002120AC2BCAE02120AC22FAF02120AC21D
:1018E3004AAF02120AC276AF02120AC2B1AF0212A3
:1018F3000AC2B4AF02120AC2C7AF02120AC2EEAFE3
:1019030002120AC250BA03120AC25CBA03120AC212
:1019130096BA03120AC2BE9002120AC2E9900212D8
:101923000AC2B59102120AC23A9202120AC2A392E1
:1019330002120AC2EF9202120AC26E9302120AC282
:10194300009402120AC28C9402120AC2CE940212AA
:101953000AC23A9902120AC2BA9A02120AC2F99A3E
:1019630002120AC2C29B02120AC2769C02120AC265
:10197300269E02120AC2B29E02120AC200800212FC
:101983000AC2BA8002120AC22C8102120AC23B8125
:1019930002120AC2B58102120AC2248202120AC2C8
:1019A3002E8302120AC2578302120AC2F78302125B
:1019B3000AC2458402120AC2B58402120AC2E98528
:1019C30002120AC2C58602120AC2368702120AC26C
:1019D300B38802120AC2758902120AC2108A02125D
:1019E3000AC26B8A02120AC2D68A02120AC2DA8BAE
:1019F30002120AC29B8D02120AC23A8E02120AC254
:101A0300AC8E02120AC2698F02120AC244930312F5
:101A13000AC2989303120AC2F09303120AC23B94B8
:101A230003120AC29D9403120AC2369503120AC214
:101A33009E9503120AC2AA9503120AC2389D031285
:101A43000AC2699D03120AC2239E03120AC2899E17
:101A530003120AC2FA9E03120AC248A203120AC25E
:101A63006BB803120AC2F0B803120AC27F7F0012D6
:101A73000AC2A17F00120AC2A97F00120AC2C97F4B
:101A830000120AC2A0B703120AC2B1B703120AC2F4
:101A930051B803120AC243A903120AC251A903127D
:101AA3000AC2EBFF02120AC2BAB903120AC2CAB9C6
:101AB30003120AC2E5B903120AC246BA03120AC2E2
:101AC300ABB503120AC230B603120AC294B60312AC
:101AD3000AC299B403120AC2BBB403120AC225B5DF
:101AE30003120AC230B503120AC274B503120AC242
:101AF300F3E402120AC201E502120AC242E502122B
:101B03000AC263E502120AC2EDE502120AC250E6F6
:101B130002120AC272E602120AC28DE602120AC257
:101B2300A8E602120AC2B2E602120AC2BCE6021216
:101B33000AC2CFE602120AC2E8E602120AC284E728
:101B430002120AC240E802120AC2C0E802120AC222
:101B53003AE902120AC2A0E902120AC24BFC0112BC
:101B63000AC259FC01120AC2D3FC01120AC2B7FD10
:101B730001120AC270FF01120AC29BBC03120AC2FD
:101B830045F102120AC2B2F102120AC273F2021240
:101B93000AC2E3F202120AC2ECF302120AC264F5A9
:101BA30002120AC2C8F502120AC21DF602120AC2C2
:101BB30026F602120AC235F602120AC248F60212C9
:101BC3000AC25EF602120AC267F602120AC27AF665
:101BD30002120AC2CFF602120AC2CBF802120AC2DA
:101BE300FDF802120AC21FF902120AC238F90212E0
:101BF3000AC251F902120AC25BFA02120AC2F6FAC7
:101C030002120AC297AF03120AC2BBAF03120AC27F
:101C1300D4AF03120AC207B003120AC238B00312C8
:101C23000AC266B003120AC2C8B003120AC2D7B00E
:101C330003120AC2E1B003120AC2EEB003120AC2CF
:101C4300E59503120AC20B9603120AC248960312C1
:101C53000AC2579603120AC2769603120AC2DE9686
:101C630003120AC2E79603120AC2469703120AC274
:101C73006A9703120AC2299803120AC236980312FA
:101C83000AC2479803120AC2FCBB03120AC219BC58
:101C930003120AC26DFB02120AC2CBFC02120AC271
:101CA300D8FC02120AC2EBFC02120AC20AFD02129B
:101CB3000AC220FD02120AC234FD02120AC2A9FDA1
:101CC30002120AC20EFE02120AC2BEFE02120AC2A9
:101CD30093FF02120AC2A3FF02120AC2B2FF021248
:101CE3000AC221B903120AC245B903120AC26DB965
:101CF30003120AC295B903120AC2759803120AC2E3
:101D03009C9803120AC2BD9803120AC222990312B5
:101D13000AC2DB9A03120AC2F49A03120AC2009B94
:101D230003120AC2149B03120AC2329B03120AC291
:101D33003C9B03120AC2469B03120AC2599B03121D
:101D43000AC2AC9B03120AC2E59B03120AC2149C8B
:101D530003120AC2629C03120AC2B19C03120AC292
:101D6300CC9C03120AC2D69C03120AC2E79C03123C
:101D73000AC22D9D03120AC2D3BA03120AC2B7DBE9
:101D830002120AC2E1DB02120AC2FDDB02120AC21C
:101D930010DC02120AC226DC02120AC283DC02121F
:101DA3000AC2B6DC02120AC2F2E002120AC218E246
:101DB30002120AC24BE202120AC297E202120AC2DA
:101DC300C3E302120AC2EBE302120AC200E40212E4
:101DD3000AC210E402120AC254E402120AC2B5E4AF
:101DE30002120AC2C5E402120AC253B203120AC2A1
:101DF3006EB203120AC297B203120AC2B1B203123D
:101E03000AC2D6B203120AC2F5B203120AC20DB352
:101E130003120AC23BB303120AC255B303120AC226
:101E2300B8BB03120AC23F8903120AC246890312CE
:101E33000AC2528A03120AC2828A03120AC2A88AF7
:101E430003120AC2CB8A03120AC2ED8A03120AC220
:101E5300278B03120AC28D8B03120AC2C68B03128D
:101E63000AC2128C03120AC23F8C03120AC25F8C8D
:101E730003120AC2A2AC03120AC2B4AC03120AC20E
:101E83009FAD03120AC22CAE03120AC286B3031219
:101E93000AC2F8B303120AC236B403120AC277B4F1
:101EA30003120AC2249003120AC2409003120AC208
:101EB3008F9003120AC2AB9003120AC2DC90031282
:101EC3000AC2EC9003120AC2D89103120AC2E29129
:101ED30003120AC2EF9103120AC2FF9203120AC24B
:101EE300139303120AC21C9303120AC20080031243
:101EF3000AC2458403120AC24A8403120AC26EBC90
:101F030003120AC238BC03120AC2D5FF01120AC265
:101F1300BDBC03120AC24BAA01120AC23EAA011295
:101F23000AC24CA701120AC29EA401120AC272A3DA
:101F330001120AC2C6A201120AC217A101120AC2E1
:101F4300D29E01120AC2599E01120AC2D8DB0112A3
:101F53000AC25CB301120AC2009E01120AC2949D16
:101F630001120AC23EB301120AC2F3B101120AC23C
:101F73006B9D01120AC25E9B01120AC22A9B0112C7
:101F83000AC2F79A01120AC2DB9A01120AC2019A23
:101F930001120AC2B99901120AC2EE9701120AC2CA
:101FA3006E9701120AC26B9701120AC2729601124E
:101FB3000AC2409601120AC27D9501120AC2A89371
:101FC30001120AC2399301120AC20B9301120AC207
:101FD30050B101120AC2FDAF01120AC2AEAD011225
:101FE3000AC2B7AC01120AC29BAC01120AC208931F
:101FF30001120AC2F59201120AC28D9201120AC29B
:102003007C9201120AC22BAC01120AC25D91011229
:102013000AC2279101120AC2EA9001120AC28B90E6
:1020230001120AC2E2AB01120AC2C49F03120AC21E
:102033005A9001120AC2158D01120AC2068C0112AE
:102043000AC2958B01120AC25A8B01120AC2258B4E
:1020530001120AC2198B01120AC2798A01120AC239
:10206300C08901120AC2938701120AC21F85011295
:102073000AC2DD8401120AC2A88301120AC25D8367
:1020830001120AC28F8201120AC2E68101120AC238
:10209300828101120AC2BC8101120AC29AAB0112E7
:1020A3000AC208D90200000080FBE47300000000AC
:1020B30000000000000000000000000010101010DD
:1020C3001010000030300000001428500000000001
:1020D3000000000000000000002828FC284850FCF5
:1020E3005050000000001038545430181454543821
:1020F300100000000044A8A8B0541A2A2A44000083
:1021030000000020505060ACA898927C0000006052
:102113006020C00000000000000000000004080868
:1021230010101010101008080400000040201008C0
:1021330004081020400000000000001010D63838BA
:10214300D61010000000000000101010FE10101038
:1021530000000000000000000000000000006060BC
:1021630020C0000000000000FC0000000000000090
:10217300000000000000000000006060000000029A
:102183000404040808101020202040000000003040
:102193004884848484844830000000000010701058
:1021A30010101010107C0000000000384444040894
:1021B3001020447C00000000003844441804044408
:1021C300443800000000080818284848887C081C88
:1021D30000000000007C4040784404444438000080
:1021E3000000003C4480B8C484848478000000006C
:1021F300007C444808101010101000000000007804
:10220300848448788484847800000000007884847F
:10221300848C740488F0000000000000003030005B
:10222300000030300000000000000000100000003B
:1022330000101020000004081020402010080400A3
:1022430000000000000000FC0000FC000000000093
:102253000000402010080408102040000000000087
:1022630078848484081010003030000000000038A7
:10227300449AAAAAAAB4423C000000000010102805
:102283002828384444EE0000000000F84444784411
:10229300444444F800000000003C44848080808073
:1022A30044380000000000F048444444444448F0EB
:1022B3000000000000FC44404878484044FC000013
:1022C300000000FC42404878484040E00000000025
:1022D300003C448480808E8444380000000000EE7B
:1022E3004444447C444444EE00000000007C10104D
:1022F30010101010107C00000000007C1010101053
:102303001010101090E0000000EE44485070484850
:1023130044EE0000000000E040404040404044FCE8
:102323000000000000EE6C6C6C54545454D6000052
:10233300000000EE64645454544C4CE4000000006C
:10234300003048848484848448300000000000F80E
:1023530044444478404040E000000000003048849A
:10236300848484B448380C00000000F84444785056
:10237300484844E600000000003C444020180404A0
:1023830044780000000000FE921010101010103866
:102393000000000000EE4444444444444438000038
:1023A300000000EE444428282828101000000000F4
:1023B30000D6545454546C2828280000000000EE22
:1023C30044282810282844EE0000000000EE44288A
:1023D30028101010103800000000007C880810201E
:1023E300204044FC0000001C1010101010101010AE
:1023F30010101C000070101010101010101010108E
:1024030070000070101010101010101010107000D9
:102413000010280000000000000000000000000081
:102423000000000000000000000000FE00606020CB
:10243300C0000000000000000000000000000000D9
:1024430038441C24443E0000000000C0404078444F
:102453004444447800000000000000003C44404035
:10246300443800000000000C04043C444444443E4F
:10247300000000000000000038447C4044380000A5
:102483000000001C2420F8202020207800000000F9
:10249300000000003C48483040784438000000C049
:1024A30040405864444444EE000000000010000023
:1024B30070101010107C00000000000800003808A5
:1024C300080808080870000000C040405C485070CD
:1024D30048EC000000000070101010101010107C69
:1024E3000000000000000000F854545454D60000CB
:1024F300000000000000D864444444EE00000000E3
:102503000000000038444444443800000000000048
:102513000000F8444444447840E000000000000018
:102523003C444444443C040E000000000000EC30F2
:10253300202020F800000000000000003C44300888
:10254300447800000000000010107C101010100CE4
:102553000000000000000000CC444444443E00005E
:10256300000000000000EE442828281000000000AE
:1025730000000000D6545454282800000000000036
:102583000000DC48303048EC000000000000000090
:10259300EE442828101020E00000000000007C48D2
:1025A3001010247C000010101010101010101010C8
:1025B3001010101000013636010100010201000164
:1025C30003010001040106060502000007010034AF
:1025D3000801000F090401010D0100FF0E080000AE
:1025E30017020000190100FF1A0100011B0100FE80
:1025F3001C0100081D0200001F0100012001000151
:10260300210200002301000F240200002601000123
:1026130027010008280200FF2A0100072B010240BE
:102623002C0100002D0100012E0100012F0100FFEC
:1026330030010B1C310800003A0100083B01000F78
:102643002F010000030271023001600211027002C7
:102653000102020202028002100261023A004100FA
:102663006302730272026202430200021302380021
:102673000002000204021202000200020002000231
:1026830004020402370037003C024402000239000E
:102693000002000265020002350281020002050207
:1026A3008202830200020300710030016000110006
:1026B300700031022003500480001000610000000C
:1026C30014006300730072006200430000001300F3
:1026D30006000000000004001200000000000000DB
:1026E300000004000400370037003C0244000000EF
:1026F30000000000000065000000350081000000BC
:1027030005000000830000000103710301030103BE
:102713000103010301032203020301031003000366
:10272300000300030003000300030003420300034C
:1027330024030603000300030403120325032303F6
:1027430025032303040304030003000300034403DA
:102753000003000323030003650321003503810302
:1027630000030503000300030003010171010101DC
:102773000101110101013101010101018001100178
:1027830061013B00140063017301720162014301A3
:102793000001130106013D0135000401120100018E
:1027A30000010001000104010401330133013C0174
:1027B30044013201360000010001650100013500CA
:1027C300810100010501820183010001360001003E
:1027D300060000000F0000000000000000000000E1
:1027E300000003FFFF00000403FFFF0000FFFF0FD3
:1027F300F4010005C4040320000100030B000000E2
:10280300000000000003010F0100B81902002E1997
:102813000300341904003A190500401906004C1945
:102823001100641914006A1915005E19FFFF0000F6
:10283300081238120E1214123212261220123E12ED
:1028430044124A1256121A120212FC1103EAF5E557
:10285300D5D5C5B5A59595858575756565555545D5
:1028630045353525251515050AD40F029E0F05B0EC
:102873000F07A40F0C800F0D920FFF000000160F1F
:1028830000000B150B020002220F32000006F212A9
:1028930004130A13D2111013CC11D811521370134D
:1028A3007613581364135E1300034948424D1817F7
:1028B3002505020C0E020B040B0A0708000F00018A
:1028C30019161816161523030000383C3E363B3BF9
:1028D300352B432C303016181920231A1C1E303088
:1028E3003017181921301B1D1F302C1250126A1378
:1028F3005C126212461316131C13281322130204CC
:102903000201010101090200000000000000BE04F1
:102913000A0E0015000400280008050C0A03090824
:10292300FF1E1E0F0404100C74F712059AE990039E
:10293300B0F0900365E4F0121E749003B5E4F0A3C5
:10294300F09003B1F0A3F012110C121E7A9003342D
:10295300E4F0A3F090292693FA7902121EDA0255C5
:10296300C174F212059AEAFEEBFF5480606990038A
:10297300B0E0F912165E8A088B09EA4509604F7CBC
:102983000080010CEC75F003A4F8A9F0746B28F532
:1029930082742839F583E493F4602CE493F8850872
:1029A300828B83E06870DCAA08EC75F003A4F874EA
:1029B3006C28F582742839F583E493C0E07401939D
:1029C300F583D0821220ADAA08AB09121652EEFA93
:1029D300EF6480FB022B31EF5420601D12102E8A0E
:1029E300088B09EA4509600A120F92AA08AB09127B
:1029F3001652EEFAEF642080DAEEA2E0501A90034A
:102A03006AE0640F700B7900120F5CE96003122B0C
:102A130034EE6401FAEF80BB54207003022AFF7581
:102A23000C001240068B09EA450970107C027D00F8
:102A33007A207B009003B0E0F91217A87C00790498
:102A43007A007B0012100A8A088B09801885088295
:102A5300850983A3A3A3A3A3A3A3A3A37401F085BD
:102A63000A08850B09E5084509606D7C007904AA0D
:102A730008AB0912100A8A0A8B0B750C01E50824AE
:102A830004F8E509123DAA24FFF0A3E034FF126025
:102A93009D70CC850882850983A3A3A3A3A3A3A3C5
:102AA300A3A3A3E0640170A5850882850983A3A37A
:102AB300A3A3A3A3E054047094850882850983A388
:102AC300A3A3A3A3A3A3A3A37406F07AB785088241
:102AD300850983122C608087120FDA7C0079017AD2
:102AE300007B0012100A8B09EA45097009E50C7096
:102AF300057A20124F60EE6420022A17EF54026019
:102B03000B121106EEFAEF64020229D6EF540460A9
:102B1300191250F7125017790190036312537B1265
:102B23000EA2EEFAEF64040229D67A007B00022D8E
:102B330067900D1D1233FE120F7422C082C083747E
:102B4300EA120B8B851882851983AA82AB83794B92
:102B5300121EB07408120DCF7402F07409120DCF57
:102B6300AA82AB837950121EB07413120DCFE412F4
:102B7300554A121ECE741602452474F712059A7430
:102B8300E1120B8BEAFEEBFFEE4F60338518828573
:102B93001983AC82AD831210527406120DCFE0601C
:102BA3001E7417120DCFE0FD7401120DCFE0FCEE81
:102BB300FAEFFB7900121F64E9600479A4800279BB
:102BC300000255BC74F612059AEAFEEBFF8E828F63
:102BD30083A3A3A3A3A3A3E05440601B125A3912F7
:102BE3002D2E60067AFF7BFF801A8E828F8312411F
:102BF300B0FAA3E0FB800312107674FE6A700374CC
:102C0300FF6B6041125A39124FA41210CAE98E8227
:102C13008F836006122C59E48005122C597401F03D
:102C23007C627D0F8E828F8312537B121ED4E9F553
:102C3300087015EE4F60097901EEFAEFFB120FE60B
:102C4300A908024FD57508CDAA088E828F83122C4E
:102C530060E960DF80EAE0240D12467F22E0240C65
:102C630012467FE0F9120F6E2274F612059AE9FEFE
:102C7300EAFF7A0F7B0012164CEA4B60198A828BAB
:102C830083740CF0EEA3A3F0EF8A828B83A3F0127C
:102C930050007900802FEEF91210108A088B09A8D2
:102CA30008A909E849601C88828983A3A3A3A3A375
:102CB300A3A3A3A37406125CC4E0F9120F26EEF9D2
:102CC300120FEC7910024FD5C082C08390036AE0E3
:102CD300640F7014EA4B6010900365E064086005AC
:102CE300E064047003122CEE02454EEAFCEBFD7A1D
:102CF300017B009003B0E0F91217A222C082C083C7
:102D03007900EA241DF582EB1241AD24FD600B141A
:102D1300600824FD600424FD70010902454E8E8283
:102D23008F83A3A3A3A3A3A3A3A3A3122D3222122E
:102D330041F5FB1210CAE9228E828F83A3A3A3A3BA
:102D4300A3A3A3A3A3122D326402228E828F83A393
:102D5300A3A3A3A3A3A3A3A3124545900356E0688B
:102D630022120B277F0602085774F412059A74FD8A
:102D7300120B8B8A088B098A828B83A3A3E0F91237
:102D830010108A0A8B0BAE0AAF0BEE4F7003022EA4
:102D930073850882850983A3E064F1603085088226
:102DA300850983A3E064CD6024850882850983A314
:102DB300E0641A6018850882850983A3E064E960EA
:102DC3000C850882850983A3E064E1700879001209
:102DD3000FE6E9706C850882850983A3E0C0E0747F
:102DE30002120DCFD0E0124529EEF0A3EF123854B2
:102DF300851882851983AA82AB837005120E8A8097
:102E0300031210B27402120DCFE064E970338E82A4
:102E13008F83122E7F750A01780A120AE3750AE975
:102E2300780A120AE3E508240CF582E50912334611
:102E3300123831FCA3E0FD8A828B8312384B120BCC
:102E4300278E828F83A3A3A3A3A3A3A3A3A3E06437
:102E53000270108E828F83A3A3A3A3A3A3A3A3A310
:102E63007406F0850882850983A3A3E0F9120FECA9
:102E7300120FDA900D21122B37023403E0F8A3E08E
:102E8300F9E8FAE9FB2274F412059AEAFEEBFF75FE
:102E930008008E828F83A3A3A3A3A3E060427508D7
:102EA300088E828F83A3A3A3A3A3A3A3A31244582F
:102EB3008B0BEA450B601075082C8E828F83A3A3BE
:102EC300A3A3A3E0D2E0F08E828F83A3A3A3A3A343
:102ED300E0540364016003022F72430811022F724E
:102EE300EE24181234106033EE241A123410700FCB
:102EF300122D4E7003A3E06970757508228070EE81
:102F0300241BF582EF122F77241AF582EF12385C17
:102F1300EE2419125A6D120F148054122D3B7003B4
:102F2300750801122D4E7003A3E0697006E508D2FF
:102F3300E1F508E50860158E828F83A3A3E0700690
:102F4300E508D2E58004E508D2E6F508122D2164F0
:102F5300017006E508D2E0F5088E828F83A3A3E013
:102F6300600D122F8564016006E508C2E0F508A92B
:102F73000802340812419B122F7E22E0FCA3E0FDDD
:102F8300EE221241951241CDF91210B8E922C08206
:102F9300C08379018A828B83A3A3E0C39402400197
:102FA300198A828B83A3A3A3A3E0C394024002796B
:102FB300008A828B83A3A3A3A3A3A3A3A3A3E064F5
:102FC300F87003A3E0F460458A828B83A3A3A3A3D1
:102FD300A3A3A3A3A3E064F97003A3E0F4602E8A80
:102FE300828B83A3A3A3A3A3A3A3A3A3E064FA70E5
:102FF30003A3E0F460178A828B83A3A3A3A3A3A3F1
:10300300A3A3A3E064FB7003A3E0F4700279008A36
:10301300828B83A3A3A3E0F8900353E06860027953
:103023000002454E74F012059A74DE120B8BEAFE11
:10303300EBFF8E828F83A3A3A3A3E0600E900D1FEB
:10304300124FCC6006900D1F122B377403120DCF55
:10305300AC82AD838E828F83A3A3A312504E1258EA
:1030630087E9600F7403120DCFAA82AB83120F8C12
:10307300E970087901121E8602333BEE241B1241CC
:10308300A07410120DCF1250177409120DCFE06007
:1030930021741A120DCFE0FD7404120DCFE0FC8EE3
:1030A300828F831253797901121F64E960047902D4
:1030B30080C37403120DCFAA82AB83120F86E9F586
:1030C3000A7409120DCFE0702A90034DE060247456
:1030D30022550A6422601C7442550A644270CF74FC
:1030E30020120DCF123359600A7420120DCF123300
:1030F3005270BBE9A2E650417403120DCFAA82AB12
:1031030083120F7AE970030230767420120DCF1206
:1031130041B06403700F7420120DCFA3124FBEA3EE
:10312300E0640D60147403120DCFAA82AB831210F6
:10313300DCE96401700302333BEE242C12334312A7
:1031430036677003A3E069701C7508007808120ADB
:10315300E37808120AE3EE242E125A6D12335F123B
:10316300384B120B277409120DCFE070030232188B
:1031730012335F12537B1211308A088B09EA450917
:1031830070030232B57404120DCFE0F88E828F8380
:10319300A3A3E028F8A3E03400F9E8240D12334A8E
:1031A3008A828B83A3A3A3E068601CE88A828B8353
:1031B300A3A3A3F0908137120DA485088285098308
:1031C300A3A3A3A3120D987904E9120DCF12586497
:1031D3002AF8A3E034008882F583A3AA82AB831282
:1031E300163A8A0C8B0D8C0E8D0F85088285098308
:1031F300A3A3A3A3780C120A7B400302333B908161
:1032030077780C120CCC850882850983A3A3A3A32A
:10321300780C120D40900365E064046008E06409D3
:10322300600302333BE50AA2E540030232F3EE24D6
:103233002E123410851882851983F0EE242F123450
:1032430010C0E07401120DCFD0E0F0EE2430123440
:1032530010C0E07402120DCFD0E0F07414120DCF41
:10326300E064017027740E120DCF1241A6EE2412F2
:10327300123410687003A3E0697011740C120DCF3F
:10328300122D4870077414120DCFE4F0EE242412AB
:1032930033431209437404120DCFAC82AD83740718
:1032A300120DCFAA82AB83120E907404120B270265
:1032B300333B9003AAE064016003023218742012C6
:1032C3000DCF1233597009E50AA2E65003023218F2
:1032D3007410120DCFE0F47003A3E0F4605AEEFC17
:1032E300EFFD7403120DCFAA82AB83120F988048AF
:1032F300A2E650447420120DCF12538A701A741A26
:10330300120DCFE0640270307403120DCFAA82ABAA
:103313008379001210A680207420120DCF1233522D
:103323007016741A120DCFE06404700C7403120D3E
:10333300CFAA82AB831210A07422025736EE240B5D
:10334300F582EF12419B22F582E9125030F82212E6
:103353005A4BE06407221241CD640622EE242A125E
:103363004198122F7E24121241982274F412059A66
:10337300EAFEEBFF8C088D099005EBE0600F122D40
:103383004E7003A3E0697005120F02804F7900129B
:10339300536E120F328A828B83E58245836035A395
:1033A300A3A3A3A3A3E05418602AE508241BF58272
:1033B300E509123346120947123A441233461209F9
:1033C30047EE2418125A6D1233E1120F447404129B
:1033D3000B27800879001233E1120F0880278E82B1
:1033E3008F83A3A3A3A3A3A3A3A3A3122F7E240B1F
:1033F300F582EF1233FA223400F5831241F5FB22F2
:103403007403120B277F04020857EE2417F582EF8B
:103413001250302274F712059A74F7120B8BEAFEDE
:10342300EBFF900365E06403600DE064016008E076
:10343300640960030234E18E828F83A3E0707E7C93
:10344300007D007A027B00121E80EE2402FAEF1246
:103453003DB11241A69003561250177953121EB66E
:1034630079001234E6E06409600312387985188222
:103473008519837401124FED9003657404F0740190
:10348300120DCFAA82AB83794A121EB07401120DBA
:10349300CFAC82AD837A5B7B03121E9E90035612E0
:1034A300587D7A03123883900350E0A2E35004D28C
:1034B300F08002C2F0124FDA122B34801E8E828FFC
:1034C30083A3AE82AF83FC7D007A037B10121E8040
:1034D3008E828F83E0F91234E6E4F0120FC274098E
:1034E3000255BE9003631233FE120EA290036522AF
:1034F300C082C083900334124FCC701F900365E0E9
:1035030014600924FC600A14600C800F90033C8053
:1035130032900338802D90033A8028E84960089060
:10352300033512382B700C8A828B83A3E0F9120EB9
:1035330096801B900335123AE070051210FA800E44
:103543009003D2124FCC6006124FBE1220AD02453B
:103553004E74F412059A74FB120B8B8A088B097A4A
:103563000F7B0012164C8A0A8B0BAE0AAF0BEE4F81
:10357300700302365B8E828F831255487950121E78
:10358300B0850882850983A3E06003023643900374
:1035930063E0F47003A3E0F46034900363E064FE3B
:1035A3007003A3E0F46027851882851983123667B8
:1035B3007003A3E0696017850882850983A374EA11
:1035C3001238617A637B037950121EB680728518B4
:1035D30082851983125A2C1250177A567B0379531A
:1035E300121EB09003561250481250177A597B039B
:1035F300794B121EB07A587B0379E1121EB0900307
:103603006AE0C3940F5021900358E0C0E0740212A3
:103613000DCFD0E0F07404120DCF7401F004120D3D
:10362300CFAA82AB83121EC8750A00780A120AE376
:10363300780A120AE3900D47E0F9123842120B2779
:10364300850882850983123660A3F09003657403AD
:10365300F0EEFAEFFB1250007405023405A3E08E7E
:10366300828F8322125A30E068221246862274F532
:1036730012059A74D8120B8B8A088B098A828B8362
:10368300A3A3A31241D27415120DCFAC82AD838ACA
:10369300828B83A3A3A3A3A3A3A3A3123831FAA367
:1036A300E0FB120FC87415120DCFE0706B85088212
:1036B300850983A3A3A3A3A3A3A3A3E0C3940B405C
:1036C300578E828F83A3A3A3A3A3A3A3A3E0640220
:1036D3007046EE240B123410F4703D900365E064E1
:1036E30002603AE064066035900334124FCC600503
:1036F30012382B604F900365E064086005E06404B2
:1037030070167417120DCFE0F9741C120DCFAC8232
:10371300AD8312536E120FCE7428025F4A900334A6
:10372300124FCC701F7508007808120AE37808124C
:103733000AE3EE2410123343125A85123E991238CB
:103743004B120B278E828F831252EA123DC3124112
:10375300A67402120DCF125017EE240D123410C0AE
:10376300E07404120DCFD0E0123854F508A3E0F54D
:1037730009740F7808120D5E7405120DCFE508F079
:103783007419120DCFE0C0E07406120DCFD0E0F033
:10379300741B120DCFE0C0E07407120DCFD0E0F020
:1037A3007416120DCFE0C0E07409120DCFD0E0F013
:1037B3007417120DCFE0C0E07408120DCFD0E0F003
:1037C300EE2410123410C0E0740A120DCFD0E0F0D2
:1037D300741A120DCFE0C0E0740B120DCFD0E0F0DD
:1037E3007427120DCFE0C0E0740C120DCFD0E0F0BF
:1037F300741C120DCFA982AA8389088A09750A004D
:103803007808120ADB7C087D007410120DCFAA829F
:10381300AB83124B7B120B27851882851983AA82EF
:10382300AB83120E9C02371B123AE6640122E0F9C5
:103833008A828B83A3A3A3A3A3A3A3A3A3E022901E
:1038430003631258819003591233FE1210887402D5
:1038530022F0EE240B12502D22125030FA22F07A6D
:10386300567B03795312386C22121EB67A597B03A6
:10387300794B121EB6229003631233FE12112A22D1
:103883007B00121E809003591258817A047B001228
:103893001E8022F0125A902274F212059A74F812C2
:1038A3000B8BEAFEEBFF8C0A8D0B890C8518828546
:1038B3001983AC82AD8375838175821B7408120AE8
:1038C3003BF50DEEFCEFFD851882851983AA82ABCB
:1038D3008312524B7003750D019003B1803BEEFCD4
:1038E300EFFDE508240BFAE509340012524A601E85
:1038F300850882850983A3A3E0650C70118508827E
:10390300850983E0650A7004A3E0650B6038E50868
:103913002414F582E509123346123DBBE508450937
:103923006024E50DA2E040B6850882850983E06541
:103933000A7004A3E0650B70D5850882850983A30B
:10394300A3E0650C70C8AA08AB097408022D64C013
:1039530082C0839003B102454B74F712059A90031A
:10396300B11241F58012EA2414F582EB12334612A8
:1039730041D21216EEEEFAEFFBEA4B70E99003B177
:10398300E4F0A3F00255C17F0702085774F1120552
:103993009AEAFEEBFF890A8C088D098E828F83E0F9
:1039A3008C828D83124462AE82AF83E0124C3B1251
:1039B3004BACC4124C3B123A4DE054038C828D83C2
:1039C300124BAAA2E2E4338C828D83124BA9131308
:1039D30013541F124C3B124BA8A2E7E4338C828D85
:1039E30083A3A3A3A3123A4D8E0C8F0D750E0078FB
:1039F3000C120ADB7C087D00E50824071257F0123D
:103A03000B2712585B8E0C8F0D780C120ADB7C038C
:103A13007D00E508240F1257F0120B27E50AC39423
:103A23000F40148E828F83A3A3A3E0C0E0123A4415
:103A3300123346D0E08006123A44125CB8F00239E1
:103A43008AE5082412F582E50922A3A31244660E2F
:103A5300AF832274F412059A74F9120B8BEAFEEB0E
:103A6300FF8908900334124FCC600E123AE07009BC
:103A7300EEFAEFFB1210F4805F900363E06E7003C5
:103A8300A3E06F70537401650860097A777B0312B2
:103A9300524B70447A007B0212400A8B0BEA450BAF
:103AA3007036900366120DA4851882851983120D52
:103AB3009890036CE0C0E07404120DCFD0E0F07472
:103AC30005120DCF7401F07406120DCF1255481272
:103AD3000E66E9609B120E6C7407023405123AE617
:103AE300640222125A4CA3A3A3A3A3A3E02274F556
:103AF30012059A8A088B098A828B83A3AE82AF83CD
:103B0300E0F9120EBA8E828F83E064EB600C8508B5
:103B130082850983A3E064E17009850882850983AE
:103B2300A3E4F0122B34750A01780A120AE385081C
:103B330082850983A3E0F5087808120AE379001265
:103B43003842120B27120FDA025F4DEAF0A3EBF0B3
:103B530002454E74F612059A9003B4E0701B7C0084
:103B630079017A007B0012100AEA4B600C8A828B7F
:103B730083124FCC6003120F68024FD5C082C083FB
:103B8300123FF2401079FF121004E9F890292AE459
:103B930093C398500479018002790002454E74F072
:103BA30012059A8A088B09890B750C008A828B830C
:103BB300A3A3A3A3A3A3A3A3E0F91210108A0E8BBC
:103BC3000FAE0EAF0F750A01EE4F6003023C7F8507
:103BD3000882850983A3A3A3A3A3A312587D850801
:103BE30082850983A3A3A3A3A3A3A312497B12538F
:103BF3007B120FF88A0C8B0DAE0CAF0DEE4F7003DA
:103C0300023DA28E828F83A3A3A3A3E4F0A3F0E5D6
:103C130008240B123DAEE0C0E0123340D0E0F012B6
:103C230010D0EE240CF582EF124FA0E508240EF518
:103C330082E5091241A3EE240EF582EF12501475AA
:103C43000C01EE2406F8EF123DAA547FF0A3E054D2
:103C5300FC125AE2E054046003023D05900D251264
:103C6300496C74077808120CB98E828F83A3A3A3BF
:103C7300A3A3A3E04508F0A3E04509F08E828F8358
:103C8300A3A3A3A3123DB974077808120D5EE50838
:103C93005407F508E50B607A8E828F83A3A3A3A351
:103CA300A3A3A3A3A37402124BAD240D12467BE07E
:103CB300A2E2500B900351125048A3A3125017E5F0
:103CC300087003023D77EE2406F8EF3400F9E8FAB2
:103CD300E9FB8A828B83E0547FFCA3E054FCFDE57F
:103CE3000824FFF508E434FFF50974077808120C7B
:103CF300B9EC4508F8ED4509F98A828B8312501710
:103D030080728E828F83A3A3A3A3A3A3E044800224
:103D13003C7EE5087005750A0080598E828F83A367
:103D2300A3A3A3A3A3E054206012121646EA547F70
:103D3300245F8E828F83A3A3A3A380238E828F838A
:103D4300A3A3A3A3A3A3E05410600A121646EA5444
:103D53000F240A80DD8E828F83A3A3A3A37401F0B3
:103D6300A3E4123DC374041240018B09EA450970B0
:103D730003124F93E50CA2E050288E828F83A3A3F6
:103D8300A3A31255AEF9EEFAEFFB120FFEE9601290
:103D9300124FC2600312418BEEFAEFFB1216EE755F
:103DA3000A00A90A02573912510B22FAE509340015
:103DB300FB8A828B8322A3A3E0F508A3E0F5092203
:103DC300123DC72212580CA3A3A3A3A32274F41277
:103DD300059A74F7120B8B7E00121010EA4B7003D6
:103DE300023E928A828B83A3A3A3A3A3A3A3A3A329
:103DF300E064066003023E928A828B83A3A3A3A39B
:103E0300A3A3A3E0FF8A828B8312468EE0C0E074F3
:103E130008120DCFD0E01241C612525112501712A0
:103E23001022EF5408606685188285198312587D25
:103E33007A007B00120FF28B0BEA450B704F900355
:103E4300631242B6121EE07C007D007A007B008084
:103E5300288E828F831241B0F47003A3E0F4602DA7
:103E6300900363123E9912537B121BD4E9641A60C8
:103E73001C7C007D00EEFAEFFB120FF28A0A8B0B1B
:103E8300AE0AAF0BEE4F70C97900121EE67E01EE4B
:103E9300F97409023405123E9D22E0FCA3E0FD8E75
:103EA300828F8322C082C083EA4B70059003B58062
:103EB300068A828B83A3A31240B660258A828B83F2
:103EC300A3A3A3A3A3A3A3E0540860E5EC4D60154B
:103ED3008A828B831241B06C7003A3E06D70D28031
:103EE300047A007B0002454E74F212059AEAFEEB57
:103EF300FF890A8C088D097A107B001216E8EA4BB9
:103F0300603F8A828B83A3A3A3A3A3A3A3A3A3E456
:103F13001241B4A3E50A125A52A3123F4E8A828B6E
:103F230083A3A3A3A3E4F0A31241C0A3F01258E612
:103F3300EA240CF582EB124452123F47A3A3F0A3E9
:103F4300F0022D67A3F08A828B8322A3A3E508F0F6
:103F5300A3E509F02274F412059AEAFEEBFF89083F
:103F63008C0A8D0BEE4F605574016508701479014E
:103F7300121004E9F8902922E493C398500F7911A1
:103F8300806A74046508702F123FF240F18E828FAD
:103F930083A3A3A3A3A3A3A3A3A3E508124462A398
:103FA300125FD78E828F83A3A3E4F0A3F09003B5AF
:103FB300124FCC6021800D7402650860D079C180F6
:103FC3002BE0F8A3125041A3A31240B68882898341
:103FD300A3A370ED80039003B5EEF0A3EF124001AD
:103FE3008B0BEA450B7003124F9379000234087967
:103FF30004121004E9F890291DE493C39822F012E7
:104003004006227A207B009003B0E0F91217B42215
:10401300C082C083E9F879009003B5801D8A828B42
:1040230083A3A3A3A3A3A3A3A3A3E068600574FF2F
:10403300687001098A828B83A3A31240B670DE02E3
:10404300454E74F712059AEA4B70059003B5800646
:104053008A828B83A3A31240B660248A828B83A3B4
:10406300A3A3A3A3A3A3A3A3E06970E4EC60148AAE
:10407300828B83E0240D12586EA2E240D380047A2F
:10408300007B000255C1C082C0839003B580068ABD
:10409300828B83A3A31240B660128A828B83A3A36D
:1040A300A3A3A3A3A3A3E06970E580047A007B0024
:1040B30002454E1233FEEA4B2274F212059A8A0A23
:1040C3008B0B8C0C8D0D750800750900EA450B6090
:1040D3002E9003B580068E828F83A3A312410960BD
:1040E3001EAC0CAD0DEEFAEFFB850A82850B831235
:1040F30020ADE9640170DFEEF8EFF988088909AAB9
:1041030008AB09022D67E0FEA3E0FFEE4F2274F730
:1041130012059A9003B51241A67C007D00800DE83C
:10412300FCE9FD88828983A3A31241A6E849603094
:10413300EA687002EB6970E79003B512537BE86A93
:104143007002E96B88828983A3A370081241A69049
:1041530003B580091241A68C828D83A3A312501745
:104163000255C174F712059AEAFEEBFFEE4F601594
:1041730012101C1241D8124FC2600312418BEEFA87
:10418300EFFB1216EE0255C1EE240C1241981241B8
:10419300ED22EE241DF582EF3400F58322F582EF44
:1041A30012419B12454522F582EF12419B1241CDEC
:1041B300221241B822125A5AA3A3A3A3221241B82E
:1041C300A3A322123F481241CD22125A45E022E016
:1041D300FEA3E0FF228E828F83E0241C12467F120F
:1041E30041ED8E828F831241ED221241F5FB1216AF
:1041F300EE22E0FAA3E022C082C083EAFCEBFDECEE
:104203004D700479058044EC24FBF582ED34FF12F4
:104213004FCA7007124251E0F4600512165280E350
:104223009003B0E0C0E0124251D0E0F090291FE4C7
:1042330093F97AB77B0312167CE96401700B7A0059
:104243007B20124F9779008002790402454EEC24BB
:10425300FFF582ED34FFF5832274F412059AA2AFC1
:10426300E433F508C2AF9003B71241096038EE2476
:10427300FBF582EF34FF124FCA7A007B209003B024
:104283006005124F9A8005E0F9121688E4F50AF5E5
:104293000B780A120ADFEEFCEFFD7AB77B031220DC
:1042A300A27402120B27E508A2E092AFEEFAEFFB2D
:1042B300023408125881851882851983AA82AB8338
:1042C3002274F212059A74FC120B8BEAFEEBFF7553
:1042D3000AFE750BFF120FE0E960057911024447EE
:1042E300EE24151234106037900D39E0C43354E0D6
:1042F300F8E0333354FC48C0E0EE2415123343D0C6
:10430300E01244621244588B09EA45096011750AA8
:10431300FFEE240F1234104404125025D2E0F08E25
:10432300828F83122D2C6006EE241212444FEE244A
:10433300131234107010902925E493C0E0EE241377
:10434300123343D0E0F08E828F83E0A2E75004540F
:1043530003801CEE24141234107015900342E0C045
:10436300E0EE2414123343D0E0F0900342E004F073
:10437300EE2411123410640170169005E2E0600D12
:1043830090034DE0700A8E828F83E0700312444CD9
:104393008E828F83E064017013EE240B1241AA64B2
:1043A300027009EE240F1234104440F08518828500
:1043B3001983AC82AD83EEFAEFFB1210468A088BA9
:1043C3000974FE650A700374FFF470098E828F838B
:1043D300A3A31257FCEA450960668E828F83E0C06F
:1043E300E07401120DCFD0E0F07402120DCF125819
:1043F300EA7401120DCF85820C85830D780C120AA5
:10440300DFEE240F123343120947EE240E12341049
:10441300F50C780C120AE39003561209477407123D
:104423000DCFE0F9AC0AAD0B1210407407120B2745
:10443300E9FE74106E700BAA08AB091216EE800227
:104443007E10EEF97404022D64EE2411F582EF124E
:10445300419BE4F022A31233FE79FF12209C221227
:10446300446622F08E828F83A322C082C08374DECF
:10447300120B8B8A828B83A3A3A3A31241A6740E70
:10448300120DCFE8F0A3E912453C740C120DCF12C4
:104493004535240DF582EB123413C0E0741A120D66
:1044A300CFD0E0F0125749EB1241A37420120DCF85
:1044B3001245352415F582EB123413C0E07408124B
:1044C3000DCFD0E0F0EA241CF582EB1241A3741265
:1044D300120DCF1245352411F582EB123413C0E0CF
:1044E3007409120DCFD0E012452974FFF074011244
:1044F3000DCF74FFF07402120DCF74FFF09081376B
:104503001209437404120DCFAC82AD837407120DEC
:10451300CFAA82AB83120E907404120B2779007416
:1045230022120B27802512452D22F085188285192A
:104533008322E8F0A3E9F0EA22123F48A31245449C
:1045430022A3E0F8A3E0F92212537BD083D08202A6
:104553000ABF74EC12059A74EE120B8B8A128B133A
:10456300ECFEEDFF89097426120DCF1257FC742857
:10457300120DCFE0F5107429120DCF124670742B73
:10458300120DCFE0F50EA3E0F50F7508107A1E7B30
:10459300001216E87402120DCF124FA47402120D0A
:1045A300CF124FCC7003024669851882851983AAFE
:1045B30082AB837950124E7F12537B7402120DCF5C
:1045C30012468EA3124FA47410120DCF125FD9742A
:1045D30002120DCFE0240B12467B7402F0120DCFB2
:1045E30012468E7402F0120DCF125A3D1258EA741D
:1045F30002120DCF125390E509F07402120DCFE0B1
:10460300240C12467BE510F07402120DCF1246788B
:10461300E512F0A3E513F07408120DCFE50CF0A337
:10462300E50DF0740A120DCFE510F0850E82850FAB
:1046330083C082C083740D120DCFAC82AD83D0834F
:10464300D0827403120A3BF97402120DCFAA82AB13
:1046530083120FE6E964017005750800800874028F
:10466300120DCF124191A9087412025813E0F50CF0
:10467300A3E0F50D22E0241C12467F22F8A3E012EA
:104683004686223400F98882898322125383A3A3A6
:10469300A3A3A32274EE12059AEAFEEBFF8C088D06
:1046A300098E828F83A37408125060E060088E82A3
:1046B3008F83A37410F012340D60098E828F83A34D
:1046C300E02408F0EE241512341060088E828F83E4
:1046D300A3E004F08E828F83A3A3A3A3A3A3E0602C
:1046E300198E828F83A3A3A3A3A3A3A3E0C333241D
:1046F30002F88E828F83A3E028F0EE241112341087
:104703006005750B0E8003750B008E828F83A3C02B
:1047130082C083EE240D123410D083D082F8E028B7
:10472300250B8C828D83F0EE241112341060051258
:104733004B8B28F0850882850983E0C39475400973
:10474300750800750900024879E0FA7B0012599850
:104753007003024879EEFAEFFB12104CEA850882E7
:10476300850983124FA5EE2402F8EF12366D124924
:10477300731248B5F0EE24040808EF12366D124D9B
:10478300B5A31248B5A3A3F0EE241312489BF0EE91
:10479300241412489BA3F0750A08EE241612341051
:1047A3006010EE241812587AE5082408125A7B7513
:1047B3000A1012340D6016EE241A12587A850A0C68
:1047C300E508250C125A7B7408250AF50A8E828F98
:1047D30083A3A3A3A3A3A3E06059EE2407F510EFDB
:1047E3003400F511851082F583E0C0E0124882128F
:1047F3003346D0E01248A5E0C0E0124882123346A7
:10480300D0E01248A5A312488E120ADB85108285D8
:104813001183E0C333FCE433FD850A0CE508250C62
:104823001257F0120B27851082851183E0C33325BD
:104833000AF50AEE2415123410600BC0E012488208
:10484300123346D0E0F012334012488E120ADBEEE8
:10485300240D123410FC7D00850B0A8E828F83A3F6
:10486300E0F8E50828F8E5093400F9E8250AFAE94B
:104873001257F3120B27AA08AB097F0A02085785C0
:104883000A0CE508250CF582E50922E0F50CA3E006
:10489300F50D750E00780C221241981248BFA3A3A0
:1048A300A322F0050A8E828F83A3A3A3A3A3A3A3AA
:1048B300A322A3A3125AE6A31248BF22124DB9A3FF
:1048C300A32274F612059A8A828B83E0FC90035329
:1048D30012496C74027808120CB9EC4508FCAD0956
:1048E300EA241212496674067808120CB9EC4508DA
:1048F300FCED4509FDEA2415F582EB12341360043F
:10490300780180027800E4C8F9ED49FDEA2411F545
:1049130082EB123413F508880974097808120CB96C
:10492300ED4509FDEA2416124966740B7808120C4A
:10493300B9ED4509FDEA2417124966740C7808128B
:104943000CB9ED4509FD8A828B83A3A3A3A3A3A37B
:1049530012496C740A7808120CB9ECFAED4509FB9C
:10496300024FD5F582EB12419BE0F5087509002251
:10497300E085088285098322A3E0F98508828509F9
:10498300832274EE12059A8A0A8B0BECFEEDFF75F7
:104993000F01E9C3940850057900024B788E828F8A
:1049A30083E9F0124DDEE96003750F00124DC28EEC
:1049B300828F83124E0CEE12574AEF124E01C0E063
:1049C300EE2411123343D0E0124DF9C0E0EE24126D
:1049D300123343D0E01244627408125804A3A3A311
:1049E300E06015124DAAEE2413F582EF1250148ED7
:1049F300828F83A3E02408F08E828F83A3A3A3A3D3
:104A0300A3A3A3A3E060218E828F83A3858208855D
:104A13008309124DEDEE2415F582EF12501485082B
:104A230082850983E02408F08E828F83A3A3A3A346
:104A3300A3E0601A8E828F83A3858208858309127F
:104A43004DD18E828F83A3A3A3A3A3124B9DEE24E8
:104A53001912444FEE241B12444FA3125058E07016
:104A630003024B0CEE2419F8EF3400F98E828F8386
:104A7300A3858208858309E0FAE50A2AF582E50B16
:104A830012341388828983124B9DFAE50A2AF58230
:104A9300E50B123413C0E0EE241A123343D0E012B4
:104AA3004B9D88828983E06059F890291EE493C363
:104AB30098500575110C8008EE2419123410F51165
:104AC3008E828F83A3E0F8E50A28F50CE50B124BE1
:104AD30081120ADBE511C333FCE433FD7AC47B0B9B
:104AE300124B7B120B27EE241B12334374C4F0A327
:104AF300740BF0E511C333F8850882850983E02838
:104B03008006EE2418125CB5F08E828F83A3E0F842
:104B13008E828F83E0C398500302499BA3E0FA8AF5
:104B230008E50A2508F8E50B3400F9EE241DF582A3
:104B3300EF125120124BADC39AC0E0EE241712338B
:104B430043D0E012501D602BEE2417F8EF3400F928
:104B5300880889098882F583E024F2125101240E22
:104B6300FAA3E03400FB88828983124FA4124B8B93
:104B7300C398F0A90F02487D121622740322340051
:104B8300F50D750E00780C2290034EE0F9121F52BA
:104B9300E9F8850882850983E022F0850882850982
:104BA30083E004F022A3A3A3A3A3F08E828F83E068
:104BB3002274F412059A8A088B09EA124C42F0EA2D
:104BC3001313543F124C3BA3A3A3F0EAC4131312D1
:104BD3004C42A3A3F0EB124C34124C4C7409780AE8
:104BE300120D5E124C32124C4B740A780A120D5E8F
:104BF300E50A5401C0E0EC2418F582ED123346D0E7
:104C0300E0124C51740B780A120D5E124C32A3124F
:104C13004C4B740C780A120D5E124C32A3A3A3A35F
:104C2300A3A3A3A3F0740D7808120D5E022F72E5FF
:104C33000A54018C828D8322540F8C828D832254DB
:104C4300038C828D83A3A322A3A3A3A3A3A3F08A8C
:104C53000A8B0B22C082C08379008A828B83A3A331
:104C6300A3A3A3A3E090034D600FE070228A828B7D
:104C730083A3A3E07019098016E060138A828B83F3
:104C8300125372900356E06A7003A3E06B70E7025D
:104C9300454E74F012059A8A0A8B0B890C8C088D89
:104CA30009124DDE124DC2850882850983124E0C0E
:104CB300E50812574AE509124E01C0E0E508241140
:104CC300F582E509123346D0E0124DF9C0E0123AFD
:104CD30044123346D0E01251287408125141601136
:104CE300124DAAE508241312511C125128E024087E
:104CF300F0850882850983A3A3A3A3A3A3A3A3E0A9
:104D03006017850882850983A3124DE9E5082415F8
:104D130012511C124BAD2408F0850882850983A328
:104D2300A3A3A3A3E06019850882850983A3AE82A8
:104D3300AF83124DD1850882850983124BA804F0F5
:104D4300AA08AB0912105EE9F50D70568508828535
:104D53000983A3A3A3A3A3A3124DB57014E0FA8AF6
:104D63000EE50A250EF8E50B125009E50CC39A80EF
:104D730021124DE9E8240EF8E912500990034EE0A0
:104D8300F9121F528E828F83E0F8E50CC39824F248
:104D9300C399C0E0E5082417F582E509123346D02C
:104DA300E0F0A90D025739E50A2408F8E50B3400B1
:104DB300F922124DB922E0850882850983A3228551
:104DC3000A82850B83A3A3124E22E0F9EA22E0F8BC
:104DD300E50A28F582E50B125030228A828B831272
:104DE300573E12105822AE82AF83E0F8E50A28F846
:104DF300E50B3400F922124E35A3A3A3E02212419E
:104E03009BE8124E2EA3A3E022A3A3A3A3A3A3A3D1
:104E1300A3A3124E2E124E22A3A3E0F9EAF822E036
:104E2300FA850A82850B83A3A3A322F0A3E9124E7A
:104E33003522F0850A82850B83A3A3A3A322C08214
:104E4300C0837AC57B0379E2121EB07AC57B030265
:104E5300454EC082C08390035602454BC082C08337
:104E630074FE120B8B851882851983AA82AB837912
:104E73004B124E7F12537B7402024524121EB085DF
:104E8300188285198322C082C083794A121EB00218
:104E9300454E74F612059A9003CDE0FE04F0EEF948
:104EA3001210108B09EA450970EDEE60EAF9024F22
:104EB300D574F012059AEAFEEBFF8C088D09890A76
:104EC3007410120DCFE0F50B7411120DCFE0F50C39
:104ED300121130EA4B7013E50C7042A90AAC08AD0D
:104EE30009EEFAEFFB121148806EE50A6021EA240D
:104EF30002F582EB123413850A082508F8E434001E
:104F030013E813F070098A828B83A3A37401F0E57D
:104F13000C6045E50B70068A828B83E4F0740165AF
:104F23000C7035E50B9003D47004E4F0802AE004A0
:104F3300F0900D26E0F89003D4E0C398401AE4F013
:104F4300900359E06E7003A3E06F700CEEFAEFFB71
:104F53007901120EB4124F5E0257397A017B009029
:104F630003B0E0F91217AE22C082C08374016A70E5
:104F730001EB70077A01124F958012900D1D124FAD
:104F8300A4EA4B6005122CEE8003124F5E02454EDD
:104F93007A207B009003B0E0F9121682223400F5E8
:104FA30083EAF0A3EBF022C082C083900D1F023B83
:104FB3004EC082C083900D21023B4E125A4C22EE0A
:104FC300240CF582EF3400F583124545E84922129B
:104FD3000B277F02020857A2F0E433851882851954
:104FE30083124FF67952121EB622124FF6794212ED
:104FF3001EB622F0AA82AB8322AA08AB099003B0A3
:10500300E0F9121658223400F9E508241DF582E56B
:105013000912419BE8F0A3E9F022125808A3A3E088
:1050230022A3F0EE241512502D22F582EF3400F561
:1050330083E02212503A223400F583E0F8A3E0F92A
:105043008882898322E0F812504E22A3E0F98E82EF
:105053008F83A3A322F0EE241812419822F0EE24AA
:10506300161241982274F412059AEAFEEBFF7A00B5
:105073007B04124F621250F71250179003657409A4
:10508300F012106A8A088B09AC08AD09EE241312DA
:10509300334312537B12524B640170487A0F125000
:1050A300EA60418A828B837402125101FAA3E0FB06
:1050B3008A828B83A3E0FC8A828B83A3A3E0FBEC2D
:1050C300850882850983A3A3124FA5888289831249
:1050D300537F124973125024FAA3E0FB794A121E3C
:1050E300B6124FFC0234087B0012164C8A088B0957
:1050F300EA450922900336124545900D2122F0EE30
:10510300241DF8EF12510B22124686E0221251148D
:10511300223400F5837401F022F582E50912419BE4
:10512300E8F0A3E92212512C2212513022F0850813
:1051330082850983A322125130A3A3A3A322125170
:1051430039A3A3E0221255521210BE22EE2417F502
:1051530082EF12511412106AEE241A124198EAF0E7
:10516300A3EBF02274F412059A74F3120B8B8908E3
:10517300EAFEEBFF7C0D7D0079008518828519839B
:10518300AA82AB8312162EEE241D123343125A3D0C
:10519300A3E0F8741F58600A7901121E8679000291
:1051A3005242E8A2E55008740C120DCF7401F0E8E6
:1051B300A2E75008740B120DCF7401F0E8A2E67455
:1051C3000A5008120DCF7401F08008120DCFE0646D
:1051D300017005EE24138003EE241512587A74022D
:1051E300120DCFAA82AB83121E9E1233401252506D
:1051F300125017740A120DCFE064017033122D217F
:10520300703B1210768A0A8B0BA80AA90BEE240BAB
:10521300123410687003A3E069702212106AEAFC6A
:10522300EBFD7402120DCFAA82AB8312524B600DB9
:10523300851882851983AA82AB83120EAEA90874DE
:105243000D023405EEFAEFFB121E98E922E012522A
:105253005522F8A3E0F98518828519832274F61282
:10526300059A74F3120B8B8A088B09ECFEEDFF7C15
:105273000D7D007900851882851983AA82AB83127C
:105283005BE2A3A3A3A3A3A3A3A3A31252EA125271
:10529300F3F8A2E55008740B120DCF7401F0E8A2E5
:1052A300E75008740A120DCF7401F0E8A2E6EE503D
:1052B3000424138002241512587A7402120DCF129B
:1052C30052DCA3A3E0C0E0740C120DCFD0E0125562
:1052D3004A120EA8740D024FD2AA82AB83121E9EED
:1052E30085088285098322E0125255E8F0A3E9225A
:1052F300F0124195125A41A3E02274F712059A74F1
:10530300E1120B8BEAFEEBFF8E828F8312537FA396
:10531300A3A3E0A2E050518E828F83122E818A8252
:105323008B83A3A3A3A3A3A3E054FE1253978A8260
:105333008B83125390E0F98A828B83E0241CFAA3B7
:10534300E0123DB112537B121064E9701B741D12FD
:105353000DCF12538A7011851882851983AC82ADE3
:1053630083EEFAEFFB1210AC0255BC8E828F83A33F
:10537300A3A3A3A3A3A3A3A31233FE2212538322A3
:10538300125A45A3A3A3221241CD640422E0241B95
:1053930012467F2212452DAC82AD8322E9F87900B3
:1053A300740468600A740A6860057403687001090C
:1053B300020ABF74F612059A8A828B837420F0A3C3
:1053C300A37401F0120E5A8A088B09AE08AF09EED6
:1053D3004F60108E828F837401F09003A3E07003FB
:1053E30012514FEEFAEFFB024FD5C082C0839003F8
:1053F300B97401F0E9A2E350037403F0E9A2E150A8
:1054030004E0D2E2F002454E74F612059A79007C6C
:10541300008A088B097808120811F8FF073E543CEC
:10542300543C543C543C54355439543E5432540C3B
:1054330080097C0480050C80F67C089003B9E05C4D
:105443006003098003EC600109024FD574F612056D
:105453009A8A828B83E07012A3124FCC600C8A82EB
:105463008B8312537A12200C80047A007B00024F44
:10547300D574F512059A74F3120B8B8A088B09EC19
:10548300FEEDFF750A12EA450970057900025543DE
:10549300900356E065087004A3E0650970141210C8
:1054A3006AEAFCEBFD1252477005750A0180037529
:1054B3000A00851882851983E4F004120DCFE508EC
:1054C300F0A3E50912554A120E1EE9602774031270
:1054D3000DCFAA82AB83120E00E964017016750A20
:1054E300017403120DCFAC82AD8312524760217554
:1054F3000A00801C7412650A70169003A2E064020D
:10550300700EEEFCEFFDAA08AB09120E36E970DF50
:10551300EEFCEFFDAA08AB09121136E9F8740A682C
:105523007005750A01801774A0687012EEFCEFFD18
:10553300AA08AB09121142AA08AB09121154A90A0D
:10554300740D025F4A740212554E221255522212F2
:10555300452DAA82AB832274F712059AEAFEEBFF6C
:105563008E828F83A3A3A3A3A3A3A3A3E06015EEBB
:1055730024151233431233EE1210D6E9640170047A
:10558300790180258E828F83A3A3A3A3A3A3A3E082
:105593006015EE24131233431255AEFAA3E0FB1247
:1055A30010D6E9640160D979008013123E9DA3A34C
:1055B300A3A3A3A3A3A3A3E022741F120B277F011A
:1055C30002085774F012059A74FD120B8B8A088B2C
:1055D30009ECFEEDFF890B7413120DCFE0F50C758A
:1055E3000A017401120DCF7404125A756048E50C58
:1055F300601DEA2417F582EB125CB8125A638A82A3
:105603008B83E0D2E7F0EA2414F582EB12445212C2
:105613005749EB1250367403125FDBEE888289839D
:10562300A3A3F0EF88828983A3A3123F47123F4EBF
:10563300120E54E9F50AA90A740302573674EC12E0
:10564300059A74F5120B8B8A0A8B0B890C8C0E8DC1
:105653000F741F120DCFE0F50D7420120DCFE0F57E
:1056630010A3E0F5117E01EE120DCF740AF0E9707C
:1056730007E50DC333240AF012581B700302571DAC
:105683001258307409F0A3E50CC43354E0450D12ED
:105693005842E50C702D7C008023ECC333F8E433CF
:1056A300F9E51028F8E51139F98882898312572A18
:1056B30088828983123660F0A30EAF830CECC39506
:1056C3000D40D7E5082417F582E509125110121091
:1056D3006AE508241AF582E509124FA07403120D36
:1056E300CFAC82AD83AA0AAB0B120E06E96019E5B3
:1056F300082416F582E509125724120DCFA882A9B2
:1057030083E5082418125010850882850983125FE7
:10571300D7AA08AB09120E54E9FEEEF9740B02582E
:1057230013125114740322E08E828F83F0A3AE828E
:10573300AF8322120B277F080208571241F5F9EABB
:105743002400E439FB22EA240BF5822274EE1205CD
:105753009A8A0C8B0D890E8C088D097412120DCF49
:10576300E0F50F7413120DCF1257FC900551124F31
:10577300CC6077E50FC333F8E433F9E8240EFAE994
:105783003400FB12164C8A108B11AE10AF11EE4F82
:1057930060588E828F8374D4F0A3A3E50CF0A3E545
:1057A3000D125804E50EF0AC08AD09EE2405FAEF2E
:1057B300125A7EEE240D123343E50FF0850A088555
:1057C3000B09750A007808120ADBE50FC333FCE402
:1057D30033FDEE240EFAEF1257F3120B27EEFAEF16
:1057E300FB900551125A3D1220AD02487DFAE5099E
:1057F3003400FB121622740322E0F50AA3E0F50B32
:10580300221258082212580C22124466A3A3A32280
:10581300120B277F0C020857851882851983AA82E9
:10582300AB831210BE8A088B09EA450922EA240BCE
:10583300F582EB125030FEA3E0FF8E828F8322F0BD
:10584300A3AE82AF83AC0EAD0FEEFAEFFB1258544A
:1058530022121E9E12585B22EE2408FEEF3400FF34
:1058630022E0FA8E828F83A3A3E022FEA3E034001A
:10587300FF8E828F83E02212419812588122E0FC2E
:10588300A3E0FD221233FE1210522274F612059A7F
:10589300EAFEEBFF9003BA801388828983E06E707F
:1058A30003A3E06F603A88828983A3A3124FCC706D
:1058B300E87A047B001216E88A088B09A808A9096C
:1058C300E849601C888289831258EA9003BA12530C
:1058D3007B88828983A3A3124FA49003BA12501723
:1058E300024FD58A828B83EEF0A3EFF02274F41279
:1058F300059A7E009003BA80070E88828983A3A34A
:10590300124FCC70F4EEC333FAE433FB12599860B0
:105913007E7F009003BA80248882898312587DEFAA
:10592300C333FAE433FBE5082AF582E5093BF58343
:10593300ECF0A3EDF00F88828983A3A3124FCC7000
:10594300D79003AB122D5B7003A3E069780870193D
:10595300120ADFEEF50A780A120AE37C777D0379EF
:10596300009003AB1259A3801A120ADFEEF50A78EE
:105973000A120AE37C777D0379009003AB12537B11
:105983001210E87403120B27AA08AB091216EE12C1
:105993000E6C0234081216E88A088B09EA450922BC
:1059A3001233FE1210EE22C082C08380128A828BD1
:1059B30083A3A31241A69003BA1250171216EE90B6
:1059C30003BA1240B670E602454E74F612059A9079
:1059D30003631241D29003CE125A2C1250177ACE7F
:1059E3007B037950121EB69003CE122F7AFAEFFB87
:1059F30012114E9003CE1241D2900553124FCC6038
:105A0300257A067B0012164CEA4B601A8A828B8336
:105A130074D5F0A3A3E4125A5204125A63900553A7
:105A2300125A3D1220AD024FD5125A3022E0F8A38C
:105A3300E0F9900363228E828F83125A4122125A15
:105A43004522E0F8125A4B22A3E0F5838882221202
:105A53005A5622125A5A22F08A828B83A3A3A32274
:105A6300125A56A3EEF0A3EFF022F582EF12503054
:105A7300F922125148EA4B22FAE5093400FB121EBF
:105A83009E2212504FA3A3A3A3A3A3A32290292032
:105A9300E4932401F8E43400F97A027B002274F7DA
:105AA30012059A7E00800412608E0E125BB240F7DC
:105AB3007E00EE125ACD74FEF0A304125AE2E4F013
:105AC3000EEEC3940340EB0255C175F003A4F8A98D
:105AD300F074BC28F8740339F988828983A32212ED
:105AE3005AE622F0888289832274F712059A7F008E
:105AF30080010F902928E493F8EFC3985026EF1202
:105B03005C9E6A7003A3E06B70E812603B6C7003E9
:105B1300A3E06D600A74FF6C700374FF6D70D312A1
:105B23005BA980047A007B000255C174F612059AC2
