:100000000211198F99D2002000FD22020C37E4FF63
:10001000FE120046600C0FEF70010E09E970F20A43
:1000200080EF2202128F75985053890F43892075F3
:100030008DFA758BFA438780D2ACD28ED29CD2AF28
:01004000229D
:1000430002122EBB010689828A83E0225002E72234
:10005300BBFE02E32289828A83E49322BB010CE57F
:100063008229F582E5833AF583E0225006E9258269
:10007300F8E622BBFE06E92582F8E222E58229F5AD
:1000830082E5833AF583E49322BB010689828A835E
:10009300F0225002F722BBFE01F322F8BB010DE56B
:1000A3008229F582E5833AF583E8F0225006E925B3
:1000B30082C8F622BBFE05E92582C8F222BC000BEA
:1000C300BE0029EF8DF084FFADF022E4CCF875F08B
:1000D30008EF2FFFEE33FEEC33FCEE9DEC9840056A
:1000E300FCEE9DFE0FD5F0E9E4CEFD22EDF8F5F030
:1000F300EE8420D21CFEADF075F008EF2FFFED3338
:10010300FD4007985006D5F0F222C398FD0FD5F0B5
:10011300EA22C2D5EC30E709B2D5E4C39DFDE49CE5
:10012300FCEE30E715B2D5E4C39FFFE49EFE120058
:10013300C0C3E49DFDE49CFC80031200C030D507DE
:10014300C3E49FFFE49EFE22C5F0F8A3E028F0C5B8
:10015300F0F8E582158270021583E038F022A3F8E7
:10016300E0C5F025F0F0E582158270021583E0C842
:1001730038F0E822E88FF0A4CC8BF0A42CFCE98EB5
:10018300F0A42CFC8AF0EDA42CFCEA8EF0A4CDA8FC
:10019300F08BF0A42DCC3825F0FDE98FF0A42CCD05
:1001A30035F0FCEB8EF0A4FEA9F0EB8FF0A4CFC5E5
:1001B300F02ECD39FEE43CFCEAA42DCE35F0FDE46F
:1001C3003CFC2275F008758200EF2FFFEE33FECD65
:1001D30033CDCC33CCC58233C5829BED9AEC99E504
:1001E3008298400CF582EE9BFEED9AFDEC99FC0F94
:1001F300D5F0D6E4CEFBE4CDFAE4CCF9A88222B85C
:1002030000C1B90059BA002DEC8BF084CFCECDFCE0
:10021300E5F0CBF97818EF2FFFEE33FEED33FDEC6D
:1002230033FCEB33FB10D703994004EB99FB0FD856
:10023300E5E4F9FA227818EF2FFFEE33FEED33FDF4
:10024300EC33FCC933C910D7059BE99A4007EC9BF3
:10025300FCE99AF90FD8E0E4C9FAE4CCFB2275F083
:1002630010EF2FFFEE33FEED33FDCC33CCC833C894
:1002730010D7079BEC9AE899400AED9BFDEC9AFC9A
:10028300E899F80FD5F0DAE4CDFBE4CCFAE4C8F949
:1002930022EB9FF5F0EA9E42F0E99D42F0E89C458F
:1002A300F022ECF0A3EDF0A3EEF0A3EFF022A8828E
:1002B3008583F0D083D0821202C81202C81202C80A
:1002C3001202C8E473E493A3C583C5F0C583C8C50C
:1002D30082C8F0A3C583C5F0C583C8C582C822A45C
:1002E3002582F582E5F03583F583229001A0ECF0B9
:1002F300A3EDF0A3EAF0A3EBF090019EEEF0A3EFE1
:10030300F09001ADEEF0A3EFF09001A6E0FBA3E0C7
:10031300FAA3E0F91200467003020575C3948050F6
:1003230003020568E49001ABF0A3F09001ABE0FE9B
:10033300A3E0FFC3941CEE9400400302054D90011B
:10034300A6E0FBA3E0FAA3E0F9120046FD901879BA
:1003530075F022EF1202E2EE75F022A42583F583F5
:10036300E4936D600302053C90000112005FFF906F
:1003730001ABE0FCA3E090187A75F0221202E2ECE4
:1003830075F022A42583F583E4936F600302053C93
:100393009001A9F0E49001AAF09001ABE0FEA3E084
:1003A30090187B75F0221202E2EE75F022A42583E9
:1003B300F583C083C0829001A9E0FDD082D083750C
:1003C300F0021202E2E493FB3395E0FA9001AAE013
:1003D300FC74807E00A804088006CEA2E713CE1327
:1003E300D8F8FFEE5AFEEF5B4E6021ECFF90019FC1
:1003F300E02FFF90019EE03400FE9001A1E02DFD6F
:100403009001A0E03400FC9001A2803B9001A4E0A5
:10041300FEA3E0FF9001A2E06E7003A3E06F602AE9
:100423009001AAE0FF90019FE02FFF90019EE0342E
:1004330000FE9001A9E0FD9001A1E02DFD9001A037
:10044300E03400FC9001A412139E9001AAE004F092
:10045300E0C39408500302039CE49001AAF09001C6
:10046300ABE0FEA3E090187C75F0221202E2EE7579
:10047300F022A42583F583C083C0829001A9E0FD07
:10048300D082D08375F0021202E2E493FB3395E04D
:10049300FA9001AAE0FC74807E00A804088006CECE
:1004A300A2E713CE13D8F8FFEE5AFEEF5B4E602798
:1004B300ECFF90019FE02FFF90019EE03400CF24DA
:1004C30008CF3400FE9001A1E02DFD9001A0E0349F
:1004D30000FC9001A280419001A4E0FEA3E0FF9004
:1004E30001A2E06E7003A3E06F60309001AAE0FF09
:1004F30090019FE02FFF90019EE03400CF2408CFAE
:100503003400FE9001A9E0FD9001A1E02DFD9001D2
:10051300A0E03400FC9001A412139E9001AAE00411
:10052300F0E0C3940850030204619001A9E004F0D1
:10053300E0C3941050030203979001ACE004F07001
:10054300069001ABE004F002032E9001A7E475F0DE
:100553000212014B90019FE02410F090019EE034C1
:1005630000F002030C9001A7E475F00112014B02A5
:10057300030C2290010FEEF0A3EFF0A3ECF0A3ED38
:10058300F0A3EBF0A3EAF0A3E9F0E490011AF0A3DF
:10059300F0900113E0FBA3E0FAA3E0F912000E9040
:1005A300011AE0FCA3E0FDC39FEC9E400302075D3C
:1005B300900113E0FBA3E0FAA3E0F98D828C831290
:1005C300005FFFC394A14009900146EFF0E4A3F05C
:1005D30022900113E0FBA3E0FAA3E0F990011AE0F3
:1005E300FEA3E0F5828E8312005FFFE4FCFDFE7B39
:1005F30010FAF9F81201779001221202A5E4FBFA2E
:10060300900122A3A3E0FEA3E02BFFEE3AFE74BB0E
:100613002FF582741A3EF583E493FF74262BF5823B
:1006230074013AF583EFF00BBB00010AEB64104A47
:1006330070CEE490011EF0A3F0E490011CF0A3F04F
:1006430090011CE0FEA3E0FFC39408EE6480948055
:10065300400302072A7C007D0812011574807E0086
:10066300A805088006CEA2E713CE13D8F8FF9001A1
:100673001EE0FCA3E0FD2426F58274013CF583E033
:10068300FB3395E05EFEEF5B4E604190011CE0FEA4
:10069300A3E0FF900110E02FFB90010FE03EFA90E2
:1006A300011AE0FEA3E07803C333CE33CED8F92B8F
:1006B300FFEA3EFE900120F0A3EFF0900111E0FA73
:1006C300A3E02DFDEC3AFC900116804790011CE05D
:1006D300FEA3E0FF900110E02FFD90010FE03EFC30
:1006E30090011AE0FEA3E07803C333CE33CED8F9EA
:1006F3002DFFEC3EFE900120F0A3EFF0900111E0FE
:10070300FCA3E0FD90011FE02DFD90011EE03CFCE9
:1007130090011812139E90011DE004F070069001E1
:100723001CE004F002064390011FE004F070069001
:10073300011EE004F0C390011FE0941090011EE03D
:1007430064809480500302063C90011BE004F07027
:100753000690011AE004F00205942212183E7F115C
:100763001218577F787E0012172B7FB11218577F0C
:100773000112180A7F2C12180A7F2D12180A7FB251
:100783001218577F0112180A7F2C12180A7F2D1294
:10079300180A7FB31218577F0112180A7F2C1218F8
:1007A3000A7F2D12180A7F0112180A7F2C12180AC9
:1007B3007F2D12180A7FB41218577F0712180A7F69
:1007C300C01218577FA212180A7F0212180A7F84D8
:1007D30012180A7FC11218577FC512180A7FC21256
:1007E30018577F0A12180AE4FF12180A7FC3121857
:1007F300577F8A12180A7F2A12180A7FC4121857C1
:100803007F8A12180A7FEE12180A7FC51218577FC3
:100813000E12180A7F361218577FC812180A7FE083
:100823001218577F0F12180A7F1A12180A7F0F1215
:10083300180A7F1812180A7F2F12180A7F28121815
:100843000A7F2012180A7F2212180A7F1F12180A21
:100853007F1B12180A7F2312180A7F3712180AE423
:10086300FF12180A7F0712180A7F0212180A7F1054
:1008730012180A7FE11218577F0F12180A7F1B12F2
:10088300180A7F0F12180A7F1712180A7F331218DB
:100893000A7F2C12180A7F2912180A7F2E12180AAF
:1008A3007F3012180A7F3012180A7F3912180A7F14
:1008B3003F12180AE4FF12180A7F0712180A7F036F
:1008C30012180A7F1012180A1218037F0212180A4C
:1008D300E4FF12180A7F8212180A7F2B1218057F71
:1008E3000312180AE4FF12180A7F8312180A7FF012
:1008F3001218577F0112180A7FF61218057F3A1251
:1009030018577F0512180A7F29021857900157EECE
:10091300F0A3EFF0A3ECF0A3EDF0A3EBF0A3EAF068
:10092300A3E9F0E4A3F0A3F090015BE0FBA3E0FAFA
:10093300A3E0F912000E90015EE0FCA3E0FDC39F6B
:10094300EC9E4003020AA690015BE0FBA3E0FAA33E
:10095300E0F98D828C8312005FFFC394A14009905C
:100963000188EFF0E4A3F02290015BE0FBA3E0FA3F
:10097300A3E0F9A3E0FEA3E0F5828E8312005FFFFC
:10098300E4FCFDFE7B10FAF9F81201779001641282
:1009930002A5E4FBFA900164A3A3E0FEA3E02BFF0E
:1009A300EE3AFE74BB2FF582741A3EF583E493FF8F
:1009B30074682BF58274013AF583EFF00BBB0001E9
:1009C3000AEB64104A70CEE4900162F0A3F0E49065
:1009D3000160F0A3F0900160E0FEA3E0FFC3940880
:1009E300EE648094804003020A707C007D0812014B
:1009F3001574807E00A805088006CEA2E713CE13E7
:100A0300D8F8FF900162E0FCA3E0FD2468F582744E
:100A1300013CF583E0FB3395E05EFEEF5B4E603C0B
:100A2300900160E0FEA3E0FF900158E02FFB9001EE
:100A330057E03EFA90015EE0FEA3E07803C333CEB5
:100A430033CED8F92BFFEA3EFE900159E0FAA3E03A
:100A53002DFDEC3AFC7B007AF81213A3900161E0C0
:100A630004F07006900160E004F00209D89001637D
:100A7300E004F07006900162E004F0C3900163E0CB
:100A83009410900162E06480948050030209D19035
:100A9300015FE004F0600302092B90015EE004F0C3
:100AA30002092B22900107EEF0A3EFF0A3ECF0A3D1
:100AB300EDF0A3EAF0A3EBF0900114E4F0A37411BA
:100AC300F090010FE0FBA3E0FAA3E0F912004670F7
:100AD30003020C36C394805003020C29E4900112E4
:100AE300F0A3F0900114E0FEA3E0FF900112E0FCFC
:100AF300A3E0FDC39FEC9E4003020C0E90010FE0A8
:100B0300FBA3E0FAA3E0F9120046FF90187975F011
:100B130022ED1202E2EC75F022A42583F583E4931F
:100B23006F6003020BFD90000112005FFF90011242
:100B3300A3E090187A75F0221202E2EC75F022A479
:100B43002583F583E4936F6003020BFD900107E0B7
:100B5300FAA3E0FBFFAE02C006C007A3E0FCA3E0DC
:100B6300FDEB240FFBE43AFA900109E0FEA3E02435
:100B73000FFFE43E900154F0A3EFF0D007D006122C
:100B8300152DE4FBE4FA900112E0FEA3E090187B3C
:100B930075F0221202E2EE75F022A42583F583E5B7
:100BA300822BF582E43583F583E493FD3395E0FCF2
:100BB30074807E00A802088006CEA2E713CE13D865
:100BC300F8FFEE5CFEEF5D4E600590010B80179021
:100BD300010DE0FEA3E0FF90010BE06E7003A3E0C4
:100BE3006F600B90010DE0FEA3E0FF12178A0AEA83
:100BF300640870920BEB6420708A900113E004F098
:100C03007006900112E004F0020AE6900110E47508
:100C1300F00212014B900108E02410F0900107E06C
:100C23003400F0020AC4900110E475F00112014B84
:100C3300020AC422C0E0C0F0C083C082C0D075D015
:100C430000C000C001C002C003C004C005C006C08C
:100C530007758C4C758A00E47F307E75FDFC90012E
:100C6300AFE0F8A3E0F9A3E0FAA3E0FBC312029418
:100C73009001AF501EE0FCA3E0FDA3E0FEA3E0243F
:100C830001FFE43EFEE43DFDE43CFC9001AF1202B3
:100C9300A580071202B100000000E47B28FAF9F8EE
:100CA3009001AFE0FCA3E0FDA3E0FEA3E0FF12028E
:100CB30002AC00AD01AE02AF03E4FBFAF9F8C312D4
:100CC300029470059001B504F0E47B1EFAF9F890E4
:100CD30001AFE0FCA3E0FDA3E0FEA3E0FF120202EC
:100CE300AC00AD01AE02AF03E4FBFAF9F8C31202A4
:100CF3009470059001B604F0E47B3CFAF9F8900196
:100D0300AFE0FCA3E0FDA3E0FEA3E0FF120202AC10
:100D130000AD01AE02AF03E4FBFAF9F8C31202948B
:100D230070059001B304F0E47B50FAF9F89001AF39
:100D3300E0FCA3E0FDA3E0FEA3E0FF120202AC008F
:100D4300AD01AE02AF03E4FBFAF9F8C312029470EB
:100D5300059001B404F0900000E06018900083E077
:100D6300D394004005E014F0800A900000E4F09072
:100D7300008104F0900085E06018900084E0D39433
:100D8300004005E014F0800A900085E4F09001062D
:100D930004F0D007D006D005D004D003D002D00190
:100DA300D000D0D0D082D083D0F0D0E03290010FE9
:100DB300EBF0A3EAF0A3E9F01217037FCC12174B71
:100DC3007F4412174B7F7D7E0012184C1217037F4E
:100DD300CC12174B7FBE12174B1216DA9001B8EFE5
:100DE300F01216DA9001B7EFF0D3947F400DA3E031
:100DF300F4F09001B7E0F404F0C2029001B8E0FD12
:100E0300C4540FFB7A009001B7E075F010A42BFED9
:100E1300EA35F09001BAF0A3CEF0ED540FFD75F072
:100E23000AA4FFE5F0C4F854F0C8EFC4540F489087
:100E330001BDF0ED75F064A4FFE5F0C4F854F0C80B
:100E4300EFC4540F4875F00A84AFF0A3EFF090019C
:100E5300BDE075F00AA42F9001B9F0A3E0FEA3E072
:100E6300FF7C007D0A1200C0EF2430FF90010FE0E9
:100E7300FBA3E0FAA3E0F9EF12008C9001BAE0FEC5
:100E8300A3E0FF7C007D0A1200C0ED2430FF900137
:100E93000FE0FBA3E0FAA3E0F9900001EF12009E3C
:100EA300900002742E12009E9001BDE075F00A843A
:100EB300E5F0243090000312009E90000474431266
:100EC300009E900005E412009E9001BAE0FEA3E0AC
:100ED300FF2290010DEBF0A3EAF0A3E9F0E4A3F005
:100EE300A3F0FF1215AA900110EEF0A3EFF090010A
:100EF30010E0FEA3E0FF7C037DE81200C0EF243086
:100F0300FF90010DE0FBA3E0FAA3E0F9EF12008CE0
:100F1300900110E0FEA3E0FF7C037DE81200C07E99
:100F2300007F64CFCDCFCECCCE1200C0EF2430FFF4
:100F330090010DE0FBA3E0FAA3E0F9900001EF12AA
:100F4300009E900110E0FEA3E0FF7C007D64120090
:100F5300C07E007F0ACFCDCFCECCCE1200C0EF240F
:100F630030FF90010DE0FBA3E0FAA3E0F99000024B
:100F7300EF12009E900110E0FEA3E0FF7C007D0ACB
:100F83001200C0ED2430FF90010DE0FBA3E0FAA3B3
:100F9300E0F9900003EF12009E900004E412009E1B
:100FA3009001CCE0FF2290010DEBF0A3EAF0A3E95E
:100FB300F07F011215AA900111EEF0A3EFF090015A
:100FC30011E0FEA3E0FF7C037DE81200C0EF2430B4
:100FD300FF90010DE0FBA3E0FAA3E0F9EF12008C10
:100FE300900111E0FEA3E0FF7C037DE81200C07EC8
:100FF300007F64CFCDCFCECCCE1200C0EF2430FF24
:1010030090010DE0FBA3E0FAA3E0F9900001EF12D9
:10101300009E900111E0FEA3E0FF7C007D641200BE
:10102300C07E007F0ACFCDCFCECCCE1200C0EF243E
:1010330030FF90010DE0FBA3E0FAA3E0F99000027A
:10104300EF12009E900111E0FEA3E0FF7C007D0AF9
:101053001200C0ED2430FF90010DE0FBA3E0FAA3E2
:10106300E0F9900003EF12009E900004E412009E4A
:10107300900110E0FF2274FFFFFE1215E474FF904D
:10108300010DF0A3F0A3F0A3742AF0A374BCF07BCA
:101093001F7A007D0A7C007F0F7E00120AA774FF6F
:1010A30090010DF0A3F0A3F0A3742AF0A374C9F088
:1010B300E4FBFA7D28FC7F05FE120AA774FF90016A
:1010C3000DF0A3F0A3F0A3742AF0A374CFF0E4FB14
:1010D300FA7D3CFC7F05FE120AA77BFF7A2A79D5AD
:1010E300E4900116F0A3F074FFA3F0A3F07D507C0D
:1010F300007F057E0012057674FF90010DF0A3F0CA
:10110300A3F0A3742AF0A374D8F0E4FBFA7D64FC83
:101113007F05FE020AA7787FE4F6D8FD75812002D9
:1011230011600211A5E493A3F8E493A34003F680AE
:1011330001F208DFF48029E493A3F85407240CC8D0
:10114300C333C4540F4420C8834004F4568001467B
:10115300F6DFE4800B01020408102040809013F2B4
:10116300E47E019360BCA3FF543F30E509541FFEA6
:10117300E493A360010ECF54C025E060A840B8E417
:1011830093A3FAE493A3F8E493A3C8C582C8CAC59A
:1011930083CAF0A3C8C582C8CAC583CADFE9DEE72C
:1011A30080BE12182C9001B5E06008121349E49038
:1011B30001B5F09001B6E06008121445E49001B661
:1011C300F09001B3E06008121494E49001B3F0903E
:1011D30001B4E060081214E3E49001B4F090019CC0
:1011E300E0602D900081E060127B017A00790112AA
:1011F30012EEE4900081F0900080F090019DE0FFFA
:101203009001CCE0D39F4004D2818099C281809524
:10121300900081E0608F7B017A0079011212EEE485
:10122300900081F0900080F00211A8C0E0C083C05C
:1012330082C0D075D008E59A30E03E539AFE900103
:1012430006E0700590008504F0900105E0C3947FEB
:10125300501C9000847401F0900105E0FF04F074C9
:10126300862FF582E43400F583E59BF0800B900133
:10127300067401F0900105E4F0E59A30E105539A14
:10128300FDC201D0D0D082D083D0E032C0E0C08391
:10129300C082C0D075D000C00730983DC29890007E
:1012A30081E0700590000004F0900080E0C3947F1B
:1012B300501C9000837401F0900080E0FF04F074F0
:1012C300012FF582E43400F583E599F0800B90005B
:1012D300817401F0900080E4F0309904C299C20057
:1012E300D007D0D0D082D083D0E03212004664EE53
:1012F300705390000112005F64CC7049900011128A
:10130300005FF4704090000912005FFFB42A14904C
:10131300001012005F90019CF090000F12005F908C
:10132300019DF0EFB4801E90000A12005F24ED705F
:101333001490001012005F6004D2818002C2819079
:1013430001B47401F0227B017A017907120DB09088
:10135300010DEEF0A3EFF07B017A017907900116FE
:1013630074F8F0A3E4F074FFA3F0A3F07D287C00ED
:101373007F327E00120576E49001BFF0A3F0900166
:101383000DE0FCA3E0FDEC9001C1F0A3EDF07B01C7
:101393007A0179BFE4FD7F08021570E0FAA3E0FB50
:1013A300900148EEF0A3EFF090014CEAF0A3EBF0CC
:1013B30090014AECF0A3EDF0900148E0FAA3E0FFBE
:1013C300AE02C006C0072401FBE43AFAA3E0FEA381
:1013D300E02401FFE43E900154F0A3EFF0D007D0E6
:1013E3000612152D90014CE0FEA3E0FF02178A417F
:1013F30001B5004101B6004101B3004101B400440D
:1014030001BF0000000041019C0041019D05520104
:101413008AEECC000000000000006A00000000001B
:101423000000FF41008100410106004101B8004175
:1014330001B7004101BD004101BE004101B900C136
:1014430082007B017A017907120ED590010CEFF02F
:101453007B017A01790790011674F8F0A3E4F07424
:10146300FFA3F0A3F07D3C7C007F327E0012057663
:10147300E49001BFF0A3F090010CE0FF9001C1E400
:10148300F0A3EFF07B017A0179BFE4FD7F0A021537
:10149300707B017A017907120FA990010CEFF07BA1
:1014A300017A01790790011674F8F0A3E4F074FF50
:1014B300A3F0A3F07D507C007F327E00120576E41A
:1014C3009001BFF0A3F090010CE0FF9001C1E4F0A4
:1014D300A3EFF07B017A0179BFE4FD7F0902157068
:1014E3007BFF30810E7A2A79DE90011674F8F0A31F
:1014F300E4800A7A2A79E2E4900116F0A3F074FFFB
:10150300A3F0A3F07D647C007F327E00120576E4B5
:101513009001BFF0A3F0A3F0A28133A3F07B017A83
:101523000179BFE4FD7F1302157090014EEEF0A325
:10153300EFF012180390014EA3E02402FF12180AE1
:10154300E4FF12180AEB2402FF12180A7F2B121869
:1015530005ED2403FF12180AE4FF12180A90015440
:10156300A3E02403FF12180A7F2C02185790019559
:10157300EDF0120046900197F090000112005F9089
:101583000198F090000212005F900199F09000031F
:1015930012005F90019AF0900194EFF07B017A01C1
:1015A300798A7D120216807EFAE4F5BDF5BEE5BCAC
:1015B30054E044084FF5BCE5BC30E41E53BCEFAF28
:1015C300BDEFFD7C007E007802C333CE33CED8F965
:1015D300FFE5BE5403FDEF4DFF22DEDB7E047F00FB
:1015E30022900107EEF0A3EFF0900154E4F0A3740E
:1015F3007FF0FB7A00E4FDFCFFFE12152DE4FBE413
:10160300FA900107E0FEA3E0FF12178A0AEAB4800A
:10161300F00BEBB480E9229001C3EBF0A3EAF0A353
:10162300E9F09001C3E0FBA3E0FAA3E0F91200465E
:1016330060179001C3A3E475F001120161A9F0FAE8
:10164300120046FF12000380D9229001C6EBF0A3DB
:10165300EAF0A3E9F09001C6E0FBA3E0FAA3E0F906
:1016630012004660179001C6A3E475F001120161F0
:10167300A9F0FA120046FF12186A80D92290010FCE
:10168300EBF0A3EAF0A3E9F0E4FEEEC39D501A9059
:10169300010FE0FBA3E0FAA3E0F98E827583001249
:1016A300005FFF1200030E80E1229001C9EBF0A35B
:1016B300EAF0A3E9F0E4FEEEC39D501A9001C9E0FD
:1016C300FBA3E0FAA3E0F98E8275830012005FFFAB
:1016D30012186A0E80E122E4FB7D08D2A27F017E0C
:1016E3000012184CC2A2EBC313FBD2A230A20344D4
:1016F30080FB7F047E0012184CDDE0AF037E0022E6
:10170300E4FDD2A27F08FE12184CC2A27F507E00D5
:1017130012184CD2A27F057E0012184CA2A2E43309
:10172300FD7F147E0002184CE4FDFCC3ED9FEC9E8C
:101733005015E4FBFA0BBB00010AEB64FA4A70F59F
:101743000DBD00010C80E422AD077B08C2A2ED139E
:1017530092A27F057E0012184CD2A2EDC313FDDBCB
:10176300EB7F047E0002184CE4FFFE74012FF58228
:1017730074003EF583E4F0900080F00FBF00010E8B
:10178300EF647F4E70E522AD07AC06E490014EF0A6
:10179300C2A0D2A2ECFF1217ECAF051217ECD2A035
:1017A30022AD07AC06D3ED9400EC9400400A121866
:1017B30061ED1D70F01C80ED22438E08E59A543FC5
:1017C3004440F59A439A10438E10759CFA43AF0137
:1017D30022E4FF74862FF582E43400F583E4F0906D
:1017E3000105F00FEFB47FEB227E08EF30E704D260
:1017F300A38002C2A3C2A5D2A5EF25E0FFDEEC229F
:101803007F2A121857E4FFE4900156F0C2A0D2A237
:101813001217ECD2A0225389F0438901758C4CE452
:10182300F58AD28CD2A9D2AF221200261217BC128B
:10183300181912187212075E021079C2A17F647E12
:101843000012172BD2A102172BEF1FAC0670011E3B
:101853004C70F622C2A0C2A21217ECD2A0227F0CB7
:101863007EA9DEFEDFFC228F9BD2012001FD2275C3
:101873009D0775BCA022CBAE010001000100010849
:1018830001087D9005A0094009401120111021088D
:101893004106810005000200B5BE081E1DE0F022CE
:1018A30011121094FC80102031CE3902550255CE0E
:1018B30091021102110211FE1102BBB700000000D8
:1018C300FDFE10101010102010207C6810A41122AF
:1018D300122210201C20E02040200020BEB32080D4
:1018E300204023F82110F8A027FE200023F8220827
:1018F30023F822083BF8E120412202220C1EBCE01F
:1019030004402440247C2440249024882508040097
:1019130000003FF82448244824482448FFFE0000E0
:10192300B2E2000427C41444145485544554455466
:10193300155415542554E5542104228422442414B7
:101943000808CFB500F83F000400082010403F808E
:101953000100061018087FFC01040920111021085A
:1019630045040200CDB310401020202023FE484040
:10197300F888110423FE4092F890409000901912C9
:10198300E112420E0400CEC2000023F8120812082E
:1019930083F84208420813F8100027FCE4A424A4A7
:1019A30024A424A42FFE0000B6C8010000803FFE3B
:1019B300222022203FFC2220222023E020002FF09F
:1019C3002410422041C08630380ECEBB0880084028
:1019D3000840100017FC300030085208920811101C
:1019E30011101110112010201FFE1000D6B5084051
:1019F30008400FFC1040104033F8320853F89208A7
:101A030013F8120813F8120812081FFE1000B1C3CE
:101A13000000FFFE040008001FF02810C8100FF09C
:101A2300010001047D88095011202118C506020018
:101A3300B4F21000100013FE1020FC201020102020
:101A4300142018203020D02010201020102050A067
:101A53002040BFAA00007FFC08200820082008209F
:101A63000820FFFE0820082008200820102010204E
:101A730020204020B9D810100810082000003FF89B
:101A8300010001000100FFFE01000280028004400A
:101A930008203018C006B1D5200017FC000440848C
:101AA30040845FF440844184428444844884508465
:101AB300428441044014400800000000000000007C
:101AC3000000000000000000000000000000000013
:101AD3000000000000000000000000000000000003
:101AE30000000000000000000000000000000000F3
:101AF30000000000000000000000000000000000E3
:101B030000000000000000000000000000000000D2
:101B130000000000000000000000000000000000C2
:101B230000000000000000000000000000000000B2
:101B330000000000000000000000001808C80808AA
:101B4300000000000000000000007F606060606033
:101B5300606060E060200000000000000000000002
:101B630000000000000000000000181818101010FA
:101B73000000000000000000000000000000000062
:101B83000808080C0C0C0000000000000000000016
:101B9300000000000000000000006C3810007CC64C
:101BA300701CC67C00000000000010386C00780C2C
:101BB3007CCCCC76000000000000000000007CC656
:101BC30070C0C67C000000000000000000006C969E
:101BD3007CD0D66C000000000000000000007CC632
:101BE3000606C67C00000000000000386CC6C6FE76
:101BF300C6C66C3800000000000000000010382842
:101C03006C44C6C6000000000000000000007CC653
:101C130006FEC67C00000000000000000000DC6639
:101C23006666F60606663C000000006C38F80C7E1B
:101C3300C6C6C67C000000000000000E1B18181862
:101C430018181818D87000000000000000FE860C59
:101C5300180C0606C67C0000000076DC0000780C39
:101C63007CCCCC7600000000000076DC00007CC653
:101C73000606C67C00000000000076DC0000DC667F
:101C830066666666000000000000000000007699AA
:101C93009F98996F00000000000000000000000002
:101CA3000000000C06060000000000000000000019
:101CB30000003C66663C00000000000000000000DD
:101CC3000000000000000000000000183C3C3C182D
:101CD30018001818000000000000C6C6C644000023
:101CE30000000000000000000000006C6CFE6C6C43
:101CF3006CFE6C6C000000000018187CC6C2C07C2F
:101D03000686C67C181800000000000000C3C60C3D
:101D1300183063C300000000000000386C6C387694
:101D2300DCCCCC76000000000000303030600000D6
:101D33000000000000000000000000183060606038
:101D43006060301800000000000000180C06060652
:101D530006060C180000000000000000006C38FEAE
:101D6300386C000000000000000000001818187E06
:101D73001818180000000000000000000000000018
:101D8300001818183000000000000000000000FEDA
:101D93000000000000000000000000000000000040
:101DA300000018180000000000000002060C1830A4
:101DB30060C08000000000000000007CC6CEDEF69C
:101DC300E6C6C67C0000000000000018387818182A
:101DD3001818187E000000000000007CC6060C18CE
:101DE3003060C6FE000000000000007CC606063C12
:101DF3000606C67C000000000000000C1C3C6CCCF6
:101E0300FE0C0C1E00000000000000FEC0C0C0FC61
:101E13000606C67C000000000000003860C0C0FC5D
:101E2300C6C6C67C00000000000000FEC6060C18F3
:101E330030303030000000000000007CC6C6C67C95
:101E4300C6C6C67C000000000000007CC6C6C67E75
:101E530006060C78000000000000000018180000BF
:101E6300001818000000000000000000181800000F
:101E73000018183000000000000000060C18306045
:101E830030180C06000000000000000000007E0077
:101E9300007E0000000000000000006030180C0607
:101EA3000C183060000000000000007CC6C60C184F
:101EB30018001818000000000000007CC6C6DEDE13
:101EC300DEDCC07C0000000000000010386CC6C6D9
:101ED300FEC6C6C600000000000000FC6666667C05
:101EE300666666FC000000000000003C66C2C0C0DD
:101EF300C0C2663C00000000000000F86C66666625
:101F030066666CF800000000000000FE66626878F8
:101F1300686266FE00000000000000FE66626878EA
:101F2300686060F0000000000000003C66C2C0C0B2
:101F3300DEC6663A00000000000000C6C6C6C6FE44
:101F4300C6C6C6C6000000000000003C18181818DA
:101F53001818183C000000000000001E0C0C0C0CAC
:101F63000CCCCC7800000000000000E6666C6C78B6
:101F73006C6C66E600000000000000F060606060CA
:101F8300606266FE00000000000000C6EEFED6C6DA
:101F9300C6C6C6C600000000000000C6E6F6FEDEA8
:101FA300CEC6C6C600000000000000386CC6C6C618
:101FB300C6C66C3800000000000000FC6666667C44
:101FC300606060F0000000000000007CC6C6C6D65A
:101FD300DE7C0C0E00000000000000FC6666667CE0
:101FE3006C6666E6000000000000007CC6C6603830
:101FF3000CC6C67C000000000000007E5A181818AA
:102003001818183C00000000000000C6C6C6C6C66B
:10201300C6C6C67C00000000000000C6C6C6C6C611
:10202300C66C381000000000000000C6C6C6C6C655
:10203300D6FEEEC600000000000000C6C6C66C381F
:102043006CC6C6C600000000000000C6C6C66C38D9
:102053003838387C00000000000000FEC68C1830C1
:1020630060C2C6FE000000000000003C303030308B
:102073003030303C0000000000000080C0E07038C9
:102083001C0E0602000000000000003C0C0C0C0CAF
:102093000C0C0C3C000000000010386CC600000063
:1020A300000000000000000000000000000000002D
:1020B3000000000000FE00000000303018000000A7
:1020C3000000000000000000000000000000780C89
:1020D3007CCCCC7600000000000000E06060786CEF
:1020E300666666DC000000000000000000007CC69D
:1020F300C0C0C67C000000000000001C0C0C3C6C3F
:10210300CCCCCC76000000000000000000007CC6B0
:10211300FEC0C67C000000000000001C3632307C8C
:10212300303030780000000000000000000076CC62
:10213300CCCC7C0CCC780000000000E060606C76B6
:10214300666666E6000000000000001818003818F4
:102153001818183C000000000000000606000E06D8
:1021630006060666663C0000000000E06060666CE0
:10217300786C66E600000000000000381818181894
:102183001818183C0000000000000000000044FE86
:10219300D6D6D6D600000000000000000000DC66A2
:1021A30066666666000000000000000000007CC652
:1021B300C6C6C67C00000000000000000000DC660C
:1021C30066667C6060F0000000000000000076CCD2
:1021D300CCCC7C0C0C1E0000000000000000DC7660
:1021E300666060F0000000000000000000007CC694
:1021F300701CC67C00000000000000103030FC3072
:102203003030361C00000000000000000000CCCC81
:10221300CCCCCC7600000000000000000000C6C655
:10222300C66C381000000000000000000000C6C6A5
:10223300C6D6FE6C00000000000000000000C66C63
:1022430038386CC600000000000000000000C6C65D
:10225300C6C67E060C780000000000000000FECC1D
:10226300183066FE000000000000000E18181870F9
:102273001818180E000000000000001818181800A5
:102283001818181800000000000000701818180E25
:10229300181818700000000000000076DC00000031
:1022A300000000000000000000000000000000002B
:1022B300000000000000000000000000000000001B
:1022C300000000000000000000000000000000000B
:1022D30000000000000000000000000000000000FB
:102AB300000000000000000000CBAEB5BEBCE0B2D9
:102AC300E2CFB5CDB300CEC2B6C83A00CBAECEBBD3
:102AD3003A00504800CBAEB1C33A004F4E20004FEE
:032AE30046460064
:00000001FF
