:10000000020EA68F99D2002000FD22020C37E4FFD9
:10001000FE120046600C0FEF70010E09E970F20A43
:1000200080EF2202109275985053890F43892075F2
:100030008DFA758BFA438780D2ACD28ED29CD2AF28
:01004000229D
:10004300021031BB010689828A83E0225002E72233
:10005300BBFE02E32289828A83E49322BB010CE57F
:100063008229F582E5833AF583E0225006E9258269
:10007300F8E622BBFE06E92582F8E222E58229F5AD
:1000830082E5833AF583E49322BB010689828A835E
:10009300F0225002F722BBFE01F322F8BB010DE56B
:1000A3008229F582E5833AF583E8F0225006E925B3
:1000B30082C8F622BBFE05E92582C8F222BC000BEA
:1000C300BE0029EF8DF084FFADF022E4CCF875F08B
:1000D30008EF2FFFEE33FEEC33FCEE9DEC9840056A
:1000E300FCEE9DFE0FD5F0E9E4CEFD22EDF8F5F030
:1000F300EE8420D21CFEADF075F008EF2FFFED3338
:10010300FD4007985006D5F0F222C398FD0FD5F0B5
:10011300EA22C2D5EC30E709B2D5E4C39DFDE49CE5
:10012300FCEE30E715B2D5E4C39FFFE49EFE120058
:10013300C0C3E49DFDE49CFC80031200C030D507DE
:10014300C3E49FFFE49EFE22C5F0F8A3E028F0C5B8
:10015300F0F8E582158270021583E038F022A3F8E7
:10016300E0C5F025F0F0E582158270021583E0C842
:1001730038F0E822E88FF0A4CC8BF0A42CFCE98EB5
:10018300F0A42CFC8AF0EDA42CFCEA8EF0A4CDA8FC
:10019300F08BF0A42DCC3825F0FDE98FF0A42CCD05
:1001A30035F0FCEB8EF0A4FEA9F0EB8FF0A4CFC5E5
:1001B300F02ECD39FEE43CFCEAA42DCE35F0FDE46F
:1001C3003CFC2275F008758200EF2FFFEE33FECD65
:1001D30033CDCC33CCC58233C5829BED9AEC99E504
:1001E3008298400CF582EE9BFEED9AFDEC99FC0F94
:1001F300D5F0D6E4CEFBE4CDFAE4CCF9A88222B85C
:1002030000C1B90059BA002DEC8BF084CFCECDFCE0
:10021300E5F0CBF97818EF2FFFEE33FEED33FDEC6D
:1002230033FCEB33FB10D703994004EB99FB0FD856
:10023300E5E4F9FA227818EF2FFFEE33FEED33FDF4
:10024300EC33FCC933C910D7059BE99A4007EC9BF3
:10025300FCE99AF90FD8E0E4C9FAE4CCFB2275F083
:1002630010EF2FFFEE33FEED33FDCC33CCC833C894
:1002730010D7079BEC9AE899400AED9BFDEC9AFC9A
:10028300E899F80FD5F0DAE4CDFBE4CCFAE4C8F949
:1002930022EB9FF5F0EA9E42F0E99D42F0E89C458F
:1002A300F022ECF0A3EDF0A3EEF0A3EFF022A8828E
:1002B3008583F0D083D0821202C81202C81202C80A
:1002C3001202C8E473E493A3C583C5F0C583C8C50C
:1002D30082C8F0A3C583C5F0C583C8C582C822A45C
:1002E3002582F582E5F03583F5832290018DECF0CC
:1002F300A3EDF0A3EAF0A3EBF090018BEEF0A3EFF4
:10030300F090019AEEF0A3EFF0900193E0FBA3E0ED
:10031300FAA3E0F91200467003020575C3948050F6
:1003230003020568E4900198F0A3F0900198E0FEC1
:10033300A3E0FFC3941CEE9400400302054D90011B
:1003430093E0FBA3E0FAA3E0F9120046FD9015B495
:1003530075F022EF1202E2EE75F022A42583F583F5
:10036300E4936D600302053C90000112005FFF906F
:100373000198E0FCA3E09015B575F0221202E2ECBF
:1003830075F022A42583F583E4936F600302053C93
:10039300900196F0E4900197F0900198E0FEA3E0BD
:1003A3009015B675F0221202E2EE75F022A42583B1
:1003B300F583C083C082900196E0FDD082D083751F
:1003C300F0021202E2E493FB3395E0FA900197E026
:1003D300FC74807E00A804088006CEA2E713CE1327
:1003E300D8F8FFEE5AFEEF5B4E6021ECFF90018CD4
:1003F300E02FFF90018BE03400FE90018EE02DFD95
:1004030090018DE03400FC90018F803B900191E0DE
:10041300FEA3E0FF90018FE06E7003A3E06F602AFC
:10042300900197E0FF90018CE02FFF90018BE03467
:1004330000FE900196E0FD90018EE02DFD90018D70
:10044300E03400FC9001911210F1900197E004F068
:10045300E0C39408500302039CE4900197F09001D9
:1004630098E0FEA3E09015B775F0221202E2EE7554
:10047300F022A42583F583C083C082900196E0FD1A
:10048300D082D08375F0021202E2E493FB3395E04D
:10049300FA900197E0FC74807E00A804088006CEE1
:1004A300A2E713CE13D8F8FFEE5AFEEF5B4E602798
:1004B300ECFF90018CE02FFF90018BE03400CF2400
:1004C30008CF3400FE90018EE02DFD90018DE034C5
:1004D30000FC90018F8041900191E0FEA3E0FF902A
:1004E300018FE06E7003A3E06F6030900197E0FF2F
:1004F30090018CE02FFF90018BE03400CF2408CFD4
:100503003400FE900196E0FD90018EE02DFD9001F8
:100513008DE03400FC9001911210F1900197E004FA
:10052300F0E0C394085003020461900196E004F0E4
:10053300E0C394105003020397900199E004F07014
:1005430006900198E004F002032E900194E475F004
:100553000212014B90018CE02410F090018BE034E7
:1005630000F002030C900194E475F00112014B02B8
:10057300030C22900107EEF0A3EFF0A3ECF0A3ED40
:10058300F0A3EBF0A3EAF0A3E9F0E4900112F0A3E7
:10059300F090010BE0FBA3E0FAA3E0F912000E9048
:1005A3000112E0FCA3E0FDC39FEC9E400302075D44
:1005B30090010BE0FBA3E0FAA3E0F98D828C831298
:1005C300005FFFC394A1400990013EEFF0E4A3F064
:1005D3002290010BE0FBA3E0FAA3E0F9900112E003
:1005E300FEA3E0F5828E8312005FFFE4FCFDFE7B39
:1005F30010FAF9F812017790011A1202A5E4FBFA36
:1006030090011AA3A3E0FEA3E02BFFEE3AFE74B21F
:100613002FF58274173EF583E493FF741E2BF58246
:1006230074013AF583EFF00BBB00010AEB64104A47
:1006330070CEE4900116F0A3F0E4900114F0A3F05F
:10064300900114E0FEA3E0FFC39408EE648094805D
:10065300400302072A7C007D0812011574807E0086
:10066300A805088006CEA2E713CE13D8F8FF9001A1
:1006730016E0FCA3E0FD241EF58274013CF583E043
:10068300FB3395E05EFEEF5B4E6041900114E0FEAC
:10069300A3E0FF900108E02FFB900107E03EFA90F2
:1006A3000112E0FEA3E07803C333CE33CED8F92B97
:1006B300FFEA3EFE900118F0A3EFF0900109E0FA83
:1006C300A3E02DFDEC3AFC90010E8047900114E06D
:1006D300FEA3E0FF900108E02FFD900107E03EFC40
:1006E300900112E0FEA3E07803C333CE33CED8F9F2
:1006F3002DFFEC3EFE900118F0A3EFF0900109E00E
:10070300FCA3E0FD900117E02DFD900116E03CFCF9
:100713009001101210F1900115E004F070069001A1
:1007230014E004F0020643900117E004F070069011
:100733000116E004F0C3900117E09410900116E055
:1007430064809480500302063C900113E004F0702F
:1007530006900112E004F0020594221215797F112C
:100763001215927F787E0012143F7FB11215927F8B
:10077300011215347F2C1215347F2D1215347FB2DC
:100783001215927F011215347F2C1215347F2D120E
:1007930015347FB31215927F011215347F2C121575
:1007A300347F2D1215347F011215347F2C1215342A
:1007B3007F2D1215347FB41215927F071215347FE3
:1007C300C01215927FA21215347F021215347F8452
:1007D3001215347FC11215927FC51215347FC212D0
:1007E30015927F0A121534E4FF1215347FC31215D4
:1007F300927F8A1215347F2A1215347FC412159200
:100803007F8A1215347FEE1215347FC51215927F3D
:100813000E1215347F361215927FC81215347FE0FD
:100823001215927F0F1215347F1A1215347F0F128F
:1008330015347F181215347F2F1215347F281215A3
:10084300347F201215347F221215347F1F12153482
:100853007F1B1215347F231215347F37121534E4AE
:10086300FF1215347F071215347F021215347F10DF
:100873001215347FE11215927F0F1215347F1B126C
:1008830015347F0F1215347F171215347F33121569
:10089300347F2C1215347F291215347F2E12153410
:1008A3007F301215347F301215347F391215347F9F
:1008B3003F121534E4FF1215347F071215347F03FA
:1008C3001215347F1012153412152D7F02121534B0
:1008D300E4FF1215347F821215347F2B12152F7FFC
:1008E30003121534E4FF1215347F831215347FF09D
:1008F3001215927F011215347FF612152F7F3A12CB
:1009030015927F051215347F29021592900140EE4E
:10091300F0A3EFF0A3ECF0A3EDF0A3EBF0A3EAF068
:10092300A3E9F0E4A3F0A3F0900144E0FBA3E0FA11
:10093300A3E0F912000E900147E0FCA3E0FDC39F82
:10094300EC9E4003020AA6900144E0FBA3E0FAA355
:10095300E0F98D828C8312005FFFC394A14009905C
:100963000171EFF0E4A3F022900144E0FBA3E0FA6D
:10097300A3E0F9A3E0FEA3E0F5828E8312005FFFFC
:10098300E4FCFDFE7B10FAF9F812017790014D1299
:1009930002A5E4FBFA90014DA3A3E0FEA3E02BFF25
:1009A300EE3AFE74B22FF58274173EF583E493FF9B
:1009B30074512BF58274013AF583EFF00BBB000100
:1009C3000AEB64104A70CEE490014BF0A3F0E4907C
:1009D3000149F0A3F0900149E0FEA3E0FFC39408AE
:1009E300EE648094804003020A707C007D0812014B
:1009F3001574807E00A805088006CEA2E713CE13E7
:100A0300D8F8FF90014BE0FCA3E0FD2451F582747C
:100A1300013CF583E0FB3395E05EFEEF5B4E603C0B
:100A2300900149E0FEA3E0FF900141E02FFB90011C
:100A330040E03EFA900147E0FEA3E07803C333CEE3
:100A430033CED8F92BFFEA3EFE900142E0FAA3E051
:100A53002DFDEC3AFC7B007AF81210F690014AE087
:100A630004F07006900149E004F00209D890014CAB
:100A7300E004F0700690014BE004F0C390014CE0F9
:100A8300941090014BE06480948050030209D1904C
:100A93000148E004F0600302092B900147E004F0F1
:100AA30002092B22900173EEF0A3EFF0A3ECF0A365
:100AB300EDF0A3EAF0A3EBF0900180E4F0A3740F50
:100AC300F090017BE0FBA3E0FAA3E0F9120046708B
:100AD30003020C36C394805003020C29E490017E78
:100AE300F0A3F0900180E0FEA3E0FF90017EE0FC24
:100AF300A3E0FDC39FEC9E4003020C0E90017BE03C
:100B0300FBA3E0FAA3E0F9120046FF9015B475F0D9
:100B130022ED1202E2EC75F022A42583F583E4931F
:100B23006F6003020BFD90000112005FFF90017ED6
:100B3300A3E09015B575F0221202E2EC75F022A441
:100B43002583F583E4936F6003020BFD900173E04B
:100B5300FAA3E0FBFFAE02C006C007A3E0FCA3E0DC
:100B6300FDEB240FFBE43AFA900175E0FEA3E024C9
:100B73000FFFE43E900188F0A3EFF0D007D00612F8
:100B830011D8E4FBE4FA90017EE0FEA3E09015B6F1
:100B930075F0221202E2EE75F022A42583F583E5B7
:100BA300822BF582E43583F583E493FD3395E0FCF2
:100BB30074807E00A802088006CEA2E713CE13D865
:100BC300F8FFEE5CFEEF5D4E6005900177801790B5
:100BD3000179E0FEA3E0FF900177E06E7003A3E0EC
:100BE3006F600B900179E0FEA3E0FF12149E0AEA06
:100BF300640870920BEB6420708A90017FE004F02C
:100C0300700690017EE004F0020AE690017CE47530
:100C1300F00212014B900174E02410F0900173E094
:100C23003400F0020AC490017CE475F00112014B18
:100C3300020AC422C0E0C0F0C083C082C0D075D015
:100C430000C000C001C002C003C004C005C006C08C
:100C530007758C4C758A00E47F307E75FDFC90012E
:100C6300B4E0F8A3E0F9A3E0FAA3E0FBC312029413
:100C73009001B4501EE0FCA3E0FDA3E0FEA3E0243A
:100C830001FFE43EFEE43DFDE43CFC9001B41202AE
:100C9300A580071202B100000000E47B14FAF9F802
:100CA3009001B4E0FCA3E0FDA3E0FEA3E0FF120289
:100CB30002AC00AD01AE02AF03E4FBFAF9F8C312D4
:100CC300029470059001B904F0E47B0FFAF9F890EF
:100CD30001B4E0FCA3E0FDA3E0FEA3E0FF120202E7
:100CE300AC00AD01AE02AF03E4FBFAF9F8C31202A4
:100CF3009470059001BA04F0E47B1EFAF9F89001B0
:100D0300B4E0FCA3E0FDA3E0FEA3E0FF120202AC0B
:100D130000AD01AE02AF03E4FBFAF9F8C31202948B
:100D230070059001B804F0900000E0601890008313
:100D3300E0D394004005E014F0800A900000E4F052
:100D430090008104F0900085E06018900084E0D367
:100D530094004005E014F0800A900085E4F09001CF
:100D63000604F0D007D006D005D004D003D002D0BB
:100D730001D000D0D0D082D083D0F0D0E032900127
:100D830079EBF0A3EAF0A3E9F01213AE7FCC1214CF
:100D93005F7F4412145F7F7D7E001215871213AEAE
:100DA3007FCC12145F7FBE12145F1213859001ADC6
:100DB300EFF01213859001ACEFF0D3947F400DA3B5
:100DC300E0F4F09001ACE0F404F0C2029001ADE075
:100DD300FDC4540FFB7A009001ACE075F010A42B16
:100DE300FEEA35F09001AFF0A3CEF0ED540FFD75A0
:100DF300F00AA4FFE5F0C4F854F0C8EFC4540F4858
:100E03009001B2F0ED75F064A4FFE5F0C4F854F07E
:100E1300C8EFC4540F4875F00A84AFF0A3EFF09005
:100E230001B2E075F00AA42F9001AEF0A3E0FEA397
:100E3300E0FF7C007D0A1200C0EF2430FF900179AF
:100E4300E0FBA3E0FAA3E0F9EF12008C9001AFE01E
:100E5300FEA3E0FF7C007D0A1200C0ED2430FF906A
:100E63000179E0FBA3E0FAA3E0F9900001EF12009F
:100E73009E900002742E12009E9001B2E075F00A5B
:100E830084E5F0243090000312009E900004744324
:100E930012009E900005E412009E9001AFE0FEA3B5
:100EA300E0FF22787FE4F6D8FD758120020EED0283
:100EB3000FB4E493A3F8E493A34003F68001F2088C
:100EC300DFF48029E493A3F85407240CC8C333C484
:100ED300540F4420C8834004F456800146F6DFE4EF
:100EE300800B0102040810204080901194E47E01DD
:100EF3009360BCA3FF543F30E509541FFEE493A362
:100F030060010ECF54C025E060A840B8E493A3FA73
:100F1300E493A3F8E493A3C8C582C8CAC583CAF0FF
:100F2300A3C8C582C8CAC583CADFE9DEE780BE7429
:100F3300FFFFFE12128F74FF900179F0A3F0A3F06C
:100F4300A37427F0A374B3F07B1F7A007D0A7C009F
:100F53007F0F7E00120AA774FF900179F0A3F0A31C
:100F6300F0A37427F0A374C4F0E4FBFA7D28FC7F9C
:100F730005FE120AA774FF900179F0A3F0A3F0A372
:100F83007427F0A374CAF0E4FBFA7D50FC7F05FEDE
:100F9300120AA774FF900179F0A3F0A3F0A37427BA
:100FA300F0A374D0F0E4FBFA7D50FC7F05FE020A47
:100FB300A71215569001B9E060081213D6E4900108
:100FC300B9F09001BAE060081213FBE49001BAF0A3
:100FD3009001B8E0600812141DE49001B8F090018C
:100FE300AAE06030900081E060157B017A0079010E
:100FF30012114512147FE4900081F0900080F0906C
:1010030001ABE0FF9001CEE0D39F4004D28180A4E6
:10101300C28180A0900081E0609A7B017A0079010F
:10102300121145E4900081F0900080F08086C0E0CA
:10103300C083C082C0D075D008E59A30E03E539A91
:10104300FE900106E0700590008504F0900105E034
:10105300C3947F501C9000847401F0900105E0FF5D
:1010630004F074862FF582E43400F583E59BF08069
:101073000B9001067401F0900105E4F0E59A30E16C
:1010830005539AFDC201D0D0D082D083D0E032C0C4
:10109300E0C083C082C0D075D000C00730983DC285
:1010A30098900081E0700590000004F0900080E0CB
:1010B300C3947F501C9000837401F0900080E0FF84
:1010C30004F074012FF582E43400F583E599F08090
:1010D3000B9000817401F0900080E4F0309904C219
:1010E30099C200D007D0D0D082D083D0E032E0FACA
:1010F300A3E0FB9001BBEEF0A3EFF09001BFEAF099
:10110300A3EBF09001BDECF0A3EDF09001BBE0FA8E
:10111300A3E0FFAE02C006C0072401FBE43AFAA332
:10112300E0FEA3E02401FFE43E900188F0A3EFF08A
:10113300D007D0061211D89001BFE0FEA3E0FF0252
:10114300149E12004664EE704790000112005F6423
:10115300CC703D90000D12005FF4703490000912C2
:10116300005FFFB42A1490000C12005F9001AAF0F4
:1011730090000B12005F9001ABF0EFB4801290006F
:101183000812005F24ED700890000C12005FD281FA
:10119300224101B9004101BA004101B8004101AA4D
:1011A300004101AB054E019CEECC000000006A003B
:1011B3000000000000FF41008100410106004101E1
:1011C300AD004101AC004101B2004101B300410156
:1011D300AE00C18200900182EEF0A3EFF012152D54
:1011E300900182A3E02402FF121534E4FF121534A8
:1011F300EB2402FF1215347F2B12152FED2403FF6E
:10120300121534E4FF121534900188A3E02403FF80
:101213001215347F2C0215929001A4EDF0120046B2
:101223009001A5F090000112005F9001A6F09000DC
:101233000212005F9001A7F090000312005F90017B
:10124300A8F09001A3EFF07B017A01799C7D0E0257
:10125300132B7EFAE4F5BDF5BEE5BC54E044084F1C
:10126300F5BCE5BC30E41E53BCEFAFBDEFFD7C0025
:101273007E007802C333CE33CED8F9FFE5BE5403E4
:10128300FDEF4DFF22DEDB7E047F0022900173EE33
:10129300F0A3EFF0900188E4F0A3747FF0FB7A00F1
:1012A300E4FDFCFFFE1211D8E4FBE4FA900173E0C5
:1012B300FEA3E0FF12149E0AEAB480F00BEBB480A5
:1012C300E9229001C5EBF0A3EAF0A3E9F09001C590
:1012D300E0FBA3E0FAA3E0F912004660179001C512
:1012E300A3E475F001120161A9F0FA120046FF129E
:1012F300000380D9229001C8EBF0A3EAF0A3E9F040
:101303009001C8E0FBA3E0FAA3E0F91200466017DE
:101313009001C8A3E475F001120161A9F0FA12006B
:1013230046FF1215A580D922900179EBF0A3EAF0CC
:10133300A3E9F0E4FEEEC39D501A900179E0FBA30C
:10134300E0FAA3E0F98E8275830012005FFF1200BA
:10135300030E80E1229001CBEBF0A3EAF0A3E9F0C6
:10136300E4FEEEC39D501A9001CBE0FBA3E0FAA389
:10137300E0F98E8275830012005FFF1215A50E80BF
:10138300E122E4FB7D08D2A27F017E00121587C211
:10139300A2EBC313FBD2A230A2034480FB7F047EE3
:1013A30000121587DDE0AF037E0022E4FDD2A27FA9
:1013B30008FE121587C2A27F507E00121587D2A2A3
:1013C3007F057E00121587A2A2E433FD7F147E0001
:1013D3000215877B017A017973120D81AC06E490C3
:1013E30001C1F0A3F0ECA3F0A3EFF07B017A017944
:1013F300C1E4FD7F0802121B7B017A017973121588
:1014030017E49001C1F0A3F0A3F0A3EFF07B017AFE
:101413000179C1E4FD7F0A02121B7B017A01797312
:10142300121568E49001C1F0A3F0A3F0A3EFF07BE1
:10143300017A0179C1E4FD7F0902121BE4FDFCC3BB
:10144300ED9FEC9E5015E4FBFA0BBB00010AEB6425
:10145300FA4A70F50DBD00010C80E422AD077B084C
:10146300C2A2ED1392A27F057E00121587D2A2EDD0
:10147300C313FDDBEB7F047E00021587E4FFFE74DC
:10148300012FF58274003EF583E4F0900080F00FA5
:10149300BF00010EEF647F4E70E522AD07AC06E49A
:1014A300900182F0C2A0D2A2ECFF121500AF051288
:1014B3001500D2A022AD07AC06D3ED9400EC940046
:1014C300400A12159CED1D70F01C80ED22438E081E
:1014D300E59A543F4440F59A439A10438E10759C05
:1014E300FA43AF0122E4FF74862FF582E43400F55A
:1014F30083E4F0900105F00FEFB47FEB227E08EF59
:1015030030E704D2A38002C2A3C2A5D2A5EF25E08F
:10151300FFDEEC22900177EBF0A3EAF0A3E9F0E41D
:10152300FF1212559001CEEFF0227F2A121592E49A
:10153300FFE490018AF0C2A0D2A2121500D2A02229
:101543005389F0438901758C4CE4F58AD28CD2A976
:10155300D2AF221200261214D01215431215AD1267
:10156300075E020F32900177EBF0A3EAF0A3E9F0F4
:101573007F0112125522C2A17F647E0012143FD252
:10158300A102143FEF1FAC0670011E4C70F622C27D
:10159300A0C2A2121500D2A0227F0C7EA9DEFEDF1C
:1015A300FC228F9BD2012001FD22759D0775BCA0F3
:1015B30022B3B50200020002007FFC0400090011FF
:1015C3000021003FF801000100FFFE0100010001BE
:1015D300000100C1BE200023FE2050FC50405053A8
:1015E300FE9252FE52125212AA1EA6F30252021287
:1015F30002120A1204B7C000407C2044204BFE486C
:10160300805080488048FC448444844484688451E6
:1016130004410442284410B5C14080208009FC12D3
:10162300042448E04020A023182C0600003FF8249F
:101633004824482448FFFE0000CFB500F83F0004CB
:1016430000082010403F800100061018087FFC01AD
:101653000409201110210845040200CDB3104010E5
:1016630020202023FE4840F888110423FE4092F8EE
:1016730090409000901912E112420E0400C8CB0171
:10168300000100010001000100010002800280044A
:10169300400440082008201010200840048002CC99
:1016A300E5084008400840104017FC304030E05047
:1016B300E091501150124815F41842104010401098
:1016C30040D5F03FF801007FFE41029D7401001DEB
:1016D3007000003FFC20002FF820003FFC2448440A
:1016E30030860EB6AF004000407C40004001FC0055
:1016F30044FE4420442044208448844484FD04451B
:101703000402280410BCEC1040104010A010A0FDEF
:1017130010120835F6380054885048924811501179
:1017230010102017FE1000B2E2000427C414441462
:1017330054855445544554155415542554E55421A2
:10174300042284224424140808D3D002000200FF98
:10175300FE040004000FF0081018102FF048108842
:10176300100FF00810081008500820CEDE00003FCC
:10177300F002000200020002007FFC0480048004E7
:10178300800880088010842084407C80003A000018
:101793000000000000000000000000000000000046
:1017A3000030003000000030003000000000000076
:1017B3000000000000000000000000000000000026
:1017C3000000000000000000000000000000000016
:1017D3000000000000000000000000000000000006
:1017E30000000000000000000000000000000000F6
:1017F30000000000000000000000000000000000E6
:1018030000000000000000000000000000000000D5
:1018130000000000000000000000000000000000C5
:1018230000000000000000000000000000000000B5
:1018330000001808C80808000000000000000000AD
:10184300007F6060606060606060E06020000000B6
:101853000000000000000000000000000000000085
:1018630000181818101010000000000000000000FD
:10187300000000000000000808080C0C0C00000029
:101883000000000000000000000000000000000055
:10189300006C3810007CC6701CC67C000000000081
:1018A3000010386C00780C7CCCCC76000000000073
:1018B30000000000007CC670C0C67C000000000071
:1018C30000000000006C967CD0D66C000000000085
:1018D30000000000007CC60606C67C000000000075
:1018E3000000386CC6C6FEC6C66C38000000000097
:1018F300000000001038286C44C6C6000000000039
:1019030000000000007CC606FEC67C00000000004C
:101913000000000000DC666666F60606663C000012
:1019230000006C38F80C7EC6C6C67C0000000000C0
:1019330000000E1B18181818181818D8700000008B
:1019430000000000FE860C180C0606C67C00000092
:101953000076DC0000780C7CCCCC76000000000024
:101963000076DC00007CC60606C67C000000000092
:101973000076DC0000DC6666666666000000000038
:10198300000000000076999F98996F000000000006
:10199300000000000000000000000C06060000002C
:1019A3000000000000000000003C66663C000000F0
:1019B3000000000000000000000000000000000024
:1019C3000000183C3C3C18180018180000000000E8
:1019D30000C6C6C64400000000000000000000006E
:1019E30000006C6CFE6C6C6CFE6C6C000000000004
:1019F30018187CC6C2C07C0686C67C181800000076
:101A030000000000C3C60C183063C30000000000D0
:101A13000000386C6C3876DCCCCC7600000000001B
:101A230000303030600000000000000000000000C3
:101A33000000183060606060603018000000000033
:101A43000000180C06060606060C1800000000002D
:101A5300000000006C38FE386C000000000000003D
:101A63000000001818187E18181800000000000065
:101A730000000000000000001818183000000000EB
:101A8300000000000000FE00000000000000000055
:101A93000000000000000000001818000000000013
:101AA300000002060C183060C08000000000000037
:101AB30000007CC6CEDEF6E6C6C67C000000000051
:101AC300000018387818181818187E000000000055
:101AD30000007CC6060C183060C6FE000000000043
:101AE30000007CC606063C0606C67C00000000001B
:101AF30000000C1C3C6CCCFE0C0C1E000000000013
:101B03000000FEC0C0C0FC0606C67C00000000004A
:101B130000003860C0C0FCC6C6C67C0000000000E0
:101B23000000FEC6060C1830303030000000000004
:101B330000007CC6C6C67CC6C6C67C00000000008A
:101B430000007CC6C6C67E06060C780000000000B6
:101B53000000001818000000181800000000000022
:101B630000000018180000001818300000000000E2
:101B73000000060C18306030180C0600000000004E
:101B830000000000007E00007E0000000000000056
:101B930000006030180C060C1830600000000000D4
:101BA30000007CC6C60C18180018180000000000BE
:101BB30000007CC6C6DEDEDEDCC07C000000000068
:101BC300000010386CC6C6FEC6C6C6000000000082
:101BD3000000FC6666667C666666FC00000000002A
:101BE30000003C66C2C0C0C0C2663C0000000000EA
:101BF3000000F86C66666666666CF800000000001C
:101C03000000FE66626878686266FE0000000000FD
:101C13000000FE66626878686060F0000000000003
:101C230000003C66C2C0C0DEC6663A000000000089
:101C33000000C6C6C6C6FEC6C6C6C6000000000073
:101C430000003C181818181818183C000000000071
:101C530000001E0C0C0C0C0CCCCC78000000000017
:101C63000000E6666C6C786C6C66E60000000000B1
:101C73000000F060606060606266FE0000000000CB
:101C83000000C6EEFED6C6C6C6C6C60000000000EB
:101C93000000C6E6F6FEDECEC6C6C60000000000A3
:101CA3000000386CC6C6C6C6C66C3800000000000B
:101CB3000000FC6666667C606060F0000000000067
:101CC30000007CC6C6C6D6DE7C0C0E0000000000F9
:101CD3000000FC6666667C6C6666E6000000000039
:101CE30000007CC6C660380CC6C67C00000000003D
:101CF30000007E5A1818181818183C00000000003D
:101D03000000C6C6C6C6C6C6C6C67C000000000024
:101D13000000C6C6C6C6C6C66C3810000000000068
:101D23000000C6C6C6C6C6D6FEEEC600000000004A
:101D33000000C6C6C66C386CC6C6C60000000000EC
:101D43000000C6C6C66C383838387C000000000076
:101D53000000FEC68C183060C2C6FE000000000002
:101D630000003C303030303030303C0000000000A8
:101D7300000080C0E070381C0E0602000000000066
:101D830000003C0C0C0C0C0C0C0C3C000000000084
:101D930010386CC6000000000000000000000000C6
:101DA300000000000000000000000000FE00000032
:101DB30000303018000000000000000000000000A8
:101DC3000000000000780C7CCCCC76000000000002
:101DD3000000E06060786C666666DC00000000006E
:101DE30000000000007CC6C0C0C67C0000000000EC
:101DF30000001C0C0C3C6CCCCCCC7600000000002A
:101E030000000000007CC6FEC0C67C00000000008D
:101E130000001C3632307C30303078000000000087
:101E2300000000000076CCCCCC7C0CCC7800000009
:101E33000000E060606C76666666E6000000000005
:101E4300000018180038181818183C00000000008B
:101E530000000606000E0606060666663C00000045
:101E63000000E06060666C786C66E60000000000CD
:101E7300000038181818181818183C000000000043
:101E8300000000000044FED6D6D6D60000000000B5
:101E93000000000000DC6666666666000000000065
:101EA30000000000007CC6C6C6C67C00000000001F
:101EB3000000000000DC6666667C6060F0000000E5
:101EC300000000000076CCCCCC7C0C0C1E00000083
:101ED3000000000000DC76666060F0000000000097
:101EE30000000000007CC6701CC67C0000000000DF
:101EF3000000103030FC303030361C000000000091
:101F03000000000000CCCCCCCCCC7600000000005C
:101F13000000000000C6C6C66C38100000000000B8
:101F23000000000000C6C6C6D6FE6C00000000001C
:101F33000000000000C66C38386CC60000000000CA
:101F43000000000000C6C6C6C67E060C780000006E
:101F53000000000000FECC183066FE000000000008
:101F630000000E181818701818180E000000000052
:101F7300000018181818001818181800000000009E
:101F83000000701818180E181818700000000000D0
:101F9300000076DC000000000000000000000000EC
:101FA300000000000000000000000000000000002E
:101FB300000000000000000000000000000000001E
:101FC300000000000000000000000000000000000E
:101FD30000000000000000000000000000000000FE
:1027B300CBAEB5BEBBB7BEB3BCE0B2E2CFB5CDB313
:1027C30000CEC2B6C83A00CBAECEBB3A00CBAEB158
:0327D300C33A0006
:00000001FF
