:020000040000FA
:06000000020D3002035E58
:03002B00020B5A6B
:0300330002092C93
:030043000209F6B9
:0300530002028F17
:03006B0002091275
:100083000202F30101FF050301F212F212F212F26E
:1000930012AE11A811F212AF2600000000112700C2
:1000A3000000000C0000000C0001040000D214004A
:1000B30000000000008C150000000000000000009C
:1000C30000FFFFEECC01000000000000070000006D
:1000D30000000000FF01010100AD05000000FE0566
:1000E300E80364006400B80102020008000005028E
:1000F30007051E02051E0A03B80B02010234120291
:100103001F00E007965118000202061200120D4F5D
:10011300604F120D7C6012E7548066F6120BE1709B
:1001230011120DBB703B090909F4F618F618F618FD
:10013300F622120BF67015120DC508080860EAE6E0
:10014300447FF618768018E4F618F622120DC5607F
:1001530016120DBB7012E4F608F608F608E6548092
:10016300F609090918181822EAC0E0EBC0E0ECC050
:10017300E0EDC0E0E687F0A4FBACF008E687F0A46E
:100183002CFCE435F0FA1809E687F0A42C4B600246
:100193007401CA35F0FCE433FB09E687F0D2F7A417
:1001A3002CCB35F0FC1908E687F0A42BCC35F0FBFB
:1001B300E433FD0819E687F0D2E7A42C4ACB35F0E7
:1001C300CD3400FC09E687F0D2E7A42DCC35F0FD51
:1001D300E433FA0918E687F0D2F7A42CCD35F0CA38
:1001E3003400FC08E687F0D2E7D2F7A42ACC35F036
:1001F3007A7E20E70B0ACB33CBCD33CDCC33CC3354
:10020300CB3350147004ED30E00ED2F1E4CD3DCD8C
:10021300CC3CCC3B5005DA05C2F1EB547FC6330826
:10022300E63392F0FBE73309E733C39A502D2B7083
:10023300190C0D4C4D70151806E608C333700D20CC
:10024300F10AA2F013F6E418800B4024E4F630F030
:1002530002768018F618F618F68024D33B14501053
:1002630074FFA2F013F6187680E418F618F6800FE0
:10027300A2F013F618E63303F618ECF618EDF6D0F1
:10028300E0FDD0E0FCD0E0FBD0E0FA22C0E074F265
:10029300120606A2AFE433FED2AFE5A7FFE5A1F550
:1002A300085F54106006121C3475A1EFE5085F5413
:1002B300086008121C3A75A1F7802BEFA2E0C0D0AA
:1002C300E508A2E092F0120C93158182F05017908A
:1002D3006198E0F89008DAE0C398A2D265D0335071
:1002E30002E8F075A1FEEEA2E092AF7F0102071AC9
:1002F300C0E074F2120606A2AFE433FED2AF9061FF
:10030300A4E0F8759B00E59158540860087591F7CF
:10031300121C82802AE59158541060087591EF12DF
:100323001C88801BE8A2E0C0D0E591A2E092F01205
:100333000C93158182F05007E0C2E0F0121DCC90BF
:1003430061A3E0F8E5E9585404600E121DA275E9B3
:10035300FB906193E0A2E640F2808BC0E074F2125E
:100363000606A2AFE433FED2AF9061A5E0F8E5BF85
:10037300585404600675BFFB121DE40202E9C3E48E
:1003830098F8E499F91203C28026C3E49AFAE49B2D
:10039300FBE920E7E91203C2E498F8E499F922C3E0
:1003A300E498F8E499F91203C2E498F8E499F9C3DC
:1003B300E49AFAE49BFB22EB20E7CFE920E7E0B9DC
:1003C3000010BB0008E88AF084F8AAF022E4FBC816
:1003D300FA22EB70227B10C833C8C933C9335007E4
:1003E300C39AC3DBF280069A50012ADBEAC833F4CE
:1003F300C8C933F4C9FA2275F008E4C833C8C9334D
:10040300C933C99AC99B5004C92AC93BD5F0ECFB2F
:10041300C833F4C8E4C9FA2212045B20F01430E7AD
:100423002B74FFFCFBFA747F8022E4FCFBFA7480DC
:10043300801AB48008BC00F2BB00EF800F50EBF9C8
:10044300E4C39AFAE49BFBE49CFCE499C6CC18C68B
:10045300CB18C6CA18C6F922E4C9C608CAC608CB4F
:10046300C6D3330308CCC63392F0C3947F402E9493
:10047300184019C9B90704CACBCC225025C309CAED
:1004830033CACB33CBCC33CC33D9F422F4600DC98C
:10049300CCC313CB13CBCA13CAD9F6CC22E4FCFBCF
:1004A300FA2214FCFBFA22080808EAC0E0EBC0E0D9
:1004B30086F0E7A4FA180986F0E7A42AFA18098651
:1004C300F0E7A42AFA180986F0E7A42AFA1986F0B5
:1004D300E7A4FBE5F02AFA190886F0E7A42BFBE56D
:1004E300F03AFA190886F0E7A42BFBE5F03AFA187C
:1004F300180986F0E7A4C5F02BFBE43AFA1908E7DC
:10050300C5F0C6A426F6E5F03BFBE43AFA1886F0FC
:10051300E7A4F6E5F00826F6E43B08F6E43A08F625
:10052300D0E0FBD0E0FA22E4CFC0E0E4CEC0E0E4C8
:10053300CDC0E0E4CCC0E075F020C3E633F608E6B6
:1005430033F608E633F608E633F6181818EC33FCEE
:10055300ED33FDEE33FEEF33FFC3EC9709ED97095F
:10056300EE9709EF97191919400FFFEC97FC09ED66
:1005730097FD09EE97FE191906D5F0BEECF709EDC4
:10058300F709EEF709EFF7191919D0E0FCD0E0FDF0
:10059300D0E0FED0E0FF222518C582C0E0E5193483
:1005A300FFC583C0E0E518C3958224F810AF088522
:1005B30083198582188008858319858218D2AFCE66
:1005C300F0A3E520F0A37808E608F0A3DEFAEFF045
:1005D300A3E58124FAF8E608F0A3E608F0A3E60809
:1005E300F0A30808E608F0A3E608F0A31581158137
:1005F300D0E0FED0E0F8158115811581E8C0E0EE6A
:10060300C0E022C0D02518C582C0E0E51934FFC57B
:1006130083C0E0E518C3958224F310AF08858319DE
:100623008582188008858319858218D2AFC8F0A304
:10063300E9F0A3EAF0A3EBF0A37908E709F0A3D864
:10064300FAECF0A3EDF0A3EEF0A3EFF0A3D0E0F00B
:10065300A3D0E0F0A3D0E0F0A3E520F0A3E5F0F011
:10066300A322E9799EC608CAC608CBC608CCC6C36E
:1006730070207996CACBCC7019798ECBCC70137954
:1006830086CC700EF9802ACA33CACB33CBCC33CC99
:10069300331930E7F2CCCBCA3350147004EA30E09C
:1006A3000DE4CA3ACACB3BCBCC3CCC500209C3E9DC
:1006B30013C6CC182313C6CB18C6CA18C6F9221200
:1006C3000DB0B90003020704E49003017831790BFC
:1006D3008002F0A3D8FCD9FA900D31AA82AB8390A3
:1006E3000086788A79018015E493A3AC82AD838A6E
:1006F300828B83F0A3AA82AB838C828D83D8E9D9C2
:10070300E77582F67583A27403120AB97582AE7512
:1007130083207400120AB9851983851882E0C0E02A
:10072300A3E0F9A3E0FAA3E0FBA37808E0F608A3AB
:10073300DFFAE0FCA3E0FDA3E0FEA3E0FFA3E0C03B
:10074300E0A3E0C0E0A3E0F5D0A3E0F520A3E0A39D
:10075300F5F010AF08858319858218800885831901
:10076300858218D2AFD082D083D0E0F8D0E032E8CF
:100773000375F0108E1A8F1B85821F85831E8518C3
:1007830082851983E0CEA3E0CF851F82851E83EB8C
:10079300C9EAC8EDCBECCAC3E833C8E933C9EA33C5
:1007A300CAEB33CBC3EA9EF51DEB9FF51CB3500494
:1007B300AB1CAA1DEC33CCED33CDD5F0DAAE1AAFBA
:1007C3001B22D083D082ECC0E0EDC0E0E493A3FC15
:1007D300E493A3FDED4C600D12089DEC24FFFCEDAA
:1007E30034FFFD80EFE493A3FCE493A3FDED4C60A1
:1007F3000D1209A1EC24FFFCED34FFFD80EFD0E0E6
:10080300FDD0E0FCE493A3C0E0E493C0E022D083F6
:10081300D082E9C0E0E493A3C386F0C5F095F0F974
:1008230008E493A386F0C5F095F0700BE493A3C39B
:10083300994005E9048002A3E475F002A42582F53A
:1008430082E5F03583F583D0E0F9E493A3C0E0E4D7
:1008530093C0E022851983851882E0A3FEE0A3F507
:10086300207808E0A3F608DFFAE0A3FFE0A3C0E0E6
:10087300E0A3C0E0E0A3C0E0E0A3C0E0E0A3C0E0E9
:1008830010AF0885821885831980088582188583AF
:1008930019D2AFD083D082020ABFC0E0C3E49396DB
:1008A300087401939618400FE49366700808740166
:1008B30093661870007019A3A3C3E4939608740198
:1008C300939618A3A3400DD0E0D0E0D0E002080136
:1008D300A3A3A3A3A3A3D0E022D083D082C5F0E433
:1008E30093A3C5F0C395F0F5F0E493A3C395F0404B
:1008F30005E5F0048001E475F002A42582F582E5A4
:10090300F03583F583E493A3C0E0E493C0E022C011
:10091300E074F2120606E589A2E15003121AF0759B
:100923008900C2C57F0102071AC0E074F2120606ED
:10093300E58BA2E05003121AF0758B00C2E880E445
:100943007404800474028000CCC0E0EDC0E0E518BC
:10095300C39CCCAD1950011D10AF068C188D1980A6
:10096300068C188D19D2AF120A3BD0E0FDD0E0FC03
:100973002274028000CCC0E0EDC0E0E518C39CCC3B
:10098300AD1950011D10AF068C188D1980068C18F7
:100993008D19D2AF120A19D0E0FDD0E0FC22C0E0DD
:1009A300C0F088F0E49366700808740193661870C9
:1009B30000A8F0A3A3700BD0F0D0E0D0E0D0E00209
:1009C3000801A3A3D0F0D0E022D083D082CCC0E032
:1009D300E493A36006120A5C1470FAE493A360061E
:1009E300120BA11470FAD0E0FCE493A3C0E0E493EB
:1009F300C0E022C0E074F2120606A2AFE433FED2D6
:100A0300AFC2C0E5D1A2E45003121BAAEEA2E0924A
:100A1300AF7F0102071ACAC0E0E493A3C582CCC525
:100A230082C583CDC583F0A3C582CCC582C583CDE2
:100A3300C583DAE5D0E0CA22CAC0E0E0A3C582CC10
:100A4300C582C583CDC583F0A3C582CCC582C583CA
:100A5300CDC583DAE6D0E0CA22C0E0E493A3D39CF9
:100A63005010E493A3C39C400AD0E0D0E0D0E0024E
:100A730009E9A3A3A3D0E022C008C3E096F50808C0
:100A8300A3E096420808A3E096420808A3E096452F
:100A9300087001D3D00822700908080822601618CC
:100AA3001818C6C333C608C633C608C633C608C635
:100AB30033C6D5E0EA22C09FF59FE473D09F22D0CE
:100AC30083D082C09FE493C0E0740193C0E07402BA
:100AD30093F59F227404800A7403800674028002D3
:100AE3007401C0E0F404120AF2D0E0120D8B222547
:100AF30018F58210AF08F518400215198008F5188B
:100B030040021519D2AF85198322BB0102E722C027
:100B130082C08389828A83BB0003E08002E493D08E
:100B230083D08222C0D0251810AF08F518500205D3
:100B3300198008F51850020519D2AFD0D0226016DB
:100B4300080808C6C313C618C613C618C613C618A2
:100B5300C613C6D5E0EA22C0E0C0D0E8C0E0E5A8ED
:100B6300D2AFC2C7A2E792AFD0E0F8D0D0D0E03284
:100B7300C3E0C696F608A3E0C696F608A3E0C696B9
:100B8300F608A3E0C696F622251810AF08F518401C
:100B93000215198008F51840021519D2AF22C0E0DA
:100BA300E493A36C7009D0E0D0E0D0E00209E9A39C
:100BB300A3D0E022C3E09608A3E09608A3E096083A
:100BC300A3E096A2D265D03322E066701008A3E0BA
:100BD30066700A08A3E066700408A3E0662218188A
:100BE30018E6084608700AE608C3337005E633F4CE
:100BF300220822191919E7094709700AE709C333BB
:100C03007005E733F4220922E76670100809E766E6
:100C1300700A0809E76670040809E76622C3E096CC
:100C2300F008A3E096F008A3E096F008A3E096F09E
:100C330022E056F008A3E056F008A3E056F008A31C
:100C4300E056F022E647F60809E647F60809E647C4
:100C5300F60809E647F622E026F008A3E036F00896
:100C6300A3E036F008A3E036F022E056F608A3E04E
:100C730056F608A3E056F608A3E056F622E657F622
:100C83000809E657F60809E657F60809E657F62273
:100C9300C0E0E8C0E0E58124FCF8E6A2E7D0E0F894
:100CA300D0E022E627F60809E637F60809E637F624
:100CB3000809E637F622700422600D18C6C333C64E
:100CC30008C633C6D5E0F41822E026F608A3E036BA
:100CD300F608A3E036F608A3E036F622E4C396F658
:100CE30008E496F608E496F608E496F622C3E0963E
:100CF30008A3E09608A3E09608A3E09622C6F4C6EC
:100D030008C6F4C608C6F4C608C6F4C622600D08B1
:100D1300C6A2E713C618C613C6D5E0F322C3E796E7
:100D23000809E7960809E7960809E7962275D000AF
:100D3300758140751801751903000206C2E6F008B3
:100D4300A3E6F008A3E6F008A3E6F022E6084608C7
:100D5300C3134608336002E633F422600C08C6C3AB
:100D630013C618C613C6D5E0F422E0F608A3E0F6CE
:100D730008A3E0F608A3E0F622E7094709C31347EF
:100D830009336002E733F422CAC0E0E6F0A308DACD
:100D9300FAD0E0FA22EAF0A3EBF0A3ECF0A3EDF033
:100DA30022E0FAA3E0FBA3E0FCA3E0FD22E5C754A5
:100DB300F84401F5C7790122E7C3331947194719E5
:100DC3004722E6C333184618461846222518F582EB
:100DD300E43519F58322C2AF75D69F0200002212B3
:100DE3000AC23CDC01120AC29DDC01120AC227DDE1
:100DF30001120AC2CBDD01120AC21FDE01120AC2AE
:100E030038DE01120AC25EDE01120AC299DE011245
:100E13000AC2DDDE01120AC204DF01120AC255DF73
:100E230001120AC205E001120AC2BDE001120AC2A0
:100E330085E101120AC262E201120AC2E8E201126A
:100E43000AC2F7E201120AC202E301120AC20BE468
:100E530001120AC21CE401120AC292E401120AC27C
:100E630024E501120AC27CE501120AC242E601121C
:100E73000AC273E601120AC2B8E601120AC2C5E643
:100E830001120AC259E801120AC2BCE901120AC2DC
:100E9300D8EA01120AC242ED01120AC24DED011253
:100EA3000AC257ED01120AC262ED01120AC26CEDC9
:100EB30001120AC276ED01120AC281ED01120AC2C1
:100EC3008CED01120AC2BDED01120AC2E1ED01125D
:100ED3000AC205EE01120AC26AEE01120AC2AEEE9E
:100EE30001120AC2CAEE01120AC241EF01120AC27A
:100EF30079EF01120AC2C5EF01120AC222F00112F0
:100F03000AC204F201120AC28AF201120AC25BF394
:100F130001120AC26BF601120AC2C0F601120AC21A
:100F2300ECF601120AC238F801120AC288F801125B
:100F33000AC2DDF801120AC2DEF901120AC276FA08
:100F430001120AC2F8FA01120AC298FB01120AC27C
:100F5300312900120AC26A2900120AC2442B001264
:100F63000AC2832B00120AC2CD2B00120AC2722CB2
:100F730000120AC2D12C00120AC2052D00120AC2A5
:100F8300722D00120AC28F2E00120AC2972F00126E
:100F93000AC22D3000120AC2743300120AC21D3471
:100FA30000120AC2F93400120AC25A3500120AC2E8
:100FB300773600120AC2A13800120AC25839001249
:100FC3000AC2623900120AC2953900120AC25C3A97
:100FD30000120AC2F73A00120AC25C3B00120AC2AC
:100FE300853B00120AC2A73B00120AC2D63D00127B
:100FF3000AC2AD3E00120AC2F13E00120AC25E3FAF
:1010030000120AC2194000120AC24B4000120AC25F
:101013008F4000120AC2C24000120AC217410012D6
:101023000AC26C4100120AC2004200120AC26242A2
:1010330000120AC2CA4200120AC2734400120AC250
:101043005B4500120AC29D4600120AC2CB48001239
:101053000AC28B4900120AC2BA4B00120AC25D4C83
:1010630000120AC29B4C00120AC2474E00120AC267
:101073005B4E00120AC2654E00120AC28F4E001266
:101083000AC29B4E00120AC2BA4E00120AC2714F24
:1010930000120AC2B04F00120AC2BA4F00120AC2AB
:1010A3006E5000120AC26D5100120AC2665200123B
:1010B3000AC2035300120AC2A55300120AC2BC5348
:1010C30000120AC2F35300120AC2115400120AC2D8
:1010D300555400120AC27A5400120AC26055001213
:1010E3000AC2CC5500120AC2465600120AC255570C
:1010F30000120AC2945800120AC2F65800120AC219
:10110300B05900120AC2D35900120AC2A75A0012D8
:101113000AC2F25A00120AC2345B00120AC28B5B83
:1011230000120AC2C25B00120AC2F05B00120AC2BA
:10113300295C00120AC24E5C00120AC2D65C00127D
:101143000AC2F95E00120AC2585F00120AC2EC5FBB
:1011530000120AC2586000120AC2AC6000120AC22E
:1011630023BB03120AC262BB03120AC2A1B4011257
:101173000AC2FBB401120AC257B501120AC2A3B5CF
:1011830001120AC2BEB501120AC2EFB501120AC2A8
:101193000CB601120AC218B601120AC28CB70112A8
:1011A3000AC2A5B701120AC20CB801120AC21FB8BB
:1011B30001120AC22DB801120AC2E1B801120AC211
:1011C300C5B901120AC2CBBA01120AC251BB01123C
:1011D3000AC25BBB01120AC2C8BB01120AC2DFBB4F
:1011E30001120AC211BC01120AC24ABC01120AC28C
:1011F30074BC01120AC2D5BC01120AC2F5BC0112A9
:101203000AC213BD01120AC259BD01120AC27FBE2E
:1012130001120AC2CCBE01120AC2FBBE01120AC2EB
:1012230071BF01120AC299BF01120AC2D2BF0112D1
:101233000AC2E0BF01120AC238C001120AC287C043
:1012430001120AC2C6C001120AC2F6C001120AC2C2
:1012530022C101120AC22DC101120AC24BC10112DD
:101263000AC20DC201120AC217C201120AC252C235
:1012730001120AC268C201120AC271C201120AC271
:10128300C6C201120AC2DAC201120AC2E8C30112BB
:101293000AC2FBC301120AC210C401120AC2B2C4B9
:1012A30001120AC235C501120AC2F3C501120AC2EC
:1012B300FEC501120AC224C701120AC240C70112A5
:1012C3000AC292C701120AC2D1C701120AC2E6C7F3
:1012D30001120AC228C801120AC275CA01120AC23F
:1012E300F3CA01120AC266CB01120AC288CD0112E7
:1012F3000AC2A0CD01120AC2A3CD01120AC2AFCD08
:1013030001120AC2C3CD01120AC2CBCD01120AC215
:10131300FECD01120AC2AECE01120AC224CF0112BF
:101323000AC297CF01120AC24BD001120AC200D1DE
:1013330001120AC21FD101120AC2BFD101120AC28D
:10134300CBD101120AC2F6D101120AC2F9D101129C
:101353000AC263D201120AC28BD301120AC263D436
:1013630001120AC2EED401120AC207D601120AC23E
:10137300C4D601120AC2FDD601120AC22ED7011227
:101383000AC2CED701120AC2FED701120AC2D9D8A5
:1013930001120AC272D901120AC2FDD901120AC28C
:1013A300AEDA01120AC230DB01120AC262DB011299
:1013B3000AC2A3DB01120AC220C802120AC285C8EC
:1013C30002120AC2C2C802120AC211C902120AC216
:1013D30027CB02120AC20ACD02120AC274D0021229
:1013E3000AC2AFD002120AC2D1D002120AC234D149
:1013F30002120AC268D102120AC28BD102120AC2B5
:10140300B8D102120AC214D202120AC25BBC02127F
:101413000AC2D9BC02120AC20FBD02120AC27BBDA4
:1014230002120AC2EEBE02120AC20ABF02120AC2A4
:101433004FBF02120AC2DDBF02120AC236C0021235
:101443000AC263C102120AC275C202120AC2D2C21E
:1014530002120AC23EC302120AC29FC302120AC286
:10146300E0C302120AC28DC402120AC29FC502124D
:101473000AC2CAC502120AC215C602120AC25CC651
:1014830002120AC2EEC602120AC2A9C702120AC295
:10149300E5A603120AC215A703120AC26AA703121A
:1014A3000AC28EAD03120AC29FAD03120AC2F0AD87
:1014B30003120AC235AE03120AC2DFAE03120AC216
:1014C3002CB703120AC25AAA03120AC2B2AB0312FE
:1014D3000AC2347500120AC2D97500120AC2F9751C
:1014E30000120AC2197600120AC22D7600120AC22D
:1014F300857600120AC2B57600120AC23678001247
:101503000AC2DC7800120AC2BE7900120AC20F7A3C
:1015130000120AC2527A00120AC2957A00120AC253
:10152300FB7A00120AC21C7B00120AC2A87B0012BB
:101533000AC2D97B00120AC24D7C00120AC2FB7D8B
:1015430000120AC2D57E00120AC2177F00120AC215
:10155300717F00120AC20AA503120AC22BA5031245
:101563000AC264A603120AC28EA603120AC2E5B215
:1015730003120AC260B303120AC26BB303120AC294
:101583008CB303120AC21EB002120AC221B00212A5
:101593000AC2DBB002120AC206B102120AC24DB17C
:1015A30002120AC272B102120AC293B102120AC231
:1015B300C7B102120AC200B202120AC229B302124E
:1015C3000AC260B302120AC280B302120AC21BB477
:1015D30002120AC2E0B402120AC217B502120AC208
:1015E3008CB602120AC22FB702120AC228B802121C
:1015F3000AC251B802120AC2A5B802120AC26BB9D2
:1016030002120AC299B902120AC22EBB02120AC2FC
:10161300AFBB02120AC2E2BB02120AC260D20212BA
:101623000AC26AD202120AC2B6D202120AC224D370
:1016330002120AC245D302120AC25CD302120AC2C0
:101643000CD402120AC2A0D602120AC2A9D60212EE
:101653000AC2FCD602120AC225D702120AC28CD7CA
:1016630002120AC21DD802120AC25FD802120AC2AB
:10167300A9D802120AC2D8AA01120AC299D902121F
:101683000AC2D8D902120AC217DA02120AC24CDA03
:1016930002120AC25EDA02120AC270DA02120AC225
:1016A3008FDA02120AC298DA02120AC24EDB02125F
:1016B3000AC28EDB02120AC26A8903120AC23D8A77
:1016C30003120AC2578A03120AC2688A03120AC2A1
:1016D3007D8C03120AC29C8C03120AC2C4A003129B
:1016E3000AC2EADB01120AC243A103120AC293A28D
:1016F30003120AC2E66000120AC2256200120AC27D
:10170300616200120AC2206400120AC24964001214
:101713000AC2DC6600120AC2206700120AC2A96864
:1017230000120AC2416900120AC2A96900120AC260
:101733004A6A00120AC28C6A00120AC2CC6A0012F8
:101743000AC2576C00120AC2C76D00120AC2EC6FBC
:1017530000120AC21A7000120AC2417000120AC2B1
:101763004A7000120AC2A57000120AC23871001230
:101773000AC2567400120AC2D77400120AC26DBCA0
:1017830003120AC2D8BA03120AC2F58D03120AC29F
:10179300088E03120AC2A58E03120AC2E08E031238
:1017A3000AC2FB8E03120AC2208F03120AC2658F7C
:1017B30003120AC2968F03120AC2C78F03120AC208
:1017C3004D9103120AC257B003120AC28DB003121D
:1017D3000AC2A9B003120AC2EBB003120AC2FBB0D9
:1017E30003120AC290B103120AC29AB103120AC2C7
:1017F3004AEB02120AC2F5EB02120AC2DFED021231
:101803000AC224EE02120AC27FEE02120AC2F3EEE9
:1018130002120AC2D3EF02120AC292F002120AC2E1
:1018230025F102120AC28FA002120AC2E7A0021215
:101833000AC291A102120AC239A202120AC296A2D4
:1018430002120AC2EFA202120AC203A302120AC2BE
:10185300CDA402120AC248A502120AC272A502123C
:101863000AC22FA702120AC24AA702120AC299A7E2
:1018730002120AC2AFA702120AC2BCA702120AC20C
:10188300F0A702120AC206A802120AC28CA8021208
:101893000AC29BA802120AC2F4A802120AC24EA9E3
:1018A30002120AC29CA902120AC2A6AA02120AC200
:1018B30028AD02120AC2C2AD02120AC204AE02125B
:1018C3000AC299AE02120AC2B6AE02120AC2B9AE77
:1018D30002120AC2BCAE02120AC22FAF02120AC21D
:1018E3004AAF02120AC276AF02120AC2B1AF0212A3
:1018F3000AC2B4AF02120AC2C7AF02120AC2EEAFE3
:1019030002120AC204BA03120AC210BA03120AC2AA
:101913004ABA03120AC2BE9002120AC2E990021224
:101923000AC2B59102120AC23A9202120AC2A392E1
:1019330002120AC2EF9202120AC26E9302120AC282
:10194300009402120AC28C9402120AC2CE940212AA
:101953000AC23A9902120AC2BA9A02120AC2F99A3E
:1019630002120AC2C29B02120AC2769C02120AC265
:10197300269E02120AC2B29E02120AC200800212FC
:101983000AC2BA8002120AC22C8102120AC23B8125
:1019930002120AC2B58102120AC2248202120AC2C8
:1019A3002E8302120AC2578302120AC2F78302125B
:1019B3000AC2458402120AC2B58402120AC2E98528
:1019C30002120AC2C58602120AC2368702120AC26C
:1019D300B38802120AC2758902120AC2108A02125D
:1019E3000AC26B8A02120AC2D68A02120AC2DA8BAE
:1019F30002120AC29B8D02120AC23A8E02120AC254
:101A0300AC8E02120AC2698F02120AC27A940312BE
:101A13000AC2CE9403120AC2269503120AC2719512
:101A230003120AC2D39503120AC26C9603120AC2A6
:101A3300D49603120AC2E09603120AC26E9E0312E0
:101A43000AC29F9E03120AC2599F03120AC2BF9F72
:101A530003120AC230A003120AC27EA303120AC2EF
:101A63001FB803120AC2A4B803120AC2857F001268
:101A73000AC2A17F00120AC2A97F00120AC2C97F4B
:101A830000120AC2E37F00120AC210FF02120AC246
:101A930021FF02120AC2C1FF02120AC2A2A8031244
:101AA3000AC2B0A803120AC283BC03120AC26EB9E7
:101AB30003120AC27EB903120AC299B903120AC2F7
:101AC300FAB903120AC22AB603120AC2AFB6031244
:101AD3000AC213B703120AC218B503120AC23AB5EF
:101AE30003120AC2A4B503120AC2AFB503120AC293
:101AF300F3B503120AC2F3E402120AC201E50212A9
:101B03000AC242E502120AC263E502120AC2EDE505
:101B130002120AC250E602120AC272E602120AC294
:101B23008DE602120AC2A8E602120AC2B2E6021245
:101B33000AC2BCE602120AC2CFE602120AC2E8E6F1
:101B430002120AC284E702120AC240E802120AC25F
:101B5300C0E802120AC23AE902120AC2A0E902125A
:101B63000AC24BFC01120AC259FC01120AC2D3FC7D
:101B730001120AC2B7FD01120AC270FF01120AC2A2
:101B8300DBFF02120AC2A0F102120AC20DF2021214
:101B93000AC2CEF202120AC23EF302120AC247F48A
:101BA30002120AC2BFF502120AC223F602120AC2C5
:101BB30078F602120AC281F602120AC290F60212E3
:101BC3000AC2A3F602120AC2B9F602120AC2C2F686
:101BD30002120AC2D5F602120AC22AF702120AC276
:101BE30026F902120AC258F902120AC27AF902123B
:101BF3000AC293F902120AC2ACF902120AC2B6FA75
:101C030002120AC251FB02120AC2F6AE03120AC240
:101C13001AAF03120AC233AF03120AC266AF03122A
:101C23000AC297AF03120AC2C5AF03120AC227B092
:101C330003120AC236B003120AC240B003120AC228
:101C43004DB003120AC21B9703120AC24197031233
:101C53000AC27E9703120AC28D9703120AC2AC9777
:101C630003120AC2149803120AC21D9803120AC26D
:101C73007C9803120AC2A09803120AC25F99031246
:101C83000AC26C9903120AC27D9903120AC2B0BB3D
:101C930003120AC2CDBB03120AC2388003120AC25E
:101CA300968103120AC2A38103120AC2B6810312E8
:101CB3000AC2D58103120AC2EB8103120AC2FF8151
:101CC30003120AC2748203120AC2D98203120AC21D
:101CD300898303120AC25E8403120AC26E8403124A
:101CE3000AC27D8403120AC2D5B803120AC2F9B824
:101CF30003120AC221B903120AC249B903120AC262
:101D0300AB9903120AC2D29903120AC2F3990312BE
:101D13000AC2589A03120AC2119C03120AC22A9CCD
:101D230003120AC2369C03120AC24A9C03120AC255
:101D3300689C03120AC2729C03120AC27C9C03129F
:101D43000AC28F9C03120AC2E29C03120AC21B9DA1
:101D530003120AC24A9D03120AC2989D03120AC2C1
:101D6300E79D03120AC2029E03120AC20C9E0312CB
:101D73000AC21D9E03120AC2639E03120AC287BAD5
:101D830003120AC2B7DB02120AC2E1DB02120AC261
:101D9300FDDB02120AC210DC02120AC226DC0212A6
:101DA3000AC283DC02120AC2B6DC02120AC2F2E0E1
:101DB30002120AC218E202120AC24BE202120AC259
:101DC30097E202120AC2C3E302120AC2EBE302124F
:101DD3000AC200E402120AC210E402120AC254E464
:101DE30002120AC2B5E402120AC2C5E402120AC20E
:101DF300B2B103120AC2CDB103120AC2F6B1031281
:101E03000AC210B203120AC235B203120AC254B292
:101E130003120AC26CB203120AC29AB203120AC2B2
:101E2300B4B203120AC26CBB03120AC290FB0212C1
:101E33000AC297FB02120AC2A3FC02120AC2D3FC13
:101E430002120AC2F9FC02120AC21CFD02120AC2E1
:101E53003EFD02120AC278FD02120AC2DEFD021220
:101E63000AC217FE02120AC263FE02120AC290FEDF
:101E730002120AC2B0FE02120AC201AC03120AC263
:101E830013AC03120AC2FEAC03120AC28BAD0312D7
:101E93000AC205B403120AC277B403120AC2B5B464
:101EA30003120AC2F6B403120AC25A9103120AC2F7
:101EB300769103120AC2C59103120AC2E191031279
:101EC3000AC2129203120AC2229203120AC20E9388
:101ED30003120AC2189303120AC2259303120AC2F9
:101EE300359403120AC2499403120AC2529403128C
:101EF3000AC2B68403120AC2FB8803120AC200890B
:101F030003120AC222BC03120AC2ECBB03120AC2A6
:101F1300D5FF01120AC24FBC03120AC24BAA011217
:101F23000AC23EAA01120AC24CA701120AC29EA407
:101F330001120AC272A301120AC2C6A201120AC284
:101F430017A101120AC2D29E01120AC2599E01129E
:101F53000AC2D8DB01120AC25CB301120AC2009E94
:101F630001120AC2949D01120AC23EB301120AC2AF
:101F7300F3B101120AC26B9D01120AC25E9B0112E8
:101F83000AC22A9B01120AC2F79A01120AC2DB9AF9
:101F930001120AC2019A01120AC2B99901120AC2B4
:101FA300EE9701120AC26E9701120AC26B970112D1
:101FB3000AC2729601120AC2409601120AC27D95A4
:101FC30001120AC2A89301120AC2399301120AC26A
:101FD3000B9301120AC250B101120AC2FDAF0112E2
:101FE3000AC2AEAD01120AC2B7AC01120AC29BAC5F
:101FF30001120AC2089301120AC2F59201120AC21F
:102003008D9201120AC27C9201120AC22BAC0112F8
:102013000AC25D9101120AC2279101120AC2EA9013
:1020230001120AC28B9001120AC2E2AB01120AC268
:10203300FAA003120AC25A9001120AC2158D0112A4
:102043000AC2068C01120AC2958B01120AC25A8B6C
:1020530001120AC2258B01120AC2198B01120AC28C
:10206300798A01120AC2C08901120AC29387011236
:102073000AC21F8501120AC2DD8401120AC2A883A3
:1020830001120AC25D8301120AC28F8201120AC2BF
:10209300E68101120AC2828101120AC2BC810112C5
:1020A3000AC29AAB01120AC208D90200000080FBDF
:1020B300E4730000000000000000000000000000C6
:1020C3000000101010101010000030300000001439
:1020D300285000000000000000000000000000285D
:1020E30028FC284850FC505000000000103854547D
:1020F300301814545438100000000044A8A8B054F9
:102103001A2A2A44000000000020505060ACA8980E
:10211300927C000000606020C0000000000000000E
:102123000000000408081010101010100808040024
:1021330000004020100804081020400000000000A8
:10214300001010D63838D610100000000000001020
:102153001010FE101010000000000000000000002E
:1021630000000000606020C0000000000000FC00D0
:10217300000000000000000000000000000000005C
:1021830060600000000204040408081010202020EE
:102193004000000000304884848484844830000078
:1021A30000000010701010101010107C00000000D0
:1021B3000038444404081020447C00000000003828
:1021C3004444180404444438000000000808182854
:1021D3004848887C081C00000000007C404078448C
:1021E3000444443800000000003C4480B8C48484A4
:1021F300847800000000007C444808101010101080
:102203000000000000788484487884848478000087
:10221300000000788484848C740488F0000000003B
:1022230000000030300000003030000000000000EB
:10223300000010000000001010200000040810200F
:1022430040201008040000000000000000FC000013
:10225300FC000000000000004020100804081020CB
:10226300400000000000788484840810100030309F
:10227300000000000038449AAAAAAAB4423C000015
:102283000000001010282828384444EE0000000005
:1022930000F844447844444444F800000000003CFF
:1022A30044848080808044380000000000F048446B
:1022B3004444444448F00000000000FC4440487893
:1022C300484044FC0000000000FC4240487848407D
:1022D30040E000000000003C448480808E84443849
:1022E3000000000000EE4444447C444444EE0000FB
:1022F3000000007C101010101010107C0000000073
:10230300007C101010101010101090E0000000EE70
:1023130044485070484844EE0000000000E040404C
:102323004040404044FC0000000000EE6C6C6C54E4
:10233300545454D60000000000EE64645454544CCA
:102343004CE40000000000304884848484844830D6
:102353000000000000F844444478404040E000009E
:10236300000000304884848484B448380C000000A2
:1023730000F844447850484844E600000000003C1C
:1023830044402018040444780000000000FE92102A
:102393001010101010380000000000EE44444444B4
:1023A300444444380000000000EE44442828282810
:1023B30010100000000000D6545454546C282828F0
:1023C3000000000000EE44282810282844EE0000F6
:1023D300000000EE44282810101010380000000000
:1023E300007C88081020204044FC0000001C1010D2
:1023F30010101010101010101C000070101010108E
:102403001010101010107000007010101010101029
:1024130010101010700000102800000000000000D1
:1024230000000000000000000000000000000000A9
:1024330000FE00606020C0000000000000000000FB
:1024430000000000000038441C24443E000000004B
:1024530000C0404078444444447800000000000039
:1024630000003C444040443800000000000C0404D9
:102473003C444444443E0000000000000000384453
:102483007C40443800000000001C2420F820202059
:10249300207800000000000000003C4848304078ED
:1024A3004438000000C040405864444444EE0000F7
:1024B30000000010000070101010107C00000000DD
:1024C300000800003808080808080870000000C069
:1024D30040405C48507048EC000000000070101051
:1024E30010101010107C0000000000000000F854D1
:1024F300545454D60000000000000000D864444443
:1025030044EE000000000000000038444444443816
:102513000000000000000000F8444444447840E018
:102523000000000000003C444444443C040E00000E
:1025330000000000EC30202020F800000000000024
:1025430000003C44300844780000000000001010F4
:102553007C101010100C0000000000000000CC44A0
:102563004444443E0000000000000000EE442828DC
:1025730028100000000000000000D65454542828FE
:102583000000000000000000DC48303048EC000090
:10259300000000000000EE442828101020E0000096
:1025A300000000007C481010247C00001010101064
:1025B3001010101010101010101000013636010109
:1025C30000010201000103010001040106060502E6
:1025D3000000070100340801000F090401010D0187
:1025E30000FF0E08000017020000190100FF1A0186
:1025F30000011B0100FE1C0100081D0200001F0159
:10260300000120010001210200002301000F240228
:1026130000002601000127010008280200FF2A010B
:1026230000072B0102402C0100002D0100012E01A7
:1026330000012F0100FF30010B1C310800003A019B
:1026430000083B01000F2F0100000302710230015B
:1026530060021102700201020202020280021002F1
:1026630061023A0041006302730272026202430292
:1026730000021302380000020002040212020002E8
:1026830000020002000204020402370037003C0289
:102693004402000239000002000265020002350212
:1026A300810200020502820283020002030071001C
:1026B30030016000110070003102200350048000DB
:1026C30010006100000014006300730072006200D8
:1026D3004300000013000600000000000400120085
:1026E3000000000000000000040004003700370071
:1026F3003C024400000000000000000065000000F0
:102703003500810000000500000083000000010384
:102713007103010301030103010301032203020304
:10272300010310030003000300030003000300037D
:10273300000342030003240306030003000304030E
:1027430012032503230325032303040304030003C4
:102753000003000344030003000323030003650392
:102763002100350381030003050300030003000375
:102773000101710101010101110101013101010196
:1027830001018001100161013B0014006301730129
:102793007201620143010001130106013D0135008D
:1027A3000401120100010001000100010401040100
:1027B300330133013C0144013201360000010001C1
:1027C30065010001350081010001050182018301DA
:1027D300000136000100060000000F0000000000A9
:1027E300000000000000000003FFFF00000403FFDF
:1027F300FF0000FFFF0FF4010005C40403200001E4
:1028030000030B000000000000000003010F0100A3
:10281300B81902002E190300341904003A190500EF
:10282300401906004C191100641914006A191500A7
:102833005E19FFFF0000081238120E121412321232
:10284300261220123E1244124A1256121A12021271
:10285300FC1103EAF5E5D5D5C5B5A595958585752F
:1028630075656555554545353525251515050AD431
:102873000F029E0F05B00F07A40F0C800F0D920FD0
:10288300FF000000160F00000B150B020002220FC1
:1028930032000006F21204130A13D2111013CC11E2
:1028A300D811521370137613581364135E13000375
:1028B3004948424D18172505020C0E020B040B0A5A
:1028C3000708000F00011916181616152303000038
:1028D300383C3E363B3B352B432C30301618192001
:1028E300231A1C1E30303017181921301B1D1F30BE
:1028F3002C1250126A135C126212461316131C1325
:10290300281322130204020101010109020000003D
:1029130000000000BE040A0E001500040028000891
:10292300050C0A030908FF1E1E0F0404100C74F79C
:1029330012059AE99003B0F0900365E4F0121E7A51
:102943009003B5E4F0A3F09003B1F0A3F012110CDF
:10295300121E80900334E4F0A3F090292C93FA79AB
:1029630002121EE00255C774F212059AEAFEEBFF4B
:10297300548060699003B0E0F912165E8A088B09EF
:10298300EA4509604F7C0080010CEC75F003A4F864
:10299300A9F0747128F582742839F583E493F460FF
:1029A3002CE493F88508828B83E06870DCAA08EC3A
:1029B30075F003A4F8747228F582742839F583E45A
:1029C30093C0E0740193F583D0821220B3AA08ABBD
:1029D30009121652EEFAEF6480FB022B37EF5420F4
:1029E300601D12102E8A088B09EA4509600A120F2E
:1029F30092AA08AB09121652EEFAEF642080DAEEBF
:102A0300A2E0501A90036AE0640F700B7900120F72
:102A13005CE96003122B3AEE6401FAEF80BB5420A9
:102A23007003022B05750C0012400C8B09EA450953
:102A330070107C027D007A207B009003B0E0F912D5
:102A430017A87C0079047A007B0012100A8A088B8D
:102A5300098018850882850983A3A3A3A3A3A3A33D
:102A6300A3A37401F0850A08850B09E508450960ED
:102A73006D7C007904AA08AB0912100A8A0A8B0B31
:102A8300750C01E5082404F8E509123DB024FFF0B4
:102A9300A3E034FF1260A370CC850882850983A369
:102AA300A3A3A3A3A3A3A3A3A3E0640170A5850881
:102AB30082850983A3A3A3A3A3A3E05404709485ED
:102AC3000882850983A3A3A3A3A3A3A3A3A3740633
:102AD300F07AB7850882850983122C668087120FE6
:102AE300DA7C0079017A007B0012100A8B09EA452F
:102AF300097009E50C70057A20124F66EE64200216
:102B03002A1DEF5402600B121106EEFAEF64020263
:102B130029DCEF540460191250FD12501D79019005
:102B23000363125381120EA2EEFAEF64040229DC4E
:102B33007A007B00022D6D900D8E123404120F74F7
:102B430022C082C08374EA120B8B85188285198395
:102B5300AA82AB83794B121EB67408120DCF74028E
:102B6300F07409120DCFAA82AB837950121EB6748A
:102B730013120DCFE4125550121ED4741602452AB7
:102B830074F712059A74E1120B8BEAFEEBFFEE4F1A
:102B93006033851882851983AC82AD831210527419
:102BA30006120DCFE0601E7417120DCFE0FD740105
:102BB300120DCFE0FCEEFAEFFB7900121F6AE96019
:102BC3000479A4800279000255C274F612059AEAC8
:102BD300FEEBFF8E828F83A3A3A3A3A3A3E05440A2
:102BE300601B125A3F122D3460067AFF7BFF801A56
:102BF3008E828F831241B6FAA3E0FB800312107614
:102C030074FE6A700374FF6B6041125A3F124FAA3D
:102C13001210CAE98E828F836006122C5FE480054E
:102C2300122C5F7401F07C627D0F8E828F831253AE
:102C330081121EDAE9F5087015EE4F60097901EE8D
:102C4300FAEFFB120FE6A908024FDB7508CDAA08BD
:102C53008E828F83122C66E960DF80EAE0240D12F6
:102C6300468522E0240C124685E0F9120F6E227489
:102C7300F612059AE9FEEAFF7A0F7B0012164CEA78
:102C83004B60198A828B83740CF0EEA3A3F0EF8A56
:102C9300828B83A3F01250067900802FEEF9121075
:102CA300108A088B09A808A909E849601C88828949
:102CB30083A3A3A3A3A3A3A3A3A37406125CCAE041
:102CC300F9120F26EEF9120FEC7910024FDBC082D6
:102CD300C08390036AE0640F7014EA4B60109003A2
:102CE30065E064086005E064047003122CF4024597
:102CF30054EAFCEBFD7A017B009003B0E0F9121774
:102D0300A222C082C0837900EA241DF582EB12411E
:102D1300B324FD600B14600824FD600424FD7001DE
:102D2300090245548E828F83A3A3A3A3A3A3A3A3C2
:102D3300A3122D38221241FBFB1210CAE9228E8204
:102D43008F83A3A3A3A3A3A3A3A3A3122D386402D6
:102D5300228E828F83A3A3A3A3A3A3A3A3A312451A
:102D63004B900356E06822120B277F060208577424
:102D7300F412059A74FD120B8B8A088B098A828BD5
:102D830083A3A3E0F91210108A0A8B0BAE0AAF0BD0
:102D9300EE4F7003022E79850882850983A3E064D0
:102DA300F16030850882850983A3E064CD602485C2
:102DB3000882850983A3E0641A601885088285095F
:102DC30083A3E064E9600C850882850983A3E0643A
:102DD300E170087900120FE6E9706C8508828509B5
:102DE30083A3E0C0E07402120DCFD0E012452FEEB2
:102DF300F0A3EF12385A851882851983AA82AB8310
:102E03007005120E8A80031210B27402120DCFE005
:102E130064E970338E828F83122E85750A01780AD6
:102E2300120AE3750AE9780A120AE3E508240CF5A5
:102E330082E50912334C123837FCA3E0FD8A828BFA
:102E430083123851120B278E828F83A3A3A3A3A3CC
:102E5300A3A3A3A3E0640270108E828F83A3A3A312
:102E6300A3A3A3A3A3A37406F0850882850983A360
:102E7300A3E0F9120FEC120FDA900D92122B3D0220
:102E83003409E0F8A3E0F9E8FAE9FB2274F4120547
:102E93009AEAFEEBFF7508008E828F83A3A3A3A398
:102EA300A3E060427508088E828F83A3A3A3A3A324
:102EB300A3A3A312445E8B0BEA450B601075082C89
:102EC3008E828F83A3A3A3A3A3E0D2E0F08E828F8D
:102ED30083A3A3A3A3A3E0540364016003022F7895
:102EE300430811022F78EE24181234166033EE24AF
:102EF3001A123416700F122D547003A3E069707503
:102F03007508228070EE241BF582EF122F7D241AA0
:102F1300F582EF123862EE2419125A73120F1480DD
:102F230054122D417003750801122D547003A3E050
:102F3300697006E508D2E1F508E50860158E828F11
:102F430083A3A3E07006E508D2E58004E508D2E692
:102F5300F508122D2764017006E508D2E0F5088E06
:102F6300828F83A3A3E0600D122F8B64016006E5BB
:102F730008C2E0F508A90802340E1241A1122F84F9
:102F830022E0FCA3E0FDEE2212419B1241D3F91291
:102F930010B8E922C082C08379018A828B83A3A3FC
:102FA300E0C394024001198A828B83A3A3A3A3E005
:102FB300C39402400279008A828B83A3A3A3A3A3B1
:102FC300A3A3A3A3E064F87003A3E0F460458A829B
:102FD3008B83A3A3A3A3A3A3A3A3A3E064F9700375
:102FE300A3E0F4602E8A828B83A3A3A3A3A3A3A34A
:102FF300A3A3E064FA7003A3E0F460178A828B83CF
:10300300A3A3A3A3A3A3A3A3A3E064FB7003A3E0CD
:10301300F4700279008A828B83A3A3A3E0F8900360
:1030230053E0686002790002455474F012059A7403
:10303300DE120B8BEAFEEBFF8E828F83A3A3A3A387
:10304300E0600E900D90124FD26006900D90122BFF
:103053003D7403120DCFAC82AD838E828F83A3A305
:10306300A312505412588DE9600F7403120DCFAAA6
:1030730082AB83120F8CE970087901121E8C023324
:1030830041EE241B1241A67410120DCF12501D7471
:1030930009120DCFE06021741A120DCFE0FD740404
:1030A300120DCFE0FC8E828F8312537F7901121FA2
:1030B3006AE96004790280C37403120DCFAA82AB5C
:1030C30083120F86E9F50A7409120DCFE0702A9076
:1030D300034DE060247422550A6422601C74425537
:1030E3000A644270CF7420120DCF12335F600A74EA
:1030F30020120DCF12335870BBE9A2E6504174037E
:10310300120DCFAA82AB83120F7AE9700302307CCF
:103113007420120DCF1241B66403700F7420120D88
:10312300CFA3124FC4A3E0640D60147403120DCF38
:10313300AA82AB831210DCE964017003023341EE0F
:10314300242C12334912366D7003A3E069701C7589
:1031530008007808120AE37808120AE3EE242E1214
:103163005A73123365123851120B277409120DCF9B
:10317300E0700302321E1233651253811211308A3A
:10318300088B09EA450970030232BB7404120DCFA0
:10319300E0F88E828F83A3A3E028F8A3E03400F93C
:1031A300E8240D1233508A828B83A3A3A3E06860C3
:1031B3001CE88A828B83A3A3A3F0908137120DA40A
:1031C300850882850983A3A3A3A3120D987904E933
:1031D300120DCF12586A2AF8A3E034008882F583CF
:1031E300A3AA82AB8312163A8A0C8B0D8C0E8D0F19
:1031F300850882850983A3A3A3A3780C120A7B40C5
:1032030003023341908177780C120CCC85088285B8
:103213000983A3A3A3A3780C120D40900365E06474
:10322300046008E064096003023341E50AA2E54053
:10323300030232F9EE242E1234168518828519837F
:10324300F0EE242F123416C0E07401120DCFD0E03B
:10325300F0EE2430123416C0E07402120DCFD0E029
:10326300F07414120DCFE064017027740E120DCFA9
:103273001241ACEE2412123416687003A3E0697095
:1032830011740C120DCF122D4E70077414120DCF42
:10329300E4F0EE24241233491209437404120DCFCF
:1032A300AC82AD837407120DCFAA82AB83120E904A
:1032B3007404120B270233419003AAE064016003F4
:1032C30002321E7420120DCF12335F7009E50AA279
:1032D300E6500302321E7410120DCFE0F47003A304
:1032E300E0F4605AEEFCEFFD7403120DCFAA82AB3B
:1032F30083120F988048A2E650447420120DCF1217
:103303005390701A741A120DCFE064027030740374
:10331300120DCFAA82AB8379001210A680207420ED
:10332300120DCF1233587016741A120DCFE06404C5
:10333300700C7403120DCFAA82AB831210A07422F7
:1033430002573CEE240BF582EF1241A122F582E9EC
:10335300125036F822125A51E06407221241D36404
:103363000622EE242A12419E122F84241212419E19
:103373002274F412059AEAFEEBFF8C088D0990067D
:103383005BE0600F122D547003A3E0697005120F08
:1033930002804F7900125374120F328A828B83E5B5
:1033A3008245836035A3A3A3A3A3A3E05418602A93
:1033B300E508241BF582E50912334C120947123A3A
:1033C3004A12334C120947EE2418125A731233E788
:1033D300120F447404120B27800879001233E7128A
:1033E3000F0880278E828F83A3A3A3A3A3A3A3A3E2
:1033F300A3122F84240BF582EF123400223400F53C
:10340300831241FBFB227403120B277F040208572C
:10341300EE2417F582EF1250362274F712059A74D0
:10342300F7120B8BEAFEEBFF900365E06403600D7C
:10343300E064016008E0640960030234E78E828F70
:1034430083A3E0707E7C007D007A027B00121E86DF
:10345300EE2402FAEF123DB71241AC90035612501C
:103463001D7953121EBC79001234ECE06409600329
:1034730012387F8518828519837401124FF39003E4
:10348300657404F07401120DCFAA82AB83794A12DA
:103493001EB67401120DCFAC82AD837A5B7B03122F
:1034A3001EA49003561258837A031238899003504E
:1034B300E0A2E35004D2F08002C2F0124FE0122BDC
:1034C3003A801E8E828F83A3AE82AF83FC7D007A07
:1034D300037B10121E868E828F83E0F91234ECE494
:1034E300F0120FC274090255C4900363123404121C
:1034F3000EA290036522C082C083900334124FD280
:10350300701F900365E014600924FC600A14600CCA
:10351300800F90033C8032900338802D90033A80D3
:1035230028E8496008900335123831700C8A828B81
:1035330083A3E0F9120E96801B900335123AE670CE
:10354300051210FA800E9003D2124FD26006124F6A
:10355300C41220B302455474F412059A74FB120B7F
:103563008B8A088B097A0F7B0012164C8A0A8B0B05
:10357300AE0AAF0BEE4F70030236618E828F831259
:10358300554E7950121EB6850882850983A3E060E3
:1035930003023649900363E0F47003A3E0F460345C
:1035A300900363E064FE7003A3E0F4602785188250
:1035B30085198312366D7003A3E06960178508824D
:1035C300850983A374EA1238677A637B03795012FF
:1035D3001EBC8072851882851983125A3212501DBF
:1035E3007A567B037953121EB690035612504E122D
:1035F300501D7A597B03794B121EB67A587B037997
:10360300E1121EB690036AE0C3940F502190035851
:10361300E0C0E07402120DCFD0E0F07404120DCFBD
:103623007401F004120DCFAA82AB83121ECE750A69
:1036330000780A120AE3780A120AE3900DB8E0F957
:10364300123848120B27850882850983123666A330
:10365300F09003657403F0EEFAEFFB125006740565
:1036630002340BA3E08E828F8322125A36E0682243
:1036730012468C2274F512059A74D8120B8B8A08A1
:103683008B098A828B83A3A3A31241D87415120DCD
:10369300CFAC82AD838A828B83A3A3A3A3A3A3A36B
:1036A300A3123837FAA3E0FB120FC87415120DCF1B
:1036B300E0706B850882850983A3A3A3A3A3A3A3B7
:1036C300A3E0C3940B40578E828F83A3A3A3A3A32A
:1036D300A3A3A3E064027046EE240B123416F47025
:1036E3003D900365E06402603AE064066035900350
:1036F30034124FD26005123831604F900365E06495
:10370300086005E0640470167417120DCFE0F974B5
:103713001C120DCFAC82AD83125374120FCE7428DA
:10372300025F50900334124FD2701F75080078085F
:10373300120AE37808120AE3EE2410123349125AEC
:103743008B123E9F123851120B278E828F83125297
:10375300F0123DC91241AC7402120DCF12501DEE8E
:10376300240D123416C0E07404120DCFD0E01238C9
:103773005AF508A3E0F509740F7808120D5E740575
:10378300120DCFE508F07419120DCFE0C0E07406F6
:10379300120DCFD0E0F0741B120DCFE0C0E0740720
:1037A300120DCFD0E0F07416120DCFE0C0E0740913
:1037B300120DCFD0E0F07417120DCFE0C0E0740803
:1037C300120DCFD0E0F0EE2410123416C0E0740ACC
:1037D300120DCFD0E0F0741A120DCFE0C0E0740BDD
:1037E300120DCFD0E0F07427120DCFE0C0E0740CBF
:1037F300120DCFD0E0F0741C120DCFA982AA8389D9
:10380300088A09750A007808120ADB7C087D0074AF
:1038130010120DCFAA82AB83124B81120B2785188E
:1038230082851983AA82AB83120E9C023721123A36
:10383300EC640122E0F98A828B83A3A3A3A3A3A34D
:10384300A3A3A3E022900363125887900359123471
:1038530004121088740222F0EE240B125033221249
:103863005036FA22F07A567B0379531238722212B9
:103873001EBC7A597B03794B121EBC229003631240
:10388300340412112A227B00121E86900359125807
:10389300877A047B00121E8622F0125A962274F253
:1038A30012059A74F8120B8BEAFEEBFF8C0A8D0B50
:1038B300890C851882851983AC82AD8375838175E4
:1038C300821B7408120A3BF50DEEFCEFFD8518828E
:1038D300851983AA82AB831252517003750D01902F
:1038E30003B1803BEEFCEFFDE508240BFAE5093458
:1038F30000125250601E850882850983A3A3E065E8
:103903000C7011850882850983E0650A7004A3E0C1
:10391300650B6038E5082414F582E50912334C126F
:103923003DC1E50845096024E50DA2E040B68508E0
:1039330082850983E0650A7004A3E0650B70D58571
:103943000882850983A3A3E0650C70C8AA08AB09A4
:103953007408022D6AC082C0839003B1024551747A
:10396300F712059A9003B11241FB8012EA2414F571
:1039730082EB12334C1241D81216EEEEFAEFFBEA49
:103983004B70E99003B1E4F0A3F00255C77F07023F
:10399300085774F112059AEAFEEBFF890A8C088D29
:1039A300098E828F83E08C828D83124468AE82AF4E
:1039B30083E0124C41124BB2C4124C41123A53E011
:1039C30054038C828D83124BB0A2E2E4338C828D3C
:1039D30083124BAF131313541F124C41124BAEA25D
:1039E300E7E4338C828D83A3A3A3A3123A538E0CF3
:1039F3008F0D750E00780C120ADB7C087D00E5083C
:103A030024071257F6120B271258618E0C8F0D786C
:103A13000C120ADB7C037D00E508240F1257F61213
:103A23000B27E50AC3940F40148E828F83A3A3A3AD
:103A3300E0C0E0123A4A12334CD0E08006123A4A10
:103A4300125CBEF0023990E5082412F582E50922E2
:103A5300A3A312446C0EAF832274F412059A74F973
:103A6300120B8BEAFEEBFF8908900334124FD260EE
:103A73000E123AE67009EEFAEFFB1210F4805F9033
:103A83000363E06E7003A3E06F7053740165086015
:103A9300097A777B0312525170447A007B021240F9
:103AA300108B0BEA450B7036900366120DA4851834
:103AB30082851983120D9890036CE0C0E0740412A0
:103AC3000DCFD0E0F07405120DCF7401F07406121F
:103AD3000DCF12554E120E66E9609B120E6C7407E1
:103AE30002340B123AEC640222125A52A3A3A3A388
:103AF300A3A3E02274F512059A8A088B098A828BA4
:103B030083A3AE82AF83E0F9120EBA8E828F83E075
:103B130064EB600C850882850983A3E064E1700986
:103B2300850882850983A3E4F0122B3A750A01788C
:103B33000A120AE3850882850983A3E0F508780859
:103B4300120AE37900123848120B27120FDA025FC8
:103B530053EAF0A3EBF002455474F612059A90036E
:103B6300B4E0701B7C0079017A007B0012100AEA32
:103B73004B600C8A828B83124FD26003120F680250
:103B83004FDBC082C083123FF8401079FF1210044C
:103B9300E9F8902930E493C39850047901800279BD
:103BA3000002455474F012059A8A088B09890B7533
:103BB3000C008A828B83A3A3A3A3A3A3A3A3E0F9EB
:103BC3001210108A0E8B0FAE0EAF0F750A01EE4F57
:103BD3006003023C85850882850983A3A3A3A3A36D
:103BE300A3125883850882850983A3A3A3A3A3A350
:103BF300A3124981125381120FF88A0C8B0DAE0C5C
:103C0300AF0DEE4F7003023DA88E828F83A3A3A353
:103C1300A3E4F0A3F0E508240B123DB4E0C0E012E6
:103C23003346D0E0F01210D0EE240CF582EF124FA1
:103C3300A6E508240EF582E5091241A9EE240EF546
:103C430082EF12501A750C01EE2406F8EF123DB004
:103C5300547FF0A3E054FC125AE8E05404600302DA
:103C63003D0B900D9612497274077808120CB98EA9
:103C7300828F83A3A3A3A3A3A3E04508F0A3E045F6
:103C830009F08E828F83A3A3A3A3123DBF74077889
:103C930008120D5EE5085407F508E50B607A8E827D
:103CA3008F83A3A3A3A3A3A3A3A3A37402124BB3BE
:103CB300240D124681E0A2E2500B90035112504EA4
:103CC300A3A312501DE5087003023D7DEE2406F800
:103CD300EF3400F9E8FAE9FB8A828B83E0547FFC36
:103CE300A3E054FCFDE50824FFF508E434FFF509DF
:103CF30074077808120CB9EC4508F8ED4509F98A00
:103D0300828B8312501D80728E828F83A3A3A3A301
:103D1300A3A3E04480023C84E5087005750A008093
:103D2300598E828F83A3A3A3A3A3A3E0542060127D
:103D3300121646EA547F245F8E828F83A3A3A3A324
:103D430080238E828F83A3A3A3A3A3A3E054106035
:103D53000A121646EA540F240A80DD8E828F83A34B
:103D6300A3A3A37401F0A3E4123DC9740412400792
:103D73008B09EA45097003124F99E50CA2E050281C
:103D83008E828F83A3A3A3A31255B4F9EEFAEFFB9C
:103D9300120FFEE96012124FC86003124191EEFA4E
:103DA300EFFB1216EE750A00A90A02573F125111D2
:103DB30022FAE5093400FB8A828B8322A3A3E0F570
:103DC30008A3E0F50922123DCD22125812A3A3A3A2
:103DD300A3A32274F412059A74F7120B8B7E0012BC
:103DE3001010EA4B7003023E988A828B83A3A3A32D
:103DF300A3A3A3A3A3A3E064066003023E988A825D
:103E03008B83A3A3A3A3A3A3A3E0FF8A828B831221
:103E13004694E0C0E07408120DCFD0E01241CC12FA
:103E2300525712501D121022EF54086066851882F3
:103E33008519831258837A007B00120FF28B0BEAE9
:103E4300450B704F9003631242BC121EE67C007D4B
:103E5300007A007B0080288E828F831241B6F47033
:103E630003A3E0F4602D900363123E9F125381126B
:103E73001BDAE9641A601C7C007D00EEFAEFFB128A
:103E83000FF28A0A8B0BAE0AAF0BEE4F70C97900A3
:103E9300121EEC7E01EEF9740902340B123EA322CA
:103EA300E0FCA3E0FD8E828F8322C082C083EA4BB5
:103EB30070059003B580068A828B83A3A31240BC4E
:103EC30060258A828B83A3A3A3A3A3A3A3E054089F
:103ED30060E5EC4D60158A828B831241B66C7003EA
:103EE300A3E06D70D280047A007B0002455474F223
:103EF30012059AEAFEEBFF890A8C088D097A107B7A
:103F0300001216E8EA4B603F8A828B83A3A3A3A324
:103F1300A3A3A3A3A3E41241BAA3E50A125A58A385
:103F2300123F548A828B83A3A3A3A3E4F0A3124179
:103F3300C6A3F01258ECEA240CF582EB1244581293
:103F43003F4DA3A3F0A3F0022D6DA3F08A828B83D0
:103F530022A3A3E508F0A3E509F02274F412059A5D
:103F6300EAFEEBFF89088C0A8D0BEE4F6055740156
:103F7300650870147901121004E9F8902928E49374
:103F8300C398500F7911806A74046508702F123F2B
:103F9300F840F18E828F83A3A3A3A3A3A3A3A3A318
:103FA300E508124468A3125FDD8E828F83A3A3E426
:103FB300F0A3F09003B5124FD26021800D74026517
:103FC3000860D079C1802BE0F8A3125047A3A31255
:103FD30040BC88828983A3A370ED80039003B5EE70
:103FE300F0A3EF1240078B0BEA450B7003124F99B6
:103FF300790002340E7904121004E9F8902923E4BD
:1040030093C39822F012400C227A207B009003B0D5
:10401300E0F91217B422C082C083E9F87900900353
:10402300B5801D8A828B83A3A3A3A3A3A3A3A3A366
:10403300E068600574FF687001098A828B83A3A31B
:104043001240BC70DE02455474F712059AEA4B70B5
:10405300059003B580068A828B83A3A31240BC60BC
:10406300248A828B83A3A3A3A3A3A3A3A3A3E0690B
:1040730070E4EC60148A828B83E0240D125874A2DE
:10408300E240D380047A007B000255C7C082C0831C
:104093009003B580068A828B83A3A31240BC60126F
:1040A3008A828B83A3A3A3A3A3A3A3A3E06970E53D
:1040B30080047A007B00024554123404EA4B2274D4
:1040C300F212059A8A0A8B0B8C0C8D0D75080075FC
:1040D3000900EA450B602E9003B580068E828F831C
:1040E300A3A312410F601EAC0CAD0DEEFAEFFB85DE
:1040F3000A82850B831220B3E9640170DFEEF8EFC7
:10410300F988088909AA08AB09022D6DE0FEA3E02E
:10411300FFEE4F2274F712059A9003B51241AC7C5F
:10412300007D00800DE8FCE9FD88828983A3A3124A
:1041330041ACE8496030EA687002EB6970E79003CC
:10414300B5125381E86A7002E96B88828983A3A35D
:1041530070081241AC9003B580091241AC8C828D7A
:1041630083A3A312501D0255C774F712059AEAFEE2
:10417300EBFFEE4F601512101C1241DE124FC860A8
:1041830003124191EEFAEFFB1216EE0255C7EE242D
:104193000C12419E1241F322EE241DF582EF3400EE
:1041A300F58322F582EF1241A112454B22F582EFEE
:1041B3001241A11241D3221241BE22125A60A3A37B
:1041C300A3A3221241BEA3A322123F4E1241D32224
:1041D300125A4BE022E0FEA3E0FF228E828F83E09F
:1041E300241C1246851241F38E828F831241F322DF
:1041F3001241FBFB1216EE22E0FAA3E022C082C0BA
:1042030083EAFCEBFDEC4D700479058044EC24FB60
:10421300F582ED34FF124FD07007124257E0F4607D
:104223000512165280E39003B0E0C0E0124257D06B
:10423300E0F0902925E493F97AB77B0312167CE921
:104243006401700B7A007B20124F9D790080027904
:1042530004024554EC24FFF582ED34FFF583227408
:10426300F412059AA2AFE433F508C2AF9003B71274
:10427300410F6038EE24FBF582EF34FF124FD07A02
:10428300007B209003B06005124FA08005E0F91277
:104293001688E4F50AF50B780A120ADFEEFCEFFD47
:1042A3007AB77B031220A87402120B27E508A2E059
:1042B30092AFEEFAEFFB02340E125887851882850F
:1042C3001983AA82AB832274F212059A74FC120B2F
:1042D3008BEAFEEBFF750AFE750BFF120FE0E96038
:1042E30005791102444DEE24151234166037900DF2
:1042F300AAE0C43354E0F8E0333354FC48C0E0EEA2
:104303002415123349D0E012446812445E8B09EA43
:1043130045096011750AFFEE240F12341644041286
:10432300502BD2E0F08E828F83122D326006EE2462
:1043330012124455EE2413123416701090292BE4F4
:1043430093C0E0EE2413123349D0E0F08E828F83C2
:10435300E0A2E750045403801CEE241412341670B8
:1043630015900342E0C0E0EE2414123349D0E0F08C
:10437300900342E004F0EE24111234166401701627
:10438300900652E0600D90034DE0700A8E828F8399
:10439300E070031244528E828F83E064017013EE47
:1043A300240B1241B064027009EE240F1234164438
:1043B30040F0851882851983AC82AD83EEFAEFFB5A
:1043C3001210468A088B0974FE650A700374FFF4A1
:1043D30070098E828F83A3A3125802EA450960668F
:1043E3008E828F83E0C0E07401120DCFD0E0F074B1
:1043F30002120DCF1258F07401120DCF85820C8575
:10440300830D780C120ADFEE240F12334912094789
:10441300EE240E123416F50C780C120AE3900356B0
:104423001209477407120DCFE0F9AC0AAD0B121055
:10443300407407120B27E9FE74106E700BAA08ABC9
:10444300091216EE80027E10EEF97404022D6AEE54
:104453002411F582EF1241A1E4F022A3123404796E
:10446300FF1220A22212446C22F08E828F83A32299
:10447300C082C08374DE120B8B8A828B83A3A3A3B7
:10448300A31241AC740E120DCFE8F0A3E91245421A
:10449300740C120DCF12453B240DF582EB12341927
:1044A300C0E0741A120DCFD0E0F012574FEB124157
:1044B300A97420120DCF12453B2415F582EB12345B
:1044C30019C0E07408120DCFD0E0F0EA241CF58285
:1044D300EB1241A97412120DCF12453B2411F58240
:1044E300EB123419C0E07409120DCFD0E012452F3E
:1044F30074FFF07401120DCF74FFF07402120DCF2C
:1045030074FFF09081371209437404120DCFAC820B
:10451300AD837407120DCFAA82AB83120E9074047D
:10452300120B2779007422120B27802512453322A0
:10453300F085188285198322E8F0A3E9F0EA2212B4
:104543003F4EA312454A22A3E0F8A3E0F9221253F7
:1045530081D083D082020ABF74EC12059A74EE12E2
:104563000B8B8A128B13ECFEEDFF89097426120D57
:10457300CF1258027428120DCFE0F5107429120DD2
:10458300CF124676742B120DCFE0F50EA3E0F50F94
:104593007508107A1E7B001216E87402120DCF12F2
:1045A3004FAA7402120DCF124FD2700302466F85C9
:1045B3001882851983AA82AB837950124E851253D0
:1045C300817402120DCF124694A3124FAA741012D3
:1045D3000DCF125FDF7402120DCFE0240B12468160
:1045E3007402F0120DCF1246947402F0120DCF1222
:1045F3005A431258F07402120DCF125396E509F084
:104603007402120DCFE0240C124681E510F07402FF
:10461300120DCF12467EE512F0A3E513F0740812D3
:104623000DCFE50CF0A3E50DF0740A120DCFE510E4
:10463300F0850E82850F83C082C083740D120DCF67
:10464300AC82AD83D083D0827403120A3BF9740227
:10465300120DCFAA82AB83120FE6E96401700575D0
:10466300080080087402120DCF124197A908741232
:10467300025819E0F50CA3E0F50D22E0241C1246C4
:104683008522F8A3E012468C223400F988828983BC
:1046930022125389A3A3A3A3A32274EE12059AEAB9
:1046A300FEEBFF8C088D098E828F83A37408125052
:1046B30066E060088E828F83A37410F01234136057
:1046C300098E828F83A3E02408F0EE24151234169A
:1046D30060088E828F83A3E004F08E828F83A3A36E
:1046E300A3A3A3A3E060198E828F83A3A3A3A3A391
:1046F300A3A3E0C3332402F88E828F83A3E028F0C0
:10470300EE24111234166005750B0E8003750B0031
:104713008E828F83A3C082C083EE240D123416D001
:1047230083D082F8E028250B8C828D83F0EE241150
:104733001234166005124B9128F08508828509838F
:10474300E0C39475400975080075090002487FE0CD
:10475300FA7B0012599E700302487FEEFAEFFB12B8
:10476300104CEA850882850983124FABEE2402F8C8
:10477300EF1236731249791248BBF0EE240408088D
:10478300EF123673124DBBA31248BBA3A3F0EE2462
:10479300131248A1F0EE24141248A1A3F0750A08DD
:1047A300EE24161234166010EE2418125880E50811
:1047B3002408125A81750A101234136016EE241A53
:1047C300125880850A0CE508250C125A81740825B5
:1047D3000AF50A8E828F83A3A3A3A3A3A3E0605940
:1047E300EE2407F510EF3400F511851082F583E010
:1047F300C0E012488812334CD0E01248ABE0C0E06E
:1048030012488812334CD0E01248ABA312489412DA
:104813000ADB851082851183E0C333FCE433FD8515
:104823000A0CE508250C1257F6120B278510828512
:104833001183E0C333250AF50AEE241512341660FA
:104843000BC0E012488812334CD0E0F0123346120A
:104853004894120ADBEE240D123416FC7D00850BFE
:104863000A8E828F83A3E0F8E50828F8E50934006F
:10487300F9E8250AFAE91257F9120B27AA08AB0936
:104883007F0A020857850A0CE508250CF582E5091D
:1048930022E0F50CA3E0F50D750E00780C22124111
:1048A3009E1248C5A3A3A322F0050A8E828F83A379
:1048B300A3A3A3A3A3A3A322A3A3125AECA31248C3
:1048C300C522124DBFA3A32274F612059A8A828BC6
:1048D30083E0FC90035312497274027808120CB9F6
:1048E300EC4508FCAD09EA241212496C74067808F9
:1048F300120CB9EC4508FCED4509FDEA2415F582D7
:10490300EB1234196004780180027800E4C8F9EDF1
:1049130049FDEA2411F582EB123419F5088809746C
:10492300097808120CB9ED4509FDEA241612496C01
:10493300740B7808120CB9ED4509FDEA24171249E6
:104943006C740C7808120CB9ED4509FD8A828B83CF
:10495300A3A3A3A3A3A3124972740A7808120CB9E0
:10496300ECFAED4509FB024FDBF582EB1241A1E0C6
:10497300F50875090022E085088285098322A3E0F2
:10498300F98508828509832274EE12059A8A0A8BB7
:104993000BECFEEDFF750F01E9C394085005790098
:1049A300024B7E8E828F83E9F0124DE4E96003753A
:1049B3000F00124DC88E828F83124E12EE12575083
:1049C300EF124E07C0E0EE2411123349D0E0124D2E
:1049D300FFC0E0EE2412123349D0E0124468740899
:1049E30012580AA3A3A3E06015124DB0EE2413F5E9
:1049F30082EF12501A8E828F83A3E02408F08E82F6
:104A03008F83A3A3A3A3A3A3A3A3E060218E828F79
:104A130083A3858208858309124DF3EE2415F5825D
:104A2300EF12501A850882850983E02408F08E82EC
:104A33008F83A3A3A3A3A3E0601A8E828F83A3858E
:104A43008208858309124DD78E828F83A3A3A3A3E4
:104A5300A3124BA3EE2419124455EE241B12445502
:104A6300A312505EE07003024B12EE2419F8EF34E8
:104A730000F98E828F83A3858208858309E0FAE596
:104A83000A2AF582E50B12341988828983124BA313
:104A9300FAE50A2AF582E50B123419C0E0EE241A6E
:104AA300123349D0E0124BA388828983E06059F81E
:104AB300902924E493C398500575110C8008EE24C3
:104AC30019123416F5118E828F83A3E0F8E50A28B4
:104AD300F50CE50B124B87120ADBE511C333FCE43B
:104AE30033FD7A357B0C124B81120B27EE241B12FC
:104AF30033497435F0A3740CF0E511C333F885081A
:104B030082850983E0288006EE2418125CBBF08EB0
:104B1300828F83A3E0F88E828F83E0C398500302D1
:104B230049A1A3E0FA8A08E50A2508F8E50B340051
:104B3300F9EE241DF582EF125126124BB3C39AC02E
:104B4300E0EE2417123349D0E0125023602BEE24F9
:104B530017F8EF3400F9880889098882F583E0247F
:104B6300F2125107240EFAA3E03400FB88828983F2
:104B7300124FAA124B91C398F0A90F024883121641
:104B8300227403223400F50D750E00780C22900375
:104B93004EE0F9121F58E9F8850882850983E0225F
:104BA300F0850882850983E004F022A3A3A3A3A3CD
:104BB300F08E828F83E02274F412059A8A088B099F
:104BC300EA124C48F0EA1313543F124C41A3A3A337
:104BD300F0EAC41313124C48A3A3F0EB124C3A129D
:104BE3004C527409780A120D5E124C38124C5174EF
:104BF3000A780A120D5EE50A5401C0E0EC2418F5A8
:104C030082ED12334CD0E0124C57740B780A120D1C
:104C13005E124C38A3124C51740C780A120D5E12BA
:104C23004C38A3A3A3A3A3A3A3A3F0740D780812E2
:104C33000D5E022F78E50A54018C828D8322540F76
:104C43008C828D832254038C828D83A3A322A3A3FE
:104C5300A3A3A3A3F08A0A8B0B22C082C08379008B
:104C63008A828B83A3A3A3A3A3A3E090034D600F26
:104C7300E070228A828B83A3A3E07019098016E077
:104C830060138A828B83125378900356E06A700311
:104C9300A3E06B70E702455474F012059A8A0A8BFD
:104CA3000B890C8C088D09124DE4124DC8850882BE
:104CB300850983124E12E508125750E509124E0773
:104CC300C0E0E5082411F582E50912334CD0E01267
:104CD3004DFFC0E0123A4A12334CD0E012512E7409
:104CE300081251476011124DB0E5082413125122E6
:104CF30012512EE02408F0850882850983A3A3A31B
:104D0300A3A3A3A3A3E06017850882850983A31245
:104D13004DEFE5082415125122124BB32408F085F8
:104D23000882850983A3A3A3A3A3E060198508824E
:104D3300850983A3AE82AF83124DD7850882850987
:104D430083124BAE04F0AA08AB0912105EE9F50D0D
:104D53007056850882850983A3A3A3A3A3A3124D39
:104D6300BB7014E0FA8A0EE50A250EF8E50B125023
:104D73000FE50CC39A8021124DEFE8240EF8E912D7
:104D8300500F90034EE0F9121F588E828F83E0F884
:104D9300E50CC39824F2C399C0E0E5082417F58213
:104DA300E50912334CD0E0F0A90D02573FE50A2480
:104DB30008F8E50B3400F922124DBF22E085088282
:104DC300850983A322850A82850B83A3A3124E2818
:104DD300E0F9EA22E0F8E50A28F582E50B125036FD
:104DE300228A828B8312574412105822AE82AF83D9
:104DF300E0F8E50A28F8E50B3400F922124E3BA34C
:104E0300A3A3E0221241A1E8124E34A3A3E022A3FC
:104E1300A3A3A3A3A3A3A3A3124E34124E28A3A315
:104E2300E0F9EAF822E0FA850A82850B83A3A3A3BB
:104E330022F0A3E9124E3B22F0850A82850B83A35D
:104E4300A3A3A322C082C0837AC57B0379E2121E87
:104E5300B67AC57B03024554C082C08390035602D1
:104E63004551C082C08374FE120B8B85188285194D
:104E730083AA82AB83794B124E851253817402024B
:104E8300452A121EB685188285198322C082C083E3
:104E9300794A121EB602455474F612059A9003CD50
:104EA300E0FE04F0EEF91210108B09EA450970EDEB
:104EB300EE60EAF9024FDB74F012059AEAFEEBFFAB
:104EC3008C088D09890A7410120DCFE0F50B74114B
:104ED300120DCFE0F50C121130EA4B7013E50C7094
:104EE30042A90AAC08AD09EEFAEFFB121148806E35
:104EF300E50A6021EA2402F582EB123419850A08D7
:104F03002508F8E4340013E813F070098A828B83D0
:104F1300A3A37401F0E50C6045E50B70068A828B50
:104F230083E4F07401650C7035E50B9003D47004D1
:104F3300E4F0802AE004F0900D97E0F89003D4E0C9
:104F4300C398401AE4F0900359E06E7003A3E06F36
:104F5300700CEEFAEFFB7901120EB4124F64025794
:104F63003F7A017B009003B0E0F91217AE22C082B2
:104F7300C08374016A7001EB70077A01124F9B8042
:104F830012900D8E124FAAEA4B6005122CF4800387
:104F9300124F640245547A207B009003B0E0F9126B
:104FA3001682223400F583EAF0A3EBF022C082C01C
:104FB30083900D90023B54C082C083900D92023BBC
:104FC30054125A5222EE240CF582EF3400F5831268
:104FD300454BE84922120B277F02020857A2F0E44F
:104FE30033851882851983124FFC7952121EBC2215
:104FF300124FFC7942121EBC22F0AA82AB8322AA72
:1050030008AB099003B0E0F9121658223400F9E511
:1050130008241DF582E5091241A1E8F0A3E9F02275
:1050230012580EA3A3E022A3F0EE2415125033224C
:10503300F582EF3400F583E022125040223400F56C
:1050430083E0F8A3E0F98882898322E0F8125054C0
:1050530022A3E0F98E828F83A3A322F0EE241812F9
:10506300419E22F0EE241612419E2274F412059AF8
:10507300EAFEEBFF7A007B04124F681250FD1250D8
:105083001D9003657409F012106A8A088B09AC0835
:10509300AD09EE24131233491253811252516401A4
:1050A30070487A0F1250F060418A828B8374021227
:1050B3005107FAA3E0FB8A828B83A3E0FC8A828BED
:1050C30083A3A3E0FBEC850882850983A3A3124F86
:1050D300AB8882898312538512497912502AFAA325
:1050E300E0FB794A121EBC12500202340E7B0012FE
:1050F300164C8A088B09EA45092290033612454B60
:10510300900D9222F0EE241DF8EF12511122124657
:105113008CE02212511A223400F5837401F022F537
:1051230082E5091241A1E8F0A3E9221251322212C9
:10513300513622F0850882850983A322125136A3B2
:10514300A3A3A32212513FA3A3E022125558121086
:10515300BE22EE2417F582EF12511A12106AEE24C2
:105163001A12419EEAF0A3EBF02274F412059A742A
:10517300F3120B8B8908EAFEEBFF7C0D7D007900AF
:10518300851882851983AA82AB8312162EEE241DFD
:10519300123349125A43A3E0F8741F58600A790185
:1051A300121E8C7900025248E8A2E55008740C12D2
:1051B3000DCF7401F0E8A2E75008740B120DCF7401
:1051C30001F0E8A2E6740A5008120DCF7401F080D2
:1051D30008120DCFE064017005EE24138003EE2462
:1051E300151258807402120DCFAA82AB83121EA42B
:1051F30012334612525612501D740A120DCFE06438
:10520300017033122D27703B1210768A0A8B0BA87C
:105213000AA90BEE240B123416687003A3E069701D
:105223002212106AEAFCEBFD7402120DCFAA82ABC4
:1052330083125251600D851882851983AA82AB832C
:10524300120EAEA908740D02340BEEFAEFFB121E18
:105253009EE922E012525B22F8A3E0F985188285C9
:1052630019832274F612059A74F3120B8B8A088B36
:1052730009ECFEEDFF7C0D7D007900851882851910
:1052830083AA82AB83125BE8A3A3A3A3A3A3A3A3D1
:10529300A31252F01252F9F8A2E55008740B120D42
:1052A300CF7401F0E8A2E75008740A120DCF74011D
:1052B300F0E8A2E6EE50042413800224151258806D
:1052C3007402120DCF1252E2A3A3E0C0E0740C12D9
:1052D3000DCFD0E0125550120EA8740D024FD8AA6C
:1052E30082AB83121EA485088285098322E01252B1
:1052F3005BE8F0A3E922F012419B125A47A3E02294
:1053030074F712059A74E1120B8BEAFEEBFF8E829F
:105313008F83125385A3A3A3E0A2E050518E828F03
:1053230083122E878A828B83A3A3A3A3A3A3E05410
:10533300FE12539D8A828B83125396E0F98A828BE5
:1053430083E0241CFAA3E0123DB7125381121064C8
:10535300E9701B741D120DCF1253907011851882C2
:10536300851983AC82AD83EEFAEFFB1210AC0255C4
:10537300C28E828F83A3A3A3A3A3A3A3A3A3123445
:10538300042212538922125A4BA3A3A3221241D3FC
:10539300640422E0241B12468522124533AC82ADFD
:1053A3008322E9F87900740468600A740A68600566
:1053B300740368700109020ABF74F612059A8A829F
:1053C3008B837420F0A3A37401F0120E5A8A088B06
:1053D30009AE08AF09EE4F60108E828F837401F01F
:1053E3009003A3E07003125155EEFAEFFB024FDB7B
:1053F300C082C0839003B97401F0E9A2E35003743F
:1054030003F0E9A2E15004E0D2E2F002455474F65D
:1054130012059A79007C008A088B09780812081112
:10542300F8FF07445442544254425442543B543FBD
:1054330054445438540C80097C0480050C80F67C59
:10544300089003B9E05C6003098003EC6001090282
:105453004FDB74F612059A8A828B83E07012A312D3
:105463004FD2600C8A828B831253801220128004E5
:105473007A007B00024FDB74F512059A74F3120B6A
:105483008B8A088B09ECFEEDFF750A12EA45097059
:10549300057900025549900356E065087004A3E0BE
:1054A3006509701412106AEAFCEBFD12524D700587
:1054B300750A018003750A00851882851983E4F053
:1054C30004120DCFE508F0A3E509125550120E1E84
:1054D300E960277403120DCFAA82AB83120E00E991
:1054E30064017016750A017403120DCFAC82AD838B
:1054F30012524D6021750A00801C7412650A7016E1
:105503009003A2E06402700EEEFCEFFDAA08AB0963
:10551300120E36E970DFEEFCEFFDAA08AB0912119B
:1055230036E9F8740A687005750A01801774A06873
:105533007012EEFCEFFDAA08AB09121142AA08ABE8
:1055430009121154A90A740D025F507402125554C2
:105553002212555822124533AA82AB832274F712C2
:10556300059AEAFEEBFF8E828F83A3A3A3A3A3A3D3
:10557300A3A3E06015EE24151233491233F412107D
:10558300D6E964017004790180258E828F83A3A3F9
:10559300A3A3A3A3A3E06015EE241312334912556A
:1055A300B4FAA3E0FB1210D6E9640160D979008054
:1055B30013123EA3A3A3A3A3A3A3A3A3A3E02274B1
:1055C3001F120B277F0102085774F012059A74FD0E
:1055D300120B8B8A088B09ECFEEDFF890B741312F7
:1055E3000DCFE0F50C750A017401120DCF7404128E
:1055F3005A7B6048E50C601DEA2417F582EB125CC8
:10560300BE125A698A828B83E0D2E7F0EA2414F54A
:1056130082EB12445812574FEB12503C7403125F43
:10562300E1EE88828983A3A3F0EF88828983A3A311
:10563300123F4D123F54120E54E9F50AA90A74039E
:1056430002573C74EC12059A74F5120B8B8A0A8B81
:105653000B890C8C0E8D0F741F120DCFE0F50D749A
:1056630020120DCFE0F510A3E0F5117E01EE120D2F
:10567300CF740AF0E97007E50DC333240AF012581A
:105683002170030257231258367409F0A3E50CC4A2
:105693003354E0450D125848E50C702D7C008023EF
:1056A300ECC333F8E433F9E51028F8E51139F98848
:1056B30082898312573088828983123666F0A30E5B
:1056C300AF830CECC3950D40D7E5082417F582E5AD
:1056D3000912511612106AE508241AF582E5091217
:1056E3004FA67403120DCFAC82AD83AA0AAB0B1283
:1056F3000E06E96019E5082416F582E50912572A12
:10570300120DCFA882A983E5082418125016850824
:1057130082850983125FDDAA08AB09120E54E9FEE4
:10572300EEF9740B02581912511A740322E08E8297
:105733008F83F0A3AE82AF8322120B277F08020868
:10574300571241FBF9EA2400E439FB22EA240BF562
:10575300822274EE12059A8A0C8B0D890E8C088DA9
:10576300097412120DCFE0F50F7413120DCF1258F6
:10577300029005C1124FD26077E50FC333F8E433CB
:10578300F9E8240EFAE93400FB12164C8A108B1147
:10579300AE10AF11EE4F60588E828F8374D4F0A396
:1057A300A3E50CF0A3E50D12580AE50EF0AC08AD25
:1057B30009EE2405FAEF125A84EE240D123349E55B
:1057C3000FF0850A08850B09750A007808120ADBB1
:1057D300E50FC333FCE433FDEE240EFAEF1257F961
:1057E300120B27EEFAEFFB9005C1125A431220B3B6
:1057F300024883FAE5093400FB121622740322E0FF
:10580300F50AA3E0F50B2212580E221258122212A7
:10581300446CA3A3A322120B277F0C0208578518FD
:1058230082851983AA82AB831210BE8A088B09EA88
:10583300450922EA240BF582EB125036FEA3E0FF62
:105843008E828F8322F0A3AE82AF83AC0EAD0FEEB8
:10585300FAEFFB12585A22121EA412586122EE24A8
:1058630008FEEF3400FF22E0FA8E828F83A3A3E0C9
:1058730022FEA3E03400FF8E828F83E02212419E3A
:1058830012588722E0FCA3E0FD22123404121052C6
:105893002274F612059AEAFEEBFF9003BA8013888E
:1058A300828983E06E7003A3E06F603A8882898304
:1058B300A3A3124FD270E87A047B001216E88A0879
:1058C3008B09A808A909E849601C888289831258B2
:1058D300F09003BA12538188828983A3A3124FAA3B
:1058E3009003BA12501D024FDB8A828B83EEF0A322
:1058F300EFF02274F412059A7E009003BA80070E2B
:1059030088828983A3A3124FD270F4EEC333FAE4DF
:1059130033FB12599E607E7F009003BA80248882F5
:105923008983125883EFC333FAE433FBE5082AF57E
:1059330082E5093BF583ECF0A3EDF00F88828983C0
:10594300A3A3124FD270D79003AB122D617003A3A0
:10595300E06978087019120ADFEEF50A780A120A6C
:10596300E37C777D0379009003AB1259A9801A1267
:105973000ADFEEF50A780A120AE37C777D037900E1
:105983009003AB1253811210E87403120B27AA0879
:10599300AB091216EE120E6C02340E1216E88A08C8
:1059A3008B09EA4509221234041210EE22C082C088
:1059B3008380128A828B83A3A31241AC9003BA1211
:1059C300501D1216EE9003BA1240BC70E602455405
:1059D30074F612059A9003631241D89003CE125ABB
:1059E3003212501D7ACE7B037950121EBC9003CE27
:1059F300122F80FAEFFB12114E9003CE1241D89072
:105A030005C3124FD260257A067B0012164CEA4B6F
:105A1300601A8A828B8374D5F0A3A3E4125A5804C4
:105A2300125A699005C3125A431220B3024FDB1274
:105A33005A3622E0F8A3E0F9900363228E828F8323
:105A4300125A4722125A4B22E0F8125A5122A3E06B
:105A5300F583888222125A5C22125A6022F08A82CB
:105A63008B83A3A3A322125A5CA3EEF0A3EFF0222D
:105A7300F582EF125036F92212514EEA4B22FAE523
:105A8300093400FB121EA422125055A3A3A3A3A3FF
:105A9300A3A322902926E4932401F8E43400F97A9D
:105AA300027B002274F712059A7E00800412609430
:105AB3000E125BB840F77E00EE125AD374FEF0A3C9
:105AC30004125AE8E4F00EEEC3940340EB0255C708
:105AD30075F003A4F8A9F074BC28F8740339F988A5
:105AE300828983A322125AEC22F08882898322744A
:105AF300F712059A7F0080010F90292EE493F8EFA7
:105B0300C3985026EF125CA46A7003A3E06B70E89D
:105B13001260416C7003A3E06D600A74FF6C700344
:105B230074FF6D70D3125BAF80047A007B00025563
