:020000040000FA
:06000000020DD8020360AE
:03001B000203835A
:03002B00020C02C2
:030033000209D4EB
:03004300020A9E10
:0300530002029115
:03006B000209BACD
:030073000203D8AD
:100083000202F50101FF01010503010F10FEFF64E8
:10009300166416641664161A1514156416CD2A0010
:1000A3000000002F2B000000000C0000000C0001DA
:1000B3000400004418000000000000282500000090
:1000C30000000000000000FFFFEECC010000000074
:1000D30000000700000000000000FF0102008A0585
:1000E300000000FD0564000202000800000502078D
:1000F300051E02051E020A0A03B80B02803E010216
:100103003412141F00E00796511800020206001271
:100113000DF7604F120E246012E7548066F6120C3E
:10012300747011120E63703B090909F4F618F6187E
:10013300F618F622120C897015120E6D0808086065
:10014300EAE6447FF618768018E4F618F622120ED3
:100153006D6016120E637012E4F608F608F608E6F0
:100163005480F609090918181822EAC0E0EBC0E028
:10017300ECC0E0EDC0E0E687F0A4FBACF008E68756
:10018300F0A42CFCE435F0FA1809E687F0A42C4B14
:1001930060027401CA35F0FCE433FB09E687F0D250
:1001A300F7A42CCB35F0FC1908E687F0A42BCC354B
:1001B300F0FBE433FD0819E687F0D2E7A42C4ACB21
:1001C30035F0CD3400FC09E687F0D2E7A42DCC3519
:1001D300F0FDE433FA0918E687F0D2F7A42CCD3505
:1001E300F0CA3400FC08E687F0D2E7D2F7A42ACCA1
:1001F30035F07A7E20E70B0ACB33CBCD33CDCC332E
:10020300CC33CB3350147004ED30E00ED2F1E4CD97
:100213003DCDCC3CCC3B5005DA05C2F1EB547FC657
:100223003308E63392F0FBE73309E733C39A502DE3
:100233002B70190C0D4C4D70151806E608C333705E
:100243000D20F10AA2F013F6E418800B4024E4F623
:1002530030F002768018F618F618F68024D33B1493
:10026300501074FFA2F013F6187680E418F618F60F
:10027300800FA2F013F618E63303F618ECF618ED28
:10028300F6D0E0FDD0E0FCD0E0FBD0E0FA22C0E005
:1002930074F21206AFA2AFE433FED2AFE5A7FFE5D7
:1002A300A1F5085F5410600612209675A1EFE508CA
:1002B3005F5408600812209C75A1F7802BEFA2E021
:1002C300C0D0E508A2E092F0120D3B158182F050F8
:1002D30017906198E0F89009E5E0C398A2D265D041
:1002E300335002E8F075A1FEEEA2E092AF7F010267
:1002F30007C3C0E074F21206AFA2AFE433FED2AF7D
:100303009061A4E0F8759B00E59158540860087566
:1003130091F71220E4802AE59158541060087591F2
:10032300EF1220EA801BE8A2E0C0D0E591A2E092A0
:10033300F0120D3B158182F05007E0C2E0F012226B
:100343002E9061A3E0F8E5E9585404600E122204EC
:1003530075E9FB906193E0A2E640F2808BC0E07404
:10036300F21206AFA2AFE433FED2AF9061A5E0F87C
:10037300E5BF585404600675BFFB1222460202EB28
:10038300C0E0C0D0E8C0E0E9C0E0C082C083E5F9C6
:10039300C0E0900951E0F874D028F5827408340065
:1003A300F583D0E0F0900950E0F8A3E0687006E52B
:1003B30095900953F0900951E004F0C394804002F2
:1003C300E4F0A374C6F0D083D082D0E0F9D0E0F893
:1003D300D0D0D0E032C0E0C0D0E8C0E0C008C0094F
:1003E300C082C0839009D4E0F8A3E0687008539AF0
:1003F300F7A374018026C2EA9009D4E0F5087401DA
:100403002508F074542508F58274093400F583E057
:10041300F5F99009D4E0C394804002E4F0D083D08E
:1004230082D009D00880A6C3E498F8E499F91204AD
:100433006B8026C3E49AFAE49BFBE920E7E9120404
:100443006BE498F8E499F922C3E498F8E499F91273
:10045300046BE498F8E499F9C3E49AFAE49BFB2269
:10046300EB20E7CFE920E7E0B90010BB0008E88AFA
:10047300F084F8AAF022E4FBC8FA22EB70227B1086
:10048300C833C8C933C9335007C39AC3DBF28006E4
:100493009A50012ADBEAC833F4C8C933F4C9FA22F3
:1004A30075F008E4C833C8C933C933C99AC99B5026
:1004B30004C92AC93BD5F0ECFBC833F4C8E4C9FA34
:1004C3002212050420F01430E72B74FFFCFBFA74AE
:1004D3007F8022E4FCFBFA7480801AB48008BC009D
:1004E300F2BB00EF800F50EBF9E4C39AFAE49BFBF5
:1004F300E49CFCE499C6CC18C6CB18C6CA18C6F946
:1005030022E4C9C608CAC608CBC6D3330308CCC67F
:100513003392F0C3947F402E94184019C9B907044D
:10052300CACBCC225025C309CA33CACB33CBCC3375
:10053300CC33D9F422F4600DC9CCC313CB13CBCA8B
:1005430013CAD9F6CC22E4FCFBFA2214FCFBFA22F0
:10055300080808EAC0E0EBC0E086F0E7A4FA18094F
:1005630086F0E7A42AFA180986F0E7A42AFA1809FC
:1005730086F0E7A42AFA1986F0E7A4FBE5F02AFA45
:10058300190886F0E7A42BFBE5F03AFA190886F080
:10059300E7A42BFBE5F03AFA18180986F0E7A4C59F
:1005A300F02BFBE43AFA1908E7C5F0C6A426F6E5F2
:1005B300F03BFBE43AFA1886F0E7A4F6E5F00826E8
:1005C300F6E43B08F6E43A08F6D0E0FBD0E0FA2282
:1005D300E4CFC0E0E4CEC0E0E4CDC0E0E4CCC0E0D2
:1005E30075F020C3E633F608E633F608E633F6087B
:1005F300E633F6181818EC33FCED33FDEE33FEEF5B
:1006030033FFC3EC9709ED9709EE9709EF97191993
:1006130019400FFFEC97FC09ED97FD09EE97FE19C2
:100623001906D5F0BEECF709EDF709EEF709EFF778
:10063300191919D0E0FCD0E0FDD0E0FED0E0FF2294
:100643002518C582C0E0E51934FFC583C0E0E5186D
:10065300C3958224F810AF08858319858218800812
:10066300858319858218D2AFCEF0A3E520F0A37855
:1006730008E608F0A3DEFAEFF0A3E58124FAF8E632
:1006830008F0A3E608F0A3E608F0A30808E608F0DC
:10069300A3E608F0A315811581D0E0FED0E0F8159C
:1006A3008115811581E8C0E0EEC0E022C0D0251895
:1006B300C582C0E0E51934FFC583C0E0E518C395E2
:1006C3008224F310AF0885831985821880088583F7
:1006D30019858218D2AFC8F0A3E9F0A3EAF0A3EB1F
:1006E300F0A37908E709F0A3D8FAECF0A3EDF0A39F
:1006F300EEF0A3EFF0A3D0E0F0A3D0E0F0A3D0E0BE
:10070300F0A3E520F0A3E5F0F0A322E9799EC60863
:10071300CAC608CBC608CCC6C370207996CACBCC50
:100723007019798ECBCC70137986CC700EF9802A30
:10073300CA33CACB33CBCC33CC331930E7F2CCCB6F
:10074300CA3350147004EA30E00DE4CA3ACACB3B12
:10075300CBCC3CCC500209C3E913C6CC182313C637
:10076300CB18C6CA18C6F922120E58B900030207DD
:10077300ADE490030178AC790D8002F0A3D8FCD9E5
:10078300FA900FACAA82AB83900086788C790180B3
:1007930015E493A3AC82AD838A828B83F0A3AA82F0
:1007A300AB838C828D83D8E9D9E77582C975839D24
:1007B3007404120B6175822E7583257400120B610C
:1007C300851983851882E0C0E0A3E0F9A3E0FAA3CA
:1007D300E0FBA37808E0F608A3DFFAE0FCA3E0FD62
:1007E300A3E0FEA3E0FFA3E0C0E0A3E0C0E0A3E03A
:1007F300F5D0A3E0F520A3E0A3F5F010AF088583BF
:10080300198582188008858319858218D2AFD08212
:10081300D083D0E0F8D0E0320975F0108E1A8F1B28
:1008230085821F85831E851882851983E0CEA3E008
:10083300CF851F82851E83EBC9EAC8EDCBECCAC303
:10084300E833C8E933C9EA33CAEB33CBC3EA9EF5CD
:100853001DEB9FF51CB35004AB1CAA1DEC33CCED70
:1008630033CDD5F0DAAE1AAF1B22D083D082ECC0E1
:10087300E0EDC0E0E493A3FCE493A3FDED4C600D35
:10088300120945EC24FFFCED34FFFD80EFE493A354
:10089300FCE493A3FDED4C600D120A49EC24FFFC2C
:1008A300ED34FFFD80EFD0E0FDD0E0FCE493A3C086
:1008B300E0E493C0E022851983851882E0A3FEE07B
:1008C300A3F5207808E0A3F608DFFAE0A3FFE0A38E
:1008D300C0E0E0A3C0E0E0A3C0E0E0A3C0E0E0A389
:1008E300C0E010AF088582188583198008858218B7
:1008F300858319D2AFD083D082020B67D083D08295
:10090300E9C0E0E493A3C386F0C5F095F0F908E4E9
:1009130093A386F0C5F095F0700BE493A3C39940BD
:1009230005E9048002A3E475F002A42582F582E5BB
:10093300F03583F583D0E0F9E493A3C0E0E493C0FA
:10094300E022C0E0C3E49396087401939618400F25
:10095300E49366700808740193661870007019A315
:10096300A3C3E49396087401939618A3A3400DD0F0
:10097300E0D0E0D0E00208A9A3A3A3A3A3A3D0E0FF
:1009830022D083D082C5F0E493A3C5F0C395F0F5DC
:10099300F0E493A3C395F04005E5F0048001E4750A
:1009A300F002A42582F582E5F03583F583E493A371
:1009B300C0E0E493C0E022C0E074F21206AFE58920
:1009C300A2E15003121F3A758900C2C57F010207D5
:1009D300C3C0E074F21206AFE58BA2E05003121F0E
:1009E3003A758B00C2E880E47404800474028000CA
:1009F300CCC0E0EDC0E0E518C39CCCAD1950011D9F
:100A030010AF068C188D1980068C188D19D2AF1271
:100A13000AE3D0E0FDD0E0FC2274028000CCC0E009
:100A2300EDC0E0E518C39CCCAD1950011D10AF0615
:100A33008C188D1980068C188D19D2AF120AC1D06B
:100A4300E0FDD0E0FC22C0E0C0F088F0E4936670E3
:100A5300080874019366187000A8F0A3A3700BD064
:100A6300F0D0E0D0E0D0E00208A9A3A3D0F0D0E01A
:100A730022D083D082CCC0E0E493A36006120B2380
:100A83001470FAE493A36006120C331470FAD0E0E6
:100A9300FCE493A3C0E0E493C0E022C0E074F2124C
:100AA30006AFA2AFE433FED2AFC2C0E5D1A2E45099
:100AB30003121FFAEEA2E092AF7F010207C3CAC07E
:100AC300E0E493A3C582CCC582C583CDC583F0A3DF
:100AD300C582CCC582C583CDC583DAE5D0E0CA2201
:100AE300CAC0E0E0A3C582CCC582C583CDC583F06F
:100AF300A3C582CCC582C583CDC583DAE6D0E0CA5F
:100B0300227009080808226016181818C6C333C6CD
:100B130008C633C608C633C608C633C6D5E0EA22BC
:100B2300C0E0E493A3D39C5010E493A3C39C400A76
:100B3300D0E0D0E0D0E0020A91A3A3A3D0E022C08A
:100B430008C3E096F50808A3E096420808A3E096D8
:100B5300420808A3E09645087001D3D00822C09F3D
:100B6300F59FE473D09F22D083D082C09FE493C0CB
:100B7300E0740193C0E0740293F59F227404800A29
:100B830074038006740280027401C0E0F404120B43
:100B93009AD0E0120E33222518F58210AF08F5180B
:100BA300400215198008F51840021519D2AF8519AE
:100BB3008322BB0102E722C082C08389828A83BB6E
:100BC3000003E08002E493D083D08222C0D02518B2
:100BD30010AF08F518500205198008F518500205E2
:100BE30019D2AFD0D0226016080808C6C313C6189E
:100BF300C613C618C613C618C613C6D5E0EA22C064
:100C0300E0C0D0E8C0E0E5A8D2AFC2C7A2E792AF88
:100C1300D0E0F8D0D0D0E032C3E0C696F608A3E027
:100C2300C696F608A3E0C696F608A3E0C696F62293
:100C3300C0E0E493A36C7009D0E0D0E0D0E0020AF6
:100C430091A3A3D0E022251810AF08F51840021590
:100C5300198008F51840021519D2AF22E06670100A
:100C630008A3E066700A08A3E066700408A3E066C0
:100C730022181818E6084608700AE608C3337005F8
:100C8300E633F4220822191919E7094709700AE71C
:100C930009C3337005E733F4220922E766701008AD
:100CA30009E766700A0809E76670040809E766221F
:100CB300C3E09608A3E09608A3E09608A3E096A2F3
:100CC300D265D03322C3E096F008A3E096F008A3E0
:100CD300E096F008A3E096F022E026F008A3E036C1
:100CE300F008A3E036F008A3E036F022E026F60889
:100CF300A3E036F608A3E036F608A3E036F6227042
:100D03000422600D18C6C333C608C633C6D5E0F443
:100D13001822E657F60809E657F60809E657F608D3
:100D230009E657F622E056F608A3E056F608A3E0D4
:100D330056F608A3E056F622C0E0E8C0E0E58124B9
:100D4300FCF8E6A2E7D0E0F8D0E022E056F008A3F2
:100D5300E056F008A3E056F008A3E056F022E64779
:100D6300F60809E647F60809E647F60809E647F6EE
:100D730022E627F60809E637F60809E637F60809F2
:100D8300E637F622E4C396F608E496F608E496F608
:100D930008E496F622C3E09608A3E09608A3E0963B
:100DA30008A3E09622C6F4C608C6F4C608C6F4C66D
:100DB30008C6F4C622600D08C6A2E713C618C613F8
:100DC300C6D5E0F322C3E7960809E7960809E79634
:100DD3000809E7962275D0007581407518017519C9
:100DE300030002076BE6F008A3E6F008A3E6F008A9
:100DF300A3E6F022E6084608C3134608336002E67A
:100E030033F422600C08C6C313C618C613C6D5E054
:100E1300F422E0F608A3E0F608A3E0F608A3E0F660
:100E230022E7094709C3134709336002E733F42272
:100E3300CAC0E0E6F0A308DAFAD0E0FA22EAF0A3A7
:100E4300EBF0A3ECF0A3EDF022E0FAA3E0FBA3E0C8
:100E5300FCA3E0FD22E5C754F84401F5C77901225C
:100E6300E7C33319471947194722E6C3331846180E
:100E7300461846222518F582E43519F58322C2AFB8
:100E830075D69F02000022120B6A423000120B6AD1
:100E9300963000120B6AAF3000120B6AD530001285
:100EA3000B6A103100120B6A543100120B6A7B314A
:100EB30000120B6ACC3100120B6A7C3200120B6AEF
:100EC300343300120B6AFC3300120B6ABC34001279
:100ED3000B6A003500120B6A253500120B6A683560
:100EE30000120B6AB53500120B6A0D3700120B6A3C
:100EF300933700120B6AB13700120B6ADB3700120B
:100F03000B6AF53700120B6A043800120B6A0F38AC
:100F130000120B6ACF3800120B6A283900120B6AD1
:100F2300EA3900120B6AF23900120B6AB63A001260
:100F33000B6A223B00120B6A4D3C00120B6A723C97
:100F430000120B6AE83C00120B6A7A3D00120B6A2E
:100F5300D23D00120B6A923E00120B6AB13E0012A0
:100F63000B6AC03F00120B6AD23F00120B6A41406A
:100F730000120B6A964100120B6AC84100120B6AF9
:100F83005B4200120B6A944200120B6AE0420012A9
:100F93000B6AFC4300120B6A454600120B6A50466B
:100FA30000120B6A5B4600120B6A664600120B6A5C
:100FB300704600120B6A7B4600120B6A95460012BC
:100FC3000B6A9F4600120B6AA94600120B6AB446CD
:100FD30000120B6ADC4600120B6A374700120B6AD9
:100FE300414700120B6A654700120B6A89470012DA
:100FF3000B6AE74700120B6A2B4800120B6A47483B
:1010030000120B6ABE4800120B6AF64800120B6A04
:10101300424900120B6A9F4900120B6A594A001297
:101023000B6A3D4C00120B6A964C00120B6AC64DBC
:1010330000120B6AEC4D00120B6A754F00120B6A1B
:10104300F15200120B6AC35400120B6A8C56001241
:101053000B6A395700120B6AA45800120B6A4359E2
:1010630000120B6A885900120B6AF25900120B6ABC
:10107300015A00120B6A885C00120B6A3A5E001276
:101083000B6AA75E00120B6A865F00120B6A9F60F1
:1010930000120B6A1C6200120B6A3B6200120B6A9D
:1010A300906200120B6A956300120B6ABD63001213
:1010B3000B6A156400120B6AF46400120B6A38653C
:1010C30000120B6A836500120B6AEE6500120B6A4D
:1010D3002F6700120B6A936700120B6AE168001214
:1010E3000B6A416B00120B6A726B00120B6A2A6D5A
:1010F30000120B6A7F6D00120B6A836E00120B6A7B
:10110300206F00120B6A796F00120B6A2C700012A9
:101113000B6ACE7000120B6A6E7100120B6A1372A7
:1011230000120B6AD18101120B6A108201120B6A41
:10113300578401120B6AA18401120B6ABC85011248
:101143000B6A248601120B6A598601120B6ACD873A
:1011530001120B6A508A01120B6A798B01120B6A16
:101163000F8C01120B6A179501120B6AAC950112D1
:101173000B6A939801120B6A869901120B6AF49910
:1011830001120B6A3A9B01120B6A1C9C01120B6A37
:10119300019E01120B6A12A001120B6A7CA00112BC
:1011A3000B6A4EA101120B6A7CA101120B6A39A2D0
:1011B30001120B6A10A301120B6AD7A301120B6A67
:1011C3007BA401120B6AA4A401120B6AC6A4011228
:1011D3000B6A1CA701120B6AF4A701120B6A38A849
:1011E30001120B6AA0A801120B6A58A901120B6A1B
:1011F3008AA901120B6ACEA901120B6A04AA011271
:101203000B6A50AA01120B6AA5AA01120B6AAAAAB9
:1012130001120B6AFDAA01120B6A22AB01120B6ABF
:1012230031AC01120B6A95AC01120B6A05AD0112C8
:101233000B6A91AD01120B6A5EB001120B6A42B1E7
:1012430001120B6AC5B201120B6AFBB401120B6ADD
:10125300A9B501120B6A59B601120B6A9AB80112A9
:101263000B6A3DB901120B6A84B901120B6A30BBD8
:1012730001120B6A44BB01120B6A4EBB01120B6ACB
:1012830076BB01120B6A82BB01120B6AA1BB01126E
:101293000B6AC1BD01120B6A10BF01120B6A54BF66
:1012A30001120B6AFCBF01120B6ADFC001120B6A49
:1012B3008AC101120B6AD6C201120B6AD4C301128E
:1012C3000B6A7AC401120B6A0AC501120B6A21C5A3
:1012D30001120B6A58C501120B6A62C501120B6A2F
:1012E3006DC501120B6A8BC501120B6ACFC50112C2
:1012F3000B6A2CC601120B6A51C601120B6A6BC62C
:1013030001120B6AF7C601120B6A14C801120B6AA9
:1013130081C801120B6A68C901120B6A8FC90112D5
:101323000B6A03CA01120B6A7ECA01120B6A82CBD3
:1013330001120B6A78CC01120B6A27CD01120B6ADA
:101343003ACE01120B6AD6CE01120B6A63CF011299
:101353000B6A41D001120B6A79D001120B6AD1D00A
:1013630001120B6A9AD101120B6ABBD101120B6AEB
:1013730042D201120B6A66D201120B6A88D20112A1
:101383000B6AD1D201120B6AE7D401120B6ACED5D4
:1013930001120B6A7FD601120B6AB5D801120B6AD0
:1013A30005D901120B6A45D901120B6A87D90112BB
:1013B3000B6AE3D901120B6A11DA01120B6A35DAEF
:1013C30001120B6A88DA01120B6AB6DA01120B6A90
:1013D300EFDA01120B6A44DB01120B6AAADB01127A
:1013E3000B6AFEDC01120B6A21DF01120B6A8EDF2E
:1013F30001120B6AB7DF01120B6A42E001120B6A9A
:10140300A9E001120B6AF4E001120B6A18E1011260
:101413000B6A3CE101120B6A97E101120B6AB2E11C
:1014230001120B6A6BE201120B6A38B404120B6AE5
:1014330077B404120B6A788002120B6ABE80021220
:101443000B6A9E8102120B6AA08202120B6AA383AB
:1014530002120B6A2F8502120B6A8D8502120B6A28
:101463004A8602120B6A688702120B6AD987021234
:101473000B6A158802120B6A638802120B6A6D8865
:1014830002120B6AB18802120B6A0D8902120B6AEF
:10149300A88902120B6A258A02120B6AF48A0212C5
:1014A3000B6A8D8B02120B6AAD8B02120B6AE38BF4
:1014B30002120B6A148C02120B6AD58C02120B6A8D
:1014C300E58C02120B6A398D02120B6A548D0212DB
:1014D3000B6A668D02120B6A6F8D02120B6AC98D3D
:1014E30002120B6A258E02120B6A718E02120B6AAC
:1014F3008C8E02120B6ABD8E02120B6ADA8E0212F6
:101503000B6AE68E02120B6A5A9002120B6A7390F0
:1015130002120B6ADA9002120B6AED9002120B6A46
:10152300FB9002120B6AAF9102120B6A93920212A2
:101533000B6A999302120B6A239402120B6A2D947D
:1015430002120B6A9A9402120B6AB19402120B6A8A
:10155300E39402120B6A1C9502120B6A469502125F
:101563000B6AA79502120B6AC79502120B6AE595DF
:1015730002120B6A2B9602120B6A519702120B6A24
:101583009E9702120B6ACD9702120B6A43980212BE
:101593000B6A6B9802120B6AA49802120B6AB29838
:1015A30002120B6A0A9902120B6A599902120B6A08
:1015B300989902120B6AC89902120B6AF4990212E3
:1015C3000B6AFF9902120B6A1D9A02120B6ADF9AC9
:1015D30002120B6AE99A02120B6A249B02120B6A2B
:1015E3003A9B02120B6A8F9B02120B6AA39B021295
:1015F3000B6AB19C02120B6AC49C02120B6AD99C3F
:1016030002120B6A7B9D02120B6AFE9D02120B6A89
:10161300BC9E02120B6AC79E02120B6AF39F021250
:101623000B6A0FA002120B6A61A002120B6AA0A040
:1016330002120B6AB5A002120B6A17A102120B6AFF
:10164300A6A102120B6AF1A102120B6A42A40212B2
:101653000B6AC0A402120B6A35A502120B6A57A7C4
:1016630002120B6A6FA702120B6A72A702120B6AAD
:101673007EA702120B6A92A702120B6A9AA70212A2
:101683000B6ACDA702120B6A7DA802120B6AF3A89C
:1016930002120B6A66A902120B6A1AAA02120B6AD9
:1016A300CFAA02120B6AEEAA02120B6A8EAB0212C7
:1016B3000B6A9AAB02120B6AC5AB02120B6AC8AB78
:1016C30002120B6A32AC02120B6A5AAD02120B6A97
:1016D30032AE02120B6ABDAE02120B6AD6AF021211
:1016E3000B6A93B002120B6ACCB002120B6AFDB004
:1016F30002120B6ABBB102120B6AEBB102120B6A44
:10170300C6B202120B6A5FB302120B6AEAB3021289
:101713000B6A9BB402120B6A1EB502120B6A50B518
:1017230002120B6A91B502120B6ADAB703120B6A43
:101733003FB803120B6A7CB803120B6ACBB80312CF
:101743000B6AE1BA03120B6AC4BC03120B6A2EC004
:1017530003120B6A69C003120B6A8BC003120B6A74
:10176300EEC003120B6A22C103120B6A45C10312B6
:101773000B6A72C103120B6ACEC103120B6AC4A1B6
:1017830003120B6A42A203120B6A78A203120B6ABA
:10179300E4A203120B6A57A403120B6A73A4031285
:1017A3000B6AB8A403120B6A46A503120B6A9FA522
:1017B30003120B6ACCA603120B6ADEA703120B6A91
:1017C3003BA803120B6AA7A803120B6A08A903120A
:1017D3000B6A49A903120B6AF6A903120B6A08AB39
:1017E30003120B6A33AB03120B6A7EAB03120B6A51
:1017F300C5AB03120B6A57AC03120B6A12AD03128B
:101803000B6ACCA104120B6AFCA104120B6A51A24D
:1018130004120B6A72AA04120B6A83AA04120B6ADB
:10182300D4AA04120B6A19AB04120B6AC3AB0412D9
:101833000B6A5FB004120B6A2BA704120B6A83A80E
:1018430004120B6A89AD03120B6A2EAE03120B6AE4
:101853004EAE03120B6A6EAE03120B6A82AE031214
:101863000B6ADAAE03120B6A0AAF03120B6A8BB070
:1018730003120B6A31B103120B6A13B203120B6A20
:1018830064B203120B6AA7B203120B6AEAB2031221
:101893000B6A50B303120B6A71B303120B6AFDB3E5
:1018A30003120B6A2EB403120B6AA2B403120B6A5F
:1018B30050B603120B6A2AB703120B6A6CB70312F2
:1018C3000B6AC6B703120B6A9FA304120B6AC0A369
:1018D30004120B6AF9A404120B6A23A504120B6AFF
:1018E300D2A804120B6A6DA904120B6A77A9041219
:1018F3000B6A98A904120B6A33AA04120B6A51AA41
:1019030004120B6A5F7200120B6A55DF02120B6A34
:101913001C7300120B6A477300120B6A8E7300125A
:101923000B6AB37300120B6AD47300120B6A087448
:1019330000120B6A417400120B6A6A7500120B6A7B
:10194300A17500120B6AC17500120B6A5C76001256
:101953000B6A217700120B6A587700120B6ACD7855
:1019630000120B6A707900120B6A697A00120B6A13
:10197300927A00120B6A9E2F00120B6AAC7B001244
:101983000B6ADA7B00120B6A6F7D00120B6AF07D23
:1019930000120B6A237E00120B6A1AC203120B6A2F
:1019A30024C203120B6A70C203120B6ADEC2031253
:1019B3000B6AFFC203120B6A16C303120B6AC6C378
:1019C30003120B6A5AC603120B6A63C603120B6A2D
:1019D300B6C603120B6ADFC603120B6A46C70312AD
:1019E3000B6AD7C703120B6A19C803120B6A63C8C1
:1019F30003120B6AC2C803120B6AEEC803120B6A06
:101A03007FC903120B6ABEC903120B6AFDC9031215
:101A13000B6A32CA03120B6A44CA03120B6A56CA10
:101A230003120B6A75CA03120B6A7ECA03120B6A8E
:101A330034CB03120B6A74CB03120B6A88FA0312BA
:101A43000B6A5BFB03120B6A75FB03120B6A86FBC3
:101A530003120B6A9BFD03120B6ABAFD03120B6A96
:101A6300979B04120B6ACD9B04120B6A169C0412FB
:101A73000B6A669D04120B6AA0E602120B6ADFE78B
:101A830002120B6A1BE802120B6ADAE902120B6AF2
:101A930003EA02120B6A96EC02120B6ADAEC0212E8
:101AA3000B6A63EE02120B6AFBEE02120B6A63EF20
:101AB30002120B6A04F002120B6A46F002120B6A5E
:101AC30086F002120B6A11F202120B6A81F3021200
:101AD3000B6AA6F502120B6AD4F502120B6AFBF528
:101AE30002120B6A04F602120B6A5FF602120B6A09
:101AF300F2F602120B6A10FA02120B6A91FA021240
:101B03000B6A8CB504120B6AA2B504120B6A9BB361
:101B130004120B6A7F8E04120B6A928E04120B6AF4
:101B23002F8F04120B6A6A8F04120B6A858F0412BB
:101B33000B6AAA8F04120B6AEF8F04120B6A2090B0
:101B430004120B6A519004120B6AD79104120B6AA8
:101B5300DAAB04120B6A10AC04120B6A2CAC04123D
:101B63000B6A6EAC04120B6A7EAC04120B6A13ADE3
:101B730004120B6A1DAD04120B6A35AD04120B6A15
:101B83000FEB03120B6AC4EB03120B6A9AED0312F9
:101B93000B6ADFED03120B6A3AEE03120B6AB2EE25
:101BA30003120B6A92EF03120B6A16F003120B6A0D
:101BB300A9F003120B6A669303120B6ABE93031216
:101BC3000B6AA79403120B6A409503120B6A8A955A
:101BD30003120B6AE79503120B6A409603120B6A12
:101BE300549603120B6A869603120B6A84970312A8
:101BF3000B6AE89703120B6A039803120B6A529855
:101C030003120B6A689803120B6A759803120B6A26
:101C1300A99803120B6AC29803120B6A5399031211
:101C23000B6A629903120B6AEA9903120B6A449ACC
:101C330003120B6A929A03120B6AB49A03120B6A89
:101C43002B9D03120B6A609D03120B6AF09D031216
:101C53000B6A659E03120B6A6A9E03120B6AA69EA9
:101C630003120B6AFC9E03120B6AC09F03120B6ADA
:101C7300E59F03120B6AEF9F03120B6AF29F031295
:101C83000B6A7BA003120B6A96A003120B6AA9A02E
:101C930003120B6AD5A003120B6A10A103120B6A7D
:101CA30013A103120B6A1EA103120B6A5AA103129A
:101CB3000B6A6DA103120B6A94A103120B6AEBB3B7
:101CC30004120B6A03B404120B6AD9D403120B6A0D
:101CD30028D503120B6ACAD603120B6A88D80312DB
:101CE3000B6AD0D803120B6AF2D903120B6A23DBF7
:101CF30003120B6A45DB03120B6AA1DB03120B6AA7
:101D030023DC03120B6AA5E201120B6AC6E201127D
:101D13000B6A50E301120B6AD5E301120B6A51E41B
:101D230001120B6ABAE401120B6A06E501120B6A8F
:101D330085E501120B6A17E601120B6AA3E601128D
:101D43000B6AE5E601120B6A51EB01120B6AD1EC47
:101D530001120B6A10ED01120B6AF7ED01120B6A07
:101D6300FAED01120B6AAEEE01120B6AE3EF0112F8
:101D73000B6ACEF101120B6A4EF401120B6A07F5DE
:101D830001120B6A24F601120B6A7BF901120B6A2A
:101D93008BF901120B6AECFA01120B6A78FB011240
:101DA3000B6AACFC01120B6A9DFD01120B6A1FFE4C
:101DB30001120B6A008003120B6ABA8003120B6ACA
:101DC3002C8103120B6A3B8103120B6AB581031248
:101DD3000B6A248203120B6A2B8303120B6A54834C
:101DE30003120B6AF48303120B6A428403120B6A15
:101DF300B28403120B6A6B8703120B6A42880312C5
:101E03000B6AAF8803120B6A2C8A03120B6AE08AEF
:101E130003120B6A8E8B03120B6AE98B03120B6A94
:101E2300548C03120B6A548D03120B6A2E8F031208
:101E33000B6A419003120B6ADA9003120B6A4C91FE
:101E430003120B6A129203120B6ADB8304120B6AEE
:101E53002F8404120B6A878404120B6AD28404123F
:101E63000B6A348504120B6AA08504120B6A53862D
:101E730004120B6A948604120B6AAA8604120B6A74
:101E8300068704120B6A448704120B6A41990412F1
:101E93000B6A729904120B6A2C9A04120B6A929AB7
:101EA30004120B6A039B04120B6A519E04120B6A01
:101EB30052B104120B6AD7B104120B6A37B304127E
:101EC3000B6A59B304120B6A61B304120B6A81B330
:101ED30004120B6A13FF03120B6A24FF03120B6A2B
:101EE300C4FF03120B6A73A504120B6A81A50412C3
:101EF3000B6AEAFF01120B6AA1B204120B6AB1B2B8
:101F030004120B6ACCB204120B6A2DB304120B6ACF
:101F13005DAF04120B6AE2AF04120B6A46B00412FF
:101F23000B6A4BAE04120B6A6DAE04120B6AD7AE8A
:101F330004120B6AE2AE04120B6A26AF04120B6A98
:101F4300C5E303120B6AD3E303120B6A14E403120F
:101F53000B6A35E403120B6AB2E403120B6AB2E5AF
:101F630003120B6A15E603120B6A37E603120B6AB8
:101F730052E603120B6A6DE603120B6A77E603124D
:101F83000B6A81E603120B6A94E603120B6AADE651
:101F930003120B6A49E703120B6A05E803120B6A83
:101FA30085E803120B6AFFE803120B6A65E9031263
:101FB3000B6A758704120B6A838704120B6AFD8709
:101FC30004120B6AE18804120B6A9A8A04120B6AE0
:101FD300DEFF03120B6A57DC03120B6AC4DC031225
:101FE3000B6A7BDD03120B6AE6DD03120B6AEADE82
:101FF30003120B6A60E003120B6ABFE003120B6A61
:1020030014E103120B6A65E103120B6A00E2031287
:102013000B6A96E203120B6AB5E203120B6A31E311
:1020230003120B6A52E303120B6A70E303120B6A87
:102033007DE303120B6A17F103120B6A6CF10312AF
:102043000B6A68F303120B6A9AF303120B6ABCF36D
:1020530003120B6AD5F303120B6AEEF303120B6A36
:10206300F8F403120B6A93F503120B6A9C7E0012B9
:102073000B6AC07E00120B6AD97E00120B6A0C7FBA
:1020830000120B6A3D7F00120B6A6B7F00120B6A12
:10209300CD7F00120B6ADC7F00120B6AE67F001211
:1020A3000B6AF37F00120B6AEE9104120B6A14920F
:1020B30004120B6A519204120B6A609204120B6AA7
:1020C3007F9204120B6AE79204120B6AF0920412D5
:1020D3000B6A4F9304120B6A739304120B6A3294C4
:1020E30004120B6A3F9404120B6A509404120B6A95
:1020F300C5B404120B6AE2B404120B6A0AF60312A3
:102103000B6A68F703120B6A75F703120B6A88F7F9
:1021130003120B6AA7F703120B6ABDF703120B6ACC
:10212300D1F703120B6A46F803120B6AABF80312DA
:102133000B6A5BF903120B6A30FA03120B6A40FA5B
:1021430003120B6A4FFA03120B6A08B204120B6AEA
:102153002CB204120B6A54B204120B6A7CB204123E
:102163000B6A7E9404120B6AA59404120B6AC6943C
:1021730004120B6A2B9504120B6AE49604120B6A81
:10218300FD9604120B6A099704120B6A1D97041239
:102193000B6A3B9704120B6A459704120B6A4F971D
:1021A30004120B6A629704120B6AB59704120B6A46
:1021B300EE9704120B6A1D9804120B6A6B980412B3
:1021C3000B6ABA9804120B6AD59804120B6ADF984B
:1021D30004120B6AF09804120B6A369904120B6A04
:1021E300ABFF02120B6A9DCB03120B6AC7CB031220
:1021F3000B6AE3CB03120B6AF6CB03120B6A0CCC0C
:1022030003120B6A69CC03120B6A9CCC03120B6A90
:10221300D8D003120B6AFED103120B6A31D2031218
:102223000B6A7DD203120B6AA9D303120B6AD1D3B3
:1022330003120B6AE6D303120B6AF6D303120B6A7B
:102243003AD403120B6A9BD403120B6AABD4031266
:102253000B6AB7FE01120B6AD2FE01120B6AFBFE78
:1022630001120B6A15FF01120B6A3AFF01120B6A86
:1022730059FF01120B6A71FF01120B6A9FFF0112D2
:102283000B6AB9FF01120B6A81B404120B6AFF8A4D
:1022930004120B6A068B04120B6A128C04120B6A6B
:1022A300428C04120B6A688C04120B6A8B8C041226
:1022B3000B6AAD8C04120B6AE78C04120B6A4D8D0A
:1022C30004120B6A868D04120B6AD28D04120B6AF8
:1022D300FF8D04120B6A1F8E04120B6ADD9F04121A
:1022E3000B6AF59F04120B6AE3A004120B6AC2A1E6
:1022F30004120B6A38AD04120B6AAAAD04120B6AFE
:10230300E8AD04120B6A29AE04120B6A00800412B2
:102313000B6A1F8004120B6A6E8004120B6A8A8098
:1023230004120B6ABB8004120B6ACB8004120B6A83
:10233300D88004120B6AE58004120B6AD18104125F
:102343000B6A0F8204120B6A198204120B6A298327
:1023530004120B6A348304120B6A468304120B6A59
:102363004F8304120B6A598304120B6AEEFA0212AA
:102373000B6A33FF02120B6A41FF02120B6A37B575
:1023830004120B6A01B504120B6A64B504120B6ADA
:10239300ACB504120B6A0CDF02120B6AC4DE021224
:1023A3000B6A12DE02120B6A84DD02120B6A77DDFE
:1023B30002120B6A71DA02120B6AD3D702120B6A8A
:1023C3009CD602120B6AF0D502120B6A142F00126C
:1023D3000B6AB32E00120B6A36D402120B6AE6D1D3
:1023E30002120B6A612E00120B6A4F2E00120B6A47
:1023F3006DD102120B6A14D102120B6AA4D002121D
:102403000B6A7BD002120B6A5BCE02120B6A27CED9
:1024130002120B6AF4CD02120B6AD8CD02120B6AB8
:10242300F1CC02120B6AA9CC02120B6AF4CA021293
:102433000B6A74CA02120B6A71CA02120B6A6EC962
:1024430002120B6A3CC902120B6A79C802120B6AA8
:1024530079E602120B6A5BE602120B6A14E50212BA
:102463000B6A71E402120B6A24E302120B6AA4C61C
:1024730002120B6A35C602120B6A07C602120B6AF6
:1024830004C602120B6ACFE002120B6AF1C50212F4
:102493000B6A9CC502120B6A8BC502120B6A7DC4C0
:1024A30002120B6AEDDF02120B6AE67A00120B6A64
:1024B30047C402120B6AF5C302120B6A96C30212D7
:1024C3000B6A65C302120B6A2DC002120B6AEDBFC1
:1024D30002120B6AE1BF02120B6A41BF02120B6ABE
:1024E30081BE02120B6A03BC02120B6A94B9021278
:1024F3000B6A52B902120B6A26B802120B6ADBB7D7
:1025030002120B6A1AB702120B6AEDB602120B6AB9
:10251300C6B502120B6A30B602120B6AD1DF021281
:102523000B6A00B602120B6A62720000000080FBA5
:10253300E473000000000000000000000000000041
:1025430000001010101010100000303000000014B4
:1025530028500000000000000000000000000028D8
:1025630028FC284850FC50500000000010385454F8
:10257300301814545438100000000044A8A8B05474
:102583001A2A2A44000000000020505060ACA8988A
:10259300927C000000606020C0000000000000008A
:1025A30000000004080810101010101008080400A0
:1025B3000000402010080408102040000000000024
:1025C300001010D63838D61010000000000000109C
:1025D3001010FE10101000000000000000000000AA
:1025E30000000000606020C0000000000000FC004C
:1025F30000000000000000000000000000000000D8
:102603006060000000020404040808101020202069
:1026130040000000003048848484848448300000F3
:1026230000000010701010101010107C000000004B
:102633000038444404081020447C000000000038A3
:1026430044441804044444380000000008081828CF
:102653004848887C081C00000000007C4040784407
:102663000444443800000000003C4480B8C484841F
:10267300847800000000007C4448081010101010FB
:102683000000000000788484487884848478000003
:10269300000000788484848C740488F000000000B7
:1026A3000000003030000000303000000000000067
:1026B300000010000000001010200000040810208B
:1026C30040201008040000000000000000FC00008F
:1026D300FC00000000000000402010080408102047
:1026E300400000000000788484840810100030301B
:1026F300000000000038449AAAAAAAB4423C000091
:102703000000001010282828384444EE0000000080
:1027130000F844447844444444F800000000003C7A
:1027230044848080808044380000000000F04844E6
:102733004444444448F00000000000FC444048780E
:10274300484044FC0000000000FC424048784840F8
:1027530040E000000000003C448480808E844438C4
:102763000000000000EE4444447C444444EE000076
:102773000000007C101010101010107C00000000EE
:10278300007C101010101010101090E0000000EEEC
:1027930044485070484844EE0000000000E04040C8
:1027A3004040404044FC0000000000EE6C6C6C5460
:1027B300545454D60000000000EE64645454544C46
:1027C3004CE4000000000030488484848484483052
:1027D3000000000000F844444478404040E000001A
:1027E300000000304884848484B448380C0000001E
:1027F30000F844447850484844E600000000003C98
:1028030044402018040444780000000000FE9210A5
:102813001010101010380000000000EE444444442F
:10282300444444380000000000EE4444282828288B
:1028330010100000000000D6545454546C2828286B
:102843000000000000EE44282810282844EE000071
:10285300000000EE4428281010101038000000007B
:10286300007C88081020204044FC0000001C10104D
:1028730010101010101010101C0000701010101009
:1028830010101010101070000070101010101010A5
:10289300101010107000001028000000000000004D
:1028A3000000000000000000000000000000000025
:1028B30000FE00606020C000000000000000000077
:1028C30000000000000038441C24443E00000000C7
:1028D30000C04040784444444478000000000000B5
:1028E30000003C444040443800000000000C040455
:1028F3003C444444443E00000000000000003844CF
:102903007C40443800000000001C2420F8202020D4
:10291300207800000000000000003C484830407868
:102923004438000000C040405864444444EE000072
:1029330000000010000070101010107C0000000058
:10294300000800003808080808080870000000C0E4
:1029530040405C48507048EC0000000000701010CC
:1029630010101010107C0000000000000000F8544C
:10297300545454D60000000000000000D8644444BE
:1029830044EE000000000000000038444444443892
:102993000000000000000000F8444444447840E094
:1029A3000000000000003C444444443C040E00008A
:1029B30000000000EC30202020F8000000000000A0
:1029C30000003C4430084478000000000000101070
:1029D3007C101010100C0000000000000000CC441C
:1029E3004444443E0000000000000000EE44282858
:1029F30028100000000000000000D654545428287A
:102A03000000000000000000DC48303048EC00000B
:102A1300000000000000EE442828101020E0000011
:102A2300000000007C481010247C000010101010DF
:102A33001010101010101010101000013636010184
:102A43000001020100010301000104010606050261
:102A53000000070100340801000F090401010D0102
:102A630000FF0E08000017020000190100FF1A0101
:102A730000011B0100FE1C0100081D0200001F01D4
:102A8300000120010001210200002301000F2402A4
:102A930000002601000127010008280200FF2A0187
:102AA30000072B0102402C0100002D0100012E0123
:102AB30000012F0100FF30010B1C310800003A0117
:102AC30000083B01000F2F010000030071003001DB
:102AD30060001100700031022003500480001000D8
:102AE3006100000014006300730072006200430081
:102AF30000001300060000000000040012000000A4
:102B030000000000000004000400370037003C020E
:102B130044000000000000000000650000003500D4
:102B23008100000005000000830000000103710321
:102B33000103010301030103010322030203010350
:102B4300100300030003000300030003000300035A
:102B530042030003240306030003000304031203D8
:102B630025032303250323030403040300030003B2
:102B73000003440300030003230300036503210050
:102B83003503810300030503000300030003010170
:102B93007101010101011101010131010101010172
:102BA3008001100161013B00140063017301720194
:102BB300620143010001130106013D0135000401D7
:102BC30012010001000100010001040104013301AD
:102BD30033013C014401320136000001000165016B
:102BE300000135008101000105018201830100011B
:102BF300030271023001600211027002010202023B
:102C030002028002100261023A0041006302730271
:102C13007202620243020002130238000002000241
:102C23000402120200020002000200020402040273
:102C3300370037003C024402000239000002000260
:102C4300650200023502810200020502820283024C
:102C530000020304710402046004110470040204FA
:102C63000204010402041004610400041404630454
:102C7300730472046204430400041304060400048E
:102C830000040404120400040004000400045104BA
:102C9300640000040004000444040004000400046D
:102CA3000004650400043504810464000504000481
:102CB3008304000436000100060000000F0000003A
:102CC3000000000000000000000003FFFF000004FC
:102CD30003FFFF0000FFFF0FF4010005C4040320FE
:102CE300000100030B000000000000000003010FBF
:102CF3000000F01D13006C1D0100F01D0200241DD7
:102D030003002A1D0400301D0500361D0600421D68
:102D13001100601D1400661D1500541DFFFF000007
:102D2300016C11069C110896110BA81110E81002F2
:102D33007211058A110778110C4E110D6011FF00F5
:102D43000003EAF5E5D5D5C5B5A5959585857575D2
:102D5300656555554545353525251515057415A462
:102D6300157A1580159E1592158C15AA15B015B6F2
:102D730015C21586156E15681500160F00000B1584
:102D83000B020002220F32000006641676167C1630
:102D93003E1582163815441578147214AE14B41403
:102DA300A8146014C416E216E816CA16D616D0166E
:102DB30000011916181616152303000C0E020B0436
:102DC3000B0A0708000F00034948424D1817250551
:102DD3000200383C3E363B3B352B432C3030171832
:102DE3001921301B1D1F30303016181920231A1CCF
:102DF3001E30B81688168E169A1694169815BC159A
:102E0300DC16C815CE150204020101010109028472
:102E1300148A147E14BA140000000000009014A257
:102E23001400BE040A0E00150004007F00E8030C22
:102E3300002800000000000308100C0A0308090022
:102E4300040001FF1E1E0C05040F1008C082C0837E
:102E53008A828B83E0D2E7F0121C7602401EC08286
:102E6300C083790012331B1261EBC082C0839003CD
:102E730034124F71D083D082C3E09CA3E09D500CE9
:102E83001268BFFAA3E0122E9260010902401EFBF2
:102E9300EA75F00BA4FAA8F075F00BEBA428FB90ED
:102EA3000336E02AF8A3E03B8882F583E0540F223F
:102EB30074F7120643890812331B1233C1ACF07541
:102EC300F00BE9A42CF9900336E028FEA3E039FFC8
:102ED3007401650860067402650870208A828B831A
:102EE3001233AD12424D74026508701B12326C121C
:102EF30033F470138E828F83E4F0800BEA2403FC97
:102F0300EB12338F12339BEEFAEFFB1223EA0241EB
:102F1300AA74F41206431271E679008E828F83E05D
:102F23006076890A890B8065E50A75F00BA4FAA817
:102F3300F075F00BE50B122E9F7046E50A75F00B4A
:102F4300A4F8AAF075F00BE50B1233D38E828F83AE
:102F5300E08508828509831234B585088285098353
:102F6300A312424DEE2403FCEF12339812402B12AE
:102F73005C65AA08AB091223EA790190033412565F
:102F83007AE50A2401F50AE50B3400F50B123274D5
:102F9300E50A9AE50B9B40900243F774F51206434A
:102FA300EAFEEBFF740B120E77124030750A01EC48
:102FB3004D602BEC127202ED1261EB124245790166
:102FC3001223D2E5084509606F850882850983A32A
:102FD3001271F07902AA08AB091223D2805AE508CC
:102FE3004509602B1261EF1248B912402C1233DEEF
:102FF300700CEEFAEFFB1223CCE9F50A80CBEE243A
:1030030003FA12331670317903EEFAEFFB80CA8E9E
:10301300828F83A3E064FE7003A3E0F4700BEE24BD
:10302300030A0A0A123316700CEEFAEFFB1223CCD2
:10303300E9F50A8003750A00A90A7F030208B97437
:10304300F71206439003341241BAEA4B602FEA7534
:10305300F00BA4FAA8F075F00BEBA428FBEAFEEB47
:10306300FF121A6C9003361241BA9003361254BF02
:103073006012EEFCEFFD79001219AC800790033665
:10308300E4F0A3F00241AA900334124C29C3EE9852
:10309300EF9922C082C083EC4D600512230680099C
:1030A3007C087D0079001219AC02401E74F61206EA
:1030B300437900EA4B601878008808126532EB12F6
:1030C30068BB60047901780808E8C3940840EA0201
:1030D300425674F712064374F3120C49ECFEEDFFEB
:1030E300851882851983E4F004120E77EAF0A3EBC6
:1030F3001259EB7403120E77AC82AD83EEFAEFFB39
:10310300120E90EEFAEFFB120E960241A574F7121F
:10311300064374F3120C49ECFEEDFF851882851902
:1031230083E4F0EAFCEBFD7403120E771234AE7401
:1031330001120E771242418E828F8312424D74FE2A
:1031430068700374FF6960047901800279000241A9
:10315300A574F7120643EAFEEBFF1231B2701412A4
:1031630031BD8E828F83E0F4F88A828B83E058F03E
:103173001223EAA9080241AA74F7120643EAFEEBF6
:10318300FF7508008E828F83E060221231B2701DBA
:103193001231BD8A828B83E08F838E82F8E0587070
:1031A3000CE0F88A828B83E048F01223EA80C41291
:1031B30023E4E9F50874016508221271FB1233C593
:1031C300123307FAA3E039FB2274F41206438A0888
:1031D3008B097C007D0012326C12339B12332C124C
:1031E30071ED7900850882850983A3E064FE70038D
:1031F300A3E0F460717E007F008062EEFAEF122E8E
:10320300926057EEFAEFFBEA75F00BA4FAA8F0759B
:10321300F00BEBA428FB900336E02AF50AA3E03B6E
:10322300F50B850882850983A3125939850A82859E
:103233000B83A3E06A7003A3E06B701EE50A24030B
:10324300FAE50B123317700AE50A2403FCE50B12A7
:1032530033981233207901126201123C0B1232743B
:10326300EE9AEF9B40950243F7EA24030A0A0AEB1E
:1032730022900334125DD8C32274F31206438A08E2
:103283008B098A828B83A31271F012331B1271EDA7
:10329300750C0012326C12331770547E007F00805D
:1032A300491232F9FAA3E0398A82F583E0540F60B8
:1032B300361232F9F50AA3E039F50BE50A2403FCCB
:1032C300E50B1233A23400FB122300E964017017EB
:1032D300850A82850B83A3125E99A312424D123392
:1032E30020750C01126201123C0B12308A40B2A904
:1032F3000C7F050208B9EEF8EFF9E875F00BA4F8B6
:1033030012330722AAF075F00BE9A42AF9900336C9
:10331300E02822EF1233EE22127201EB2212332C39
:103323001261FCEEF0A3EFF022E508127202E50948
:103333002274F5120643EAFEEBFF8E828F83A312FB
:1033430071F07C007D00EE24030A0A0AEF12339B1E
:10335300EEFAEFFB1223E4E9F50A7401650A70291A
:103363001271FB1233C1AAF075F00BE91233D38546
:103373000882F5831233AD1233DE700DE5082403A2
:10338300FCE50912338F12339B02303B3400FDEE10
:103393002403FAEF221233A23400FB120E902234DC
:1033A30000FDE5082403FAE50922A31233B2221231
:1033B30033B622E0F8A3E0F98E828F83A32212337F
:1033C300C5223400F583124C2DE875F00BA4F822C6
:1033D30012330DF508A3E039F50922E8F0A3E9F06B
:1033E300E5082403FAE5091233EE221233F46401EB
:1033F300223400FB120E96E92274F312064374E69C
:10340300120C491271E6750C0175080075090075F7
:103413000A00750B00851882851983E4F0EE2403F6
:10342300FCEF3400FD7403120E771234AEE964012D
:103433007023740B120E771242457401120E771229
:10344300593D7003A3E0696051851882851983850E
:103453008208858309740D120E77E41234B5740E55
:10346300120E7712424D740D120E77AA82AB83129D
:103473000EB4E96401700B740D120E7785820A8510
:10348300830B780A120B87AC08AD09EEFAEFFB1237
:1034930019767402120BCFE9F50CEEFAEFFB120E5C
:1034A300AEA90C741A120BCF0232F4123781120E2A
:1034B300BA221241B5124C2922C082C08378007906
:1034C3000080031235AC123274E89AE99B5029E864
:1034D300FAE9FBEA75F00BA4FAACF075F00BEBA478
:1034E3002CFB900336E02AFCA3E03B8C82F583E0BF
:1034F300540F70CF79008002790102401EC082C050
:1035030083902E2A124C7FEC75F012A4FCA8F07560
:10351300F012EDA428FD79FF7A547B0A1219AC024C
:10352300401E74F7120643E9FEEAFF7A007B007837
:103533000079008028E8FCE9FDEC75F012A4FC8515
:10354300F00875F012EDA425081239C1C39E400A94
:10355300E0FCEFC39C4003123AE01235AC1239B5DC
:1035630040D30241AAC082C083780079008003124D
:1035730035AC1235A0501F1239C5F470F2E875F05E
:1035830012A4F8AAF075F012E9A42AF9745428FADF
:10359300740A39FB80047A007B0002401E902E2AB5
:1035A300123A76C3E89AE99B22E8240108E9340039
:1035B300F92274F012064374F3120C498A0A8B0B36
:1035C3008C0C8D0D8908EC450D6016AA0CAB0D1201
:1035D3000F088A0E8B0FAE0EAF0FEE4F600302364D
:1035E30073120EDE8A0E8B0FA80EA90FE8FEE9FFF9
:1035F300E849607C902E381236D560227403650842
:1036030060067404650870167A047903120ED89064
:103613002E381236EC40077A007B000236D2902E09
:10362300361236D5601B740165086006740265089E
:10363300700F7A027901120ED8902E361236EC50A2
:10364300D68518828519837401F0120E77125C6592
:10365300AC0CAD0D7403120E7712377A740B120E85
:103663007712403812462DE4125C4D1213B88004D1
:10367300EE4F604A780074FF2508C3940450027823
:10368300048E828F83125C658E828F83A3A3A3A390
:10369300E508F0E88E828F83A3A3A3A3A3125C6D36
:1036A300120463123A8D8E828F83A3A3A3A3A3A3D1
:1036B300A3F0123A84120E4C1261E5120E40123638
:1036C300DA4005900FB0E4F0121292EEFAEFFB022B
:1036D3004C33125D8749227A047900120ED8902E5A
:1036E3002A1268A1EA98EB992212370575832E7581
:1036F300822AE493C398F8A3E49399F9C3EA98EB75
:103703009922E493F8740193F92274F21206437434
:10371300F3120C498A088B09ECFEEDFF750A00EEE3
:10372300FAEFFB120F088A0C8B0DA80CA90DE849C0
:10373300603E88828983E065087004A3E0650960C0
:103743002F88828983A3A3A3A3E0C39405502112E6
:1037530060938518828519837401F0120E771260C5
:1037630097EEFCEFFD7403120E7712377A750A0198
:10377300A90A740D025731123781120EC622AA828A
:10378300AB83120E90851882851983AA82AB83229C
:1037930074F61206431237CF600FA3A3A3A3E0145A
:1037A300C39404500479018002790002425674F6EE
:1037B3001206431237CF600FA3A3A3A3E014C3944D
:1037C300025004790180027900024256120F028AE4
:1037D300828B83E58245832274F61206431237CF28
:1037E300600BA3A3A3A3E070047901800279000214
:1037F3004256C082C083EAFCEBFD7A007B000240A4
:103803001BC082C0837C007D0002401B74F412063F
:103813004374F3120C49EAFEEBFF8C0A8D0BC3ECE5
:1038230094F8ED94FF4007EE4F70030238C8750813
:1038330000750900802E8518828519837401F012A2
:103843003C33120E77123C4160137403120E77ACB3
:1038530082AD83EEFAEFFB122300E97049E50824F9
:1038630001123A61902E2AE4125D8FE50898E5096A
:10387300995052E50875F012A4F8AAF075F012E514
:1038830009A42AF91268D460D4EE4F70A974FF65B5
:103893000A700474FF650B60C4123C23650A70044C
:1038A300A3E0650B70B7E50875F012A4F508A8F05E
:1038B30075F012E509A428F50974542508FA740A69
:1038C3003509FB80047A007B000243F274F412068C
:1038D3004374F3120C49750800120F088A0A8B0B04
:1038E300AE0AAF0BEE4F602A8518828519837401E7
:1038F3001241AFF8A3E0F9740B120E771242D01203
:103903000EA87C127D0079FFEEFAEFFB1219AC755D
:1039130008011236DA5009900FB07401F0121292B6
:10392300A9080243F274F7120643E9FE74FE6A70B3
:103933000374FF6B78007900700580521235AC1266
:1039430039B5504AE8FCE9FDEC75F012A4FCAFF080
:1039530075F012EDA42F1239C1F460E0E8FCE9FD23
:10396300EC75F012A4FC75F012EDA42FFD74542C29
:10397300F582740A3DF583E06A7003A3E06B70BCC3
:1039830080091239C514C3940440171235AC12359B
:10399300A05018EE70EC1239C564016005E06403B1
:1039A30070E9123C14FAA3E0FB80047AFE7BFF0269
:1039B30041AA902E2A124C83C3E89CE99D22123B14
:1039C3001522E8FAE9FBEA75F012A4FAACF075F0F7
:1039D30012EBA42CFB74582AF582740A3BF583E09E
:1039E30022120F1A02401EC082C083790180F27432
:1039F300F01206438A0A8B0B7A047901120ED88AD5
:103A03000C8B0DEA450D603EEAC333FAEB33FB1230
:103A13001A6C8A088B09AE08AF09EE4F60237AFE51
:103A23007BFF120F2074FE6A700374FF6B601B85AB
:103A330008828509831241BAE5082402123A61809B
:103A4300E1750C0080047E007F00850A82850B836C
:103A5300E50CF0EEFAEFFB024C38E5082407F50815
:103A6300E5093400F50922902E2A124C83C3EA9CFF
:103A7300EB9D22E493FA740193FB221219A07403C1
:103A8300221261F6E4F09081C322E88E828F83A331
:103A9300A3A3A3A3A3A3A3123AAF7401123AAFA3A0
:103AA300F0EE24101261F9E4F0A3F022124639A3D8
:103AB300A3A322C082C0837A007B00800419123A38
:103AC300E0123A6A5010123AFFC3940550F0E970BD
:103AD300EC123AE980047A007B0002401EEA2401DA
:103AE3000AEB3400FB22EA75F012A4FA75F012EB2C
:103AF300A428FB74542AFA740A3BFB22EAFCEBFD6C
:103B0300EC75F012A4FCA8F075F012EDA428123B9A
:103B13001522FD74582CF582740A3DF583E0227456
:103B2300F712064374F3120C497E007F00023BC771
:103B3300E50875F017A4F8A9F0126B35FAA3E0FBBA
:103B4300EEF8EFF9E875F012A4F8ACF075F012E9AD
:103B5300A42C123C226A7003A3E06B603FE5087556
:103B6300F017A4F8AAF0EA126B34F8A3E0F9740191
:103B7300120E77E0687003A3E0696020E50875F032
:103B830017A4F8EAF974D028FC740B39FD740312F6
:103B93000E77AA82AB83122300E96014E50875F05F
:103BA30017A4F8A9F074CE28FA740B39FB1213C4C6
:103BB3000508902E3CE493F8E508C3985003023BB4
:103BC30033123C0B902E2A126E7B5039EEF8EFF92C
:103BD300123C14F47003A3E0F460E685188285199F
:103BE300837401F0EEF8EFF9E875F012A4F875F0BC
:103BF30012E9A42AF9123C33120E77123C4160C138
:103C030075080080AD0241A5EE24010EEF3400FFDC
:103C130022E875F012A4F8AAF075F012E9A42AF9C3
:103C2300123C2722745428F582740A39F583E02262
:103C3300745628F582740A39124C27740B22E8F063
:103C4300A3E91242D8120EC0E922C082C0839003B6
:103C53003D7484F0A37411F090033F747EF0A37459
:103C630011F0900343749EF0A3740FF002401E748E
:103C7300F7120643EAFEEBFF900377E06408601B4C
:103C8300E0640460168E828F83E0540364017048FD
:103C930012402B12472EE06406703D8E828F83A361
:103CA300A3E064FE7003A3E0F4602D8E828F83A3F0
:103CB300A3124241900368E0687003A3E069700BAC
:103CC300EE2415F582EF1268BB6008121232E9F593
:103CD30008800812123880F67508C2EEFAEFFB125C
:103CE3001A7202317674F41206438A088B098A82A7
:103CF3008B83E0F8A3E0FAE82AFAE43400FB121A13
:103D03006C8A0A8B0BAE0AAF0BEE4F606385088299
:103D1300850983E0FC7D0079001219AC8E828F83C4
:103D2300A3A31271F01212748E828F83A3A3A3A391
:103D33001241BA850882850983E0F8EE28F8EF344A
:103D430000124249850882850983A3E0C0E0EE247E
:103D53000D1261E8D0E0F0121286EE240E1261E833
:103D6300E912589AE0C0E0EE24111261E8D0E0F0C5
:103D7300EEFAEFFB0243F774F412064374EB120CF2
:103D8300498A088B098C0A8D0BE9FE900377E0645E
:103D9300046005E06408700479C2802EA3780812D9
:103DA3000DE8EE90037E124025120DE87405120E05
:103DB30077E9F07404120E777401F07407120E772A
:103DC300E4F09003777402123FB974150243F4745C
:103DD300F612064374EB120C49EAFEEBFF1254BCD5
:103DE3006003023E767A077B00121A6C9003391245
:103DF30041BA1254BC60788E828F83120E4C9003AA
:103E03003A124731120E401270B4C0E0123E82D013
:103E1300E0F0EE2405FAEF3400FB8A088B098A826E
:103E2300F583E0C0E0123E7DD0E01243EEE0C0E057
:103E3300123E7DA3D0E012422E120E4C85188285CD
:103E43001983120E4088828983E0C0E07405120E44
:103E530077D0E0F0850882850983E0C0E07404121E
:103E63000E77D0E0F07407120E77123FB880067910
:103E730010800279017415024253123E82A32290EC
:103E83000339E0FAA3E0F5838A82A3A3A3A322C0A4
:103E930082C0831254BC600D900339125DC6900337
:103EA30039E4F0A3F01211A212136402401E74F05D
:103EB30012064374EB120C49ECFEEDFF89087425DE
:103EC300120E77780C120E157429120E77E0F9741E
:103ED3002A120E77E0FC742B120E77E0FD740F6943
:103EE3007005740F6C601290101EE0640270057907
:103EF300C1023FB3E9C39C40F6900378780C120DDE
:103F0300E8E50890037EF0E990037CF0ECA3F0ED84
:103F130090037FF074FF6A700374FF6B701D901041
:103F230029E0F47003A3E0F470051219C4800C9027
:103F33001029124182E8F0A3E98007900375EAF0A3
:103F4300A3EBF0EE4F6017EEFAEFFB121424E964D3
:103F530001700BEEFCEFFD7A897B031223069003BD
:103F630068E4F0A3F090036BF0A3F0900388F09063
:103F7300101EE06402700890037C740FF0A3F090AD
:103F830003777405F014120E77E4F0900378120EA1
:103F93004C851882851983120E4090037EE0C0E0A1
:103FA3007405120E77D0E0F07407120E77123FB843
:103FB3007415024C35E41242D812233622C082C053
:103FC30083900338E07003121D5A120F68804CC0AF
:103FD30082C083900338E0900FAF7004E4F0802D2B
:103FE3007401F0900338E0F460237C41E0C3944112
:103FF3005002E0FCECF8E0C398F0EC75F0E8A4CCD8
:10400300A8F075F003A428FD7A80124C8B7AAF7B5D
:104013000F794112231E8003120F0ED083D0820228
:104023000B67124239780822EE1261F722E0F50895
:10403300A3E0F5092212403C221233B6A32274F501
:1040430012064374E2120C49851882851983ECF039
:10405300A3EDF0EAFEEBFF89087429120E77E0F571
:1040630009742C120E77E0F50A900377E06404607C
:1040730005E06408700579C2024173742A120E7751
:10408300E064FE7003A3E0F4700579C3024173900A
:10409300037774031242D4795012231E742A120E2A
:1040A30077AA82AB83794B12231E851882851983E5
:1040B30012418212424DE50890036AF0742A120EEF
:1040C3007712417B12424DE50990036212418974D4
:1040D300CE55094480C0E07412120E77D0E0F0741C
:1040E30001250A900388F0740F120E777402F0749E
:1040F3002A120E771242417407120E77E8F0A3E9F1
:104103001241C07410120E7712424D7405120E77CD
:10411300E508F0741B120E77E4F090037D740FF042
:104123007A7D7B03795412231E90037C740FF07AFB
:104133007C7B03794712231E90037CE0C3940F50CA
:10414300237405120E77E0C0E07402120E77D0E0FC
:10415300F07404120E777401F004120E77AA82AB86
:10416300831223427405120E77AA82AB831223248F
:10417300741E120BCF02303D124C2990036B221296
:104183004C2990037522F0EEFCEFFD7A897B031234
:1041930023062274F7120643EB90037FF01211906B
:1041A3008005740D120BCF7F010208B91241B5A32C
:1041B300E02212422EA322EAF0A3EBF022124234B1
:1041C300F8A3E0F92274F712064374F8120C49EAD3
:1041D300FEEBFF7900900377E06408704485188252
:1041E30085198374FDF0A374FFF012126E7402122A
:1041F3000E771241BA7405120E77E41241B5E0C08E
:10420300E07404120E77D0E0124229C0E074061263
:104213000E77D0E0F07407120E77E41242D4121234
:10422300B074080241A712422EE022F08E828F83DF
:1042330022124239E022F085188285198322124C1A
:104243002922E0F8A3E0F91261F6E8F0A3E9F022ED
:10425300120BCF7F020208B9C082C0839003497456
:104263002EF0A37410F09003EF740AF0A37413F00C
:1042730090034D7464F0A37410F090034F742EF008
:10428300A37410F0900351746AF0A37410F0024009
:104293001E74F412064374F9120C498A088B098CB4
:1042A3000A8D0B8518828519837808120DE874042A
:1042B300120E77E9F07405120E77E4F07406120E0D
:1042C30077E41242D4120F5074070243F4E8F0A3C8
:1042D300E91242D822124239AA82AB832274F41221
:1042E30006438A088B098A828B83126204EE4F701D
:1042F300030243EC9003121254BF60158A828B832E
:10430300A3A3E0F9EEFAEFFB900313124731122552
:10431300338E828F83A3A3A3A3A3A3A3A3A3E06446
:104323000270748E828F83A3A3A3A3A3A3E054027A
:1043330070030243BE850882850983A3A3E064E971
:1043430060798E828F83A3A3A3A3A3A3A3A3A3A311
:10435300E07014901021E0048E828F83A3A3A3A3A3
:10436300A3A3A3A3A3A3F08E828F83A3A3A3A3A337
:10437300A3A3A3A3A3E0141243EEA3A3A37404F083
:10438300901022125C3FE8F0A3E9126D188B0BEA40
:10439300450B70031266F68E828F83A3A3A3A3A398
:1043A300A3A3A3A3E0640260128E828F83A3A3A3BB
:1043B300A3A3A3A3A3A3E06406702E8E828F83A37B
:1043C300A3A3A3A3A3E0A2E0501F850882850983CA
:1043D300A3A3E0F9EEFAEFFB1224148E828F83A3DA
:1043E300A3A3A3A3A3E054FEF080091246352274CD
:1043F3000D120BCF7F040208B974EC12064374DD6F
:10440300120C49EAFEEBFF8C088D097437120E7704
:10441300780C120E15750A007405120E77AC82AD76
:10442300831224867412120E77E070087415120E2C
:1044330077E060207405120E77E0A2E6501E8E82AC
:104443008F83A3A3A3A3A3A3A3A3A31259391212D4
:10445300E6E9600879031222EE02461B7405120E88
:1044630077E0540C64047005750B018003750B0031
:10447300E0A2E55035750A01E50BA2E0402C1212CB
:10448300748A108B11A810A91112402BE0687003D5
:10449300A3E06960157405120E771271F71259358E
:1044A300122420E96004790480AC7405120E77E0CD
:1044B300A2E650227406120E77E0540370187405B6
:1044C300120E77E0540C640C600CE0540C6408602A
:1044D3000575100180037510007405120E77E05402
:1044E30003F8740268700C1271F712593512245CC8
:1044F30002461B740168703AE510A2E050031246AD
:10450300237405120E77A882A9837403120E77E829
:10451300F0A3E9124C1D85188285198312462DE0FC
:10452300C0E07402120E77D0E01242D412250402C6
:10453300461BE8600302461B90035FE064017010B2
:104543008E828F83A3A3A3A3A3A3E070030244A932
:104553007422120E777402124C1D741A120E771203
:10456300424DE510A2E050087405120E771246235F
:10457300E50BA2E0506AEE240FF582EF1268BBC090
:10458300E07417120E77D0E0F09003141254BF704A
:104593000302461B1212748A128B13A812A91374F6
:1045A3001A120E77E0687003A3E069706B780C123F
:1045B3000B7F780A120B8B7808120B87A910740CE7
:1045C300120E77AC82AD837421120E77AA82AB836D
:1045D30090031412472E1225337407120BCF803821
:1045E300780C120B7F780A120B8B7808120B8790CA
:1045F30003751209EFEE2412F582EF1265E97423B5
:10460300120E77AC82AD83740E120E77AA82AB833F
:104613001224087409120BCF7423120BCF026CE31C
:104623001271F7125DD412246822E8F0A3E912464E
:10463300352212463922F08E828F83A3A3A3A3A32C
:10464300A32274F7120643121C2E0241AA74F71216
:104653000643121C340241AA74F7120643121C408B
:104663000241AAC082C083121C3A02401E74F71290
:104673000643121C460241AA74F712064374091238
:104683000E77E0F5087808120B8B121C52740102A6
:1046930041A7C082C083121C5E02401EC082C08339
:1046A300121C6402401E74F7120643121C6A024174
:1046B300AA74F7120643EAFEEBFF89087401650842
:1046C300701479001210A6902E47E493FC7900EE43
:1046D300FAEFFB12101C0241AA74F412064374F998
:1046E300120C49E9FE8A088B098C0A8D0B7413128C
:1046F3000E771259399005BD1254BF6027EE851805
:1047030082851983F07401120E777808120DE8EA96
:10471300F8EBF97405120E771242D09005BD1247DB
:104723002E1225330242CBFB90034BE0F8A3E0F5B6
:1047330083888222C082C083121CA002401E74F7A9
:10474300120643900FB2E0F97E00800B1268A75463
:104753000D64017001190E12493B5003E970ED021B
:1047630041AA74F7120643900FB3E0F97E00800B61
:104773001268A7548D64817001190E12493B5003CE
:10478300E970ED0241AA74F2120643890BE975F050
:1047930006A4240CF508E5F0123A658A0CE5082511
:1047A3000CFAE5093400FB121A6C8A0C8B0DAE0C63
:1047B300AF0DEE4F6027AC08AD0979001219AC12AA
:1047C300402BE50BF0EE2508F8EF3509F98E828FC3
:1047D30083A3A3A3A3A3A3A3A3A312424DEEFAEF20
:1047E300FB02573474F6120643EAFEEBFF120FF88E
:1047F300900FB1E0F8E9C398400990034512593985
:10480300120FFEEE2402F8EF125F49900347125E87
:1048130003900347E004F0EEFAEFFB12100485085F
:1048230082850983E00263FFC082C083790090031D
:10483300458001091259398A828B83E58245837049
:10484300F202401E74F7120643EAFEEBFFEE4F60DE
:10485300569003451254BF604E888289837A007B49
:1048630000EE65827003EF6583600FAA82AB83124B
:1048730048ADE5824583602F80E79003451248B930
:10488300687002EF698E828F837008124241900331
:10489300458003126CF512424DEEFAEFFB1224D45D
:1048A300EEFAEFFB121A720241AA1248B122124C1D
:1048B3002D8882898322124C29EE22C082C08390E4
:1048C30003458004888289831254BF600B888289E0
:1048D30083124F71EC4D70EC8A828B83E4F0A3F06A
:1048E300E84960068882898380039003451241BAB0
:1048F30002401E74F712064390034580048A828B9C
:10490300831249364B60257E0080010E12493B50CD
:10491300ECEE75F006A4FCADF0EA2CFCEB3DFDECEF
:104923002410F582ED12498B70E180047A007B003C
:104933000241AA125DD8EA22124994EEC398227466
:10494300F71206437D0080010D124990EDC3985084
:1049530034ED75F006A4FEA8F0E8FFEA2EFEEB3F67
:10496300FFEE2410F582EF12498B70DCED75F00633
:10497300A4FEE8FFEA2EFAEB3FFBEA2411F582EBF3
:104983001268BB4CF00241AA1268C769221249940B
:1049930022127201EB3400F583E0F82274F612065A
:1049A3004312111E7A007B008025EAF8EBF9E875C3
:1049B300F006A4F8ACF075F006E9A42C125DAD1274
:1049C30070C2A3E4125EA3F0A31270C812723F90E8
:1049D3002E321236E440D37A007B00801C8A088B87
:1049E3000974037808120D02125861A374FEF0A330
:1049F30004125C83A3E412723F902E3B124A3E40A2
:104A0300DC7A007B00801D8A088B09740378081206
:104A13000D0274F6126533740E126D7A74FEF0A3F0
:104A23000412723F902E41124A3E40DB902E45E421
:104A330093900353F0124A48024256E493F8C3EAB0
:104A430098EB9400227CE87D037A107B009003C2EC
:104A5300E0F9121B322274F012064374F5120C496A
:104A63008A088B09890A8C0BE9A2E050147508FCAB
:104A73007509FFA2E15005D2E4024B1BD2E3024BBE
:104A83001B1257207003A3E06970057900024BE8FD
:104A9300AC0A7902AA08AB091210FAE960EDE50A3B
:104AA300F50C780C120B8B79027CFE7DFFAA08AB08
:104AB3000912549B120BCFE96003024BE6E50AC2CD
:104AC300E5F50A9003B5E07051E50AA2E6404B74A0
:104AD30003120E77AC82AD83AA08AB09120E9CE9D0
:104AE3007032124DBC8A0C8B0DA80CA90DE8FEE99F
:104AF300FFE8496025EE24020A0AEF1233F4601A34
:104B0300EE2402FCEF3400FD7403120E77AA82AB8D
:104B130083122306E50AD2E5F50A900348E0F50C73
:104B2300900368E0F50EA3E0F50F780E120B877D76
:104B3300017C00900348E0F9AA0EAB0F1210B27487
:104B430002120BCFE9F8900348E004F0E860030297
:104B53004BE6E50AA2E55004740E80027406C0E039
:104B63007401120E77D0E01262158A0E8B0FAE0E0F
:104B7300AF0FEE4F6069124C06124C1D8882898379
:104B83007401F07478550AA3127207E50C127207C8
:104B9300A3E508F0E509124BF5E4F0E50AA2E550B8
:104BA3000F7403120E77AC82AD83E82406124BEC2C
:104BB3008E828F83A3A374FDF0A374FFF0E50B60D3
:104BC30015902E48E493F8E50BC3985009EE24138F
:104BD3001261E8E50BF0EEFAEFFB120F3E80067967
:104BE30010800279C7740B8049FAE93400FB122361
:104BF300062288828983A3A3A3A3124C0122125FF6
:104C03007CA322EE24171261F97401F012126EEEE6
:104C1300241A1261F9EAF0A3EB22F01271FB3400BB
:104C2300124C2722F583124C2D22E0F8A3E0F9223F
:104C3300740D120BCF7F080208B974F61206437A7B
:104C4300007B1012670360089003D47401F080297D
:104C530090065EE0640190101F7006E0FC7901800D
:104C630004E0FC79037A007B0012101C902E3012B2
:104C73004C7F7A007B10124C8D024256124C8322D9
:104C8300E493FC740193FD227B009003C2E0F912CC
:104C93001B2C2274EC1206438A088B098C0C8D0D95
:104CA300890E7414120E7712567A7416120E77E068
:104CB300F510A3E0F5111212E6E960077AFF7BFF16
:104CC300024DB990101EE064026003024DAC7900FE
:104CD300AA08AB09121100A90E1210F48A128B1341
:104CE300AE12AF13EE4F7003024D948E828F83A3E7
:104CF300A3A3A3A3E064018E828F83A3A37069128D
:104D030059398E828F83A3A3A3A3A3A3E05418606E
:104D130043902E46E4938E828F83A3A3A3A3F0EA4A
:104D2300650C7003EB650D6014EA650A7003EB65AF
:104D33000B600AEA65107003EB6511701F7810129F
:104D43000B87AC0AAD0BAA0CAB0D1213E274021263
:104D53000BCF80089003671266EDA3F074FE6A70B0
:104D63000374FF6B601D804EA3A3A3E0640360295B
:104D73008E828F83A3A3A3A3A3E0640470057AFEAA
:104D8300024CC18E828F83A3A3A3A3A3E06402700A
:104D9300089003B4E064027010124DBC8B0BEA451B
:104DA3000B6006AA08AB09800DAA08AB099003495A
:104DB30012472E122533026CE39003751254A1128D
:104DC30013A62274F7120643EAFEEBFF120EF0E974
:104DD300700AEEFAEFFB120EFCE96006EEFAEFFB47
:104DE30080047AFE7BFF0241AA74F01206438A0A0A
:104DF3008B0B8C0E8D0F89097508001212E6E97969
:104E0300006003024F63AA0AAB0B121100A9091237
:104E130010F48A0C8B0DAE0CAF0DEE4F60198E8221
:104E23008F83A3A3A3A3A3E0640270559003B4E00C
:104E330064027003024F61AA0AAB0B90034F12473F
:104E43002E122533120F028A0C8B0DA80CA90DE824
:104E5300497003024F6188828983A3A3A3A3A3E0BC
:104E6300A2E04003024F61750C01A2E15068790191
:104E7300AC0AAD0BAA0EAB0F12104CE97064024FD3
:104E8300618E828F83A3A3A3A3A3E064037005753C
:104E93000C0280528E828F83A3A3A3A3A3E0640199
:104EA3006003024F61900375124F718E828F8312DC
:104EB30052C68A0C8B0DA80CA90DE84960D1902E1F
:104EC3003FE493FA88828983E0C39A50C2A3E060E7
:104ED30003024F6180B988828983A3A3A3A3A3D2CA
:104EE300E1F0EE4F603A8E828F83A3A3A3A3A3A323
:104EF300E05418602B7508018E828F83A3A31209D7
:104F0300EF750CFE750DFF780C120B877900AC0A58
:104F1300AD0BAA0EAB0F1211127404120BCF803E0D
:104F2300900368E0650E7004A3E0650F7014902E83
:104F330047E493FCA909AA0AAB0B12101C750801DC
:104F4300801CA90CAC0AAD0BAA0EAB0F12104CE9D6
:104F5300700C750801A909AA0AAB0B1210A6A908BF
:104F6300024C38E50C2415F582E50D1261FC125C48
:104F7300592274EA12064374F0120C498A0C8B0D01
:104F83008C088D097426120E77E0F514A3E0F5154D
:104F93007512069003F51254BF6023900375124FE8
:104FA30071AA08AB091213D08A108B11EA4511605C
:104FB3000D8A828B83A3E0700579000252AEE50C63
:104FC300241DF50EE50D3400F50F850E821254AB4A
:104FD300F51388828983A3A3A3E0FA88828983A334
:104FE300A3A3A3E0F9EA2400FEE439FFAA08AB096E
:104FF3001210AC850E82850F831252E9E029F50B5E
:10500300E50AA2E5500375120E7487550A701774EA
:1050130018550A6418600FE50C2417F582E50D1284
:1050230068BB6512600779011222EE808C530A78FF
:10503300C3EE94F8EF94FF501D7900EEFAEFFB12E4
:1050430052B8601288828983A3A3A3A3A3A3E054C5
:10505300186003024FBC7808120B877D001252DCE4
:10506300120BCFE9F87403687003024FBCE86003C6
:105073000251277418550A70030251DCE50AD2E085
:10508300F50AA2E45004D2E1F50AA90A1259321230
:1050930052B8605388828983A3A3A3A3A3A3E05434
:1050A30018604488828983A3A3A3A3A3E064017047
:1050B30036E51045116030900375124F718882896F
:1050C300831252C68A0E8B0FA80EA90FE8496017E8
:1050D30088828983A3E0600F851082851183A312E0
:1050E300640A5003024FBCE50AF50E780E120B8BCF
:1050F3001252CF120BCFE9702B7C007D00851482F6
:1051030085158374FFF0A3F0850C82850D83A3A31B
:10511300A3A3A3A3A3A3E06003124F66A90B125991
:1051230032121C58851482851583E0F47003A3E0C2
:10513300F460399003B4E064027003024FBC12566A
:105143006BE0FAA3E012472A122533EA65087003DD
:10515300EB65096003024FBCEEFAEF12472A1225F2
:1051630033851482851583EAF0A3EBF07808120BDC
:10517300877D011252DC120BCFA90AEEFAEFFB1264
:1051830011008A088B09A808A909900368E06870D0
:1051930003A3E069600302529FEEFAEFFB120F02D2
:1051A3008A088B09A808A909E849606E888289835F
:1051B300A3A3A3A3E06401600D88828983A3A3A3AF
:1051C300A3E064027054851882851983AC82AD8391
:1051D300EEFAEFFB120E9C8055900361E0600FE541
:1051E3000AF50E780E120B8B1252CF120BCFE50A73
:1051F300F50E780E120B8B79027CFE7DFFEEFAEF33
:10520300FB12549B120BCFE96003025127851482D2
:1052130085158374FFF0A302516E12126EEAFCEB44
:10522300FD851882851983AA82AB83122306850C18
:1052330082850D83A3A3A3A3A3A3A3A3E064017007
:105243000F124F667408120E77AA82AB83122306DD
:105253001254751260814430F5087808120B8B7470
:1052630001120E778582088583097808120B8774EB
:105273000B120E778582088583097808120B87E560
:1052830013F5087808120B8B7900EEFCEFFD125929
:10529300321210467406120BCF024FBC1254751211
:1052A30061EB1252E9E50BF01212867410120BCF68
:1052B3007F0E0208B91210F48A0E8B0FA80EA90FE5
:1052C300E84922A3A3125DD81213D0227901AC08B6
:1052D300AD09125DCD12549B22AC0BA913125DCD07
:1052E3001210B2740222126089A3A3A3A32274F042
:1052F30012064374F0120C498A0C8B0DECFAEDFB89
:10530300750F089003F51254BF60141264038A8268
:105313008B83E58245836007A3E070030254701218
:10532300547534001254ABF50B8882898312547E72
:10533300E0FBEC2400FEE43BFF88828983A3A312F5
:10534300547EA3A3E0FBECF508E43BF509888289CE
:1053530083A3A3A3A3A3A3A3E0F50EE50AA2E450AA
:1053630003750F10A2E550067408250FF50F748F0F
:10537300550A700FE50C2417F582E50D1268BB651D
:105383000F600879011222EE025470530A707800FC
:10539300E50AA2E450221254751268BB2408FCA348
:1053A300E03400FD7408120E77AA82AB8312230641
:1053B3007808E50AC2E4F50AE50AA2E55028125482
:1053C300751268BB28F8A3E03400F9E82408FCE967
:1053D3003400FD851882851983AA82AB83122306C4
:1053E300E50AC2E5F50AAC0EA90BEEFAEFFB1210C3
:1053F300B8E9F87403686075900368E06E7003A3FE
:10540300E06F605EE87054E50AF50F780F120B8BBE
:1054130012548C120BCFE97054780A120B8B74015F
:10542300120E7785820C85830D780C120B87740B13
:10543300120E7785820C85830D780C120B87E50B92
:10544300F50A780A120B8BA90EAC08AD09EEFAEF38
:10545300FB1210467406120BCF8012740468700D91
:1054630080B7780A120B8B12548C120BCF74100274
:105473004C35E50C241DF582E50D22A3A3A3E0FC26
:1054830088828983A3A3A3A322790112567212618E
:10549300FC1254A112549B22121070740122E0FCDE
:1054A300A3E0FDAA08AB0922F5831248B1A3E0F5F6
:1054B3000A88828983A3A3E022900339125E3422EF
:1054C30074E812064374F5120C49EAFEEBFF8C08EC
:1054D3008D0989147423120E77E0F50F7424120ECC
:1054E30077E0F512A3E0F5137426120E77E0F516B4
:1054F300A3E0F5177428120E77E0F50EA90F12102A
:10550300BE8A108B117401120E777408F0E50EA297
:10551300E450037410F0E50EA2E55004E02408F013
:10552300851882851983AA82AB831212CE8A0C8BCB
:105533000DEA450D7003025652EA2417F582EB1269
:10554300566412126EE50C241AF582E50D1261EB16
:105553001241BA7403120E77AC82AD83AA10AB1159
:10556300120E9CE9601D12565C7403120E77A8821A
:10557300A983E50C2418F582E50D1261EBE8F0A38D
:10558300E98024E50EA2E4501FE5106E7003E511D7
:105593006F701512565CE50C2418F582E50D126147
:1055A300EBE512F0A3E513F012566B12567A850A57
:1055B30082F5837402F0A3E50E125682E50FF0EE36
:1055C300850A82850B83A3A3A3F0EF850A82850B4B
:1055D30083A3A3A3A3125682A3A3A3E508F0E5091B
:1055E300850A82850B83A3A3A3A3A3A3F0AA10AB6D
:1055F300111210ACE92514850A82850B83A3A3A39A
:10560300A3A3A3A3F0750800E50EA2E45011AC1206
:10561300AD13E50A2408FAE50B124BEE750808E50D
:105623000EA2E55014AC16AD17E50A2508F8E50BF4
:105633003400F9E82408124BEC850C82850D83A312
:10564300A3E510F0A3E511F0AA0CAB0D120F3E7405
:105653000B120BCF7F100208B9E50C2416F582E577
:105663000D1261FC7401F0221256721261FC22E5E4
:105673000C127202E50D22E0F50AA3E0F50B22F00D
:10568300850A82850B83A3A32274F21206438A0838
:105693008B09ECFEEDFF890A79001257207003A3F2
:1056A300E069700479018073750B01900368E0650C
:1056B300087004A3E06509601F750B00780B120BDB
:1056C3008BA90AEEFCEFFDAA08AB091213227401A1
:1056D300120BCFE9F50B80417900EEFAEFFB1210C4
:1056E300F4EA4B602B8A828B83A3A3A3A3A3A3E037
:1056F3005418601C7508FE7509FF7808120B878A19
:10570300828B83A3A31209EF127017120BCF8009A8
:105713007901EEFAEFFB120FCEA90B8014121100E0
:105723008A0C8B0DA80CA90D900368E06822120B5C
:10573300CF7F060208B974F412064375083E750953
:105743000D7A10126D1F8B0BEA450B7003124A483A
:10575300900353E014F0700C902E45E493900353A0
:10576300F012110C7E007F00806C8508828509830E
:10577300A3A3A3A3E06059F46056E5082404F582CB
:10578300E5091266E77049850882850983A3A3A307
:10579300A3A3E06403701979028508828509831243
:1057A3004F71850882850983A3A312593912104CBE
:1057B300850882850983A3A3A3A3A3E064016010E2
:1057C30085088285098374FEF0A304125893E4F0DC
:1057D300123C0B123A5D902E34126E7B408C7E008D
:1057E3007F0080391212148E088F0974037808120F
:1057F3000D0274B62508FC740E3509FD7A587B102A
:10580300121202EA4B70DD8E088F097403780812B6
:105813000D021258611270C2E4F0123C0B902E3B41
:10582300E493F8C3EE98EF9400501B8E088F09742D
:10583300037808120D02125869E82407F582E91269
:1058430066E770D680A17E007F00800A12587460DC
:105853000214F0123C0B126E7840F10243F7125817
:1058630069888289832274B62508F8740E3509F98C
:1058730022EEF8EFF9E875F006A4F8AAF075F00641
:10588300E9A42AF9745628F582740E39F583E022C7
:1058930012589AA3A3A322F0850882850983A3A3A0
:1058A3002274F712064374E1120C49ECFEEDFF7506
:1058B3000800EE4F60728A828B83E0241C12671803
:1058C3001254BF60638A828B83125939851882858B
:1058D3001983AC82AD83EA241BF582EB1265E9EAF6
:1058E300241CF582EB125935121256740B120E77E3
:1058F30012593D7003A3E069702E7402120E77E013
:1059030064017024741D120E7712472EE064017037
:1059130017741D120E77124730A3A3E0F88E828FFF
:1059230083E0687003750801A908741F0241A71278
:1059330056723400F583125DD8221233B2E0682226
:1059430074F4120643E97024790090034D12472E34
:105953001225338A0A8B0BAE0AAF0B74FE6E7003EB
:1059630074FF6F701A902E42E493601379019003D1
:105973004D12472E1225338A0A8B0BAE0AAF0B1238
:105983001292023D7374F612064374F3120C491219
:1059930019C48A088B09AE08AF09900368E06E70DA
:1059A30003A3E06F60E912127AEA6E7002EB6F6094
:1059B300DEEEFAEFFB1212E6E970D4EE4F60D0850B
:1059C3001882851983E4F004120E77EEF0A3EF1228
:1059D30059EBE970BA74FE6E700374FF6F60B0EE3A
:1059E300FAEFFB740D0242531242D8120EB422C0D6
:1059F30082C08312129202401E7F0A0208B974F217
:105A0300120643EAFEEBFF8C0A8D0B8908740E1213
:105A13000E77E0F50974FC6E700374FF6F700579FF
:105A23000002573479001211008A0C8B0DAE0CAFB3
:105A33000D900368E06E7003A3E06F7006E509A2A2
:105A4300E650DCA909126F05706179007AFE7BFFCD
:105A5300126F057056741855097003025B3878008D
:105A6300790080031235AC902E341235A340030223
:105A73005B38E8FAE9FBEA75F007A4FAACF075F0D5
:105A830007EBA42CFB74442AF582740D3BF583E0E9
:105A9300541870D0E875F007A4F8AAF075F007E978
:105AA300A42AF9743E28F8740D39F988828983A3EE
:105AB300A3A3A3A3A3E054186009741855097003A2
:105AC300025A2288828983EEF0A3EFF074FE650AFE
:105AD300700474FF650B6003125C5F88828983A383
:105AE300A3A3A3A3A3E509F0A2E0500D88828983B1
:105AF300A3A3A3A3A3A3D2E2F074016508888289B8
:105B030083A3A3A3A3A370387401125C83E0541886
:105B13006028902E46E49388828983A3A3A3A312CB
