:10000000020BDF8F99D2002000FD220200265389C7
:10001000F0438901758C4CE4F58AD28CD2A9D2AF19
:0100200022BD
:10002300020350C0E0C0F0C083C082C0D075D000CE
:10003300C000C001C002C003C004C005C006C007A1
:10004300C2AF758C4C758A00E47F307E75FDFC90E1
:100053000078E0F8A3E0F9A3E0FAA3E0FBC31209F8
:1000630048900078501EE0FCA3E0FDA3E0FEA3E06F
:100073002401FFE43EFEE43DFDE43CFC90007812E5
:100083000959800712096500000000E47B28FAF98A
:10009300F8900078E0FCA3E0FDA3E0FEA3E0FF12EC
:1000A30008B6AC00AD01AE02AF03E4FBFAF9F8C346
:1000B300120948700590007E04F0E47B14FAF9F805
:1000C300900078E0FCA3E0FDA3E0FEA3E0FF1208AC
:1000D300B6AC00AD01AE02AF03E4FBFAF9F8C3120C
:1000E3000948700590007F04F0E47B0AFAF9F89060
:1000F3000078E0FCA3E0FDA3E0FEA3E0FF1208B656
:10010300AC00AD01AE02AF03E4FBFAF9F8C3120988
:1001130048700590007C04F0E47B28FAF9F890001D
:1001230078E0FCA3E0FDA3E0FEA3E0FF1208B6AC79
:1001330000AD01AE02AF03E4FBFAF9F8C3120948BC
:10014300700590007D04F0900000E0601890003688
:10015300E0D394004005E014F0800A900000E4F03E
:1001630090003404F0D2AFD007D006D005D004D02D
:1001730003D002D001D000D0D0D082D083D0F0D031
:10018300E032C2AF12074A30B70302026C30B7FD48
:100193007F28120798120639900073120631A312B2
:1001A3000631A3EFF07F19120798900074E0FF90D7
:1001B3000073E02FFFE433FE900075E07C002FFF17
:1001C300EC3EFEA3E02FFFEC3EFEA3E0B50724ECDC
:1001D300B50620900073E0900086F0900074E090E4
:1001E3000088F0900075E0900087F0900076E09032
:1001F3000089F0900087E075F00A842430120846E5
:10020300900087E075F00A84E5F024309000011235
:1002130008589000027443120858900003E412082F
:1002230058900086E075F00A842430FF900070E057
:10023300FBA3E0FAA3E0F9EF120846900086E0750D
:10024300F00A84E5F02430FF900070E0FBA3E0FAAD
:10025300A3E0F9900001EF120858900002742512F0
:100263000858900003E4120858D2AF2212078F9067
:10027300007EE06002E4F090007FE06002E4F09032
:10028300007CE06002E4F090007CE06005E4900014
:100293007DF0900059E06030900034E060157B0100
:1002A3007A00790112045B1206A2E4900034F09004
:1002B3000033F090005AE0FF900087E0D39F4004A2
:1002C300D29580ABC29580A7900034E060A17B01FA
:1002D3007A007901900033E0FD120604E4900034C3
:1002E300F0900033F08088120718E4FDFCFF12063B
:1002F3005BE4FEEE90079B93FF60061207720E808D
:10030300F2E4FDFC7F0112065BE4FEEE9007A1938D
:10031300FF60061207720E80F2E4FDFC7F021206F4
:100323005BE4FEEE9007A793FF60061207720E8050
:10033300F2E4FDFC7F0312065BE4FEEE9007AD934F
:10034300FF60061207720E80F275A0FF22C0E0C0A4
:1003530083C082C0D075D000C00730983DC298904A
:100363000034E0700590000004F0900033E0C39483
:1003730032501C9000367401F0900033E0FF04F01B
:1003830074012FF582E43400F583E599F0800B9036
:1003930000347401F0900033E4F0309904C299C240
:1003A30000D007D0D0D082D083D0E03241007E008D
:1003B30041007F0041007C0041007D00450045D3A2
:1003C300D0C8CB0045004ACEDEC8CB0045004FD491
:1003D300EBC9F900450054B0B2BEB20041003B0086
:1003E300410044004100590052005BEECC01000083
:1003F300000000006A00000000000000FF4100341C
:100403000000900080EBF0A3EAF0A3E9F07D047C08
:1004130000E4FF12065BE4FE900080E0FBA3E0FA39
:10042300A3E0F98E82758300120819FF6006120794
:10043300720E80E47F01120657E4FE900083E0FB16
:10044300A3E0FAA3E0F98E82758300120819FF6016
:10045300061207720E80E42212080064EE704C90BC
:10046300000112081964CC7042900011120819F4AB
:100473007039900009120819FFB42A149000101261
:100483000819900059F090000F12081990005AF0C3
:10049300EFB4801790000A12081924F0700D900031
:1004A300101208196003D29522C29522900070742D
:1004B30001F0A37400F0A3743CF07B017A0079404F
:1004C3001201859000837401F0A37400F0A3743CBF
:1004D300F07B017A007940120405E4900037F09034
:1004E3000087E0900038F0E4A3F0900086E09000ED
:1004F3003AF07B017A007937E4FD7F04020502902C
:100503000066EDF0120800900068F09000011208F8
:1005130019900069F090000212081990006AF09097
:10052300000312081990006BF0900065EFF07B0157
:100533007A00795B7D1202060430970D90003A74BD
:1005430001F0FB7A007945800BE490003AF07B01DF
:100553007A00794A1205D5E4900037F0A3F0A3F0AE
:100563007B017A007937FD7F0502050230960D90F5
:10057300003A7401F0FB7A00794F800BE490003A63
:10058300F07B017A0079541205A2E4900037F0A3BE
:10059300F0A3F07B017A007937FD7F060205029014
:1005A300008DEBF0A3EAF0A3E9F07D047C007F0368
:1005B30012065BE4FE90008DE0FBA3E0FAA3E0F9F2
:1005C3008E82758300120819FF60061207720E806F
:1005D300E42290008AEBF0A3EAF0A3E9F07F021291
:1005E3000657E4FE90008AE0FBA3E0FAA3E0F98E4D
:1005F30082758300120819FF60061207720E80E4E9
:1006030022900090EBF0A3EAF0A3E9F0E4FEEEC33E
:100613009D501A900090E0FBA3E0FAA3E0F98E82CC
:10062300758300120819FF1200030E80E122EFF018
:10063300120639A3EFF0E4FEFD30B7FD7F08120781
:1006430098EE25E0FE30B7010E20B7FD0DEDB4089E
:10065300E8AF06227D047C00EF14600E14600F14D3
:1006630060102403700E7F80800A7F9080067F884D
:1006730080027F98ED2FFF02076130950890003AC2
:100683007401F08005E490003AF0E4900037F0A3A1
:10069300F0A3F07B017A007937FD7F10020502E4B5
:1006A300FFFE74012FF58274003EF583E4F09000A1
:1006B30033F00FBF00010EEF64324E70E522D3EF2B
:1006C3009400EE940040147D727C00ED1D70011CBB
:1006D300ED4C70F7EF1F70E61E80E322D3EF94001A
:1006E300EE940040147D6E7C00ED1D70011CED4CFA
:1006F30070F7EF1F70E61E80E32275985053890F41
:10070300438920758DFA758BFA438780D2ACD28EDC
:10071300D29CD2AF22D2847F3012076112078A7F24
:100723000C12076112078A7F0112076102078AC24E
:1007330087D2860000D285E5A033920112078A1280
:10074300078AC285A20122D2B77F02120798C2B7D5
:100753007F147E001206DFD2B77F1E0207981207AE
:100763003240FBC287C2860000120783C285221271
:10077300073240FBD287C2860000120783C285225C
:10078300D2858FA012078A00000000221206FD12F4
:10079300000E0202EADFFE22CEC2B6C83A00CAAA9F
:1007A300B6C83A00C8CBCCE53A00C9F9CFEC3A0059
:10080000BB010689828A83E0225002E722BBFE02F6
:10081000E32289828A83E49322BB010CE58229F5D5
:1008200082E5833AF583E0225006E92582F8E62244
:10083000BBFE06E92582F8E222E58229F582E583FE
:100840003AF583E49322BB010689828A83F0225021
:1008500002F722BBFE01F322F8BB010DE58229F568
:1008600082E5833AF583E8F0225006E92582C8F64E
:1008700022BBFE05E92582C8F22275F008758200C8
:10088000EF2FFFEE33FECD33CDCC33CCC58233C555
:10089000829BED9AEC99E58298400CF582EE9BFEE6
:1008A000ED9AFDEC99FC0FD5F0D6E4CEFBE4CDFA41
:1008B000E4CCF9A88222B800C1B90059BA002DECE5
:1008C0008BF084CFCECDFCE5F0CBF97818EF2FFF7D
:1008D000EE33FEED33FDEC33FCEB33FB10D7039925
:1008E0004004EB99FB0FD8E5E4F9FA227818EF2FD2
:1008F000FFEE33FEED33FDEC33FCC933C910D705F1
:100900009BE99A4007EC9BFCE99AF90FD8E0E4C90F
:10091000FAE4CCFB2275F010EF2FFFEE33FEED333F
:10092000FDCC33CCC833C810D7079BEC9AE899406C
:100930000AED9BFDEC9AFCE899F80FD5F0DAE4CDCE
:10094000FBE4CCFAE4C8F922EB9FF5F0EA9E42F012
:10095000E99D42F0E89C45F022ECF0A3EDF0A3EE17
:10096000F0A3EFF022A8828583F0D083D082120911
:100970007C12097C12097C12097CE473E493A3C500
:1009800083C5F0C583C8C582C8F0A3C583C5F0C5BB
:0609900083C8C582C822E5
:100BDF00787FE4F6D8FD758120020C2602026FE4BF
:100BEF0093A3F8E493A34003F68001F208DFF480A7
:100BFF0029E493A3F85407240CC8C333C4540F44F7
:100C0F0020C8834004F456800146F6DFE4800B01D0
:100C1F00020408102040809003AFE47E019360BC73
:100C2F00A3FF543F30E509541FFEE493A360010E68
:100C3F00CF54C025E060A840B8E493A3FAE493A38F
:100C4F00F8E493A3C8C582C8CAC583CAF0A3C8C5B0
:0C0C5F0082C8CAC583CADFE9DEE780BE98
:00000001FF
