:020000040000FA
:06000000020B420201DFC9
:03001B00020202DC
:03002B0002097D4A
:0300330002079928
:030043000208327E
:0300530002011097
:03006B0002077F0A
:030073000202572F
:100083000201740101FF01010503010F10FEFFD2FC
:1000930013D213D213D21388128212D213C9270098
:1000A3000000002B28000000000C0000000C0001E1
:1000B3000000A0150000000000005A160000000018
:1000C300000000000000FFFFEECC01000000000074
:1000D300000700000000000000FF010200EA050025
:1000E30000005D0664000202000800000502070527
:1000F3001E02051E020A0A03B80B02803E010234E7
:1001030012141F00E00796511800020206C0E074A3
:10011300F212049FA2AFE433FED2AFE5A7FFE5A13D
:10012300F5085F54106006121DC875A1EFE5085F5E
:1001330054086008121DCE75A1F7802BEFA2E0C012
:10014300D0E508A2E092F0120A7F158182F05017E1
:10015300906198E0F8900A44E0C398A2D265D03346
:100163005002E8F075A1FEEEA2E092AF7F01020516
:1001730056C0E074F212049FA2AFE433FED2AF90F4
:1001830061A4E0F8759B00E59158540860087591E7
:10019300F7121E16802AE59158541060087591EFE6
:1001A300121E1C801BE8A2E0C0D0E591A2E092F0F1
:1001B300120A7F158182F05007E0C2E0F0121F603F
:1001C3009061A3E0F8E5E9585404600E121F3675F8
:1001D300E9FB906193E0A2E640F2808BC0E074F209
:1001E30012049FA2AFE433FED2AF9061A5E0F8E51D
:1001F300BF585404600675BFFB121F7802016AC022
:10020300E0C0D0E8C0E0E9C0E0C082C083E5F9C047
:10021300E09009B0E0F8742F28F58274093400F5F2
:1002230083D0E0F09009AFE0F8A3E0687006E595AD
:100233009009B2F09009B0E004F0C394804002E466
:10024300F0A374C6F0D083D082D0E0F9D0E0F8D028
:10025300D0D0E032C0E0C0D0E8C0E0C008C009C0E0
:1002630082C083900A33E0F8A3E0687008539AF7DA
:10027300A374018026C2EA900A33E0F508740125CD
:1002830008F074B32508F58274093400F583E0F5AA
:10029300F9900A33E0C394804002E4F0D083D08223
:1002A300D009D00880A6C3E498F8E499F91202EAC9
:1002B3008026C3E49AFAE49BFBE920E7E91202EA09
:1002C300E498F8E499F922C3E498F8E499F912025E
:1002D300EAE498F8E499F9C3E49AFAE49BFB22EB85
:1002E30020E7CFE920E7E0B90010BB0008E88AF077
:1002F30084F8AAF022E4FBC8FA22EB70227B10C830
:1003030033C8C933C9335007C39AC3DBF280069A93
:1003130050012ADBEAC833F4C8C933F4C9FA227599
:10032300F008E4C833C8C933C933C99AC99B500418
:10033300C92AC93BD5F0ECFBC833F4C8E4C9FA2297
:10034300080808EAC0E0EBC0E086F0E7A4FA180961
:1003530086F0E7A42AFA180986F0E7A42AFA18090E
:1003630086F0E7A42AFA1986F0E7A4FBE5F02AFA57
:10037300190886F0E7A42BFBE5F03AFA190886F092
:10038300E7A42BFBE5F03AFA18180986F0E7A4C5B1
:10039300F02BFBE43AFA1908E7C5F0C6A426F6E504
:1003A300F03BFBE43AFA1886F0E7A4F6E5F00826FA
:1003B300F6E43B08F6E43A08F6D0E0FBD0E0FA2294
:1003C300E4CFC0E0E4CEC0E0E4CDC0E0E4CCC0E0E4
:1003D30075F020C3E633F608E633F608E633F6088D
:1003E300E633F6181818EC33FCED33FDEE33FEEF6D
:1003F30033FFC3EC9709ED9709EE9709EF971919A6
:1004030019400FFFEC97FC09ED97FD09EE97FE19D4
:100413001906D5F0BEECF709EDF709EEF709EFF78A
:10042300191919D0E0FCD0E0FDD0E0FED0E0FF22A6
:100433002518C582C0E0E51934FFC583C0E0E5187F
:10044300C3958224F810AF08858319858218800824
:10045300858319858218D2AFCEF0A3E520F0A37867
:1004630008E608F0A3DEFAEFF0A3E58124FAF8E644
:1004730008F0A3E608F0A3E608F0A30808E608F0EE
:10048300A3E608F0A315811581D0E0FED0E0F815AE
:100493008115811581E8C0E0EEC0E022C0D02518A7
:1004A300C582C0E0E51934FFC583C0E0E518C395F4
:1004B3008224F310AF088583198582188008858309
:1004C30019858218D2AFC8F0A3E9F0A3EAF0A3EB31
:1004D300F0A37908E709F0A3D8FAECF0A3EDF0A3B1
:1004E300EEF0A3EFF0A3D0E0F0A3D0E0F0A3D0E0D0
:1004F300F0A3E520F0A3E5F0F0A322120BA4B900CA
:1005030003020540E4900301780B790E8002F0A307
:10051300D8FCD9FA90100BAA82AB83900086788B13
:1005230079018015E493A3AC82AD838A828B83F037
:10053300A3AA82AB838C828D83D8E9D9E77582F035
:1005430075839774041208F575822A7583227400E3
:100553001208F5851983851882E0C0E0A3E0F9A3AA
:10056300E0FAA3E0FBA37808E0F608A3DFFAE0FCD7
:10057300A3E0FDA3E0FEA3E0FFA3E0C0E0A3E0C08F
:10058300E0A3E0F5D0A3E0F520A3E0A3F5F010AFDE
:10059300088583198582188008858319858218D276
:1005A300AFD082D083D0E0F8D0E0320E0075F010E7
:1005B3008E1A8F1B85821F85831E8518828519835A
:1005C300E0CEA3E0CF851F82851E83EBC9EAC8ED89
:1005D300CBECCAC3E833C8E933C9EA33CAEB33CB3C
:1005E300C3EA9EF51DEB9FF51CB35004AB1CAA1D7B
:1005F300EC33CCED33CDD5F0DAAE1AAF1B22D0837A
:10060300D082ECC0E0EDC0E0E493A3FCE493A3FD4F
:10061300ED4C600D1206D9EC24FFFCED34FFFD8098
:10062300EFE493A3FCE493A3FDED4C600D1207DD0F
:10063300EC24FFFCED34FFFD80EFD0E0FDD0E0FCC7
:10064300E493A3C0E0E493C0E02285198385188274
:10065300E0A3FEE0A3F5207808E0A3F608DFFAE0C4
:10066300A3FFE0A3C0E0E0A3C0E0E0A3C0E0E0A3F9
:10067300C0E0E0A3C0E010AF08858218858319802D
:1006830008858218858319D2AFD083D0820208FBF4
:10069300D083D082E9C0E0E493A3C386F0C5F0958C
:1006A300F0F908E493A386F0C5F095F0700BE4939A
:1006B300A3C3994005E9048002A3E475F002A425CD
:1006C30082F582E5F03583F583D0E0F9E493A3C0A6
:1006D300E0E493C0E022C0E0C3E49396087401937E
:1006E3009618400FE49366700808740193661870B7
:1006F300007019A3A3C3E49396087401939618A3F7
:10070300A3400DD0E0D0E0D0E002063DA3A3A3A315
:10071300A3A3D0E022D083D082C5F0E493A3C5F095
:10072300C395F0F5F0E493A3C395F04005E5F00419
:100733008001E475F002A42582F582E5F03583F5A6
:1007430083E493A3C0E0E493C0E0227404800474C0
:10075300028000CCC0E0EDC0E0E518C39CCCAD192D
:1007630050011D10AF068C188D1980068C188D1939
:10077300D2AF120877D0E0FDD0E0FC22C0E074F2E3
:1007830012049FE589A2E15003121C6C758900C213
:10079300C57F01020556C0E074F212049FE58BA2E7
:1007A300E05003121C6C758B00C2E880E474028075
:1007B30000CCC0E0EDC0E0E518C39CCCAD195001FE
:1007C3001D10AF068C188D1980068C188D19D2AFA9
:1007D300120855D0E0FDD0E0FC22C0E0C0F088F064
:1007E300E4936670080874019366187000A8F0A378
:1007F300A3700BD0F0D0E0D0E0D0E002063DA3A37D
:10080300D0F0D0E022D083D082CCC0E0E493A360C8
:10081300061208D61470FAE493A360061209C714EB
:1008230070FAD0E0FCE493A3C0E0E493C0E022C0FC
:10083300E074F212049FA2AFE433FED2AFC2C0E56C
:10084300D1A2E45003121D2CEEA2E092AF7F01026D
:100853000556CAC0E0E493A3C582CCC582C583CD47
:10086300C583F0A3C582CCC582C583CDC583DAE534
:10087300D0E0CA22CAC0E0E0A3C582CCC582C5834A
:10088300CDC583F0A3C582CCC582C583CDC583DA2C
:10089300E6D0E0CA22700908080822601618181862
:1008A300C6C333C608C633C608C633C608C633C66E
:1008B300D5E0EA22C008C3E096F50808A3E0964213
:1008C3000808A3E096420808A3E09645087001D300
:1008D300D00822C0E0E493A3D39C5010E493A3C3B5
:1008E3009C400AD0E0D0E0D0E0020825A3A3A3D027
:1008F300E022C09FF59FE473D09F22D083D082C0B3
:100903009FE493C0E0740193C0E0740293F59F22C7
:100913007404800A74038006740280027401C0E0C8
:10092300F40412092ED0E0120B7F222518F5821051
:10093300AF08F518400215198008F518400215197B
:10094300D2AF85198322BB0102E722C082C083890B
:10095300828A83BB0003E08002E493D083D08222A7
:10096300C0D0251810AF08F518500205198008F5F6
:100973001850020519D2AFD0D022C0E0C0D0E8C0D1
:10098300E0E5A8D2AFC2C7A2E792AFD0E0F8D0D0DB
:10099300D0E0326016080808C6C313C618C613C6CB
:1009A30018C613C618C613C6D5E0EA22C3E0C69616
:1009B300F608A3E0C696F608A3E0C696F608A3E0F9
:1009C300C696F622C0E0E493A36C7009D0E0D0E0B1
:1009D300D0E0020825A3A3D0E022251810AF08F524
:1009E30018400215198008F51840021519D2AF22D4
:1009F300E76670100809E766700A0809E76670047D
:100A03000809E76622C3E09608A3E09608A3E096E8
:100A130008A3E096A2D265D03322E066701008A343
:100A2300E066700A08A3E066700408A3E06622C3C8
:100A3300E096F008A3E096F008A3E096F008A3E0A0
:100A430096F022E026F008A3E036F008A3E036F0A3
:100A530008A3E036F022E627F60809E637F6080988
:100A6300E637F60809E637F622E026F608A3E0366D
:100A7300F608A3E036F608A3E036F622C0E0E8C0A5
:100A8300E0E58124FCF8E6A2E7D0E0F8D0E022E636
:100A930047F60809E647F60809E647F60809E64770
:100AA300F622E657F60809E657F60809E657F60868
:100AB30009E657F622E056F608A3E056F608A3E047
:100AC30056F608A3E056F622E056F008A3E056F0E7
:100AD30008A3E056F008A3E056F022700422600D4C
:100AE30018C6C333C608C633C6D5E0F41822E4C318
:100AF30096F608E496F608E496F608E496F622607D
:100B03000D08C6A2E713C618C613C6D5E0F322C65E
:100B1300F4C608C6F4C608C6F4C608C6F4C622C39B
:100B2300E7960809E7960809E7960809E79622C3B6
:100B3300E09608A3E09608A3E09608A3E096227542
:100B4300D000758140751801751903000204FEE099
:100B5300F608A3E0F608A3E0F608A3E0F622600C8B
:100B630008C6C313C618C613C6D5E0F422E6F008B8
:100B7300A3E6F008A3E6F008A3E6F022CAC0E0E685
:100B8300F0A308DAFAD0E0FA22E0FAA3E0FBA3E04C
:100B9300FCA3E0FD22EAF0A3EBF0A3ECF0A3EDF05D
:100BA30022E5C754F84401F5C77901222518F582D7
:100BB300E43519F58322C2AF75D69F0200002212D5
:100BC30008FE71E4021208FE14E5021208FE5BE659
:100BD300021208FE79E6021208FE4A2B001208FEF2
:100BE3005C2B001208FEAE2B001208FE0F2C001225
:100BF30008FE992C001208FE3D2D001208FE912DCF
:100C0300001208FEAA2D001208FED02D001208FEC5
:100C13000B2E001208FE4F2E001208FE762E001235
:100C230008FEC72E001208FE772F001208FE2F3091
:100C3300001208FEF730001208FEB731001208FE5A
:100C4300FB31001208FE2032001208FE633200124C
:100C530008FEB032001208FE0834001208FE8E347B
:100C6300001208FEAC34001208FED634001208FE4F
:100C7300F034001208FEFF34001208FE0A35001299
:100C830008FECA35001208FE2336001208FEE536B8
:100C9300001208FEED36001208FEB137001208FEFE
:100CA3001D38001208FE4839001208FE6D39001283
:100CB30008FEE339001208FE753A001208FECD3A29
:100CC300001208FE8D3B001208FEAC3B001208FE2A
:100CD300BB3C001208FECD3C001208FE3C3D001256
:100CE30008FE913E001208FEC33E001208FE563F66
:100CF300001208FE8F3F001208FEDB3F001208FEC1
:100D0300F740001208FE4043001208FE4B43001256
:100D130008FE5643001208FE6143001208FE6B43AF
:100D2300001208FE7643001208FE9043001208FEEC
:100D33009A43001208FEA443001208FEAF430012B8
:100D430008FED743001208FE3244001208FE3C445A
:100D5300001208FE6044001208FE8444001208FEDC
:100D6300E244001208FE2645001208FE4245001226
:100D730008FEB945001208FEF145001208FE3D4683
:100D8300001208FE9A46001208FE5447001208FE9D
:100D93003849001208FE9149001208FEC14A0012A8
:100DA30008FEE74A001208FE704C001208FEEC4FE2
:100DB300001208FEBE51001208FE8753001208FEFF
:100DC3003454001208FE9F55001208FE3E560012CE
:100DD30008FE8356001208FEED56001208FEFC566C
:100DE300001208FE8359001208FE355B001208FE4C
:100DF300A25B001208FE815C001208FE9A5D0012DD
:100E030008FE175F001208FE365F001208FE8B5FB4
:100E1300001208FE9060001208FEB860001208FE7F
:100E23001061001208FEEF61001208FE3362001227
:100E330008FE7E62001208FEE962001208FE2A64C0
:100E4300001208FE8E64001208FEDC65001208FE24
:100E53003C68001208FE6D68001208FE256A001245
:100E630008FE7A6A001208FE7E6B001208FE1B6CF5
:100E7300001208FE746C001208FE276D001208FEB3
:100E8300C96D001208FE696E001208FE0E6F001293
:100E930008FEC581011208FE0482011208FE4B847C
:100EA300011208FE9584011208FEB085011208FEA6
:100EB3001886011208FE4D86011208FEC187011231
:100EC30008FE448A011208FE6D8B011208FE038C92
:100ED300011208FE0B95011208FEA095011208FEEF
:100EE3008798011208FE7A99011208FEE899011207
:100EF30008FE2E9B011208FE109C011208FEF59DB0
:100F0300011208FE06A0011208FE70A0011208FEDD
:100F130042A1011208FE70A1011208FE2DA20112C6
:100F230008FE04A3011208FECBA3011208FE6FA45E
:100F3300011208FE98A4011208FEBAA4011208FEC9
:100F430010A7011208FEE8A7011208FE2CA801123F
:100F530008FE94A8011208FE4CA9011208FE7EA9FE
:100F6300011208FEC2A9011208FEF8A9011208FE27
:100F730044AA011208FE99AA011208FE9EAA0112B0
:100F830008FEF1AA011208FE16AB011208FE25ACF9
:100F9300011208FE89AC011208FEF9AC011208FE29
:100FA30085AD011208FE52B0011208FE36B10112DE
:100FB30008FEB9B2011208FEEFB4011208FE9DB596
:100FC300011208FE4DB6011208FE8EB8011208FE8A
:100FD30031B9011208FE78B9011208FE24BB0112CF
:100FE30008FE38BB011208FE42BB011208FE6ABBB1
:100FF300011208FE76BB011208FE95BB011208FE22
:10100300B5BD011208FE04BF011208FE48BF01125C
:1010130008FEF0BF011208FED3C0011208FE7EC114
:10102300011208FECAC2011208FEC8C3011208FE5B
:101033006EC4011208FEFEC4011208FE15C501129A
:1010430008FE4CC5011208FE56C5011208FE61C513
:10105300011208FE7FC5011208FEC3C5011208FE76
:1010630020C6011208FE45C6011208FE5FC6011222
:1010730008FEEBC6011208FE08C8011208FE75C877
:10108300011208FE5CC9011208FE83C9011208FEA1
:10109300F7C9011208FE72CA011208FE76CB0112CB
:1010A30008FE6CCC011208FE1BCD011208FE2ECEE9
:1010B300011208FECACE011208FE57CF011208FE24
:1010C30035D0011208FE6DD0011208FEC5D0011201
:1010D30008FE8ED1011208FEAFD1011208FE36D2EE
:1010E300011208FE5AD2011208FE7CD2011208FE38
:1010F300C5D2011208FEDBD4011208FEC2D50112CB
:1011030008FE73D6011208FEA9D8011208FEF9D809
:10111300011208FE39D9011208FE7BD9011208FE1B
:10112300D7D9011208FE05DA011208FE29DA0112E5
:1011330008FE7CDA011208FEAADA011208FEE3DADD
:10114300011208FE38DB011208FE9EDB011208FEC5
:10115300F2DC011208FE15DF011208FE82DF011224
:1011630008FEABDF011208FE36E0011208FE9DE027
:10117300011208FEE8E0011208FE0CE1011208FE6C
:1011830030E1011208FE8BE1011208FEA6E1011213
:1011930008FE5FE2011208FE50AD041208FE8FAD97
:1011A300041208FE7880021208FEBE80021208FEB6
:1011B3009E81021208FEA082021208FEA38302127D
:1011C30008FE2F85021208FE8D85021208FE4A864C
:1011D300021208FE6887021208FED987021208FE6F
:1011E3001588021208FE6388021208FE6D88021237
:1011F30008FEB188021208FE0D89021208FEA889B2
:10120300021208FE258A021208FEF48A021208FE60
:101213008D8B021208FEAD8B021208FEE38B0212C5
:1012230008FE148C021208FED58C021208FEE58C0F
:10123300021208FE398D021208FE548D021208FEB6
:10124300668D021208FE6F8D021208FEC98D02120E
:1012530008FE258E021208FE718E021208FE8C8E85
:10126300021208FEBD8E021208FEDA8E021208FE7A
:10127300E68E021208FE5A90021208FE73900212C2
:1012830008FEDA90021208FEED90021208FEFB90AF
:10129300021208FEAF91021208FE9392021208FE98
:1012A3009993021208FE2394021208FE2D9402124F
:1012B30008FE9A94021208FEB194021208FEE39407
:1012C300021208FE1C95021208FE4695021208FE41
:1012D300A795021208FEC795021208FEE5950212B1
:1012E30008FE2B96021208FE5197021208FE9E97E3
:1012F300021208FECD97021208FE4398021208FE5E
:101303006B98021208FEA498021208FEB298021209
:1013130008FE0A99021208FE5999021208FE9899CA
:10132300021208FEC899021208FEF499021208FE7E
:10133300FF99021208FE1D9A021208FEDF9A02129A
:1013430008FEE99A021208FE249B021208FE3A9B49
:10135300021208FE8F9B021208FEA39B021208FED4
:10136300B19C021208FEC49C021208FED99C021210
:1013730008FE7B9D021208FEFE9D021208FEBC9E23
:10138300021208FEC79E021208FEF39F021208FE15
:101393000FA0021208FE61A0021208FEA0A0021212
:1013A30008FEB5A0021208FE17A1021208FEA6A1AC
:1013B300021208FEF1A1021208FE42A4021208FE64
:1013C300C0A4021208FE35A5021208FE57A7021296
:1013D30008FE6FA7021208FE72A7021208FE7EA77C
:1013E300021208FE92A7021208FE9AA7021208FE32
:1013F300CDA7021208FE7DA8021208FEF3A802126E
:1014030008FE66A9021208FE1AAA021208FECFAA53
:10141300021208FEEEAA021208FE8EAB021208FEAA
:101423009AAB021208FEC5AB021208FEC8AB021249
:1014330008FE32AC021208FE5AAD021208FE32AEAA
:10144300021208FEBDAE021208FED6AF021208FE5B
:1014530093B0021208FECCB0021208FEFDB00212D5
:1014630008FEBBB1021208FEEBB1021208FEC6B2BF
:10147300021208FE5FB3021208FEEAB3021208FE6C
:101483009BB4021208FE1EB5021208FE50B50212EA
:1014930008FE91B5021208FEB9B5031208FE1EB686
:1014A300031208FE5BB6031208FEAAB6031208FE77
:1014B300C0B8031208FEA3BA031208FE0DBE03123E
:1014C30008FE48BE031208FE6ABE031208FECDBE24
:1014D300031208FE01BF031208FE24BF031208FE15
:1014E30051BF031208FEADBF031208FEA39F0312F0
:1014F30008FE21A0031208FE57A0031208FEC3A092
:10150300031208FE36A2031208FE52A2031208FEBB
:1015130097A2031208FE25A3031208FE7EA303125B
:1015230008FEABA4031208FEBDA5031208FE1AA60B
:10153300031208FE86A6031208FEE7A6031208FE9E
:1015430028A7031208FED5A7031208FEE7A8031273
:1015530008FE12A9031208FE5DA9031208FEA4A93E
:10156300031208FE36AA031208FEF1AA031208FEAC
:101573009CA2041208FEADA2041208FEFEA20412ED
:1015830008FE43A3041208FEEDA3041208FEBFA93C
:10159300041208FE789F041208FED0A0041208FE6D
:1015A30068AB031208FE0DAC031208FE2DAC031248
:1015B30008FE4DAC031208FE61AC031208FEB9AC81
:1015C300031208FEE9AC031208FE6AAE031208FE1A
:1015D30010AF031208FEF2AF031208FE43B003126A
:1015E30008FE86B0031208FEC9B0031208FE2FB12D
:1015F300031208FE50B1031208FEDCB1031208FE09
:101603000DB2031208FE81B2031208FE2FB40312B7
:1016130008FE09B5031208FE4BB5031208FEA5B573
:10162300031208FEEC9B041208FE0D9C041208FE34
:10163300469D041208FE709D041208FE77DD021217
:1016430008FEA1A1041208FEACA1041208FECDA15C
:10165300041208FE6693031208FE6993031208FE40
:101663002394031208FE4E94031208FE959403126A
:1016730008FEBA94031208FEDB94031208FE0F95CA
:10168300031208FE4895031208FE7196031208FE22
:10169300A896031208FEC896031208FE24E302125A
:1016A30008FE2898031208FE5F98031208FED499D7
:1016B300031208FE779A031208FE709B031208FEBA
:1016C300999B031208FEED9B031208FEB39C0312C1
:1016D30008FEE19C031208FE769E031208FEF79EA5
:1016E300031208FE2A9F031208FEF9BF031208FE25
:1016F30003C0031208FE4FC0031208FEBDC003124D
:1017030008FEDEC0031208FEF5C0031208FEA5C1E1
:10171300031208FE39C4031208FE42C4031208FE72
:1017230095C4031208FEBEC4031208FE25C50312A6
:1017330008FEB6C5031208FEF8C5031208FE42C62A
:10174300031208FEA1C6031208FECDC6031208FE4B
:101753005EC7031208FE9DC7031208FEDCC703120F
:1017630008FE11C8031208FE23C8031208FE35C879
:10177300031208FE54C8031208FE5DC8031208FED4
:1017830013C9031208FE53C9031208FEABF7031271
:1017930008FE7EF8031208FE98F8031208FEA9F863
:1017A300031208FEBEFA031208FEDDFA031208FE56
:1017B300B87D001208FEEE7D001208FE377E00128F
:1017C30008FE877F001208FEA0E6021208FEDFE78C
:1017D300021208FE1BE8021208FEDAE9021208FEF2
:1017E30003EA021208FE96EC021208FEDAEC021279
:1017F30008FE63EE021208FEFBEE021208FE63EF20
:10180300021208FE04F0021208FE46F0021208FE5D
:1018130086F0021208FE11F2021208FE81F3021290
:1018230008FEA6F5021208FED4F5021208FEFBF527
:10183300021208FE04F6021208FE5FF6021208FE08
:10184300F2F6021208FE10FA021208FE91FA0212D0
:1018530008FED1AE041208FEE7AE041208FEB3ACD4
:10186300041208FED88A041208FEEB8A041208FE4A
:10187300888B041208FEC38B041208FEDE8B04124D
:1018830008FE038C041208FE488C041208FE798CAF
:10189300041208FEAA8C041208FE308E041208FEFD
:1018A300ABFE011208FEE1FE011208FEFDFE01126D
:1018B30008FE3FFF011208FE4FFF011208FEE4FF7E
:1018C300011208FEEEFF011208FEEEE8031208FE05
:1018D30099E9031208FEABEA031208FEF0EA0312C9
:1018E30008FE4BEB031208FEBFEB031208FE9FEC4E
:1018F300031208FE4AED031208FEDDED031208FE93
:101903005A6F001208FEB26F001208FE9B7000129D
:1019130008FE3471001208FE7E71001208FEDB71AE
:10192300001208FE3472001208FE4872001208FE0C
:101933007A72001208FE7873001208FEDC7300123C
:1019430008FEF773001208FE4674001208FE5C746A
:10195300001208FE6974001208FE9D74001208FE4E
:10196300B674001208FE4775001208FE5675001281
:1019730008FEDE75001208FE3876001208FE867631
:10198300001208FEA876001208FE1F79001208FE56
:101993005479001208FEE479001208FE597A001205
:1019A30008FE5E7A001208FE9A7A001208FEF07AA8
:1019B300001208FEB47B001208FED97B001208FE59
:1019C300E37B001208FEE67B001208FE6F7C001228
:1019D30008FE8A7C001208FE9D7C001208FEC97C6A
:1019E300001208FE047D001208FE077D001208FEA7
:1019F300127D001208FE4E7D001208FE617D00126A
:101A030008FE887D001208FE03AD041208FE1BAD1C
:101A1300041208FEB8D2031208FE07D3031208FE0D
:101A2300A9D4031208FE67D6031208FEAFD6031229
:101A330008FED1D7031208FE02D9031208FE24D9E7
:101A4300031208FE80D9031208FE02DA031208FE0D
:101A530099E2011208FEBAE2011208FE44E3011200
:101A630008FEC9E3011208FE45E4011208FEAEE4D4
:101A7300011208FEFAE4011208FE79E5011208FEDC
:101A83000BE6011208FE97E6011208FED9E60112E1
:101A930008FE45EB011208FEC5EC011208FE04ED39
:101AA300011208FEEBED011208FEEEED011208FE35
:101AB300A2EE011208FED7EF011208FEC2F10112D5
:101AC30008FE42F4011208FEFBF4011208FE18F6A8
:101AD300011208FE6FF9011208FE7FF9011208FED8
:101AE300E0FA011208FE6CFB011208FEA0FC0112D1
:101AF30008FE91FD011208FE13FE011208FE00808C
:101B0300031208FEBA80031208FE2C81031208FE9A
:101B13003B81031208FEB581031208FE24820312DF
:101B230008FE2B83031208FE5483031208FEF4837A
:101B3300031208FE4284031208FEB284031208FE55
:101B43006B87031208FE4288031208FEAF88031254
:101B530008FE2C8A031208FEE08A031208FE8E8B0D
:101B6300031208FEE98B031208FE548C031208FECD
:101B7300548D031208FE2E8F031208FE41900312A8
:101B830008FEDA90031208FE4C91031208FE12922B
:101B9300031208FE43FC031208FE97FC031208FE1F
:101BA300EFFC031208FE3AFD031208FE9CFD03122C
:101BB30008FE08FE031208FEBBFE031208FEFCFE2D
:101BC300031208FE12FF031208FE6EFF031208FE43
:101BD300ACFF031208FE9A95041208FECB9504127B
:101BE30008FE8596041208FEEB96041208FE5C9725
:101BF300041208FE7898041208FE7CAE041208FE54
:101C03008FAE041208FEB2AA041208FEC3AA04127D
:101C130008FE63AB041208FEC09D041208FECE9DAD
:101C2300041208FEEA7F001208FE1DAC041208FE2F
:101C33002DAC041208FE48AC041208FEA9AC041231
:101C430008FEBDA8041208FE42A9041208FEA6A9B4
:101C5300041208FEABA7041208FECDA7041208FE67
:101C630037A8041208FE42A8041208FE86A804122C
:101C730008FEA4E1031208FEB2E1031208FEF3E139
:101C8300031208FE14E2031208FE91E2031208FE97
:101C930091E3031208FEF4E3031208FE16E40312B1
:101CA30008FE31E4031208FE4CE4031208FE56E476
:101CB300031208FE60E4031208FE73E4031208FE35
:101CC3008CE4031208FE28E5031208FEE4E5031280
:101CD30008FE64E6031208FEDEE6031208FE44E78C
:101CE300031208FECE83041208FEDC83041208FEEE
:101CF3005684041208FE3A85041208FEF386041281
:101D030008FEDDFF031208FE36DA031208FEA3DA2B
:101D1300031208FE5ADB031208FEC5DB031208FE9A
:101D2300C9DC031208FE3FDE031208FE9EDE031227
:101D330008FEF3DE031208FE44DF031208FEDFDFB2
:101D4300031208FE75E0031208FE94E0031208FE76
:101D530010E1031208FE31E1031208FE4FE1031202
:101D630008FE5CE1031208FE3AEE031208FE8FEE52
:101D7300031208FE8BF0031208FEBDF0031208FEE7
:101D8300DFF0031208FEF8F0031208FE11F103124C
:101D930008FE1BF2031208FEB6F2031208FE04A4A7
:101DA300041208FE28A4041208FE41A4041208FE2B
:101DB30074A4041208FEA5A4041208FED3A40412FA
:101DC30008FE35A5041208FE44A5041208FE4EA51C
:101DD300041208FE5BA5041208FE478E041208FED7
:101DE3006D8E041208FEAA8E041208FEB98E041228
:101DF30008FED88E041208FE408F041208FE498F95
:101E0300041208FEA88F041208FECC8F041208FEE9
:101E13008B90041208FE9890041208FEA9900412F5
:101E230008FEDDAD041208FEFAAD041208FE2DF320
:101E3300031208FE8BF4031208FE98F4031208FE43
:101E4300ABF4031208FECAF4031208FEE0F4031213
:101E530008FEF4F4031208FE69F5031208FECEF53A
:101E6300031208FE7EF6031208FE53F7031208FE60
:101E730063F7031208FE72F7031208FE84AB041221
:101E830008FEA8AB041208FED0AB041208FEF8ABA0
:101E9300041208FED790041208FEFE90041208FEF6
:101EA3001F91041208FE8491041208FE3D9304124C
:101EB30008FE5693041208FE6293041208FE7693FA
:101EC300041208FE9493041208FE9E93041208FE63
:101ED300A893041208FEBB93041208FE0E94041286
:101EE30008FE4794041208FE7694041208FEC49474
:101EF300041208FE1395041208FE2E95041208FE20
:101F03003895041208FE4995041208FE8F950412B1
:101F130008FEABFF021208FE7CC9031208FEA6C925
:101F2300031208FEC2C9031208FED5C9031208FE34
:101F3300EBC9031208FE48CA031208FE7BCA031248
:101F430008FEB7CE031208FEDDCF031208FE10D041
:101F5300031208FE5CD0031208FE88D1031208FEA8
:101F6300B0D1031208FEC5D1031208FED5D1031266
:101F730008FE19D2031208FE7AD2031208FE8AD28F
:101F8300031208FE65A5041208FE80A5041208FECC
:101F9300A9A5041208FEC3A5041208FEE8A50412AD
:101FA30008FE07A6041208FE1FA6041208FE4DA68B
:101FB300041208FE67A6041208FE99AD041208FE77
:101FC3005887041208FE5F87041208FE6B88041208
:101FD30008FE9B88041208FEC188041208FEE488E8
:101FE300041208FE0689041208FE4089041208FE42
:101FF300A689041208FEDF89041208FE2B8A041244
:1020030008FE588A041208FE788A041208FE049A0D
:10201300041208FE1C9A041208FE0A9B041208FE0E
:10202300E99B041208FE98A6041208FE0AA70412EC
:1020330008FE48A7041208FE89A7041208FE0080C0
:10204300041208FE1F80041208FE6E80041208FEAC
:102053008A80041208FEBB80041208FECB8004129F
:1020630008FED880041208FEE580041208FED18120
:10207300041208FE0F82041208FE1982041208FEDD
:102083002983041208FE3483041208FE46830412D3
:1020930008FE4F83041208FE5983041208FEEEFA69
:1020A300021208FE33FF021208FE41FF021208FE6D
:1020B3004FAE041208FE19AE041208FEA9AE0412B4
:1020C30008FEF1AE041208FE71DA021208FED3D73D
:1020D300021208FE9CD6021208FEF0D5021208FE78
:1020E30036D4021208FEE6D1021208FE6DD10212A6
:1020F30008FE14D1021208FEA4D0021208FE7BD0FF
:10210300021208FE5BCE021208FE27CE021208FE60
:10211300F4CD021208FED8CD021208FEF1CC021251
:1021230008FEA9CC021208FEF4CA021208FE74CA01
:10213300021208FE71CA021208FE6EC9021208FEDC
:102143003CC9021208FE79C8021208FECFE002124F
:1021530008FEEDDF021208FED1DF021208FE55DF92
:10216300021208FE0CDF021208FEA4C6021208FEC9
:1021730035C6021208FE07C6021208FE04C6021282
:1021830008FEC4DE021208FEF1C5021208FE9CC559
:10219300021208FE8BC5021208FE7DC4021208FE5D
:1021A30012DE021208FE6397031208FE47C40212EE
:1021B30008FEF5C3021208FE96C3021208FE65C3A9
:1021C300021208FE2DC0021208FEEDBF021208FE25
:1021D300E1BF021208FE41BF021208FE81BE0212D5
:1021E30008FE03BC021208FE94B9021208FE52B99B
:1021F300021208FE26B8021208FEDBB7021208FE1E
:102203001AB7021208FEEDB6021208FEC6B5021294
:1022130008FE30B6021208FE84DD021208FE00B684
:10222300021208FE1FA10400000080FBE4730000FB
:10223300000000000000000000000000000010107B
:10224300101010100000303000000014285000005F
:1022530000000000000000000000002828FC2848BF
:1022630050FC5050000000001038545430181454DF
:102273005438100000000044A8A8B0541A2A2A4475
:10228300000000000020505060ACA898927C000031
:1022930000606020C0000000000000000000000497
:1022A3000808101010101010080804000000402047
:1022B300100804081020400000000000001010D691
:1022C3003838D61010000000000000101010FE1067
:1022D30010100000000000000000000000000000DB
:1022E300606020C0000000000000FC00000000004F
:1022F300000000000000000000000000606000001B
:1023030000020404040808101020202040000000EC
:102313000030488484848484483000000000001026
:10232300701010101010107C00000000003844449E
:1023330004081020447C00000000003844441804C2
:102343000444443800000000080818284848887CE2
:10235300081C00000000007C4040784404444438DA
:1023630000000000003C4480B8C4848484780000EA
:102373000000007C444808101010101000000000FA
:10238300007884844878848484780000000000788E
:102393008484848C740488F0000000000000003002
:1023A300300000003030000000000000000010008A
:1023B3000000001010200000040810204020100826
:1023C300040000000000000000FC0000FC0000000E
:1023D3000000000040201008040810204000000006
:1023E300000078848484081010003030000000005E
:1023F3000038449AAAAAAAB4423C00000000001084
:1024030010282828384444EE0000000000F8444413
:102413007844444444F800000000003C4484808035
:10242300808044380000000000F0484444444444A1
:1024330048F00000000000FC44404878484044FC59
:102443000000000000FC42404878484040E00000A3
:102453000000003C448480808E84443800000000E7
:1024630000EE4444447C444444EE00000000007CFD
:10247300101010101010107C00000000007C1010D1
:1024830010101010101090E0000000EE444850703F
:10249300484844EE0000000000E040404040404017
:1024A30044FC0000000000EE6C6C6C54545454D691
:1024B3000000000000EE64645454544C4CE40000EB
:1024C3000000003048848484848448300000000085
:1024D30000F844444478404040E0000000000030ED
:1024E3004884848484B448380C00000000F84444D1
:1024F3007850484844E600000000003C444020185F
:10250300040444780000000000FE92101010101024
:1025130010380000000000EE44444444444444386E
:102523000000000000EE4444282828281010000072
:10253300000000D6545454546C282828000000008E
:1025430000EE44282810282844EE0000000000EE86
:10255300442828101010103800000000007C880860
:102563001020204044FC0000001C1010101010101C
:10257300101010101C00007010101010101010100C
:1025830010107000007010101010101010101010A8
:102593007000001028000000000000000000000090
:1025A30000000000000000000000000000FE0060CA
:1025B3006020C000000000000000000000000000D8
:1025C300000038441C24443E0000000000C040408A
:1025D30078444444447800000000000000003C4478
:1025E3004040443800000000000C04043C444444D0
:1025F300443E000000000000000038447C404438A2
:1026030000000000001C2420F82020202078000077
:102613000000000000003C48483040784438000087
:1026230000C040405864444444EE000000000010E1
:10263300000070101010107C000000000008000063
:102643003808080808080870000000C040405C48CB
:10265300507048EC000000000070101010101010B3
:10266300107C0000000000000000F854545454D6BD
:102673000000000000000000D864444444EE000061
:1026830000000000000038444444443800000000C7
:1026930000000000F8444444447840E00000000097
:1026A30000003C444444443C040E0000000000008D
:1026B300EC30202020F800000000000000003C4423
:1026C3003008447800000000000010107C10101047
:1026D300100C0000000000000000CC444444443EC1
:1026E3000000000000000000EE442828281000002D
:1026F300000000000000D6545454282800000000B5
:1027030000000000DC48303048EC0000000000000E
:102713000000EE442828101020E000000000000014
:102723007C481010247C00001010101010101010A2
:1027330010101010101000013636010100010201C3
:102743000001030100010401060605020000070160
:1027530000340801000F090401010D0100FF0E08F8
:10276300000017020000190100FF1A0100011B01FC
:1027730000FE1C0100081D0200001F0100012001D2
:102783000001210200002301000F240200002601A2
:10279300000127010008280200FF2A0100072B017E
:1027A30002402C0100002D0100012E0100012F0128
:1027B30000FF30010B1C310800003A0100083B0107
:1027C300000F2F01000003007100300160001100B1
:1027D30070003102200350048000100061000000EB
:1027E30014006300730072006200430000001300D2
:1027F30006000000000004001200000000000000BA
:10280300000004000400370037003C0244000000CD
:10281300000000000000650000003500810000009A
:10282300050000008300000001037103010301039D
:102833000103010301032203020301031003000345
:10284300000300030003000300030003420300032B
:1028530024030603000300030403120325032303D5
:1028630025032303040304030003000300034403B9
:1028730000030003230300036503210035038103E1
:1028830000030503000300030003010171010101BB
:102893000101110101013101010101018001100157
:1028A30061013B0014006301730172016201430182
:1028B3000001130106013D0135000401120100016D
:1028C30000010001000104010401330133013C0153
:1028D30044013201360000010001650100013500A9
:1028E30081010001050182018301000103027102DC
:1028F3003001600211027002010202020202800230
:10290300100261023A004100630273027202620222
:102913004302000213023800000200020402120202
:102923000002000200020002040204023700370022
:102933003C02440200023900000200026502000268
:1029430035028102000205028202830200020304AF
:1029530071040204600411047004020402040104FB
:102963000204100461040004140463047304720475
:102973006204430400041304060400040004040472
:102983001204000400040004000451046400000461
:10299300000400044404000400040004000465046B
:1029A3000004350481046400050400048304000466
:1029B30036000100060000000F00000000000000C8
:1029C30000000000000003FFFF00000403FFFF00FE
:1029D30000FFFF0FF4010005C404032000010003FE
:1029E3000B000000000000000003010F00003A1B71
:1029F3001300B61A01003A1B02006E1A0300741A80
:102A030004007A1A0500801A06008C1A1100AA1A0B
:102A13001400B01A15009E1AFFFF000001DA0E061B
:102A23000A0F08040F0B160F10560E02E00E05F8DE
:102A33000E07E60E0CBC0E0DCE0EFF000003EAF5EA
:102A4300E5D5D5C5B5A59595858575756565555543
:102A5300454535352525151505E2121213E812EE05
:102A6300120C130013FA1218131E1324133013F449
:102A730012DC12D61200160F00000B150B02000217
:102A8300220F32000006D213E413EA13AC12F01340
:102A9300A612B212E611E0111C1222121612CE1166
:102AA300321450145614381444143E1400011916E9
:102AB300181616152303000C0E020B040B0A070845
:102AC300000F00034948424D181725050200383C02
:102AD3003E363B3B352B432C303017181921301B26
:102AE3001D1F30303016181920231A1C1E302614CF
:102AF300F613FC130814021406132A134A1436138C
:102B03003C13020402010101010902F211F811EC64
:102B1300112812000000000000FE11101200BE0474
:102B23000A150004007F00E8030C002800000000E1
:102B330000090308100C0A03080900040001FF1E22
:102B43001E0C05040F1008C082C0838A828B83E0A9
:102B5300D2E7F01219C0023D19C082C08379001276
:102B63003016125EE6C082C083900334124C6CD0E0
:102B730083D082C3E09CA3E09D500C1265BAFAA3F4
:102B8300E0122B8D600109023D19FBEA75F00BA4DD
:102B9300FAA8F075F00BEBA428FB900336E02AF8B3
:102BA300A3E03B8882F583E0540F2274F7120433C9
:102BB30089081230161230BCACF075F00BE9A42C66
:102BC300F9900336E028FEA3E039FF74016508603D
:102BD300067402650870208A828B831230A8123F24
:102BE3004874026508701B122F671230EF70138E42
:102BF300828F83E4F0800BEA2403FCEB12308A1209
:102C03003096EEFAEFFB120BDA023EA574F41204CF
:102C130033126EE179008E828F83E06076890A89B0
:102C23000B8065E50A75F00BA4FAA8F075F00BE5C7
:102C33000B122B9A7046E50A75F00BA4F8AAF075EF
:102C4300F00BE50B1230CE8E828F83E085088285F0
:102C530009831231B0850882850983A3123F48EEA8
:102C63002403FCEF123093123D26125960AA08ABDD
:102C730009120BDA7901900334125375E50A240122
:102C8300F50AE50B3400F50B122F6FE50A9AE50BF5
:102C93009B40900240F274F5120433EAFEEBFF749A
:102CA3000B120BAF123D2B750A01EC4D602BEC128E
:102CB3006EFDED125EE6123F407901120BE6E50868
:102CC3004509606F850882850983A3126EEB79023B
:102CD300AA08AB09120BE6805AE5084509602B12D6
:102CE3005EEA1245B4123D271230D9700CEEFAEFAA
:102CF300FB120BECE9F50A80CBEE2403FA12301138
:102D030070317903EEFAEFFB80CA8E828F83A3E0E2
:102D130064FE7003A3E0F4700BEE24030A0A0A12A4
:102D23003011700CEEFAEFFB120BECE9F50A80039D
:102D3300750A00A90A7F0302064D74F71204339043
:102D43000334123EB5EA4B602FEA75F00BA4FAA8E0
:102D5300F075F00BEBA428FBEAFEEBFF1217BC9017
:102D63000336123EB59003361251BA6012EEFCEFF1
:102D7300FD79001216FC8007900336E4F0A3F002FD
:102D83003EA5900334124924C3EE98EF9922C082E2
:102D9300C083EC4D600512203880097C087D0079E2
:102DA300001216FC023D1974F61204337900EA4B43
:102DB30060187800880812622DEB1265B6600479FA
:102DC30001780808E8C3940840EA023F5174F712F7
:102DD300043374F31209DDECFEEDFF8518828519C7
:102DE30083E4F004120BAFEAF0A3EB1256E674038C
:102DF300120BAFAC82AD83EEFAEFFB120BFEEEFAD1
:102E0300EFFB120C04023EA074F712043374F312A6
:102E130009DDECFEEDFF851882851983E4F0EAFCF9
:102E2300EBFD7403120BAF1231A97401120BAF1235
:102E33003F3C8E828F83123F4874FE68700374FF99
:102E4300696004790180027900023EA074F71204DC
:102E530033EAFEEBFF122EAD7014122EB88E828F62
:102E630083E0F4F88A828B83E058F0120BDAA90826
:102E7300023EA574F7120433EAFEEBFF7508008ED9
:102E8300828F83E06022122EAD701D122EB88A82CB
:102E93008B83E08F838E82F8E058700CE0F88A828F
:102EA3008B83E048F0120BDA80C4120BE0E9F508DB
:102EB3007401650822126EF61230C0123002FAA3B2
:102EC300E039FB2274F41204338A088B097C007DF9
:102ED30000122F67123096123027126EE8790085A0
:102EE3000882850983A3E064FE7003A3E0F46071A4
:102EF3007E007F008062EEFAEF122B8D6057EEFAB0
:102F0300EFFBEA75F00BA4FAA8F075F00BEBA4281D
:102F1300FB900336E02AF50AA3E03BF50B85088214
:102F2300850983A3125634850A82850B83A3E06A3D
:102F33007003A3E06B701EE50A2403FAE50B12305D
:102F430012700AE50A2403FCE50B12309312301BBE
:102F53007901125EFC123906122F6FEE9AEF9B4035
:102F6300950240F2EA24030A0A0AEB229003341280
:102F73005AD3C32274F31204338A088B098A828BCF
:102F830083A3126EEB123016126EE8750C00122F2B
:102F93006712301270547E007F008049122FF4FABA
:102FA300A3E0398A82F583E0540F6036122FF4F5DB
:102FB3000AA3E039F50BE50A2403FCE50B12309D67
:102FC3003400FB122032E964017017850A82850BF5
:102FD30083A3125B94A3123F4812301B750C01129A
:102FE3005EFC123906122D8540B2A90C7F0502063C
:102FF3004DEEF8EFF9E875F00BA4F812300222AAAF
:10300300F075F00BE9A42AF9900336E02822EF12B9
:1030130030E922126EFCEB22123027125EF7EEF03B
:10302300A3EFF022E508126EFDE5092274F5120400
:1030330033EAFEEBFF8E828F83A3126EEB7C007D5F
:1030430000EE24030A0A0AEF123096EEFAEFFB129F
:103053000BE0E9F50A7401650A7029126EF6123065
:10306300BCAAF075F00BE91230CE850882F5831205
:1030730030A81230D9700DE5082403FCE50912309D
:103083008A123096022D363400FDEE2403FAEF2225
:1030930012309D3400FB120BFE223400FDE50824A0
:1030A30003FAE50922A31230AD221230B122E0F86F
:1030B300A3E0F98E828F83A3221230C0223400F55D
:1030C30083124928E875F00BA4F822123008F5089A
:1030D300A3E039F50922E8F0A3E9F0E5082403FAAF
:1030E300E5091230E9221230EF6401223400FB12A9
:1030F3000C04E92274F312043374E61209DD126E30
:10310300E1750C01750800750900750A00750B005F
:10311300851882851983E4F0EE2403FCEF3400FD67
:103123007403120BAF1231A9E964017023740B12FB
:103133000BAF123F407401120BAF1256387003A34A
:10314300E069605185188285198385820885830922
:10315300740D120BAFE41231B0740E120BAF123FA9
:1031630048740D120BAFAA82AB83120C22E96401DF
:10317300700B740D120BAF85820A85830B780A12CC
:10318300091BAC08AD09EEFAEFFB120BF274021245
:103193000963E9F50CEEFAEFFB120C1CA90C741A87
:1031A300120963022FEF12347C120C2822123EB054
:1031B30012492422C082C08378007900800312322E
:1031C300A7122F6FE89AE99B5029E8FAE9FBEA7501
:1031D300F00BA4FAACF075F00BEBA42CFB900336C8
:1031E300E02AFCA3E03B8C82F583E0540F70CF7997
:1031F3000080027901023D19C082C083902B241202
:10320300497AEC75F012A4FCA8F075F012EDA4282D
:10321300FD79FF7AB37B0A1216FC023D1974F7128B
:103223000433E9FEEAFF7A007B0078007900802806
:10323300E8FCE9FDEC75F012A4FC85F00875F012CA
:10324300EDA425081236BCC39E400AE0FCEFC39CE4
:1032530040031237DB1232A71236B040D3023EA529
:10326300C082C0837800790080031232A712329B98
:10327300501F1236C0F470F2E875F012A4F8AAF0E9
:1032830075F012E9A42AF974B328FA740A39FB8099
:10329300047A007B00023D19902B24123771C3E896
:1032A3009AE99B22E8240108E93400F92274F01218
:1032B300043374F31209DD8A0A8B0B8C0C8D0D8990
:1032C30008EC450D6016AA0CAB0D120C768A0E8B1A
:1032D3000FAE0EAF0FEE4F600302336E120C4C8A2B
:1032E3000E8B0FA80EA90FE8FEE9FFE849607C905A
:1032F3002B321233D06022740365086006740465B0
:103303000870167A047903120C46902B321233E7B5
:1033130040077A007B000233CD902B301233D0600C
:103323001B74016508600674026508700F7A0279E0
:1033330001120C46902B301233E750D68518828544
:1033430019837401F0120BAF125960AC0CAD0D74FC
:1033530003120BAF123475740B120BAF123D331201
:103363004328E41259481211268004EE4F604A782C
:103373000074FF2508C39404500278048E828F835F
:103383001259608E828F83A3A3A3A3E508F0E88E6E
:10339300828F83A3A3A3A3A31259681202E2123755
:1033A300888E828F83A3A3A3A3A3A3A3F012377F43
:1033B300120B8C125EE0120B981233D5400590105D
:1033C3000FE4F0121000EEFAEFFB02492E125A82BC
:1033D30049227A047900120C46902B2412659CEA48
:1033E30098EB992212340075832B758224E493C3DE
:1033F30098F8A3E49399F9C3EA98EB9922E493F834
:10340300740193F92274F212043374F31209DD8AFE
:10341300088B09ECFEEDFF750A00EEFAEFFB120CC8
:10342300768A0C8B0DA80CA90DE849603E88828929
:1034330083E065087004A3E06509602F88828983AF
:10344300A3A3A3A3E0C394055021125D8E85188224
:103453008519837401F0120BAF125D92EEFCEFFD40
:103463007403120BAF123475750A01A90A740D02A5
:10347300542C12347C120C3422AA82AB83120BFE1E
:10348300851882851983AA82AB832274F6120433CA
:103493001234CA600FA3A3A3A3E014C3940450047B
:1034A300790180027900023F5174F6120433123419
:1034B300CA600FA3A3A3A3E014C394025004790129
:1034C30080027900023F51120C708A828B83E5825D
:1034D30045832274F61204331234CA600BA3A3A3E8
:1034E300A3E07004790180027900023F51C082C0D9
:1034F30083EAFCEBFD7A007B00023D16C082C083A9
:103503007C007D00023D1674F412043374F3120937
:10351300DDEAFEEBFF8C0A8D0BC3EC94F8ED94FF10
:103523004007EE4F70030235C3750800750900802C
:103533002E8518828519837401F012392E120BAF70
:1035430012393C60137403120BAFAC82AD83EEFAF5
:10355300EFFB122032E97049E508240112375C9031
:103563002B24E4125A8AE50898E509995052E50894
:1035730075F012A4F8AAF075F012E509A42AF9125D
:1035830065CF60D4EE4F70A974FF650A700474FFB1
:10359300650B60C412391E650A7004A3E0650B70E5
:1035A300B7E50875F012A4F508A8F075F012E5095F
:1035B300A428F50974B32508FA740A3509FB8004B5
:1035C3007A007B000240ED74F412043374F31209A1
:1035D300DD750800120C768A0A8B0BAE0AAF0BEE70
:1035E3004F602A8518828519837401123EAAF8A3B5
:1035F300E0F9740B120BAF123FCB120C167C127D49
:103603000079FFEEFAEFFB1216FC7508011233D5B1
:10361300500990100F7401F0121000A9080240ED38
:1036230074F7120433E9FE74FE6A700374FF6B7857
:10363300007900700580521232A71236B0504AE862
:10364300FCE9FDEC75F012A4FCAFF075F012EDA4EB
:103653002F1236BCF460E0E8FCE9FDEC75F012A42F
:10366300FC75F012EDA42FFD74B32CF582740A3DA2
:10367300F583E06A7003A3E06B70BC80091236C067
:1036830014C3940440171232A712329B5018EE70E1
:10369300EC1236C064016005E0640370E912390F6F
:1036A300FAA3E0FB80047AFE7BFF023EA5902B2465
:1036B30012497EC3E89CE99D2212381022E8FAE9F8
:1036C300FBEA75F012A4FAACF075F012EBA42CFB34
:1036D30074B72AF582740A3BF583E022120C880240
:1036E3003D19C082C083790180F274F01204338AD9
:1036F3000A8B0B7A047901120C468A0C8B0DEA456E
:103703000D603EEAC333FAEB33FB1217BC8A088B16
:1037130009AE08AF09EE4F60237AFE7BFF120C8ED1
:1037230074FE6A700374FF6B601B850882850983CE
:10373300123EB5E508240212375C80E1750C008067
:10374300047E007F00850A82850B83E50CF0EEFA88
:10375300EFFB024933E5082407F508E5093400F5D2
:103763000922902B2412497EC3EA9CEB9D22E49309
:10377300FA740193FB221216F0740322125EF1E431
:10378300F090819322E88E828F83A3A3A3A3A3A3A4
:10379300A3A31237AA74011237AAA3F0EE241012BE
:1037A3005EF4E4F0A3F022124334A3A3A322C08265
:1037B300C0837A007B008004191237DB123765500F
:1037C300101237FAC3940550F0E970EC1237E48015
:1037D300047A007B00023D19EA24010AEB3400FB62
:1037E30022EA75F012A4FA75F012EBA428FB74B365
:1037F3002AFA740A3BFB22EAFCEBFDEC75F012A4F7
:10380300FCA8F075F012EDA42812381022FD74B74D
:103813002CF582740A3DF583E02274F712043374A5
:10382300F31209DD7E007F000238C2E50875F01748
:10383300A4F8A9F0126830FAA3E0FBEEF8EFF9E878
:1038430075F012A4F8ACF075F012E9A42C12391D2E
:103853006A7003A3E06B603FE50875F017A4F8AA4C
:10386300F0EA12682FF8A3E0F97401120BAFE068D5
:103873007003A3E0696020E50875F017A4F8EAF97E
:10388300742F28FC740C39FD7403120BAFAA82AB9E
:1038930083122032E96014E50875F017A4F8A9F043
:1038A300742D28FA740C39FB1211320508902B374A
:1038B300E493F8E508C398500302382E12390690B2
:1038C3002B24126B765039EEF8EFF912390FF4709E
:1038D30003A3E0F460E68518828519837401F0EE92
:1038E300F8EFF9E875F012A4F875F012E9A42AF9D3
:1038F30012392E120BAF12393C60C175080080AD2E
:10390300023EA0EE24010EEF3400FF22E875F01210
:10391300A4F8AAF075F012E9A42AF9123922227444
:10392300B328F582740A39F583E02274B528F58249
:10393300740A39124922740B22E8F0A3E9123FD327
:10394300120C2EE922C082C08390033D74F2F0A3CF
:10395300740EF090033F74ECF0A3740EF0900343E5
:10396300740CF0A3740DF0023D1974F7120433EADA
:10397300FEEBFF900377E06408601BE064046016CD
:103983008E828F83E0540364017048123D261244F3
:1039930029E06406703D8E828F83A3A3E064FE70EA
:1039A30003A3E0F4602D8E828F83A3A3123F3C9088
:1039B3000368E0687003A3E069700BEE2415F582D9
:1039C300EF1265B66008120FA0E9F5088008120F20
:1039D300A680F67508C2EEFAEFFB1217C2022E712B
:1039E30074F41204338A088B098A828B83E0F8A368
:1039F300E0FAE82AFAE43400FB1217BC8A0A8B0BBC
:103A0300AE0AAF0BEE4F6063850882850983E0FC45
:103A13007D0079001216FC8E828F83A3A3126EEBB6
:103A2300120FE28E828F83A3A3A3A3123EB5850850
:103A330082850983E0F8EE28F8EF3400123F4485CD
:103A43000882850983A3E0C0E0EE240D125EE3D073
:103A5300E0F0120FF4EE240E125EE3E9125595E046
:103A6300C0E0EE2411125EE3D0E0F0EEFAEFFB02C9
:103A730040F274F412043374EB1209DD8A088B09E3
:103A83008C0A8D0BE9FE900377E064046005E06423
:103A930008700479C2802EA37808120B70EE90038D
:103AA3007E123D20120B707405120BAFE9F0740403
:103AB300120BAF7401F07407120BAFE4F0900377AD
:103AC3007402123CB474150240EF74F6120433749A
:103AD300EB1209DDEAFEEBFF1251B76003023B7103
:103AE3007A077B001217BC900339123EB51251B707
:103AF30060788E828F83120B8C90033A12442C12BF
:103B03000B98126DAFC0E0123B7DD0E0F0EE2405C0
:103B1300FAEF3400FB8A088B098A82F583E0C0E060
:103B2300123B78D0E01240E9E0C0E0123B78A3D02A
:103B3300E0123F29120B8C851882851983120B988A
:103B430088828983E0C0E07405120BAFD0E0F08572
:103B53000882850983E0C0E07404120BAFD0E0F063
:103B63007407120BAF123CB38006791080027901FF
:103B73007415023F4E123B7DA322900339E0FAA352
:103B8300E0F5838A82A3A3A3A322C082C083125138
:103B9300B7600D900339125AC1900339E4F0A3F0D2
:103BA300120F101210D2023D1974F012043374EB89
:103BB3001209DDECFEEDFF89087425120BAF780CBA
:103BC300120B527429120BAFE0F9742A120BAFE0F7
:103BD300FC742B120BAFE0FD740F697005740F6C4E
:103BE300601290107CE06402700579C1023CAEE97A
:103BF300C39C40F6900378780C120B70E508900391
:103C03007EF0E990037CF0ECA3F0ED90037FF07479
:103C1300FF6A700374FF6B701D901087E0F47003EC
:103C2300A3E0F47005121714800C901087123E7DE8
:103C3300E8F0A3E98007900375EAF0A3EBF0EE4FF9
:103C43006017EEFAEFFB121192E96401700BEEFCC0
:103C5300EFFD7A897B03122038900368E4F0A3F028
:103C630090036BF0A3F0900388F090107CE0640263
:103C7300700890037C740FF0A3F09003777405F041
:103C830014120BAFE4F0900378120B8C8518828525
:103C93001983120B9890037EE0C0E07405120BAFFA
:103CA300D0E0F07407120BAF123CB3741502493025
:103CB300E4123FD312206822C082C083900338E00D
:103CC3007003121AA4120CD6804CC082C0839003D6
:103CD30038E090100E7004E4F0802D7401F090032E
:103CE30038E0F460237C41E0C394415002E0FCECF3
:103CF300F8E0C398F0EC75F0E8A4CCA8F075F003F5
:103D0300A428FD7A801249867A0E7B10794112200D
:103D1300508003120C7CD083D0820208FB123F3404
:103D2300780822EE125EF222E0F508A3E0F50922FC
:103D3300123D37221230B1A32274F512043374E218
:103D43001209DD851882851983ECF0A3EDF0EAFEF4
:103D5300EBFF89087429120BAFE0F509742C120BE1
:103D6300AFE0F50A900377E064046005E06408704F
:103D73000579C2023E6E742A120BAFE064FE700333
:103D8300A3E0F4700579C3023E6E900377740312C7
:103D93003FCF7950122050742A120BAFAA82AB8303
:103DA300794B122050851882851983123E7D123F6C
:103DB30048E50890036AF0742A120BAF123E76129C
:103DC3003F48E509900362123E8474CE550944804E
:103DD300C0E07412120BAFD0E0F07401250A900317
:103DE30088F0740F120BAF7402F0742A120BAF1227
:103DF3003F3C7407120BAFE8F0A3E9123EBB74100B
:103E0300120BAF123F487405120BAFE508F0741B99
:103E1300120BAFE4F090037D740FF07A7D7B03798E
:103E23005412205090037C740FF07A7C7B03794703
:103E330012205090037CE0C3940F50237405120B9F
:103E4300AFE0C0E07402120BAFD0E0F07404120BC9
:103E5300AF7401F004120BAFAA82AB831220747407
:103E630005120BAFAA82AB83122056741E1209638C
:103E7300022D3812492490036B22124924900375B2
:103E830022F0EEFCEFFD7A897B031220382274F7CF
:103E9300120433EB90037FF0120EFE8005740D12B3
:103EA30009637F0102064D123EB0A3E022123F29AF
:103EB300A322EAF0A3EBF022123F2FF8A3E0F922AA
:103EC30074F712043374F81209DDEAFEEBFF79008C
:103ED300900377E06408704485188285198374FD24
:103EE300F0A374FFF0120FDC7402120BAF123EB595
:103EF3007405120BAFE4123EB0E0C0E07404120B81
:103F0300AFD0E0123F24C0E07406120BAFD0E0F054
:103F13007407120BAFE4123FCF12101E7408023E57
:103F2300A2123F29E022F08E828F8322123F34E0D7
:103F330022F08518828519832212492422E0F8A3EE
:103F4300E0F9125EF1E8F0A3E9F0221209637F02BF
:103F530002064DC082C083900349749CF0A3740D84
:103F6300F09003EF7478F0A37410F090034D74D2C3
:103F7300F0A3740DF090034F749CF0A3740DF090B4
:103F8300035174D8F0A3740DF0023D1974F41204B4
:103F93003374F91209DD8A088B098C0A8D0B851895
:103FA300828519837808120B707404120BAFE9F041
:103FB3007405120BAFE4F07406120BAFE4123FCF9B
:103FC300120CBE74070240EFE8F0A3E9123FD322BC
:103FD300123F34AA82AB832274F41204338A088B0F
:103FE300098A828B83125EFFEE4F70030240E790D3
:103FF30003121251BA60158A828B83A3A3E0F9EEF0
:10400300FAEFFB90031312442C12222F8E828F831C
:10401300A3A3A3A3A3A3A3A3A3E0640270748E82A8
:104023008F83A3A3A3A3A3A3E0540270030240B905
:10403300850882850983A3A3E064E960798E828F72
:1040430083A3A3A3A3A3A3A3A3A3A3E07014901088
:104053007FE0048E828F83A3A3A3A3A3A3A3A3A31D
:10406300A3F08E828F83A3A3A3A3A3A3A3A3A3A33A
:10407300E0141240E9A3A3A37404F0901080125932
:104083003AE8F0A3E9126A138B0BEA450B700312AB
:1040930063F18E828F83A3A3A3A3A3A3A3A3A3E00C
:1040A300640260128E828F83A3A3A3A3A3A3A3A3FB
:1040B300A3E06406702E8E828F83A3A3A3A3A3A37E
:1040C300E0A2E0501F850882850983A3A3E0F9EEEF
:1040D300FAEFFB1221108E828F83A3A3A3A3A3A3C2
:1040E300E054FEF0800912433022740D1209637FFD
:1040F3000402064D74EC12043374DD1209DDEAFE8A
:10410300EBFF8C088D097437120BAF780C120B522E
:10411300750A007405120BAFAC82AD8312214C7487
:1041230012120BAFE070087415120BAFE06020742D
:1041330005120BAFE0A2E6501E8E828F83A3A3A3CA
:10414300A3A3A3A3A3A3125634121054E9600879BE
:10415300031220200243167405120BAFE0540C64C3
:10416300047005750B018003750B00E0A2E5503563
:10417300750A01E50BA2E0402C120FE28A108B11A5
:10418300A810A911123D26E0687003A3E069601529
:104193007405120BAF126EF212563012211CE96035
:1041A30004790480AC7405120BAFE0A2E6502274CC
:1041B30006120BAFE0540370187405120BAFE054F2
:1041C3000C640C600CE0540C6408600575100180ED
:1041D300037510007405120BAFE05403F874026802
:1041E300700C126EF2125630120BC8024316740191
:1041F30068703AE510A2E0500312431E7405120BD7
:10420300AFA882A9837403120BAFE8F0A3E91249A4
:1042130018851882851983124328E0C0E0740212BE
:104223000BAFD0E0123FCF122200024316E8600327
:1042330002431690035FE0640170108E828F83A3A4
:10424300A3A3A3A3A3E070030241A47422120BAFA0
:104253007402124918741A120BAF123F48E510A2E8
:10426300E050087405120BAF12431EE50BA2E05099
:104273006AEE240FF582EF1265B6C0E07417120BD5
:10428300AFD0E0F09003141251BA70030243161238
:104293000FE28A128B13A812A913741A120BAFE040
:1042A300687003A3E069706B780C120913780A1223
:1042B300091F780812091BA910740C120BAFAC82EA
:1042C300AD837421120BAFAA82AB83900314124403
:1042D3002912222F74071209638038780C120913EC
:1042E300780A12091F780812091B900375120752E6
:1042F300EE2412F582EF1262E47423120BAFAC8248
:10430300AD83740E120BAFAA82AB8312210474091E
:1043130012096374231209630269DE126EF2125AE0
:10432300CF12169C22E8F0A3E91243302212433441
:1043330022F08E828F83A3A3A3A3A3A32274F712D5
:104343000433121978023EA574F712043312197E4E
:10435300023EA574F712043312198A023EA5C082E5
:10436300C083121984023D1974F712043312199091
:10437300023EA574F71204337409120BAFE0F5087B
:10438300780812091F12199C7401023EA2C082C050
:10439300831219A8023D19C082C0831219AE023DCF
:1043A3001974F71204331219B4023EA574F71204F8
:1043B30033EAFEEBFF890874016508701479001273
:1043C3000E14902B42E493FC7900EEFAEFFB120DEE
:1043D3008A023EA574F412043374F91209DDE9FE6E
:1043E3008A088B098C0A8D0B7413120BAF12563487
:1043F30090061D1251BA6027EE851882851983F045
:104403007401120BAF7808120B70EAF8EBF974051C
:10441300120BAF123FCB90061D12442912222F021A
:104423003FC6FB90034BE0F8A3E0F583888222C0EC
:1044330082C0831219EA023D1974F71204339010F3
:1044430011E0F97E00800B1265A2540D6401700126
:10445300190E1246365003E970ED023EA574F712A9
:104463000433901012E0F97E00800B1265A2548D84
:1044730064817001190E1246365003E970ED023E55
:10448300A574F2120433890BE975F006A4240CF524
:1044930008E5F01237608A0CE508250CFAE50934C3
:1044A30000FB1217BC8A0C8B0DAE0CAF0DEE4F60E8
:1044B30027AC08AD0979001216FC123D26E50BF076
:1044C300EE2508F8EF3509F98E828F83A3A3A3A302
:1044D300A3A3A3A3A3123F48EEFAEFFB02542F7446
:1044E300F6120433EAFEEBFF120D66901010E0F8AB
:1044F300E9C3984009900345125634120D6CEE241B
:1045030002F8EF125C44900347125AFE900347E00F
:1045130004F0EEFAEFFB120D72850882850983E041
:104523000260FAC082C083790090034580010912BA
:1045330056348A828B83E582458370F2023D197477
:10454300F7120433EAFEEBFFEE4F60569003451279
:1045530051BA604E888289837A007B00EE6582704F
:1045630003EF6583600FAA82AB831245A8E58245FA
:1045730083602F80E79003451245B4687002EF69AA
:104583008E828F837008123F3C900345800312692B
:10459300F0123F48EEFAEFFB1221D0EEFAEFFB12D6
:1045A30017C2023EA51245AC22124928888289838C
:1045B30022124924EE22C082C083900345800488DE
:1045C3008289831251BA600B88828983124C6CEC06
:1045D3004D70EC8A828B83E4F0A3F0E8496006888F
:1045E3008289838003900345123EB5023D1974F717
:1045F30012043390034580048A828B831246314B25
:1046030060257E0080010E12463650ECEE75F006F2
:10461300A4FCADF0EA2CFCEB3DFDEC2410F582ED9F
:1046230012468670E180047A007B00023EA5125A8E
:10463300D3EA2212468FEEC3982274F71204337D15
:104643000080010D12468BEDC3985034ED75F006D2
:10465300A4FEA8F0E8FFEA2EFEEB3FFFEE2410F5E0
:1046630082EF12468670DCED75F006A4FEE8FFEAE1
:104673002EFAEB3FFBEA2411F582EB1265B64CF000
:10468300023EA51265C2692212468F22126EFCEB0E
:104693003400F583E0F82274F6120433120E8C7A98
:1046A300007B008025EAF8EBF9E875F006A4F8AC86
:1046B300F075F006E9A42C125AA8126DBDA3E412FA
:1046C3005B9EF0A3126DC3126F3A902B2C1233DF53
:1046D30040D37A007B00801C8A088B097403780816
:1046E300120ADE12555CA374FEF0A30412597EA3D2
:1046F300E4126F3A902B3612473940DC7A007B0084
:10470300801D8A088B0974037808120ADE74551217
:10471300622E740F126A7574FEF0A304126F3A903E
:104723002B3C12473940DB902B40E493900353F02A
:10473300124743023F51E493F8C3EA98EB940022F3
:104743007CE87D037A107B009003C2E0F9121882A3
:104753002274F012043374F51209DD8A088B098977
:104763000A8C0BE9A2E050147508FC7509FFA2E15D
:104773005005D2E4024816D2E302481612541B70C5
:1047830003A3E069700579000248E3AC0A7902AA41
:1047930008AB09120E68E960EDE50AF50C780C1216
:1047A300091F79027CFE7DFFAA08AB0912519612FC
:1047B3000963E960030248E1E50AC2E5F50A9003EB
:1047C300B5E07051E50AA2E6404B7403120BAFAC9F
:1047D30082AD83AA08AB09120C0AE97032124AB7F8
:1047E3008A0C8B0DA80CA90DE8FEE9FFE8496025AA
:1047F300EE24020A0AEF1230EF601AEE2402FCEFF5
:104803003400FD7403120BAFAA82AB83122038E588
:104813000AD2E5F50A900348E0F50C900368E0F549
:104823000EA3E0F50F780E12091B7D017C009003A7
:1048330048E0F9AA0EAB0F120E207402120963E9C5
:10484300F8900348E004F0E860030248E1E50AA2B7
:10485300E55004740E80027406C0E07401120BAFBD
:10486300D0E0125F108A0E8B0FAE0EAF0FEE4F60CB
:1048730069124901124918888289837401F0747896
:10488300550AA3126F02E50C126F02A3E508F0E5C7
:10489300091248F0E4F0E50AA2E5500F7403120B85
:1048A300AFAC82AD83E824061248E78E828F83A3E0
:1048B300A374FDF0A374FFF0E50B6015902B43E4A4
:1048C30093F8E50BC3985009EE2413125EE3E50B4E
:1048D300F0EEFAEFFB120CAC80067910800279C778
:1048E300740B8049FAE93400FB122038228882894C
:1048F30083A3A3A3A31248FC22125C77A322EE2472
:1049030017125EF47401F0120FDCEE241A125EF437
:10491300EAF0A3EB22F0126EF6340012492222F5DC
:104923008312492822E0F8A3E0F922740D120963E7
:104933007F0802064D74F61204337A007B1012636B
:10494300FE60089003D47401F080299006BEE064F1
:104953000190107D7006E0FC79018004E0FC79038E
:104963007A007B00120D8A902B2A12497A7A007BF7
:1049730010124988023F5112497E22E493FC7401CC
:1049830093FD227B009003C2E0F912187C2274ECA1
:104993001204338A088B098C0C8D0D890E74141242
:1049A3000BAF1253757416120BAFE0F510A3E0F5BD
:1049B30011121054E960077AFF7BFF024AB490108A
:1049C3007CE064026003024AA77900AA08AB0912DB
:1049D3000E6EA90E120E628A128B13AE12AF13EE75
:1049E3004F7003024A8F8E828F83A3A3A3A3A3E0F6
:1049F30064018E828F83A3A370691256348E828FD3
:104A030083A3A3A3A3A3A3E054186043902B41E47F
:104A1300938E828F83A3A3A3A3F0EA650C7003EBA9
:104A2300650D6014EA650A7003EB650B600AEA65BD
:104A3300107003EB6511701F781012091BAC0AADDF
:104A43000BAA0CAB0D12115074021209638008906B
:104A530003671263E8A3F074FE6A700374FF6B606C
:104A63001D804EA3A3A3E0640360298E828F83A3DA
:104A7300A3A3A3A3E0640470057AFE0249BC8E825B
:104A83008F83A3A3A3A3A3E0640270089003B4E0FD
:104A930064027010124AB78B0BEA450B6006AA0832
:104AA300AB09800DAA08AB099003491244291222CD
:104AB3002F0269DE90037512519C1211142274F7B0
:104AC300120433EAFEEBFF120C5EE9700AEEFAEF12
:104AD300FB120C6AE96006EEFAEFFB80047AFE7BB8
:104AE300FF023EA574F01204338A0A8B0B8C0E8DE1
:104AF3000F8909750800121054E979006003024C0C
:104B03005EAA0AAB0B120E6EA909120E628A0C8BF7
:104B13000DAE0CAF0DEE4F60198E828F83A3A3A34E
:104B2300A3A3E0640270559003B4E064027003022F
:104B33004C5CAA0AAB0B90034F12442912222F128A
:104B43000C708A0C8B0DA80CA90DE8497003024C5C
:104B53005C88828983A3A3A3A3A3E0A2E04003020A
:104B63004C5C750C01A2E150687901AC0AAD0BAA4B
:104B73000EAB0F120DBAE97064024C5C8E828F8308
:104B8300A3A3A3A3A3E064037005750C0280528E54
:104B9300828F83A3A3A3A3A3E064016003024C5CFD
:104BA300900375124C6C8E828F83124FC18A0C8BCB
:104BB3000DA80CA90DE84960D1902B3AE493FA882B
:104BC300828983E0C39A50C2A3E06003024C5C80F5
:104BD300B988828983A3A3A3A3A3D2E1F0EE4F6094
:104BE3003A8E828F83A3A3A3A3A3A3E05418602BBD
:104BF3007508018E828F83A3A3120752750CFE756D
:104C03000DFF780C12091B7900AC0AAD0BAA0EAB91
:104C13000F120E807404120963803E900368E065EE
:104C23000E7004A3E0650F7014902B42E493FCA96B
:104C330009AA0AAB0B120D8A750801801CA90CACDA
:104C43000AAD0BAA0EAB0F120DBAE9700C75080171
:104C5300A909AA0AAB0B120E14A908024933E50CE1
:104C63002415F582E50D125EF71259542274EA12E7
:104C7300043374F01209DD8A0C8B0D8C088D0974D2
:104C830026120BAFE0F514A3E0F515751206900399
:104C9300F51251BA6023900375124C6CAA08AB0944
:104CA30012113E8A108B11EA4511600D8A828B83A3
:104CB300A3E070057900024FA9E50C241DF50EE56C
:104CC3000D3400F50F850E821251A6F513888289E3
:104CD30083A3A3A3E0FA88828983A3A3A3A3E0F910
:104CE300EA2400FEE439FFAA08AB09120E1A850E66
:104CF30082850F83124FE4E029F50BE50AA2E55004
:104D03000375120E7487550A70177418550A6418C0
:104D1300600FE50C2417F582E50D1265B665126088
:104D2300077901122020808C530A78C3EE94F8EFA0
:104D330094FF501D7900EEFAEFFB124FB360128817
:104D4300828983A3A3A3A3A3A3E054186003024C03
:104D5300B7780812091B7D00124FD7120963E9F8CF
:104D63007403687003024CB7E86003024E227418A0
:104D7300550A7003024ED7E50AD2E0F50AA2E450C1
:104D830004D2E1F50AA90A12562D124FB3605388D3
:104D9300828983A3A3A3A3A3A3E0541860448882B6
:104DA3008983A3A3A3A3A3E064017036E51045118F
:104DB3006030900375124C6C88828983124FC18ACC
:104DC3000E8B0FA80EA90FE849601788828983A369
:104DD300E0600F851082851183A3126105500302E1
:104DE3004CB7E50AF50E780E12091F124FCA1209C5
:104DF30063E9702B7C007D0085148285158374FF25
:104E0300F0A3F0850C82850D83A3A3A3A3A3A3A37F
:104E1300A3E06003124C61A90B12562D1219A2854F
:104E23001482851583E0F47003A3E0F460399003E2
:104E3300B4E064027003024CB7125366E0FAA3E0D5
:104E430012442512222FEA65087003EB65096003FB
:104E5300024CB7EEFAEF12442512222F85148285F5
:104E63001583EAF0A3EBF0780812091B7D01124FBA
:104E7300D7120963A90AEEFAEFFB120E6E8A088BAA
:104E830009A808A909900368E0687003A3E06960B2
:104E930003024F9AEEFAEFFB120C708A088B09A8F3
:104EA30008A909E849606E88828983A3A3A3A3E0C4
:104EB3006401600D88828983A3A3A3A3E0640270C5
:104EC30054851882851983AC82AD83EEFAEFFB1209
:104ED3000C0A8055900361E0600FE50AF50E780E29
:104EE30012091F124FCA120963E50AF50E780E1252
:104EF300091F79027CFE7DFFEEFAEFFB1251961239
:104F03000963E96003024E2285148285158374FFC9
:104F1300F0A3024E69120FDCEAFCEBFD85188285D3
:104F23001983AA82AB83122038850C82850D83A353
:104F3300A3A3A3A3A3A3A3E06401700F124C617402
:104F430008120BAFAA82AB83122038125170125D84
:104F53007C4430F508780812091F7401120BAF85E1
:104F63008208858309780812091B740B120BAF851D
:104F73008208858309780812091BE513F508780868
:104F830012091F7900EEFCEFFD12562D120DB474B9
:104F930006120963024CB7125170125EE6124FE417
:104FA300E50BF0120FF474101209637F0E02064D25
:104FB300120E628A0E8B0FA80EA90FE84922A3A333
:104FC300125AD312113E227901AC08AD09125AC804
:104FD30012519622AC0BA913125AC8120E20740256
:104FE30022125D84A3A3A3A32274F012043374F0EA
:104FF3001209DD8A0C8B0DECFAEDFB750F0890039B
:10500300F51251BA60141260FE8A828B83E58245E1
:10501300836007A3E0700302516B125170340012D6
:1050230051A6F50B88828983125179E0FBEC2400A9
:10503300FEE43BFF88828983A3A3125179A3A3E0F3
:10504300FBECF508E43BF50988828983A3A3A3A3BA
:10505300A3A3A3E0F50EE50AA2E45003750F10A283
:10506300E550067408250FF50F748F550A700FE588
:105073000C2417F582E50D1265B6650F60087901FA
:1050830012202002516B530A707800E50AA2E45003
:10509300221251701265B62408FCA3E03400FD749B
:1050A30008120BAFAA82AB831220387808E50AC234
:1050B300E4F50AE50AA2E550281251701265B628F4
:1050C300F8A3E03400F9E82408FCE93400FD85186E
:1050D30082851983AA82AB83122038E50AC2E5F5DB
:1050E3000AAC0EA90BEEFAEFFB120E26E9F87403D5
:1050F300686075900368E06E7003A3E06F605EE81C
:105103007054E50AF50F780F12091F12518712091F
:1051130063E97054780A12091F7401120BAF858278
:105123000C85830D780C12091B740B120BAF85824F
:105133000C85830D780C12091BE50BF50A780A120E
:10514300091FA90EAC08AD09EEFAEFFB120DB474FA
:10515300061209638012740468700D80B7780A120E
:10516300091F1251871209637410024930E50C2498
:105173001DF582E50D22A3A3A3E0FC88828983A306
:10518300A3A3A322790112536D125EF712519C124D
:10519300519622120DDE740122E0FCA3E0FDAA0861
:1051A300AB0922F5831245ACA3E0F50A8882898313
:1051B300A3A3E022900339125B2F2274E812043375
:1051C30074F51209DDEAFEEBFF8C088D098914746E
:1051D30023120BAFE0F50F7424120BAFE0F512A30B
:1051E300E0F5137426120BAFE0F516A3E0F5177480
:1051F30028120BAFE0F50EA90F120E2C8A108B119B
:105203007401120BAF7408F0E50EA2E4500374109E
:10521300F0E50EA2E55004E02408F0851882851914
:1052230083AA82AB8312103C8A0C8B0DEA450D7066
:105233000302534DEA2417F582EB12535F120FDC7E
:10524300E50C241AF582E50D125EE6123EB57403F1
:10525300120BAFAC82AD83AA10AB11120C0AE9603A
:105263001D1253577403120BAFA882A983E50C24B4
:1052730018F582E50D125EE6E8F0A3E98024E50E59
:10528300A2E4501FE5106E7003E5116F7015125301
:1052930057E50C2418F582E50D125EE6E512F0A33E
:1052A300E513F0125366125375850A82F58374026F
:1052B300F0A3E50E12537DE50FF0EE850A82850B10
:1052C30083A3A3A3F0EF850A82850B83A3A3A3A3E0
:1052D30012537DA3A3A3E508F0E509850A82850B94
:1052E30083A3A3A3A3A3A3F0AA10AB11120E1AE9DD
:1052F3002514850A82850B83A3A3A3A3A3A3A3F0E9
:10530300750800E50EA2E45011AC12AD13E50A24B2
:1053130008FAE50B1248E9750808E50EA2E55014F2
:10532300AC16AD17E50A2508F8E50B3400F9E824B7
:10533300081248E7850C82850D83A3A3E510F0A32B
:10534300E511F0AA0CAB0D120CAC740B1209637FC0
:105353001002064DE50C2416F582E50D125EF77476
:1053630001F02212536D125EF722E50C126EFDE579
:105373000D22E0F50AA3E0F50B22F0850A82850BE6
:1053830083A3A32274F21204338A088B09ECFEED83
:10539300FF890A790012541B7003A3E06970047932
:1053A300018073750B01900368E065087004A3E046
:1053B3006509601F750B00780B12091FA90AEEFC23
:1053C300EFFDAA08AB091210907401120963E9F505
:1053D3000B80417900EEFAEFFB120E62EA4B602B71
:1053E3008A828B83A3A3A3A3A3A3E05418601C7591
:1053F30008FE7509FF780812091B8A828B83A3A311
:10540300120752126D1212096380097901EEFAEF45
:10541300FB120D3CA90B8014120E6E8A0C8B0DA887
:105423000CA90D900368E068221209637F06020647
:105433004D74F412043375089D75090D7A10126AC0
:105443001A8B0BEA450B7003124743900353E01486
:10545300F0700C902B40E493900353F0120E7A7E7D
:10546300007F00806C850882850983A3A3A3A3E042
:105473006059F46056E5082404F582E5091263E2F5
:105483007049850882850983A3A3A3A3A3E06403CA
:1054930070197902850882850983124C6C8508820C
:1054A300850983A3A3125634120DBA850882850990
:1054B30083A3A3A3A3A3E0640160108508828509E5
:1054C3008374FEF0A30412558EE4F01239061237EA
:1054D30058902B2E126B76408C7E007F0080391201
:1054E3000F828E088F0974037808120ADE7415255B
:1054F30008FC740F3509FD7AC67B0D120F70EA4B59
:1055030070DD8E088F0974037808120ADE12555C69
:10551300126DBDE4F0123906902B36E493F8C3EE16
:1055230098EF9400501B8E088F0974037808120AB1
:10553300DE125564E82407F582E91263E270D6802F
:10554300A17E007F00800A12556F600214F01239A9
:1055530006126B7340F10240F2125564888289830C
:105563002274152508F8740F3509F922EEF8EFF9BE
:10557300E875F006A4F8AAF075F006E9A42AF97410
:10558300B528F582740E39F583E022125595A3A34D
:10559300A322F0850882850983A3A32274F712044A
:1055A3003374E11209DDECFEEDFF750800EE4F6088
:1055B300728A828B83E0241C1264131251BA6063D3
:1055C3008A828B83125634851882851983AC82AD07
:1055D30083EA241BF582EB1262E4EA241CF582EBD6
:1055E300125630120FC4740B120BAF1256387003DD
:1055F300A3E069702E7402120BAFE064017024748F
:105603001D120BAF124429E064017017741D120BB5
:10561300AF12442BA3A3E0F88E828F83E06870035C
:10562300750801A908741F023EA212536D3400F5D8
:1056330083125AD3221230ADE0682274F412043379
:10564300E97024790090034D12442912222F8A0A0B
:105653008B0BAE0AAF0B74FE6E700374FF6F701A80
:10566300902B3DE4936013790190034D124429126A
:10567300222F8A0A8B0BAE0AAF0B121000023A6E6E
:1056830074F612043374F31209DD1217148A088BAB
:1056930009AE08AF09900368E06E7003A3E06F6082
:1056A300E9120FE8EA6E7002EB6F60DEEEFAEFFBD1
:1056B300121054E970D4EE4F60D085188285198397
:1056C300E4F004120BAFEEF0A3EF1256E6E970BA62
:1056D30074FE6E700374FF6F60B0EEFAEFFB740D2F
:1056E300023F4E123FD3120C2222C082C0831210FB
:1056F30000023D197F0A02064D74F2120433EAFEDA
:10570300EBFF8C0A8D0B8908740E120BAFE0F509C1
:1057130074FC6E700374FF6F7005790002542F7967
:1057230000120E6E8A0C8B0DAE0CAF0D900368E069
:105733006E7003A3E06F7006E509A2E650DCA909C9
:10574300126C00706179007AFE7BFF126C00705658
:1057530074185509700302583378007900800312D6
:1057630032A7902B2E12329E4003025833E8FAE9F7
:10577300FBEA75F007A4FAACF075F007EBA42CFB79
:1057830074A32AF582740D3BF583E0541870D0E8B6
:1057930075F007A4F8AAF075F007E9A42AF9749D37
:1057A30028F8740D39F988828983A3A3A3A3A3A33B
:1057B300E05418600974185509700302571D888254
:1057C3008983EEF0A3EFF074FE650A700474FF653D
:1057D3000B600312595A88828983A3A3A3A3A3A3AB
:1057E300E509F0A2E0500D88828983A3A3A3A3A3B4
:1057F300A3D2E2F07401650888828983A3A3A3A3DB
:10580300A37038740112597EE054186028902B411C
:10581300E49388828983A3A3A3A312594812113E58
:105823008B0DEA450D600302571D7800790080391E
:10583300790202571F900367E080D7E06401700389
:1058430002571D88828983A3A3A3A3A3A3E05418AB
:105853006007902B41E4938004900366E01248F0C4
:10586300E508F002571D1232A7902B37E493FAC3D1
:10587300E89AE99400400302571D7A007B00804BAD
:10588300EAFCEBFDEC75F007A4FCAEF075F007ED58
:10589300A42EFD749F2CF582740D3DF583125EFFDB
:1058A300E8FCE9FDEC75F017A4FC85F00975F01729
:1058B300EDA42509FD742D2CF582740C3DF583E0D0
:1058C3006E7003A3E06F609E1237DB902B2E1237AE
:1058D3006840AD12497AEC6A7002ED6B7088E87526
:1058E300F017A4F8AAF075F017E9A42AF9742D2883
:1058F300FE740C39FF7C177D007900EEFAEFFB1282
:1059030016FC8E828F8312596090037512593AA345
:10591300A3A3A3A3A3E8F0A3E91259407401F0EEF3
:10592300240E125EE374011259681202E2EE240D92
:10593300125EE3E8025865123D37A3A322F0EE247A
:105943000F125EF422F0125951AA0AAB0B229003F4
:1059530075E0FCA3E0FD2288828983A3A3E50AF016
:10596300A3E50BF022F012596D22902B3AE4932415
:1059730001F8E43400F97A027B00221248FCA322E6
:1059830074ED1204338A088B09890E125AB140054B
:105993007905025A7F1219F0AA08AB09125B8390AA
:1059A3002B2C125A82650A7003E9650B70077AFE85
:1059B3007BFF125B83902B2CE4125A8AE50A98E54D
:1059C3000B994003025A7D125A8E6012E50A75F054
:1059D30006A4F875F006E50B125AD91217C2E50EA4
:1059E3006018E50A75F006A4F8AAF075F006E50B51
:1059F300125B05701A7901025A7FE50A75F006A455
:105A0300F8AAF075F006E50B125AE6E4F0A3F0E508
:105A13000A75F006A4F8AAF075F006E50B125AA66B
:105A2300A3125D9288828983A3AA82AB83125AF45C
:105A33008A828B83E0603F125A8E603A8E108F11F8
:105A43007512007810120917E50EC333FCE433FD19
:105A5300E50A75F006A4F50AA8F075F006E50BA4AF
:105A630028F50B74B9250AF582740E350B125632DC
:105A7300123779120963790080027907026C1612D2
:105A83003400E822902B2412659D22E50A75F00666
:105A9300A4F8AAF075F006E50B125AE1F8A3E0F9B1
:105AA300E84922A42A125C3A88828983A322ECFE65
:105AB300EDFF902B38E493F8E9C39822F583125A4B
:105AC300D31217C222E50C126EFDE50D3400F583E7
:105AD300E0FAA3E0FB22125AE1FAA3E0FB22125AF6
:105AE300E6E022A42AF974B928F582740E39F58305
:105AF30022E50EF090107E125AFE22E088828983FE
:105B0300F022125C5EF50CE93400F50DE50EC333AB
:105B1300FAE433FB1217BC850C82850D83EAF0A3EC
