:020000040000FA
:06000000020A9A0201DD74
:03002B000208D5F3
:030033000206F1D1
:0300430002078A27
:0300530002010E99
:03006B000206D7B3
:100083000201720101FF050301601060106010603E
:10009300101C0F160F6010B1230000000013240082
:1000A3000000000C0000000C000100002E120000F4
:1000B30000000000E8120000000000000000000043
:1000C300FFFFEECC0100000000000007000000006D
:1000D300000000FF0101010029050000007A05E886
:1000E3000364006400B8010202000800000502076F
:1000F300051E02051E0A03B80B0201023412021F79
:1001030000E0079651180002020612C0E074F212D2
:1001130003F6A2AFE433FED2AFE5A7FFE5A1F508EE
:100123005F5410600612196C75A1EFE5085F54085F
:10013300600812197275A1F7802BEFA2E0C0D0E519
:1001430008A2E092F01209D7158182F0501790614E
:1001530098E0F8900854E0C398A2D265D0335002D7
:10016300E8F075A1FEEEA2E092AF7F01020455C054
:10017300E074F21203F6A2AFE433FED2AF9061A4AF
:10018300E0F8759B00E59158540860087591F712E3
:1001930019BA802AE59158541060087591EF121925
:1001A300C0801BE8A2E0C0D0E591A2E092F0120962
:1001B300D7158182F05007E0C2E0F0121B04906172
:1001C300A3E0F8E5E9585404600E121ADA75E9FB66
:1001D300906193E0A2E640F2808BC0E074F21203D8
:1001E300F6A2AFE433FED2AF9061A5E0F8E5BF58C5
:1001F3005404600675BFFB121B1C020168C3E4981C
:10020300F8E499F91202418026C3E49AFAE49BFBCD
:10021300E920E7E9120241E498F8E499F922C3E4FA
:1002230098F8E499F9120241E498F8E499F9C3E4DF
:100233009AFAE49BFB22EB20E7CFE920E7E0B90041
:1002430010BB0008E88AF084F8AAF022E4FBC8FA9D
:1002530022EB70227B10C833C8C933C9335007C39C
:100263009AC3DBF280069A50012ADBEAC833F4C84A
:10027300C933F4C9FA2275F008E4C833C8C933C9CD
:1002830033C99AC99B5004C92AC93BD5F0ECFBC8B2
:1002930033F4C8E4C9FA22080808EAC0E0EBC0E076
:1002A30086F0E7A4FA180986F0E7A42AFA18098663
:1002B300F0E7A42AFA180986F0E7A42AFA1986F0C7
:1002C300E7A4FBE5F02AFA190886F0E7A42BFBE57F
:1002D300F03AFA190886F0E7A42BFBE5F03AFA188E
:1002E300180986F0E7A4C5F02BFBE43AFA1908E7EE
:1002F300C5F0C6A426F6E5F03BFBE43AFA1886F00F
:10030300E7A4F6E5F00826F6E43B08F6E43A08F637
:10031300D0E0FBD0E0FA22E4CFC0E0E4CEC0E0E4DA
:10032300CDC0E0E4CCC0E075F020C3E633F608E6C8
:1003330033F608E633F608E633F6181818EC33FC00
:10034300ED33FDEE33FEEF33FFC3EC9709ED970971
:10035300EE9709EF97191919400FFFEC97FC09ED78
:1003630097FD09EE97FE191906D5F0BEECF709EDD6
:10037300F709EEF709EFF7191919D0E0FCD0E0FD02
:10038300D0E0FED0E0FF222518C582C0E0E5193495
:10039300FFC583C0E0E518C3958224F810AF088534
:1003A30083198582188008858319858218D2AFCE78
:1003B300F0A3E520F0A37808E608F0A3DEFAEFF057
:1003C300A3E58124FAF8E608F0A3E608F0A3E6081B
:1003D300F0A30808E608F0A3E608F0A31581158149
:1003E300D0E0FED0E0F8158115811581E8C0E0EE7C
:1003F300C0E022C0D02518C582C0E0E51934FFC58E
:1004030083C0E0E518C3958224F310AF08858319F0
:100413008582188008858319858218D2AFC8F0A316
:10042300E9F0A3EAF0A3EBF0A37908E709F0A3D876
:10043300FAECF0A3EDF0A3EEF0A3EFF0A3D0E0F01D
:10044300A3D0E0F0A3D0E0F0A3E520F0A3E5F0F023
:10045300A322851983851882E0C0E0A3E0F9A3E015
:10046300FAA3E0FBA37808E0F608A3DFFAE0FCA315
:10047300E0FDA3E0FEA3E0FFA3E0C0E0A3E0C0E053
:10048300A3E0F5D0A3E0F520A3E0A3F5F010AF08B7
:100493008583198582188008858319858218D2AFD0
:1004A300D082D083D0E0F8D0E032120AFCB9000346
:1004B3000204EFE490030178AB790A8002F0A3D839
:1004C300FCD9FA900CABAA82AB8390008678897929
:1004D300018015E493A3AC82AD838A828B83F0A35E
:1004E300AA82AB838C828D83D8E9D9E7758296750E
:1004F30083A0740312084D7582B075831D740012B6
:10050300084DE8030875F0108E1A8F1B85821F852E
:10051300831E851882851983E0CEA3E0CF851F82D1
:10052300851E83EBC9EAC8EDCBECCAC3E833C8E93F
:1005330033C9EA33CAEB33CBC3EA9EF51DEB9FF510
:100543001CB35004AB1CAA1DEC33CCED33CDD5F05A
:10055300DAAE1AAF1B22D083D082ECC0E0EDC0E04C
:10056300E493A3FCE493A3FDED4C600D120631EC80
:1005730024FFFCED34FFFD80EFE493A3FCE493A39D
:10058300FDED4C600D120735EC24FFFCED34FFFD4F
:1005930080EFD0E0FDD0E0FCE493A3C0E0E493C09F
:1005A300E022851983851882E0A3FEE0A3F5207875
:1005B30008E0A3F608DFFAE0A3FFE0A3C0E0E0A3AE
:1005C300C0E0E0A3C0E0E0A3C0E0E0A3C0E010AF60
:1005D300088582188583198008858218858319D236
:1005E300AFD083D082020853D083D082E9C0E0E445
:1005F30093A3C386F0C5F095F0F908E493A386F0BE
:10060300C5F095F0700BE493A3C3994005E904800A
:1006130002A3E475F002A42582F582E5F03583F5A3
:1006230083D0E0F9E493A3C0E0E493C0E022C0E008
:10063300C3E49396087401939618400FE49366708D
:100643000808740193661870007019A3A3C3E49398
:1006530096087401939618A3A3400DD0E0D0E0D080
:10066300E0020595A3A3A3A3A3A3D0E022D083D044
:1006730082C5F0E493A3C5F0C395F0F5F0E493A32A
:10068300C395F04005E5F0048001E475F002A4256C
:1006930082F582E5F03583F583E493A3C0E0E49328
:1006A300C0E0227404800474028000CCC0E0EDC07A
:1006B300E0E518C39CCCAD1950011D10AF068C1892
:1006C3008D1980068C188D19D2AF1207CFD0E0FD9B
:1006D300D0E0FC22C0E074F21203F6E589A2E150F7
:1006E30003121828758900C2C57F01020455C0E0B2
:1006F30074F21203F6E58BA2E05003121828758BEF
:1007030000C2E880E474028000CCC0E0EDC0E0E504
:1007130018C39CCCAD1950011D10AF068C188D1950
:1007230080068C188D19D2AF1207ADD0E0FDD0E052
:10073300FC22C0E0C0F088F0E493667008087401FE
:100743009366187000A8F0A3A3700BD0F0D0E0D08C
:10075300E0D0E0020595A3A3D0F0D0E022D083D06F
:1007630082CCC0E0E493A3600612082E1470FAE46E
:1007730093A3600612091F1470FAD0E0FCE493A35C
:10078300C0E0E493C0E022C0E074F21203F6A2AF2B
:10079300E433FED2AFC2C0E5D1A2E450031218E2A3
:1007A300EEA2E092AF7F01020455CAC0E0E493A336
:1007B300C582CCC582C583CDC583F0A3C582CCC514
:1007C30082C583CDC583DAE5D0E0CA22CAC0E0E0A2
:1007D300A3C582CCC582C583CDC583F0A3C582CC16
:1007E300C582C583CDC583DAE6D0E0CA2270090885
:1007F3000808226016181818C6C333C608C633C6BD
:1008030008C633C608C633C6D5E0EA22C008C3E02B
:1008130096F50808A3E096420808A3E09642080864
:10082300A3E09645087001D3D00822C0E0E493A367
:10083300D39C5010E493A3C39C400AD0E0D0E0D0F3
:10084300E002077DA3A3A3D0E022C09FF59FE4733A
:10085300D09F22D083D082C09FE493C0E0740193E1
:10086300C0E0740293F59F227404800A7403800627
:10087300740280027401C0E0F404120886D0E0120E
:100883000AD7222518F58210AF08F518400215196A
:100893008008F51840021519D2AF85198322BB01D0
:1008A30002E722C082C08389828A83BB0003E0807F
:1008B30002E493D083D08222C0D0251810AF08F56C
:1008C30018500205198008F51850020519D2AFD047
:1008D300D022C0E0C0D0E8C0E0E5A8D2AFC2C7A232
:1008E300E792AFD0E0F8D0D0D0E032601608080825
:1008F300C6C313C618C613C618C613C618C613C66E
:10090300D5E0EA22C3E0C696F608A3E0C696F60849
:10091300A3E0C696F608A3E0C696F622C0E0E493E9
:10092300A36C7009D0E0D0E0D0E002077DA3A3D090
:10093300E022251810AF08F518400215198008F5B4
:100943001840021519D2AF22E76670100809E7664E
:10095300700A0809E76670040809E76622E0667012
:100963001008A3E066700A08A3E066700408A3E019
:100973006622C3E09608A3E09608A3E09608A3E0E6
:1009830096A2D265D03322C3E096F008A3E096F096
:1009930008A3E096F008A3E096F022E026F008A36F
:1009A300E036F008A3E036F008A3E036F022E627AD
:1009B300F60809E637F60809E637F60809E637F6D2
:1009C30022E026F608A3E036F608A3E036F608A3ED
:1009D300E036F622C0E0E8C0E0E58124FCF8E6A2B8
:1009E300E7D0E0F8D0E022E647F60809E647F60844
:1009F30009E647F60809E647F622E657F60809E648
:100A030057F60809E657F60809E657F622E056F6C0
:100A130008A3E056F608A3E056F608A3E056F6222C
:100A2300E056F008A3E056F008A3E056F008A3E070
:100A330056F022700422600D18C6C333C608C633AD
:100A4300C6D5E0F41822E4C396F608E496F608E463
:100A530096F608E496F622600D08C6A2E713C618B8
:100A6300C613C6D5E0F322C6F4C608C6F4C608C644
:100A7300F4C608C6F4C622C3E7960809E796080930
:100A8300E7960809E79622C3E09608A3E09608A331
:100A9300E09608A3E0962275D00075814075180191
:100AA300751903000204ADE0F608A3E0F608A3E01D
:100AB300F608A3E0F622600C08C6C313C618C613D3
:100AC300C6D5E0F422E6F008A3E6F008A3E6F008B2
:100AD300A3E6F022CAC0E0E6F0A308DAFAD0E0FA0F
:100AE30022E0FAA3E0FBA3E0FCA3E0FD22EAF0A3EB
:100AF300EBF0A3ECF0A3EDF022E5C754F84401F5C5
:100B0300C77901222518F582E43519F58322C2AF8E
:100B130075D69F02000022120856ABAC011208568C
:100B2300A2AD01120856F1AF0112085644B10112E9
:100B33000856E7B10112085632B30112085650B3F2
:100B430001120856E75D00120856F95D00120856B7
:100B53004B5E00120856AC5E00120856365F001258
:100B63000856DA5F001208562E60001208564760D6
:100B7300001208566D6000120856A860001208564D
:100B8300EC600012085613610012085664610012EB
:100B93000856146200120856CC6200120856946379
:100BA30000120856716400120856F76400120856C2
:100BB3000665001208561165001208561A660012DF
:100BC30008562B6600120856A166001208563367B2
:100BD300001208568B670012085651680012085617
:100BE300826800120856C76800120856D4680012BB
:100BF3000856686A00120856CB6B00120856E76C59
:100C030000120856516F001208565C6F0012085606
:100C1300666F00120856716F001208567B6F001240
:100C23000856856F00120856906F001208569B6F86
:100C330000120856CC6F00120856F06F00120856C7
:100C4300147000120856797000120856BD70001215
:100C53000856D97000120856507100120856887150
:100C630000120856D4710012085631720012085649
:100C73001374001208569974001208566A7500120C
:100C830008567A7800120856CF7800120856FB7877
:100C930000120856477A00120856977A001208562F
:100CA300EC7A00120856ED7B00120856857C001280
:100CB3000856077D00120856A77D001208563226F3
:100CC300001208566B2600120856452800120856D3
:100CD300842800120856CE280012085673290012E1
:100CE3000856D22900120856062A00120856732AFB
:100CF30000120856902B00120856982C0012085622
:100D03002E2D001208567530001208561E3100129F
:100D13000856FA31001208565B320012085678332F
:100D230000120856A235001208565936001208560A
:100D33006336001208569636001208565D370012C5
:100D43000856F837001208565D38001208568638E0
:100D530000120856A83800120856D73A001208564F
:100D6300AE3B00120856F23B001208565F3C0012DD
:100D730008561A3D001208564C3D00120856903D85
:100D830000120856C33D00120856183E00120856BA
:100D93006D3E00120856013F00120856633F0012D1
:100DA3000856CB3F001208567441001208565C42A5
:100DB300001208569E4300120856CC4500120856EE
:100DC3008C4600120856BB48001208565E490012B2
:100DD30008569C4900120856484B001208565C4BB3
:100DE30000120856664B00120856904B0012085624
:100DF3009C4B00120856BB4B00120856724C001253
:100E03000856B14C00120856BB4C001208566F4DE1
:100E1300001208566E4E00120856674F001208560D
:100E2300045000120856A65000120856BD50001276
:100E33000856F45000120856125100120856565123
:100E4300001208567B5100120856615200120856D0
:100E5300CD5200120856475300120856565400123A
:100E63000856955500120856F75500120856B15604
:100E730000120856D45600120856A85700120856F6
:100E8300F357001208563558001208568C580012B2
:100E93000856C35800120856F158001208562A592A
:100EA300001208564F5900120856D7590012085617
:100EB300FA5B00120856595C00120856ED5C0012EA
:100EC3000856595D00120856AD5D0012085670B4FD
:100ED30003120856AFB40312085695B4011208560C
:100EE300EFB4011208564BB50112085697B501121B
:100EF3000856B2B501120856E3B50112085600B6FA
:100F0300011208560CB60112085680B70112085692
:100F130099B70112085600B80112085613B8011206
:100F2300085621B801120856D5B801120856B9B9A6
:100F330001120856BFBA0112085645BB01120856E2
:100F43004FBB01120856BCBB01120856D3BB01129A
:100F5300085605BC011208563EBC0112085668BC6F
:100F630001120856C9BC01120856E9BC0112085601
:100F730007BD011208564DBD0112085673BE01127A
:100F83000856C0BE01120856EFBE0112085665BFCF
:100F9300011208568DBF01120856C6BF011208562A
:100FA300D4BF011208562CC0011208567BC001128F
:100FB3000856BAC001120856EAC00112085616C1F3
:100FC3000112085621C1011208563FC101120856E9
:100FD30001C2011208560BC20112085646C2011281
:100FE30008565CC20112085665C201120856BAC2FD
:100FF30001120856CEC201120856DCC3011208566C
:10100300EFC30112085604C401120856A6C4011204
:10101300085629C501120856E7C501120856F2C53C
:101023000112085618C70112085634C70112085690
:1010330086C701120856C5C701120856DAC701123E
:1010430008561CC80112085669CA01120856E7CA95
:10105300011208565ACB011208567CCD01120856CC
:1010630094CD0112085697CD01120856A3CD011253
:101073000856B7CD01120856BFCD01120856F2CD5E
:1010830001120856A2CE0112085618CF01120856B3
:101093008BCF011208563FD001120856F4D001122B
:1010A300085613D101120856B3D101120856BFD105
:1010B30001120856EAD101120856EDD10112085661
:1010C30057D2011208567FD30112085657D4011282
:1010D3000856E2D401120856FBD501120856B8D6B9
:1010E30001120856F1D60112085622D701120856EA
:1010F300C2D701120856F2D701120856CDD80112F1
:10110300085666D901120856F1D901120856A2DA17
:101113000112085624DB0112085656DB0112085649
:1011230097DB01120856A0C20212085605C3021229
:10113300085642C30212085691C302120856A7C5A5
:10114300021208568AC702120856F4CA0212085637
:101153002FCB0212085651CB02120856B4CB0212FF
:101163000856E8CB021208560BCC0212085638CCAC
:101173000212085694CC021208568AAC0212085680
:1011830008AD021208563EAD02120856AAAD02126D
:1011930008561DAF0212085639AF021208567EAF29
:1011A300021208560CB00212085665B00212085615
:1011B30092B102120856A4B20212085601B30212E7
:1011C30008566DB302120856CEB3021208560FB476
:1011D30002120856BCB402120856CEB502120856C3
:1011E300F9B50212085644B6021208568BB602121B
:1011F30008561DB702120856D8B702120856F7A7A9
:101203000312085608A80312085659A803120856D1
:101213009EA80312085648A9031208565DB003128C
:1012230008564FFE02120856A7FF021208564FB87F
:1012330002120856F4B80212085614B902120856DC
:1012430034B90212085648B902120856A0B902125C
:101253000856D0B90212085651BB02120856F7BB02
:1012630002120856D9BC021208562ABD02120856A9
:101273006DBD02120856B0BD0212085616BE021208
:10128300085637BE02120856C3BE02120856F4BEF1
:101293000212085668BF0212085616C102120856F7
:1012A300F0C10212085632C2021208568CC2021250
:1012B3000856AAA203120856CBA20312085604A486
:1012C300031208562EA4031208567EA403120856CE
:1012D300F9A40312085604A50312085625A5031200
:1012E30008564DA00212085650A0021208560AA131
:1012F3000212085635A1021208567CA102120856A2
:10130300A1A102120856C2A102120856F6A10212A6
:1013130008562FA20212085658A3021208568FA38A
:1013230002120856AFA3021208564AA40212085624
:101333000FA50212085646A502120856BBA60212B2
:1013430008565EA70212085657A80212085680A82C
:1013530002120856D4A8021208569AA90212085675
:10136300C8A9021208565DAB02120856DEAB021280
:10137300085611AC02120856E0CC02120856EACC09
:101383000212085636CD02120856A4CD0212085690
:10139300C5CD02120856DCCD021208568CCE0212BD
:1013A300085620D10212085629D10212085666A304
:1013B30001120856A5D1021208560CD20212085681
:1013C3009DD202120856DFD20212085629D3021206
:1013D300085688D30212085619D40212085658D454
:1013E3000212085697D402120856CCD40212085699
:1013F300DED402120856F0D4021208560FD5021298
:10140300085618D502120856CED5021208568FACCC
:1014130001120856008003120856D380031208569F
:10142300ED8003120856FE8003120856138303123D
:101433000856328303120856649E031208569A9E76
:1014430003120856E39E0312085633A003120856EC
:10145300CCDB011208560BDD0112085647DD0112E1
:10146300085606DF011208562FDF01120856C2E1A3
:101473000112085606E2011208568FE301120856BC
:1014830027E4011208568FE40112085630E50112D1
:10149300085672E501120856B2E5011208563DE7F7
:1014A30001120856ADE801120856D2EA0112085695
:1014B30000EB0112085627EB0112085630EB01121C
:1014C30008568BEB011208561EEC011208563CEF2E
:1014D30001120856BDEF01120856E77F00120856A5
:1014E30025B403120856958B03120856A88B0312D2
:1014F3000856458C03120856808C031208569B8CA1
:1015030003120856C08C03120856058D03120856A1
:10151300368D03120856678D03120856ED8E03129B
:101523000856C0AA03120856F6AA0312085612ABAD
:101533000312085654AB0312085664AB0312085641
:10154300F9AB03120856FFEA02120856ADEB02127A
:101553000856C2EC0212085607ED0212085662ED55
:1015630002120856D6ED02120856B6EE02120856BB
:101573003AEF02120856CDEF02120856BE9002123D
:101583000856169102120856C09102120856689224
:1015930002120856C592021208561E9302120856EA
:1015A300329302120856FC940212085677950212DF
:1015B3000856A195021208565E97021208567997AB
:1015C30002120856C89702120856DE9702120856EE
:1015D300EB97021208561F9802120856359802120A
:1015E3000856BB9802120856CA9802120856239945
:1015F300021208567D9902120856CB990212085618
:10160300D59A02120856579D02120856F19D0212EE
:101613000856339E02120856C89E02120856E59ECB
:1016230002120856E89E02120856EB9E0212085652
:101633005E9F02120856799F02120856A59F021256
:101643000856E09F02120856E39F02120856F69FBF
:10165300021208561DA00212085651B3031208566F
:101663005DB30312085697B3031208561AF001121A
:10167300085645F00112085611F10112085696F169
:1016830001120856FFF1011208564BF201120856D7
:10169300CAF2011208565CF301120856E8F301126C
:1016A30008562AF40112085696F80112085616FA3B
:1016B3000112085655FA011208561EFB011208566C
:1016C300D2FB0112085682FD011208560EFE0112CA
:1016D3000856008002120856BA80021208562C815E
:1016E300021208563B8102120856B58102120856AF
:1016F3002482021208562E830212085657830212BE
:101703000856F78302120856458402120856B58418
:1017130002120856E98502120856C58602120856B7
:10172300368702120856B3880212085675890212C8
:101733000856108A021208566B8A02120856D68A75
:1017430002120856DA8B021208569B8D02120856B3
:101753003A8E02120856AC8E02120856698F021294
:1017630008561A92031208566E9203120856C6922E
:101773000312085611930312085673930312085663
:101783000C9403120856749403120856809403129F
:1017930008560E9C031208563F9C03120856F99CE8
:1017A300031208565F9D03120856D09D0312085674
:1017B3001EA1031208569CB503120856AFB50312B7
:1017C300085650B10312085661B10312085601B20C
:1017D300031208563FA6031208564DA603120856D5
:1017E300EBFF01120856BBB203120856CBB2031229
:1017F3000856E6B20312085647B3031208565BAF06
:1018030003120856E0AF0312085644B003120856F9
:1018130049AE031208566BAE03120856D5AE031237
:101823000856E0AE0312085624AF0312085673DFBE
:101833000212085681DF02120856C2DF021208564E
:10184300E3DF021208566DE002120856D0E00212DE
:101853000856F2E0021208560DE10212085628E17A
:101863000212085632E1021208563CE102120856EF
:101873004FE10212085668E10212085604E202120E
:101883000856C0E20212085640E302120856BAE3B1
:101893000212085620E4021208568B8403120856DB
:1018A300998403120856138503120856F785031209
:1018B3000856B08703120856F1B503120856CAE555
:1018C3000212085637E602120856F8E602120856C4
:1018D30068E70212085671E802120856E9E9021293
:1018E30008564DEA02120856A2EA02120856ABEA5B
:1018F30002120856BAEA02120856CDEA0212085634
:10190300E3EA02120856ECEA021208562AF002121F
:1019130008567FF0021208567BF202120856ADF207
:1019230002120856CFF202120856E8F202120856C3
:1019330001F3021208560BF402120856A6F402121F
:1019430008565FA90312085683A9031208569CA9D7
:1019530003120856CFA90312085600AA0312085609
:101963002EAA0312085690AA031208569FAA03121E
:101973000856A9AA03120856B6AA03120856BB941E
:1019830003120856E194031208561E9503120856D3
:101993002D95031208564C9503120856B49503125D
:1019A3000856BD95031208561C9603120856409616
:1019B30003120856FF96031208560C970312085693
:1019C3001D9703120856FDB4031208561AB50312E5
:1019D30008561DF5021208567BF60212085688F6C1
:1019E300021208569BF602120856BAF6021208565D
:1019F300D0F602120856E4F60212085659F70212FC
:101A03000856BEF7021208566EF80212085643F93A
:101A13000212085653F90212085662F902120856C6
:101A230022B20312085646B2031208566EB20312CC
:101A3300085696B2031208564B970312085672972C
:101A430003120856939703120856F8970312085681
:101A5300B19903120856CA9903120856D69903126C
:101A63000856EA9903120856089A03120856129A5E
:101A7300031208561C9A031208562F9A031208568B
:101A8300829A03120856BB9A03120856EA9A031263
:101A93000856389B03120856879B03120856A29BCD
:101AA30003120856AC9B03120856BD9B031208563B
:101AB300039C03120856D4B30312085637D60212F6
:101AC300085661D6021208567DD60212085690D6E1
:101AD30002120856A6D60212085603D70212085657
:101AE30036D70212085672DB0212085698DC02122D
:101AF3000856CBDC0212085617DD0212085643DEE5
:101B0300021208566BDE0212085680DE02120856D5
:101B130090DE02120856D4DE0212085635DF021296
:101B2300085645DF0212085603AC031208561EACD2
:101B33000312085647AC0312085661AC0312085649
:101B430086AC03120856A5AC03120856BDAC0312AB
:101B53000856EBAC0312085605AD03120856B9B488
:101B6300031208561588031208561C8803120856D8
:101B73002889031208565889031208567E890312CE
:101B83000856A18903120856C38903120856FD8912
:101B930003120856638A031208569C8A03120856D6
:101BA300E88A03120856158B03120856358B031265
:101BB30008565A7E001208566C7E00120856577F4C
:101BC30000120856E47F0012085636AD0312085679
:101BD300A8AD03120856E6AD0312085627AE03124A
:101BE3000856FA8E03120856168F03120856658F8D
:101BF30003120856818F03120856B28F0312085638
:101C0300C28F03120856AE9003120856B8900312FF
:101C13000856C59003120856D59103120856E99148
:101C230003120856F291031208569BF90212085642
:101C3300E0FD02120856E5FD021208566FB50312C5
:101C4300085639B503120856C9B50312085613B618
:101C530003120856BAA2011208560BA10112085624
:101C6300C69E011208564D9E01120856F49D01129C
:101C73000856889D011208565F9D01120856529B13
:101C8300011208561E9B01120856EB9A01120856C0
:101C9300CF9A01120856F59901120856AD9901120F
:101CA3000856E297011208566297011208565F9789
:101CB3000112085666960112085634960112085608
:101CC3007195011208569C93011208562D93011227
:101CD3000856FF92011208561FAC01120856D6ABE4
:101CE300011208568EAB01120856CCAA01120856EF
:101CF3003FAA01120856FC9201120856E9920112FA
:101D0300085681920112085670920112085632AA9F
:101D1300011208565191011208561B9101120856DF
:101D2300DE90011208567F900112085640A7011257
:101D330008560ED6021208564E9001120856098D07
:101D430001120856FA8B01120856898B01120856A4
:101D53004E8B01120856198B011208560D8B011276
:101D630008566D8A01120856B489011208568787EE
:101D730001120856138501120856D1840112085620
:101D83009C83011208565183011208568382011263
:101D93000856DA8101120856768101120856B0817D
:101DA3000112085692A4011208567CD102000000C9
:101DB30080FBE4730000000000000000000000004E
:101DC3000000000010101010101000003030000050
:101DD3000014285000000000000000000000000074
:101DE300002828FC284850FC505000000000103800
:101DF3005454301814545438100000000044A8A858
:101E0300B0541A2A2A44000000000020505060AC4D
:101E1300A898927C000000606020C00000000000D1
:101E2300000000000004080810101010101008082B
:101E330004000000402010080408102040000000A7
:101E43000000001010D63838D61010000000000033
:101E530000101010FE101010000000000000000021
:101E6300000000000000606020C0000000000000CF
:101E7300FC00000000000000000000000000000063
:101E83000000606000000002040404080810102031
:101E9300202040000000003048848484848448303B
:101EA300000000000010701010101010107C0000D3
:101EB30000000038444404081020447C0000000063
:101EC300003844441804044444380000000008085F
:101ED30018284848887C081C00000000007C40400B
:101EE30078440444443800000000003C4480B8C4F3
:101EF3008484847800000000007C4448081010109B
:101F0300101000000000007884844878848484786A
:101F13000000000000788484848C740488F000003E
:101F230000000000003030000000303000000000EE
:101F33000000000010000000001010200000040842
:101F4300102040201008040000000000000000FCE6
:101F53000000FC00000000000000402010080408FE
:101F630010204000000000007884848408101000D2
:101F73003030000000000038449AAAAAAAB4423CB8
:101F830000000000001010282828384444EE000008
:101F9300000000F844447844444444F8000000003E
:101FA300003C44848080808044380000000000F0BE
:101FB30048444444444448F00000000000FC4440CA
:101FC3004878484044FC0000000000FC4240487848
:101FD300484040E000000000003C448480808E8440
:101FE30044380000000000EE4444447C444444EE82
:101FF30000000000007C101010101010107C000076
:102003000000007C101010101010101090E0000061
:1020130000EE44485070484844EE0000000000E0E1
:1020230040404040404044FC0000000000EE6C6C27
:102033006C54545454D60000000000EE64645454AD
:10204300544C4CE4000000000030488484848484B1
:1020530048300000000000F844444478404040E029
:102063000000000000304884848484B448380C00A5
:10207300000000F844447850484844E6000000005B
:10208300003C44402018040444780000000000FE93
:1020930092101010101010380000000000EE44449D
:1020A3004444444444380000000000EE44442828DB
:1020B300282810100000000000D6545454546C28F3
:1020C30028280000000000EE44282810282844EEA9
:1020D3000000000000EE4428281010101038000003
:1020E3000000007C88081020204044FC0000001CF5
:1020F300101010101010101010101C000070101091
:10210300101010101010101070000070101010102C
:1021130010101010101070000010280000000000B4
:1021230000000000000000000000000000000000AC
:10213300000000FE00606020C000000000000000FE
:10214300000000000000000038441C24443E00004E
:10215300000000C04040784444444478000000003C
:10216300000000003C444040443800000000000CE4
:1021730004043C444444443E0000000000000000CA
:1021830038447C40443800000000001C2420F82020
:102193002020207800000000000000003C48483068
:1021A30040784438000000C040405864444444EE42
:1021B300000000000010000070101010107C0000E0
:1021C300000000080000380808080808087000002C
:1021D30000C040405C48507048EC000000000070B4
:1021E300101010101010107C000000000000000000
:1021F300F854545454D60000000000000000D86482
:10220300444444EE0000000000000000384444440D
:1022130044380000000000000000F84444444478BF
:1022230040E00000000000003C444444443C040EF1
:10223300000000000000EC30202020F80000000027
:10224300000000003C443008447800000000000017
:1022530010107C101010100C000000000000000093
:10226300CC444444443E0000000000000000EE441F
:10227300282828100000000000000000D654545401
:1022830028280000000000000000DC48303048EC43
:102293000000000000000000EE442828101020E099
:1022A3000000000000007C481010247C0000101087
:1022B30010101010101010101010101000013636EE
:1022C30001010001020100010301000104010606EE
:1022D30005020000070100340801000F0904010191
:1022E3000D0100FF0E08000017020000190100FF96
:1022F3001A0100011B0100FE1C0100081D02000061
:102303001F01000120010001210200002301000F31
:10231300240200002601000127010008280200FF13
:102323002A0100072B0102402C0100002D010001AE
:102333002E0100012F0100FF30010B1C31080000AA
:102343003A0100083B01000F2F0100000302710254
:1023530030016002110270020102020202028002D5
:10236300100261023A0041006302730272026202C8
:1023730043020002130238000002000204021202A8
:1023830000020002000200020402040237003700C8
:102393003C0244020002390000020002650200020E
:1023A3003502810200020502820283020002030059
:1023B30071003001600011007000310220035004ED
:1023C30080001000610000001400630073007200BD
:1023D3006200430000001300060000000000040038
:1023E3001200000000000000000004000400370099
:1023F30037003C02440000000000000000006500BC
:10240300000035008100000005000000830000008B
:102413000103710301030103010301030103220308
:10242300020301031003000300030003000300037E
:102433000003000342030003240306030003000315
:1024430004031203250323032503230304030403C3
:1024530000030003000344030003000323030003FA
:102463006503210035038103000305030003000313
:102473000003010171010101010111010101310198
:10248300010101018001100161013B00140063019E
:1024930073017201620143010001130106013D0151
:1024A30035000401120100010001000100010401D3
:1024B3000401330133013C014401320136000001C0
:1024C3000001650100013500810100010501820160
:1024D3008301000136000100060000000F00000028
:1024E3000000000000000000000003FFFF000004E4
:1024F30003FFFF0000FFFF0FF4010005C4040320E6
:10250300000100030B000000000000000003010FA6
:1025130001000E170200841603008A1604009016A9
:10252300050096160600A2161100BA161400C0166E
:102533001500B416FFFF0000760FA60F7C0F820F65
:10254300A00F940F8E0FAC0FB20FB80FC40F880FEC
:10255300700F6A0F03EAF5E5D5D5C5B5A595958541
:102563008575756565555545453535252515150518
:102573000A420D020C0D051E0D07120D0CEE0C0D7B
:10258300000DFF000000160F00000B150B020002E8
:10259300220F32000006601072107810400F7E1078
:1025A3003A0F460FC010DE10E410C610D210CC1044
:1025B30000034948424D18172505020C0E020B046F
:1025C3000B0A0708000F0001191618161615230326
:1025D3000000383C3E363B3B352B432C303016183D
:1025E3001920231A1C1E30303017181921301B1DD7
:1025F3001F309A0FBE0FD810CA0FD00FB41084101B
:102603008A109610901002040201010101090200D0
:10261300000000000000BE040A0E0015000400289C
:1026230000050C0A030908FF1E1E0F0404100C7496
:10263300F712038AE99003B0F0900365E4F0121BEC
:10264300B29003B5E4F0A3F09003B1F0A3F0120E3F
:102653007A121BB8900334E4F0A3F090262D93FA7A
:102663007902121C180252C874F212038AEAFEEBB2
:10267300FF548060699003B0E0F91213BA8A088BA3
:1026830009EA4509604F7C0080010CEC75F003A456
:10269300F8A9F0747328F582742539F583E493F46B
:1026A300602CE493F88508828B83E06870DCAA08C9
:1026B300EC75F003A4F8747428F582742539F58356
:1026C300E493C0E0740193F583D082121DB5AA0888
:1026D300AB09121DAAEEFAEF6480FB022838EF540F
:1026E30020601D120D9C8A088B09EA4509600A12B5
:1026F3000D00AA08AB09121DAAEEFAEF642080DAD6
:10270300EEA2E0501A90036AE0640F700B79001296
:102713000CCAE9600312283BEE6401FAEF80BB5454
:10272300207003022806750C00123D0D8B09EA4543
:102733000970107C027D007A207B009003B0E0F9E1
:102743001215047C0079047A007B00120D788A0844
:102753008B098018850882850983A3A3A3A3A3A358
:10276300A3A3A37401F0850A08850B09E5084509AD
:10277300606D7C007904AA08AB09120D788A0A8B74
:102783000B750C01E5082404F8E509123AB124FF9E
:10279300F0A3E034FF125DA470CC85088285098321
:1027A300A3A3A3A3A3A3A3A3A3A3E0640170A585E9
:1027B3000882850983A3A3A3A3A3A3E0540470946D
:1027C300850882850983A3A3A3A3A3A3A3A3A374B7
:1027D30006F07AB7850882850983122967808712F4
:1027E3000D487C0079017A007B00120D788B09EA91
:1027F30045097009E50C70057A20124C67EE6420D8
:1028030002271EEF5402600B120E74EEFAEF6402FD
:102813000226DDEF54046019124DFE124D1E79019C
:10282300900363125082120C10EEFAEF6404022636
:10283300DD7A007B00022A6E900D07123105120C1F
:10284300E222C082C08374EA120935851882851991
:1028530083AA82AB83794B121BEE7408120B0774A5
:1028630002F07409120B07AA82AB837950121BEE94
:102873007413120B07E4125251121C0C7416024209
:102883002B74F712038A74E1120935EAFEEBFFEEAB
:102893004F6033851882851983AC82AD83120DC0D6
:1028A3007406120B07E0601E7417120B07E0FD7429
:1028B30001120B07E0FCEEFAEFFB7900120B38E98B
:1028C300600479A4800279000252C374F612038A69
:1028D300EAFEEBFF8E828F83A3A3A3A3A3A3E054FB
:1028E30040601B125740122A3560067AFF7BFF8037
:1028F3001A8E828F83123EB7FAA3E0FB8003120D78
:10290300E474FE6A700374FF6B6041125740124C0B
:10291300AB120E38E98E828F836006122960E48041
:10292300051229607401F07CD07D0C8E828F831296
:102933005082121C12E9F5087015EE4F60097901F7
:10294300EEFAEFFB120D54A908024CDC7508CDAA70
:10295300088E828F83122967E960DF80EAE0240D05
:1029630012438622E0240C124386E0F9120CDC2287
:1029730074F612038AE9FEEAFF7A0F7B001213A8AA
:10298300EA4B60198A828B83740CF0EEA3A3F0EFF9
:102993008A828B83A3F0124D077900802FEEF91200
:1029A3000D7E8A088B09A808A909E849601C88825A
:1029B3008983A3A3A3A3A3A3A3A3A374061259CB9D
:1029C300E0F9120C94EEF9120D5A7910024CDCC0A6
:1029D30082C08390036AE0640F7014EA4B60109026
:1029E3000365E064086005E0640470031229F502DE
:1029F3004255EAFCEBFD7A017B009003B0E0F9124B
:102A030014FE22C082C0837900EA241DF582EB12F2
:102A13003EB424FD600B14600824FD600424FD70A3
:102A230001090242558E828F83A3A3A3A3A3A3A369
:102A3300A3A3122A3922123EFCFB120E38E9228E7E
:102A4300828F83A3A3A3A3A3A3A3A3A3122A39645B
:102A530002228E828F83A3A3A3A3A3A3A3A3A31260
:102A6300424C900356E068221208BB7F060205A57C
:102A730074F412038A74FD1209358A088B098A8259
:102A83008B83A3A3E0F9120D7E8A0A8B0BAE0AAFE8
:102A93000BEE4F7003022B7A850882850983A3E02E
:102AA30064F16030850882850983A3E064CD6024E6
:102AB300850882850983A3E0641A601885088285E6
:102AC3000983A3E064E9600C850882850983A3E098
:102AD30064E170087900120D54E9706C85088285F1
:102AE3000983A3E0C0E07402120B07D0E012423066
:102AF300EEF0A3EF12355B851882851983AA82ABAA
:102B0300837005120BF88003120E207402120B0758
:102B1300E064E970338E828F83122B86750A017805
:102B23000A120877750AE9780A120877E508240C6F
:102B3300F582E50912304D123538FCA3E0FD8A8297
:102B43008B831235521208BB8E828F83A3A3A3A358
:102B5300A3A3A3A3A3E0640270108E828F83A3A315
:102B6300A3A3A3A3A3A3A37406F085088285098363
:102B7300A3A3E0F9120D5A120D48900D0B12283E33
:102B830002310AE0F8A3E0F9E8FAE9FB2274F4124F
:102B9300038AEAFEEBFF7508008E828F83A3A3A34B
:102BA300A3A3E060427508088E828F83A3A3A3A327
:102BB300A3A3A3A312415F8B0BEA450B6010750817
:102BC3002C8E828F83A3A3A3A3A3E0D2E0F08E82F3
:102BD3008F83A3A3A3A3A3E0540364016003022C84
:102BE30079430811022C79EE24181231176033EE61
:102BF300241A123117700F122A557003A3E069705B
:102C0300757508228070EE241BF582EF122C7E244A
:102C13001AF582EF123563EE2419125774120C82DF
:102C23008054122A427003750801122A557003A3B7
:102C3300E0697006E508D2E1F508E50860158E82C3
:102C43008F83A3A3E07006E508D2E58004E508D2EC
:102C5300E6F508122A2864017006E508D2E0F508B3
:102C63008E828F83A3A3E0600D122C8C6401600617
:102C7300E508C2E0F508A90802310F123EA2122CA2
:102C83008522E0FCA3E0FDEE22123E9C123ED4F925
:102C9300120E26E922C082C08379018A828B83A324
:102CA300A3E0C394024001198A828B83A3A3A3A345
:102CB300E0C39402400279008A828B83A3A3A3A377
:102CC300A3A3A3A3A3E064F87003A3E0F460458A7D
:102CD300828B83A3A3A3A3A3A3A3A3A3E064F970F9
:102CE30003A3E0F4602E8A828B83A3A3A3A3A3A3ED
:102CF300A3A3A3E064FA7003A3E0F460178A828BB2
:102D030083A3A3A3A3A3A3A3A3A3E064FB7003A32D
:102D1300E0F4700279008A828B83A3A3A3E0F89086
:102D23000353E0686002790002425574F012038A8B
:102D330074DE120935EAFEEBFF8E828F83A3A3A311
:102D4300A3E0600E900D09124CD36006900D09129A
:102D5300283E7403120B07AC82AD838E828F83A34C
:102D6300A3A3124D5512558EE9600F7403120B077E
:102D7300AA82AB83120CFAE970087901121BC40210
:102D83003042EE241B123EA77410120B07124D1E85
:102D93007409120B07E06021741A120B07E0FD742B
:102DA30004120B07E0FC8E828F831250807901128C
:102DB3000B38E96004790280C37403120B07AA82FB
:102DC300AB83120CF4E9F50A7409120B07E0702ABD
:102DD30090034DE060247422550A6422601C7442FF
:102DE300550A644270CF7420120B07123060600AD8
:102DF3007420120B0712305970BBE9A2E6504174DC
:102E030003120B07AA82AB83120CE8E97003022DAD
:102E13007D7420120B07123EB76403700F742012E7
:102E23000B07A3124CC5A3E0640D60147403120BCB
:102E330007AA82AB83120E4AE9640170030230428F
:102E4300EE242C12304A12336E7003A3E069701C17
:102E530075080078081208777808120877EE242E90
:102E63001257741230661235521208BB7409120BD2
:102E730007E07003022F1F123066125082120E9E5B
:102E83008A088B09EA45097003022FBC7404120BEC
:102E930007E0F88E828F83A3A3E028F8A3E0340031
:102EA300F9E8240D1230518A828B83A3A3A3E0682F
:102EB300601CE88A828B83A3A3A3F0908137120A54
:102EC300E4850882850983A3A3A3A3120AF07904E6
:102ED300E9120B0712556B2AF8A3E034008882F538
:102EE30083A3AA82AB831213968A0C8B0D8C0E8D4F
:102EF3000F850882850983A3A3A3A3780C12080F67
:102F03004003023042908143780C1209C485088241
:102F1300850983A3A3A3A3780C120AC8900365E0D1
:102F230064046008E064096003023042E50AA2E534
:102F33004003022FFAEE242E1231178518828519C9
:102F430083F0EE242F123117C0E07401120B07D067
:102F5300E0F0EE2430123117C0E07402120B07D0F8
:102F6300E0F07414120B07E064017027740E120B67
:102F730007123EADEE2412123117687003A3E06905
:102F83007011740C120B07122A4F70077414120B72
:102F930007E4F0EE242412304A1206A67404120B3E
:102FA30007AC82AD837407120B07AA82AB83120BA3
:102FB300FE74041208BB0230429003AAE06401606D
:102FC30003022F1F7420120B071230607009E50AE9
:102FD300A2E65003022F1F7410120B07E0F47003D4
:102FE300A3E0F4605AEEFCEFFD7403120B07AA8210
:102FF300AB83120D068048A2E650447420120B07DF
:10300300125091701A741A120B07E0640270307434
:1030130003120B07AA82AB837900120E148020746B
:1030230020120B071230597016741A120B07E06442
:1030330004700C7403120B07AA82AB83120E0E7476
:103043002202543DEE240BF582EF123EA222F582BA
:10305300E9124D37F822125752E0640722123ED488
:10306300640622EE242A123E9F122C852412123E5D
:103073009F2274F412038AEAFEEBFF8C088D0990F9
:1030830005D7E0600F122A557003A3E0697005129B
:103093000C70804F7900125075120CA08A828B83BA
:1030A300E58245836035A3A3A3A3A3A3E0541860DB
:1030B3002AE508241BF582E50912304D1206AA12EF
:1030C300374B12304D1206AAEE24181257741230E1
:1030D300E8120CB274041208BB800879001230E8BD
:1030E300120C7680278E828F83A3A3A3A3A3A3A30B
:1030F300A3A3122C85240BF582EF12310122340095
:10310300F583123EFCFB2274031208BB7F04020505
:10311300A5EE2417F582EF124D372274F712038AB6
:1031230074F7120935EAFEEBFF900365E064036070
:103133000DE064016008E0640960030231E88E82F7
:103143008F83A3E0707E7C007D007A027B00121BDC
:10315300BEEE2402FAEF123AB8123EAD90035612B5
:103163004D1E7953121BF479001231EDE0640960AE
:10317300031235808518828519837401124CF490EB
:1031830003657404F07401120B07AA82AB83794AB6
:10319300121BEE7401120B07AC82AD837A5B7B03C7
:1031A300121BDC9003561255847A0312358A90035E
:1031B30050E0A2E35004D2F08002C2F0124CE112BC
:1031C300283B801E8E828F83A3AE82AF83FC7D005B
:1031D3007A037B10121BBE8E828F83E0F91231EDCE
:1031E300E4F0120D3074090252C5900363123105E5
:1031F300120C1090036522C082C083900334124CDA
:10320300D3701F900365E014600924FC600A146006
:103213000C800F90033C8032900338802D90033A4A
:103223008028E8496008900335123532700C8A8291
:103233008B83A3E0F9120C04801B9003351237E74C
:103243007005120E68800E9003D2124CD3600612E2
:103253004CC5121DB502425574F412038A74FB1255
:1032630009358A088B097A0F7B001213A88A0A8B07
:103273000BAE0AAF0BEE4F70030233628E828F8365
:1032830012524F7950121BEE850882850983A3E001
:10329300600302334A900363E0F47003A3E0F46035
:1032A30034900363E064FE7003A3E0F460278518A1
:1032B3008285198312336E7003A3E0696017850852
:1032C30082850983A374EA1235687A637B03795094
:1032D300121BF48072851882851983125733124D9D
:1032E3001E7A567B037953121BEE900356124D4FF1
:1032F300124D1E7A597B03794B121BEE7A587B03CE
:1033030079E1121BEE90036AE0C3940F50219003FE
:1033130058E0C0E07402120B07D0E0F07404120B03
:10332300077401F004120B07AA82AB83121C067503
:103333000A00780A120877780A120877900D31E0AC
:10334300F91235491208BB85088285098312336750
:10335300A3F09003657403F0EEFAEFFB124D0774CC
:103363000502310CA3E08E828F8322125737E06867
:103373002212438D2274F512038A74D81209358AF6
:10338300088B098A828B83A3A3A3123ED9741512D7
:103393000B07AC82AD838A828B83A3A3A3A3A3A3CE
:1033A300A3A3123538FAA3E0FB120D367415120BE2
:1033B30007E0706B850882850983A3A3A3A3A3A356
:1033C300A3A3E0C3940B40578E828F83A3A3A3A32D
:1033D300A3A3A3A3E064027046EE240B123117F4F7
:1033E300703D900365E06402603AE06406603590E6
:1033F3000334124CD36005123532604F900365E0FD
:1034030064086005E0640470167417120B07E0F992
:10341300741C120B07AC82AD83125075120D3C74F1
:1034230028025C51900334124CD3701F7508007846
:10343300081208777808120877EE241012304A121F
:10344300578C123BA01235521208BB8E828F831207
:103453004FF1123ACA123EAD7402120B07124D1EFF
:10346300EE240D123117C0E07404120B07D0E012E2
:10347300355BF508A3E0F509740F7808120AB974EF
:1034830005120B07E508F07419120B07E0C0E0748E
:1034930006120B07D0E0F0741B120B07E0C0E074B8
:1034A30007120B07D0E0F07416120B07E0C0E074AC
:1034B30009120B07D0E0F07417120B07E0C0E07499
:1034C30008120B07D0E0F0EE2410123117C0E0749D
:1034D3000A120B07D0E0F0741A120B07E0C0E07475
:1034E3000B120B07D0E0F07427120B07E0C0E07457
:1034F3000C120B07D0E0F0741C120B07A982AA83ED
:1035030089088A09750A00780812086F7C087D000B
:103513007410120B07AA82AB831248821208BB8570
:103523001882851983AA82AB83120C0A02342212F1
:1035330037ED640122E0F98A828B83A3A3A3A3A3BB
:10354300A3A3A3A3E0229003631255889003591207
:103553003105120DF6740222F0EE240B124D3422C3
:10356300124D37FA22F07A567B03795312357322C0
:10357300121BF47A597B03794B121BF422900363D9
:10358300123105120E98227B00121BBE90035912B2
:1035930055887A047B00121BBE22F01257972274BF
:1035A300F212038A74F8120935EAFEEBFF8C0A8DD6
:1035B3000B890C851882851983AC82AD8375838151
:1035C30075821374081207CFF50DEEFCEFFD851815
:1035D30082851983AA82AB83124F527003750D0142
:1035E3009003B1803BEEFCEFFDE508240BFAE509FF
:1035F3003400124F51601E850882850983A3A3E01E
:10360300650C7011850882850983E0650A7004A33F
:10361300E0650B6038E5082414F582E50912304DA6
:10362300123AC2E50845096024E50DA2E040B685DB
:103633000882850983E0650A7004A3E0650B70D5F1
:10364300850882850983A3A3E0650C70C8AA08AB2B
:10365300097408022A6BC082C0839003B1024252EC
:1036630074F712038A9003B1123EFC8012EA241409
:10367300F582EB12304D123ED912144AEEFAEFFBEB
:10368300EA4B70E99003B1E4F0A3F00252C87F075C
:103693000205A574F112038AEAFEEBFF890A8C087E
:1036A3008D098E828F83E08C828D83124169AE8275
:1036B300AF83E01249421248B3C41249421237544D
:1036C300E054038C828D831248B1A2E2E4338C82EE
:1036D3008D831248B0131313541F1249421248AF7B
:1036E300A2E7E4338C828D83A3A3A3A31237548E62
:1036F3000C8F0D750E00780C12086F7C087D00E5A9
:103703000824071254F71208BB1255628E0C8F0D52
:10371300780C12086F7C037D00E508240F1254F720
:103723001208BBE50AC3940F40148E828F83A3A3B0
:10373300A3E0C0E012374B12304DD0E080061237C1
:103743004B1259BFF0023691E5082412F582E509C0
:1037530022A3A312416D0EAF832274F412038A7461
:10376300F9120935EAFEEBFF8908900334124CD3B2
:10377300600E1237E77009EEFAEFFB120E62805FFC
:10378300900363E06E7003A3E06F705374016508E8
:1037930060097A777B03124F5270447A007B0212DE
:1037A3003D118B0BEA450B7036900366120AE485D4
:1037B3001882851983120AF090036CE0C0E0740448
:1037C300120B07D0E0F07405120B077401F07406B6
:1037D300120B0712524F120BD4E9609B120BDA74CF
:1037E3000702310C1237ED640222125753A3A3A32D
:1037F300A3A3A3E02274F512038A8A088B098A82A1
:103803008B83A3AE82AF83E0F9120C288E828F8361
:10381300E064EB600C850882850983A3E064E170B2
:1038230009850882850983A3E4F012283B750A0100
:10383300780A120877850882850983A3E0F508785A
:103843000812087779001235491208BB120D480295
:103853005C54EAF0A3EBF002425574F612038A902B
:1038630003B4E0701B7C0079017A007B00120D78B1
:10387300EA4B600C8A828B83124CD36003120CD602
:10388300024CDCC082C083123CF9401079FF120D58
:1038930072E9F8902631E493C398500479018002C9
:1038A300790002425574F012038A8A088B09890B46
:1038B300750C008A828B83A3A3A3A3A3A3A3A3E072
:1038C300F9120D7E8A0E8B0FAE0EAF0F750A01EE45
:1038D3004F6003023986850882850983A3A3A3A3C6
:1038E300A3A3125584850882850983A3A3A3A3A355
:1038F300A3A3124682125082120D668A0C8B0DAE60
:103903000CAF0DEE4F7003023AA98E828F83A3A3EF
:10391300A3A3E4F0A3F0E508240B123AB5E0C0E05A
:10392300123047D0E0F0120E3EEE240CF582EF1277
:103933004CA7E508240EF582E509123EAAEE240EF3
:10394300F582EF124D1B750C01EE2406F8EF123AC7
:10395300B1547FF0A3E054FC1257E9E05404600330
:10396300023A0C900D0F12467374077808120A3648
:103973008E828F83A3A3A3A3A3A3E04508F0A3E0B0
:103983004509F08E828F83A3A3A3A3123AC07407C1
:103993007808120AB9E5085407F508E50B607A8E32
:1039A300828F83A3A3A3A3A3A3A3A3A374021248F5
:1039B300B4240D124382E0A2E2500B900351124D46
:1039C3004FA3A3124D1EE5087003023A7EEE2406B0
:1039D300F8EF3400F9E8FAE9FB8A828B83E0547F3D
:1039E300FCA3E054FCFDE50824FFF508E434FFF5EF
:1039F3000974077808120A36EC4508F8ED4509F909
:103A03008A828B83124D1E80728E828F83A3A3A31F
:103A1300A3A3A3E04480023985E5087005750A0075
:103A230080598E828F83A3A3A3A3A3A3E054206012
:103A3300121213A2EA547F245F8E828F83A3A3A35F
:103A4300A380238E828F83A3A3A3A3A3A3E05410F5
:103A5300600A1213A2EA540F240A80DD8E828F8338
:103A6300A3A3A3A37401F0A3E4123ACA7404123DFE
:103A7300088B09EA45097003124C9AE50CA2E05041
:103A8300288E828F83A3A3A3A31252B5F9EEFAEF74
:103A9300FB120D6CE96012124CC96003123E92EEE8
:103AA300FAEFFB12144A750A00A90A025440124E97
:103AB3001222FAE5093400FB8A828B8322A3A3E056
:103AC300F508A3E0F50922123ACE22125513A3A357
:103AD300A3A3A32274F412038A74F71209357E0098
:103AE300120D7EEA4B7003023B998A828B83A3A358
:103AF300A3A3A3A3A3A3A3E064066003023B998A41
:103B0300828B83A3A3A3A3A3A3A3E0FF8A828B83B4
:103B1300124395E0C0E07408120B07D0E0123ECDCB
:103B2300124F58124D1E120D90EF540860668518FF
:103B3300828519831255847A007B00120D608B0BEA
:103B4300EA450B704F900363123FBD121C1E7C00AD
:103B53007D007A007B0080288E828F83123EB7F42B
:103B63007003A3E0F4602D900363123BA012508214
:103B7300121912E9641A601C7C007D00EEFAEFFB57
:103B8300120D608A0A8B0BAE0AAF0BEE4F70C97928
:103B930000121C247E01EEF9740902310C123BA4BD
:103BA30022E0FCA3E0FD8E828F8322C082C083EAE1
:103BB3004B70059003B580068A828B83A3A3123DC5
:103BC300BD60258A828B83A3A3A3A3A3A3A3E054ED
:103BD3000860E5EC4D60158A828B83123EB76C70EA
:103BE30003A3E06D70D280047A007B000242557417
:103BF300F212038AEAFEEBFF890A8C088D097A1018
:103C03007B00121444EA4B603F8A828B83A3A3A3F5
:103C1300A3A3A3A3A3A3E4123EBBA3E50A1257598C
:103C2300A3123C558A828B83A3A3A3A3E4F0A3121C
:103C33003EC7A3F01255EDEA240CF582EB1241596D
:103C4300123C4EA3A3F0A3F0022A6EA3F08A828B48
:103C53008322A3A3E508F0A3E509F02274F4120379
:103C63008AEAFEEBFF89088C0A8D0BEE4F605574D0
:103C730001650870147901120D72E9F8902629E4A0
:103C830093C398500F7911806A74046508702F12DA
:103C93003CF940F18E828F83A3A3A3A3A3A3A3A381
:103CA300A3E508124169A3125CDE8E828F83A3A36E
:103CB300E4F0A3F09003B5124CD36021800D74029D
:103CC300650860D079C1802BE0F8A3124D48A3A307
:103CD300123DBD88828983A3A370ED80039003B551
:103CE300EEF0A3EF123D088B0BEA450B7003124C69
:103CF3009A790002310F7904120D72E9F8902624A3
:103D0300E493C39822F0123D0D227A207B009003A6
:103D1300B0E0F912151022C082C083E9F87900904F
:103D230003B5801D8A828B83A3A3A3A3A3A3A3A309
:103D3300A3E068600574FF687001098A828B83A31E
:103D4300A3123DBD70DE02425574F712038AEA4B9B
:103D530070059003B580068A828B83A3A3123DBDB1
:103D630060248A828B83A3A3A3A3A3A3A3A3A3E017
:103D73006970E4EC60148A828B83E0240D1255751C
:103D8300A2E240D380047A007B000252C8C082C002
:103D9300839003B580068A828B83A3A3123DBD6003
:103DA300128A828B83A3A3A3A3A3A3A3A3E0697013
:103DB300E580047A007B00024255123105EA4B226A
:103DC30074F212038A8A0A8B0B8C0C8D0D75080012
:103DD300750900EA450B602E9003B580068E828F2D
:103DE30083A3A3123E10601EAC0CAD0DEEFAEFFBE5
:103DF300850A82850B83121DB5E9640170DFEEF835
:103E0300EFF988088909AA08AB09022A6EE0FEA324
:103E1300E0FFEE4F2274F712038A9003B5123EAD12
:103E23007C007D00800DE8FCE9FD88828983A3A3E3
:103E3300123EADE8496030EA687002EB6970E790C2
:103E430003B5125082E86A7002E96B88828983A302
:103E5300A37008123EAD9003B58009123EAD8C826B
:103E63008D83A3A3124D1E0252C874F712038AEA6C
:103E7300FEEBFFEE4F6015120D8A123EDF124CC9A6
:103E83006003123E92EEFAEFFB12144A0252C8EE9E
:103E9300240C123E9F123EF422EE241DF582EF34D1
:103EA30000F58322F582EF123EA212424C22F582E4
:103EB300EF123EA2123ED422123EBF22125761A33A
:103EC300A3A3A322123EBFA3A322123C4F123ED4AC
:103ED3002212574CE022E0FEA3E0FF228E828F8362
:103EE300E0241C124386123EF48E828F83123EF42A
:103EF30022123EFCFB12144A22E0FAA3E022C08203
:103F0300C083EAFCEBFDEC4D700479058044EC249E
:103F1300FBF582ED34FF124CD17007123F58E0F4E9
:103F23006005121DAA80E39003B0E0C0E0123F5881
:103F3300D0E0F0902626E493F97AB77B031213D8E6
:103F4300E96401700B7A007B20124C9E7900800299
:103F53007904024255EC24FFF582ED34FFF5832208
:103F630074F412038AA2AFE433F508C2AF9003B727
:103F7300123E106038EE24FBF582EF34FF124CD171
:103F83007A007B209003B06005124CA18005E0F914
:103F93001213E4E4F50AF50B780A120873EEFCEF4A
:103FA300FD7AB77B031213D274021208BBE508A291
:103FB300E092AFEEFAEFFB02310F125588851882BB
:103FC300851983AA82AB832274F212038A74FC12CA
:103FD3000935EAFEEBFF750AFE750BFF120D4EE97C
:103FE3006005791102414EEE2415123117603790A6
:103FF3000D23E0C43354E0F8E0333354FC48C0E00D
:10400300EE241512304AD0E012416912415F8B0948
:10401300EA45096011750AFFEE240F1231174404B3
:10402300124D2CD2E0F08E828F83122A336006EE7B
:104033002412124156EE2413123117701090262CBD
:10404300E493C0E0EE241312304AD0E0F08E828F66
:1040530083E0A2E750045403801CEE2414123117AA
:104063007015900342E0C0E0EE241412304AD0E011
:10407300F0900342E004F0EE241112311764017052
:10408300169005CEE0600D90034DE0700A8E828F8E
:1040930083E070031241538E828F83E064017013B7
:1040A300EE240B123EB164027009EE240F12311795
:1040B3004440F0851882851983AC82AD83EEFAEF14
:1040C300FB120DB48A088B0974FE650A700374FF32
:1040D300F470098E828F83A3A3125503EA45096006
:1040E300668E828F83E0C0E07401120B07D0E0F08C
:1040F3007402120B071255F17401120B0785820C1F
:1041030085830D780C120873EE240F12304A1206C1
:10411300AAEE240E123117F50C780C1208779003CF
:10412300561206AA7407120B07E0F9AC0AAD0B127C
:104133000DAE74071208BBE9FE74106E700BAA086B
:10414300AB0912144A80027E10EEF97404022A6B42
:10415300EE2411F582EF123EA2E4F022A312310500
:1041630079FF121CE42212416D22F08E828F83A309
:1041730022C082C08374DE1209358A828B83A3A393
:10418300A3A3123EAD740E120B07E8F0A3E912428B
:1041930043740C120B0712423C240DF582EB1231CF
:1041A3001AC0E0741A120B07D0E0F0125450EB124D
:1041B3003EAA7420120B0712423C2415F582EB121F
:1041C300311AC0E07408120B07D0E0F0EA241CF5A2
:1041D30082EB123EAA7412120B0712423C2411F511
:1041E30082EB12311AC0E07409120B07D0E01242BD
:1041F3003074FFF07401120B0774FFF07402120B9A
:104203000774FFF09081371206A67404120B07ACF3
:1042130082AD837407120B07AA82AB83120BFE7461
:10422300041208BB790074221208BB8025124234A1
:1042330022F085188285198322E8F0A3E9F0EA22A7
:10424300123C4FA312424B22A3E0F8A3E0F922123F
:104253005082D083D08202085374EC12038A74EE26
:104263001209358A128B13ECFEEDFF8909742612AD
:104273000B071255037428120B07E0F5107429126B
:104283000B07124377742B120B07E0F50EA3E0F52F
:104293000F7508107A1E7B001214447402120B0768
:1042A300124CAB7402120B07124CD370030243700F
:1042B300851882851983AA82AB837950124B8612A3
:1042C30050827402120B07124395A3124CAB741065
:1042D300120B07125CE07402120B07E0240B12436B
:1042E300827402F0120B071243957402F0120B074B
:1042F3001257441255F17402120B07125097E50935
:10430300F07402120B07E0240C124382E510F074E0
:1043130002120B0712437FE512F0A3E513F07408B2
:10432300120B07E50CF0A3E50DF0740A120B07E579
:1043330010F0850E82850F83C082C083740D120B2B
:1043430007AC82AD83D083D08274031207CFF97494
:1043530002120B07AA82AB83120D54E964017005A4
:1043630075080080087402120B07123E98A908749E
:104373001202551AE0F50CA3E0F50D22E0241C12FD
:10438300438622F8A3E012438D223400F988828900
:10439300832212508AA3A3A3A3A32274EE12038A37
:1043A300EAFEEBFF8C088D098E828F83A3740812BB
:1043B3004D67E060088E828F83A37410F01231146E
:1043C30060098E828F83A3E02408F0EE2415123156
:1043D3001760088E828F83A3E004F08E828F83A3FD
:1043E300A3A3A3A3A3E060198E828F83A3A3A3A394
:1043F300A3A3A3E0C3332402F88E828F83A3E02810
:10440300F0EE24111231176005750B0E8003750B46
:10441300008E828F83A3C082C083EE240D123117D6
:10442300D083D082F8E028250B8C828D83F0EE2494
:1044330011123117600512489228F0850882850908
:1044430083E0C3947540097508007509000245802F
:10445300E0FA7B0012569F7003024580EEFAEFFBF1
:10446300120DBAEA850882850983124CACEE240248
:10447300F8EF12337412467A1245BCF0EE240408A6
:1044830008EF123374124ABCA31245BCA3A3F0EE87
:1044930024131245A2F0EE24141245A2A3F0750AC8
:1044A30008EE24161231176010EE2418125581E518
:1044B300082408125782750A101231146016EE246C
:1044C3001A125581850A0CE508250C1257827408C7
:1044D300250AF50A8E828F83A3A3A3A3A3A3E06077
:1044E30059EE2407F510EF3400F511851082F5839A
:1044F300E0C0E012458912304DD0E01245ACE0C077
:10450300E012458912304DD0E01245ACA312459517
:1045130012086F851082851183E0C333FCE433FDF9
:10452300850A0CE508250C1254F71208BB85108286
:10453300851183E0C333250AF50AEE2415123117DA
:10454300600BC0E012458912304DD0E0F0123047C5
:1045530012459512086FEE240D123117FC7D00856C
:104563000B0A8E828F83A3E0F8E50828F8E5093467
:1045730000F9E8250AFAE91254FA1208BBAA08ABB3
:10458300097F0A0205A5850A0CE508250CF582E5D5
:104593000922E0F50CA3E0F50D750E00780C22124C
:1045A3003E9F1245C6A3A3A322F0050A8E828F83E2
:1045B300A3A3A3A3A3A3A3A322A3A31257EDA3126D
:1045C30045C622124AC0A3A32274F612038A8A8222
:1045D3008B83E0FC90035312467374027808120A2B
:1045E30036EC4508FCAD09EA241212466D740678D0
:1045F30008120A36EC4508FCED4509FDEA2415F5D9
:1046030082EB12311A6004780180027800E4C8F961
:10461300ED49FDEA2411F582EB12311AF5088809F8
:1046230074097808120A36ED4509FDEA2416124684
:104633006D740B7808120A36ED4509FDEA2417124A
:10464300466D740C7808120A36ED4509FD8A828B93
:1046530083A3A3A3A3A3A3124673740A7808120A1D
:1046630036ECFAED4509FB024CDCF582EB123EA277
:10467300E0F50875090022E085088285098322A3F5
:10468300E0F98508828509832274EE12038A8A0A77
:104693008B0BECFEEDFF750F01E9C3940850057910
:1046A3000002487F8E828F83E9F0124AE5E96003B6
:1046B300750F00124AC98E828F83124B13EE125468
:1046C30051EF124B08C0E0EE241112304AD0E01231
:1046D3004B00C0E0EE241212304AD0E0124169745C
:1046E3000812550BA3A3A3E06015124AB1EE2413DD
:1046F300F582EF124D1B8E828F83A3E02408F08E88
:10470300828F83A3A3A3A3A3A3A3A3E060218E8289
:104713008F83A3858208858309124AF4EE2415F555
:1047230082EF124D1B850882850983E02408F08EF1
:10473300828F83A3A3A3A3A3E0601A8E828F83A394
:10474300858208858309124AD88E828F83A3A3A307
:10475300A3A31248A4EE2419124156EE241B1241BE
:1047630056A3124D5FE07003024813EE2419F8EFCD
:104773003400F98E828F83A3858208858309E0FA4A
:10478300E50A2AF582E50B12311A888289831248D9
:10479300A4FAE50A2AF582E50B12311AC0E0EE24E9
:1047A3001A12304AD0E01248A488828983E0605903
:1047B300F8902625E493C398500575110C8008EEF4
:1047C3002419123117F5118E828F83A3E0F8E50ABD
:1047D30028F50CE50B12488812086FE511C333FC6A
:1047E300E433FD7AAF7B0B1248821208BBEE241B25
:1047F30012304A74AFF0A3740BF0E511C333F8859C
:104803000882850983E0288006EE24181259BCF03B
:104813008E828F83A3E0F88E828F83E0C398500348
:104823000246A2A3E0FA8A08E50A2508F8E50B3454
:1048330000F9EE241DF582EF124E271248B4C39AF5
:10484300C0E0EE241712304AD0E0124D24602BEE64
:104853002417F8EF3400F9880889098882F583E082
:1048630024F2124E08240EFAA3E03400FB88828956
:1048730083124CAB124892C398F0A90F02458412DD
:10488300137E7403223400F50D750E00780C22900C
:10489300034EE0F9120B3EE9F8850882850983E0AF
:1048A30022F0850882850983E004F022A3A3A3A351
:1048B300A3F08E828F83E02274F412038A8A088B1A
:1048C30009EA124949F0EA1313543F124942A3A3D8
:1048D300A3F0EAC41313124949A3A3F0EB12493B13
:1048E3001249537409780A120AB912493912495202
:1048F300740A780A120AB9E50A5401C0E0EC2418D4
:10490300F582ED12304DD0E0124958740B780A123B
:104913000AB9124939A3124952740C780A120AB916
:10492300124939A3A3A3A3A3A3A3A3F0740D7808E7
:10493300120AB9022C79E50A54018C828D83225420
:104943000F8C828D832254038C828D83A3A322A395
:10495300A3A3A3A3A3F08A0A8B0B22C082C08379EB
:10496300008A828B83A3A3A3A3A3A3E090034D6038
:104973000FE070228A828B83A3A3E070190980164B
:10498300E060138A828B83125079900356E06A7039
:1049930003A3E06B70E702425574F012038A8A0A9C
:1049A3008B0B890C8C088D09124AE5124AC98508BC
:1049B30082850983124B13E508125451E509124B02
:1049C30008C0E0E5082411F582E50912304DD0E076
:1049D300124B00C0E012374B12304DD0E0124E2F75
:1049E3007408124E486011124AB1E5082413124E9E
:1049F30023124E2FE02408F0850882850983A3A3A0
:104A0300A3A3A3A3A3A3E06017850882850983A3B7
:104A1300124AF0E5082415124E231248B42408F074
:104A2300850882850983A3A3A3A3A3E0601985084E
:104A330082850983A3AE82AF83124AD88508828513
:104A430009831248AF04F0AA08AB09120DCCE9F5AB
:104A53000D7056850882850983A3A3A3A3A3A3127C
:104A63004ABC7014E0FA8A0EE50A250EF8E50B122B
:104A73004D10E50CC39A8021124AF0E8240EF8E9A0
:104A8300124D1090034EE0F9120B3E8E828F83E09D
:104A9300F8E50CC39824F2C399C0E0E5082417F5A0
:104AA30082E50912304DD0E0F0A90D025440E50A29
:104AB3002408F8E50B3400F922124AC022E08508E5
:104AC30082850983A322850A82850B83A3A3124BC4
:104AD30029E0F9EA22E0F8E50A28F582E50B124D10
:104AE30037228A828B83125445120DC622AE82AFBF
:104AF30083E0F8E50A28F8E50B3400F922124B3C71
:104B0300A3A3A3E022123EA2E8124B35A3A3E02203
:104B1300A3A3A3A3A3A3A3A3A3124B35124B29A31C
:104B2300A3E0F9EAF822E0FA850A82850B83A3A3BE
:104B3300A322F0A3E9124B3C22F0850A82850B8362
:104B4300A3A3A3A322C082C0837AC57B0379E21205
:104B53001BEE7AC57B03024255C082C08390035685
:104B6300024252C082C08374FE12093585188285C1
:104B73001983AA82AB83794B124B8612508274023B
:104B830002422B121BEE85188285198322C082C034
:104B930083794A121BEE02425574F612038A90037C
:104BA300CDE0FE04F0EEF9120D7E8B09EA450970A3
:104BB300EDEE60EAF9024CDC74F012038AEAFEEBD4
:104BC300FF8C088D09890A7410120B07E0F50B742A
:104BD30011120B07E0F50C120E9EEA4B7013E50C55
:104BE3007042A90AAC08AD09EEFAEFFB120EB680CB
:104BF3006EE50A6021EA2402F582EB12311A850A76
:104C0300082508F8E4340013E813F070098A828B4E
:104C130083A3A37401F0E50C6045E50B70068A825B
:104C23008B83E4F07401650C7035E50B9003D4704D
:104C330004E4F0802AE004F0900D10E0F89003D42F
:104C4300E0C398401AE4F0900359E06E7003A3E0C8
:104C53006F700CEEFAEFFB7901120C22124C650215
:104C630054407A017B009003B0E0F912150A22C088
:104C730082C08374016A7001EB70077A01124C9C45
:104C83008012900D07124CABEA4B60051229F58098
:104C930003124C650242557A207B009003B0E0F981
:104CA3001213DE223400F583EAF0A3EBF022C08274
:104CB300C083900D09023855C082C083900D0B024A
:104CC300385512575322EE240CF582EF3400F58346
:104CD30012424CE849221208BB7F020205A5A2F04A
:104CE300E433851882851983124CFD7952121BF423
:104CF30022124CFD7942121BF422F0AA82AB8322CA
:104D0300AA08AB099003B0E0F91213B4223400F9F6
:104D1300E508241DF582E509123EA2E8F0A3E9F0B7
:104D23002212550FA3A3E022A3F0EE2415124D3453
:104D330022F582EF3400F583E022124D4122340044
:104D4300F583E0F8A3E0F98882898322E0F8124D25
:104D53005522A3E0F98E828F83A3A322F0EE2418B9
:104D6300123E9F22F0EE2416123E9F2274F4120389
:104D73008AEAFEEBFF7A007B04124C69124DFE12A5
:104D83004D1E9003657409F0120DD88A088B09AC87
:104D930008AD09EE241312304A125082124F5264A6
:104DA3000170487A0F124DF160418A828B8374023D
:104DB300124E08FAA3E0FB8A828B83A3E0FC8A826B
:104DC3008B83A3A3E0FBEC850882850983A3A3124D
:104DD3004CAC8882898312508612467A124D2BFA84
:104DE300A3E0FB794A121BF4124D0302310F7B003F
:104DF3001213A88A088B09EA450922900336124246
:104E03004C900D0B22F0EE241DF8EF124E122212DD
:104E1300438DE022124E1B223400F5837401F022ED
:104E2300F582E509123EA2E8F0A3E922124E3322ED
:104E3300124E3722F0850882850983A322124E374A
:104E4300A3A3A3A322124E40A3A3E02212525912FA
:104E53000E2C22EE2417F582EF124E1B120DD8EE04
:104E6300241A123E9FEAF0A3EBF02274F412038A91
:104E730074F31209358908EAFEEBFF7C0D7D007996
:104E830000851882851983AA82AB8312138AEE24C4
:104E93001D12304A125744A3E0F8741F58600A7970
:104EA30001121BC47900024F49E8A2E55008740CB3
:104EB300120B077401F0E8A2E75008740B120B07FA
:104EC3007401F0E8A2E6740A5008120B077401F0AB
:104ED3008008120B07E064017005EE24138003EED3
:104EE30024151255817402120B07AA82AB83121B7D
:104EF300DC123047124F57124D1E740A120B07E093
:104F030064017033122A28703B120DE48A0A8B0B5A
:104F1300A80AA90BEE240B123117687003A3E069EA
:104F23007022120DD8EAFCEBFD7402120B07AA8261
:104F3300AB83124F52600D851882851983AA82AB09
:104F430083120C1CA908740D02310CEEFAEFFB124C
:104F53001BD6E922E0124F5C22F8A3E0F985188200
:104F63008519832274F612038A74F31209358A08A9
:104F73008B09ECFEEDFF7C0D7D00790085188285A1
:104F83001983AA82AB831258E9A3A3A3A3A3A3A360
:104F9300A3A3124FF1124FFAF8A2E55008740B12B3
:104FA3000B077401F0E8A2E75008740A120B0774A8
:104FB30001F0E8A2E6EE50042413800224151255F2
:104FC300817402120B07124FE3A3A3E0C0E0740C39
:104FD300120B07D0E0125251120C16740D024CD969
:104FE300AA82AB83121BDC85088285098322E01227
:104FF3004F5CE8F0A3E922F0123E9C125748A3E06D
:105003002274F712038A74E1120935EAFEEBFF8E6C
:10501300828F83125086A3A3A3E0A2E050518E8215
:105023008F83122B888A828B83A3A3A3A3A3A3E0DA
:1050330054FE12509E8A828B83125097E0F98A8223
:105043008B83E0241CFAA3E0123AB8125082120DAB
:10505300D2E9701B741D120B071250917011851841
:1050630082851983AC82AD83EEFAEFFB120E1A022E
:1050730052C38E828F83A3A3A3A3A3A3A3A3A31229
:1050830031052212508A2212574CA3A3A322123EA7
:10509300D4640422E0241B12438622124234AC82DD
:1050A300AD8322E9F87900740468600A740A6860C1
:1050B3000574036870010902085374F612038A8A9F
:1050C300828B837420F0A3A37401F0120BC88A08A7
:1050D3008B09AE08AF09EE4F60108E828F83740187
:1050E300F09003A3E07003124E56EEFAEFFB024C6E
:1050F300DCC082C0839003B97401F0E9A2E35003DA
:105103007403F0E9A2E15004E0D2E2F002425574E4
:10511300F612038A79007C008A088B097808120545
:10512300EBF8FF07455143514351435143513C5120
:105133004051455139510C80097C0480050C80F69F
:105143007C089003B9E05C6003098003EC6001090B
:10515300024CDC74F612038A8A828B83E07012A3FA
:10516300124CD3600C8A828B83125081121D1480DF
:10517300047A007B00024CDC74F512038A74F31288
:1051830009358A088B09ECFEEDFF750A12EA450919
:105193007005790002524A900356E065087004A333
:1051A300E065097014120DD8EAFCEBFD124F4E7046
:1051B30005750A018003750A00851882851983E441
:1051C300F004120B07E508F0A3E509125251120B84
:1051D3008CE960277403120B07AA82AB83120B6E50
:1051E300E964017016750A017403120B07AC82ADF2
:1051F30083124F4E6021750A00801C7412650A7079
:10520300169003A2E06402700EEEFCEFFDAA08AB59
:1052130009120BA4E970DFEEFCEFFDAA08AB09123B
:105223000EA4E9F8740A687005750A01801774A062
:10523300687012EEFCEFFDAA08AB09120EB0AA08C3
:10524300AB09120EC2A90A740D025C517402125208
:10525300552212525922124234AA82AB832274F786
:1052630012038AEAFEEBFF8E828F83A3A3A3A3A379
:10527300A3A3A3E06015EE241512304A1230F512F1
:105283000E44E964017004790180258E828F83A323
:10529300A3A3A3A3A3A3E06015EE241312304A1221
:1052A30052B5FAA3E0FB120E44E9640160D9790018
:1052B3008013123BA4A3A3A3A3A3A3A3A3A3E022AA
:1052C300741F1208BB7F010205A574F012038A74D0
:1052D300FD1209358A088B09ECFEEDFF890B741367
:1052E300120B07E0F50C750A017401120B07740425
:1052F30012577C6048E50C601DEA2417F582EB1217
:1053030059BF12576A8A828B83E0D2E7F0EA2414EA
:10531300F582EB124159125450EB124D3D740312B6
:105323005CE2EE88828983A3A3F0EF88828983A35A
:10533300A3123C4E123C55120BC2E9F50AA90A749A
:105343000302543D74EC12038A74F51209358A0A78
:105353008B0B890C8C0E8D0F741F120B07E0F50D50
:105363007420120B07E0F510A3E0F5117E01EE1295
:105373000B07740AF0E97007E50DC333240AF01232
:10538300552270030254241255377409F0A3E50C17
:10539300C43354E0450D125549E50C702D7C008053
:1053A30023ECC333F8E433F9E51028F8E51139F9B0
:1053B3008882898312543188828983123367F0A3E8
:1053C3000EAF830CECC3950D40D7E5082417F58287
:1053D300E509124E17120DD8E508241AF582E509DE
:1053E300124CA77403120B07AC82AD83AA0AAB0B52
:1053F300120B74E96019E5082416F582E5091254C5
:105403002B120B07A882A983E5082418124D1785D0
:105413000882850983125CDEAA08AB09120BC2E974
:10542300FEEEF9740B02551A124E1B740322E08E22
:10543300828F83F0A3AE82AF83221208BB7F080260
:1054430005A5123EFCF9EA2400E439FB22EA240B09
:10545300F5822274EE12038A8A0C8B0D890E8C0856
:105463008D097412120B07E0F50F7413120B071258
:10547300550390053D124CD36077E50FC333F8E431
:1054830033F9E8240EFAE93400FB1213A88A108BCF
:1054930011AE10AF11EE4F60588E828F8374D4F02B
:1054A300A3A3E50CF0A3E50D12550BE50EF0AC0834
:1054B300AD09EE2405FAEF125785EE240D12304A9A
:1054C300E50FF0850A08850B09750A0078081208AC
:1054D3006FE50FC333FCE433FDEE240EFAEF1254F1
:1054E300FA1208BBEEFAEFFB90053D125744121D6A
:1054F300B5024584FAE5093400FB12137E740322D6
:10550300E0F50AA3E0F50B2212550F2212551322E0
:1055130012416DA3A3A3221208BB7F0C0205A5852C
:105523001882851983AA82AB83120E2C8A088B09F1
:10553300EA450922EA240BF582EB124D37FEA3E07C
:10554300FF8E828F8322F0A3AE82AF83AC0EAD0FAA
:10555300EEFAEFFB12555B22121BDC12556222EEB0
:105563002408FEEF3400FF22E0FA8E828F83A3A388
:10557300E022FEA3E03400FF8E828F83E022123EFE
:105583009F12558822E0FCA3E0FD22123105120D83
:10559300C02274F612038AEAFEEBFF9003BA80136B
:1055A30088828983E06E7003A3E06F603A88828902
:1055B30083A3A3124CD370E87A047B001214448AA9
:1055C300088B09A808A909E849601C888289831205
:1055D30055F19003BA12508288828983A3A3124C97
:1055E300AB9003BA124D1E024CDC8A828B83EEF021
:1055F300A3EFF02274F412038A7E009003BA8007AB
:105603000E88828983A3A3124CD370F4EEC333FABA
:10561300E433FB12569F607E7F009003BA80248898
:10562300828983125584EFC333FAE433FBE5082AF6
:10563300F582E5093BF583ECF0A3EDF00F88828951
:1056430083A3A3124CD370D79003AB122A627003C7
:10565300A3E06978087019120873EEF50A780A1244
:1056630008777C777D0379009003AB1256AA801AE2
:10567300120873EEF50A780A1208777C777D0379AE
:10568300009003AB125082120E5674031208BBAA89
:1056930008AB0912144A120BDA02310F1214448AAE
:1056A300088B09EA450922123105120E5C22C082D9
:1056B300C08380128A828B83A3A3123EAD9003BA68
:1056C300124D1E12144A9003BA123DBD70E60242F7
:1056D3005574F612038A900363123ED99003CE12D7
:1056E3005733124D1E7ACE7B037950121BF490036D
:1056F300CE122C81FAEFFB120EBC9003CE123ED9D0
:1057030090053F124CD360257A067B001213A8EA5A
:105713004B601A8A828B8374D5F0A3A3E412575982
:105723000412576A90053F125744121DB5024CDC10
:1057330012573722E0F8A3E0F9900363228E828F99
:10574300831257482212574C22E0F812575222A3D1
:10575300E0F58388822212575D2212576122F08A74
:10576300828B83A3A3A32212575DA3EEF0A3EFF0D2
:1057730022F582EF124D37F922124E4FEA4B22FAED
:10578300E5093400FB121BDC22124D56A3A3A3A38D
:10579300A3A3A322902627E4932401F8E43400F979
:1057A3007A027B002274F712038A7E008004125D62
:1057B300950E1258B940F77E00EE1257D474FEF0DE
:1057C300A3041257E9E4F00EEEC3940340EB025234
:1057D300C875F003A4F8A9F074BC28F8740339F968
:1057E30088828983A3221257ED22F088828983223B
:1057F30074F712038A7F0080010F90262FE493F839
:10580300EFC3985026EF1259A56A7003A3E06B709B
:10581300E8125D426C7003A3E06D600A74FF6C7064
:105823000374FF6D70D31258B080047A007B0002BA
:1058330052C874F612038A7CFF7DFF7AFE7BFF1247
:105843000E80EA4B70407508008036E50875F01746
:10585300A4F8A9F0744A28F582740A1259B7600CA7
:10586300744928F582740A1259B77013743B28FEE1
:10587300740A39FF8E828F831259C4EEFAEFFB0547
:105883000812591F40C5024CDC74F412038A8A08BB
:105893008B09ECFEEDFF800B120E92EEFCEFFDAADE
:1058A30008AB09120E80EA4B70EE02310F743B28ED
:1058B300FA740A39FB2290262FE493F8EEC3982258
:1058C30074F712038AEAFEEBFFEE4F60101258E3FF
:1058D30074FEF0A304125CE814F0A304F00252C8AF
:1058E3007C177D00790012138A8E828F832274F7CE
:1058F30012038AEAFEEBFF7508008018E50875F0CD
:1059030017A4F8A9F0125D4D7003A3E06F600312B2
:105913005D9D050812591F40E30252C890262FE4EB
:1059230093F8E508C3982274F612038A120E808A4C
:10593300088B09A808A909E849600AE8240DFAE9CF
:105943003400FB80047A007B00024CDC74F4120305
:105953008A8A0A8B0BECFEEDFF750800750900803F
:105963002EE50975F017A4F8A9F0125D88601EE50D
:10597300091259A5650A7004A3E0650B7003750845
:105983000AEEFCEFFD125C4460034308A005099096
:10599300262FE493F8E509C3985004E50860C20292
:1059A3002C7975F017A4F8A9F01259B022743B288A
:1059B300F582740A39F583E022F582EF123EA2E400
:1059C30022123105120CB8221257EDA3A3A3A3A3ED
:1059D300A3A3A32274F212038A8A088B09ECFEEDB7
:1059E300FF740E120B07125503750C007C007D012A
:1059F30080101213A2E50CF5F0EA84ACF0750C00EC
:105A03007D00780079008003125B81125BDD400327
:105A1300025AA3E8FAE9FBEA75F017A4FA85F00D38
:105A230075F017EBA4250D125BB97003A3E0F460C6
:105A3300D7125B9765087004A3E0650960CA125B1F
:105A4300976E7003A3E06F60BF125B97650A7004E3
:105A5300A3E0650B60B2E8FAE9FBEA75F017A4FA74
:105A630075F017EBA4250DFB74492AF582740A120D
:105A73005B78509474016D050C608DE50CC39C40FC
:105A830087E875F017A4F8AAF075F017E9A42AF9C6
:105A9300743B28F582740A39F583125082025B75D0
:105AA300780079008003125B81125BEA4003025B9A
:105AB3005CE8FAE9FBEA75F012A4FA85F00D125BD3
:105AC300C964FE7003A3E0F460DC125BBF65087079
:105AD30004A3E0650960CF125BBF6E7003A3E06FA0
:105AE30060C4125BBF650A7004A3E0650B60B7E88E
:105AF300FAE9FBEA75F012A4FA75F012EBA4250D8E
:105B0300FB74CA2AF5827408125B785099E8FAE9A3
:105B1300FBEA75F012A4FA75F012EBA4250D125BE3
:105B23008A64016081E064027003025AA974016D02
