:020000040000FA
:06000000020D3002035E58
:03002B00020B5A6B
:0300330002092C93
:030043000209F6B9
:0300530002028F17
:03006B0002091275
:100083000202F30101FF050301F212F212F212F26E
:1000930012AE11A811F212A32600000000052700DA
:1000A3000000000C0000000C0001040000D214004A
:1000B30000000000008C150000000000000000009C
:1000C30000FFFFEECC01000000000000070000006D
:1000D30000000000FF01010100AD05000000FE0566
:1000E300E80364006400B80102020008000005028E
:1000F30007051E02051E0A03B80B02010234120291
:100103001F00E007965118000202061200120D4F5D
:10011300604F120D7C6012E7548066F6120BE1709B
:1001230011120DBB703B090909F4F618F618F618FD
:10013300F622120BF67015120DC508080860EAE6E0
:10014300447FF618768018E4F618F622120DC5607F
:1001530016120DBB7012E4F608F608F608E6548092
:10016300F609090918181822EAC0E0EBC0E0ECC050
:10017300E0EDC0E0E687F0A4FBACF008E687F0A46E
:100183002CFCE435F0FA1809E687F0A42C4B600246
:100193007401CA35F0FCE433FB09E687F0D2F7A417
:1001A3002CCB35F0FC1908E687F0A42BCC35F0FBFB
:1001B300E433FD0819E687F0D2E7A42C4ACB35F0E7
:1001C300CD3400FC09E687F0D2E7A42DCC35F0FD51
:1001D300E433FA0918E687F0D2F7A42CCD35F0CA38
:1001E3003400FC08E687F0D2E7D2F7A42ACC35F036
:1001F3007A7E20E70B0ACB33CBCD33CDCC33CC3354
:10020300CB3350147004ED30E00ED2F1E4CD3DCD8C
:10021300CC3CCC3B5005DA05C2F1EB547FC6330826
:10022300E63392F0FBE73309E733C39A502D2B7083
:10023300190C0D4C4D70151806E608C333700D20CC
:10024300F10AA2F013F6E418800B4024E4F630F030
:1002530002768018F618F618F68024D33B14501053
:1002630074FFA2F013F6187680E418F618F6800FE0
:10027300A2F013F618E63303F618ECF618EDF6D0F1
:10028300E0FDD0E0FCD0E0FBD0E0FA22C0E074F265
:10029300120606A2AFE433FED2AFE5A7FFE5A1F550
:1002A300085F54106006121C2875A1EFE5085F541F
:1002B300086008121C2E75A1F7802BEFA2E0C0D0B6
:1002C300E508A2E092F0120C93158182F05017908A
:1002D3006198E0F89008D8E0C398A2D265D0335073
:1002E30002E8F075A1FEEEA2E092AF7F0102071AC9
:1002F300C0E074F2120606A2AFE433FED2AF9061FF
:10030300A4E0F8759B00E59158540860087591F7CF
:10031300121C76802AE59158541060087591EF12EB
:100323001C7C801BE8A2E0C0D0E591A2E092F01211
:100333000C93158182F05007E0C2E0F0121DC090CB
:1003430061A3E0F8E5E9585404600E121D9675E9BF
:10035300FB906193E0A2E640F2808BC0E074F2125E
:100363000606A2AFE433FED2AF9061A5E0F8E5BF85
:10037300585404600675BFFB121DD80202E9C3E49A
:1003830098F8E499F91203C28026C3E49AFAE49B2D
:10039300FBE920E7E91203C2E498F8E499F922C3E0
:1003A300E498F8E499F91203C2E498F8E499F9C3DC
:1003B300E49AFAE49BFB22EB20E7CFE920E7E0B9DC
:1003C3000010BB0008E88AF084F8AAF022E4FBC816
:1003D300FA22EB70227B10C833C8C933C9335007E4
:1003E300C39AC3DBF280069A50012ADBEAC833F4CE
:1003F300C8C933F4C9FA2275F008E4C833C8C9334D
:10040300C933C99AC99B5004C92AC93BD5F0ECFB2F
:10041300C833F4C8E4C9FA2212045B20F01430E7AD
:100423002B74FFFCFBFA747F8022E4FCFBFA7480DC
:10043300801AB48008BC00F2BB00EF800F50EBF9C8
:10044300E4C39AFAE49BFBE49CFCE499C6CC18C68B
:10045300CB18C6CA18C6F922E4C9C608CAC608CB4F
:10046300C6D3330308CCC63392F0C3947F402E9493
:10047300184019C9B90704CACBCC225025C309CAED
:1004830033CACB33CBCC33CC33D9F422F4600DC98C
:10049300CCC313CB13CBCA13CAD9F6CC22E4FCFBCF
:1004A300FA2214FCFBFA22080808EAC0E0EBC0E0D9
:1004B30086F0E7A4FA180986F0E7A42AFA18098651
:1004C300F0E7A42AFA180986F0E7A42AFA1986F0B5
:1004D300E7A4FBE5F02AFA190886F0E7A42BFBE56D
:1004E300F03AFA190886F0E7A42BFBE5F03AFA187C
:1004F300180986F0E7A4C5F02BFBE43AFA1908E7DC
:10050300C5F0C6A426F6E5F03BFBE43AFA1886F0FC
:10051300E7A4F6E5F00826F6E43B08F6E43A08F625
:10052300D0E0FBD0E0FA22E4CFC0E0E4CEC0E0E4C8
:10053300CDC0E0E4CCC0E075F020C3E633F608E6B6
:1005430033F608E633F608E633F6181818EC33FCEE
:10055300ED33FDEE33FEEF33FFC3EC9709ED97095F
:10056300EE9709EF97191919400FFFEC97FC09ED66
:1005730097FD09EE97FE191906D5F0BEECF709EDC4
:10058300F709EEF709EFF7191919D0E0FCD0E0FDF0
:10059300D0E0FED0E0FF222518C582C0E0E5193483
:1005A300FFC583C0E0E518C3958224F810AF088522
:1005B30083198582188008858319858218D2AFCE66
:1005C300F0A3E520F0A37808E608F0A3DEFAEFF045
:1005D300A3E58124FAF8E608F0A3E608F0A3E60809
:1005E300F0A30808E608F0A3E608F0A31581158137
:1005F300D0E0FED0E0F8158115811581E8C0E0EE6A
:10060300C0E022C0D02518C582C0E0E51934FFC57B
:1006130083C0E0E518C3958224F310AF08858319DE
:100623008582188008858319858218D2AFC8F0A304
:10063300E9F0A3EAF0A3EBF0A37908E709F0A3D864
:10064300FAECF0A3EDF0A3EEF0A3EFF0A3D0E0F00B
:10065300A3D0E0F0A3D0E0F0A3E520F0A3E5F0F011
:10066300A322E9799EC608CAC608CBC608CCC6C36E
:1006730070207996CACBCC7019798ECBCC70137954
:1006830086CC700EF9802ACA33CACB33CBCC33CC99
:10069300331930E7F2CCCBCA3350147004EA30E09C
:1006A3000DE4CA3ACACB3BCBCC3CCC500209C3E9DC
:1006B30013C6CC182313C6CB18C6CA18C6F9221200
:1006C3000DB0B90003020704E4900301782F790BFE
:1006D3008002F0A3D8FCD9FA900D2FAA82AB8390A5
:1006E3000086788A79018015E493A3AC82AD838A6E
:1006F300828B83F0A3AA82AB838C828D83D8E9D9C2
:10070300E77582EB7583A17403120AB97582A2752A
:1007130083207400120AB9851983851882E0C0E02A
:10072300A3E0F9A3E0FAA3E0FBA37808E0F608A3AB
:10073300DFFAE0FCA3E0FDA3E0FEA3E0FFA3E0C03B
:10074300E0A3E0C0E0A3E0F5D0A3E0F520A3E0A39D
:10075300F5F010AF08858319858218800885831901
:10076300858218D2AFD082D083D0E0F8D0E032E8CF
:100773000375F0108E1A8F1B85821F85831E8518C3
:1007830082851983E0CEA3E0CF851F82851E83EB8C
:10079300C9EAC8EDCBECCAC3E833C8E933C9EA33C5
:1007A300CAEB33CBC3EA9EF51DEB9FF51CB3500494
:1007B300AB1CAA1DEC33CCED33CDD5F0DAAE1AAFBA
:1007C3001B22D083D082ECC0E0EDC0E0E493A3FC15
:1007D300E493A3FDED4C600D12089DEC24FFFCEDAA
:1007E30034FFFD80EFE493A3FCE493A3FDED4C60A1
:1007F3000D1209A1EC24FFFCED34FFFD80EFD0E0E6
:10080300FDD0E0FCE493A3C0E0E493C0E022D083F6
:10081300D082E9C0E0E493A3C386F0C5F095F0F974
:1008230008E493A386F0C5F095F0700BE493A3C39B
:10083300994005E9048002A3E475F002A42582F53A
:1008430082E5F03583F583D0E0F9E493A3C0E0E4D7
:1008530093C0E022851983851882E0A3FEE0A3F507
:10086300207808E0A3F608DFFAE0A3FFE0A3C0E0E6
:10087300E0A3C0E0E0A3C0E0E0A3C0E0E0A3C0E0E9
:1008830010AF0885821885831980088582188583AF
:1008930019D2AFD083D082020ABFC0E0C3E49396DB
:1008A300087401939618400FE49366700808740166
:1008B30093661870007019A3A3C3E4939608740198
:1008C300939618A3A3400DD0E0D0E0D0E002080136
:1008D300A3A3A3A3A3A3D0E022D083D082C5F0E433
:1008E30093A3C5F0C395F0F5F0E493A3C395F0404B
:1008F30005E5F0048001E475F002A42582F582E5A4
:10090300F03583F583E493A3C0E0E493C0E022C011
:10091300E074F2120606E589A2E15003121AE475A7
:100923008900C2C57F0102071AC0E074F2120606ED
:10093300E58BA2E05003121AE4758B00C2E880E451
:100943007404800474028000CCC0E0EDC0E0E518BC
:10095300C39CCCAD1950011D10AF068C188D1980A6
:10096300068C188D19D2AF120A3BD0E0FDD0E0FC03
:100973002274028000CCC0E0EDC0E0E518C39CCC3B
:10098300AD1950011D10AF068C188D1980068C18F7
:100993008D19D2AF120A19D0E0FDD0E0FC22C0E0DD
:1009A300C0F088F0E49366700808740193661870C9
:1009B30000A8F0A3A3700BD0F0D0E0D0E0D0E00209
:1009C3000801A3A3D0F0D0E022D083D082CCC0E032
:1009D300E493A36006120A5C1470FAE493A360061E
:1009E300120BA11470FAD0E0FCE493A3C0E0E493EB
:1009F300C0E022C0E074F2120606A2AFE433FED2D6
:100A0300AFC2C0E5D1A2E45003121B9EEEA2E09256
:100A1300AF7F0102071ACAC0E0E493A3C582CCC525
:100A230082C583CDC583F0A3C582CCC582C583CDE2
:100A3300C583DAE5D0E0CA22CAC0E0E0A3C582CC10
:100A4300C582C583CDC583F0A3C582CCC582C583CA
:100A5300CDC583DAE6D0E0CA22C0E0E493A3D39CF9
:100A63005010E493A3C39C400AD0E0D0E0D0E0024E
:100A730009E9A3A3A3D0E022C008C3E096F50808C0
:100A8300A3E096420808A3E096420808A3E096452F
:100A9300087001D3D00822700908080822601618CC
:100AA3001818C6C333C608C633C608C633C608C635
:100AB30033C6D5E0EA22C09FF59FE473D09F22D0CE
:100AC30083D082C09FE493C0E0740193C0E07402BA
:100AD30093F59F227404800A7403800674028002D3
:100AE3007401C0E0F404120AF2D0E0120D8B222547
:100AF30018F58210AF08F518400215198008F5188B
:100B030040021519D2AF85198322BB0102E722C027
:100B130082C08389828A83BB0003E08002E493D08E
:100B230083D08222C0D0251810AF08F518500205D3
:100B3300198008F51850020519D2AFD0D0226016DB
:100B4300080808C6C313C618C613C618C613C618A2
:100B5300C613C6D5E0EA22C0E0C0D0E8C0E0E5A8ED
:100B6300D2AFC2C7A2E792AFD0E0F8D0D0D0E03284
:100B7300C3E0C696F608A3E0C696F608A3E0C696B9
:100B8300F608A3E0C696F622251810AF08F518401C
:100B93000215198008F51840021519D2AF22C0E0DA
:100BA300E493A36C7009D0E0D0E0D0E00209E9A39C
:100BB300A3D0E022C3E09608A3E09608A3E096083A
:100BC300A3E096A2D265D03322E066701008A3E0BA
:100BD30066700A08A3E066700408A3E0662218188A
:100BE30018E6084608700AE608C3337005E633F4CE
:100BF300220822191919E7094709700AE709C333BB
:100C03007005E733F4220922E76670100809E766E6
:100C1300700A0809E76670040809E76622C3E096CC
:100C2300F008A3E096F008A3E096F008A3E096F09E
:100C330022E056F008A3E056F008A3E056F008A31C
:100C4300E056F022E647F60809E647F60809E647C4
:100C5300F60809E647F622E026F008A3E036F00896
:100C6300A3E036F008A3E036F022E056F608A3E04E
:100C730056F608A3E056F608A3E056F622E657F622
:100C83000809E657F60809E657F60809E657F62273
:100C9300C0E0E8C0E0E58124FCF8E6A2E7D0E0F894
:100CA300D0E022E627F60809E637F60809E637F624
:100CB3000809E637F622700422600D18C6C333C64E
:100CC30008C633C6D5E0F41822E026F608A3E036BA
:100CD300F608A3E036F608A3E036F622E4C396F658
:100CE30008E496F608E496F608E496F622C3E0963E
:100CF30008A3E09608A3E09608A3E09622C6F4C6EC
:100D030008C6F4C608C6F4C608C6F4C622600D08B1
:100D1300C6A2E713C618C613C6D5E0F322C3E796E7
:100D23000809E7960809E7960809E7962275D000AF
:100D3300758140751801751903000206C2E6F008B3
:100D4300A3E6F008A3E6F008A3E6F022E6084608C7
:100D5300C3134608336002E633F422600C08C6C3AB
:100D630013C618C613C6D5E0F422E0F608A3E0F6CE
:100D730008A3E0F608A3E0F622E7094709C31347EF
:100D830009336002E733F422CAC0E0E6F0A308DACD
:100D9300FAD0E0FA22EAF0A3EBF0A3ECF0A3EDF033
:100DA30022E0FAA3E0FBA3E0FCA3E0FD22E5C754A5
:100DB300F84401F5C7790122E7C3331947194719E5
:100DC3004722E6C333184618461846222518F582EB
:100DD300E43519F58322C2AF75D69F0200002212B3
:100DE3000AC23CDC01120AC29DDC01120AC227DDE1
:100DF30001120AC2CBDD01120AC21FDE01120AC2AE
:100E030038DE01120AC25EDE01120AC299DE011245
:100E13000AC2DDDE01120AC204DF01120AC255DF73
:100E230001120AC205E001120AC2BDE001120AC2A0
:100E330085E101120AC262E201120AC2E8E201126A
:100E43000AC2F7E201120AC202E301120AC20BE468
:100E530001120AC21CE401120AC292E401120AC27C
:100E630024E501120AC27CE501120AC242E601121C
:100E73000AC273E601120AC2B8E601120AC2C5E643
:100E830001120AC259E801120AC2BCE901120AC2DC
:100E9300D8EA01120AC242ED01120AC24DED011253
:100EA3000AC257ED01120AC262ED01120AC26CEDC9
:100EB30001120AC276ED01120AC281ED01120AC2C1
:100EC3008CED01120AC2BDED01120AC2E1ED01125D
:100ED3000AC205EE01120AC26AEE01120AC2AEEE9E
:100EE30001120AC2CAEE01120AC241EF01120AC27A
:100EF30079EF01120AC2C5EF01120AC222F00112F0
:100F03000AC204F201120AC28AF201120AC25BF394
:100F130001120AC26BF601120AC2C0F601120AC21A
:100F2300ECF601120AC238F801120AC288F801125B
:100F33000AC2DDF801120AC2DEF901120AC276FA08
:100F430001120AC2F8FA01120AC298FB01120AC27C
:100F5300252900120AC25E2900120AC2382B001288
:100F63000AC2772B00120AC2C12B00120AC2662CD6
:100F730000120AC2C52C00120AC2F92C00120AC2BE
:100F8300662D00120AC2832E00120AC28B2F001292
:100F93000AC2213000120AC2683300120AC2113495
:100FA30000120AC2ED3400120AC24E3500120AC200
:100FB3006B3600120AC2953800120AC24C3900126D
:100FC3000AC2563900120AC2893900120AC2503ABB
:100FD30000120AC2EB3A00120AC2503B00120AC2C4
:100FE300793B00120AC29B3B00120AC2CA3D00129F
:100FF3000AC2A13E00120AC2E53E00120AC2523FD3
:1010030000120AC20D4000120AC23F4000120AC277
:10101300834000120AC2B64000120AC20B410012FA
:101023000AC2604100120AC2F44100120AC25642C7
:1010330000120AC2BE4200120AC2674400120AC268
:101043004F4500120AC2914600120AC2BF4800125D
:101053000AC27F4900120AC2AE4B00120AC2514CA7
:1010630000120AC28F4C00120AC23B4E00120AC27F
:101073004F4E00120AC2594E00120AC2834E00128A
:101083000AC28F4E00120AC2AE4E00120AC2654F48
:1010930000120AC2A44F00120AC2AE4F00120AC2C3
:1010A300625000120AC2615100120AC25A5200125F
:1010B3000AC2F75200120AC2995300120AC2B0536D
:1010C30000120AC2E75300120AC2055400120AC2F0
:1010D300495400120AC26E5400120AC25455001237
:1010E3000AC2C05500120AC23A5600120AC2495730
:1010F30000120AC2885800120AC2EA5800120AC231
:10110300A45900120AC2C75900120AC29B5A0012FC
:101113000AC2E65A00120AC2285B00120AC27F5BA7
:1011230000120AC2B65B00120AC2E45B00120AC2D2
:101133001D5C00120AC2425C00120AC2CA5C0012A1
:101143000AC2ED5E00120AC24C5F00120AC2E05FDF
:1011530000120AC24C6000120AC2A06000120AC246
:1011630060BA03120AC29FBA03120AC2A1B40112DF
:101173000AC2FBB401120AC257B501120AC2A3B5CF
:1011830001120AC2BEB501120AC2EFB501120AC2A8
:101193000CB601120AC218B601120AC28CB70112A8
:1011A3000AC2A5B701120AC20CB801120AC21FB8BB
:1011B30001120AC22DB801120AC2E1B801120AC211
:1011C300C5B901120AC2CBBA01120AC251BB01123C
:1011D3000AC25BBB01120AC2C8BB01120AC2DFBB4F
:1011E30001120AC211BC01120AC24ABC01120AC28C
:1011F30074BC01120AC2D5BC01120AC2F5BC0112A9
:101203000AC213BD01120AC259BD01120AC27FBE2E
:1012130001120AC2CCBE01120AC2FBBE01120AC2EB
:1012230071BF01120AC299BF01120AC2D2BF0112D1
:101233000AC2E0BF01120AC238C001120AC287C043
:1012430001120AC2C6C001120AC2F6C001120AC2C2
:1012530022C101120AC22DC101120AC24BC10112DD
:101263000AC20DC201120AC217C201120AC252C235
:1012730001120AC268C201120AC271C201120AC271
:10128300C6C201120AC2DAC201120AC2E8C30112BB
:101293000AC2FBC301120AC210C401120AC2B2C4B9
:1012A30001120AC235C501120AC2F3C501120AC2EC
:1012B300FEC501120AC224C701120AC240C70112A5
:1012C3000AC292C701120AC2D1C701120AC2E6C7F3
:1012D30001120AC228C801120AC275CA01120AC23F
:1012E300F3CA01120AC266CB01120AC288CD0112E7
:1012F3000AC2A0CD01120AC2A3CD01120AC2AFCD08
:1013030001120AC2C3CD01120AC2CBCD01120AC215
:10131300FECD01120AC2AECE01120AC224CF0112BF
:101323000AC297CF01120AC24BD001120AC200D1DE
:1013330001120AC21FD101120AC2BFD101120AC28D
:10134300CBD101120AC2F6D101120AC2F9D101129C
:101353000AC263D201120AC28BD301120AC263D436
:1013630001120AC2EED401120AC207D601120AC23E
:10137300C4D601120AC2FDD601120AC22ED7011227
:101383000AC2CED701120AC2FED701120AC2D9D8A5
:1013930001120AC272D901120AC2FDD901120AC28C
:1013A300AEDA01120AC230DB01120AC262DB011299
:1013B3000AC2A3DB01120AC220C802120AC285C8EC
:1013C30002120AC2C2C802120AC211C902120AC216
:1013D30027CB02120AC20ACD02120AC274D0021229
:1013E3000AC2AFD002120AC2D1D002120AC234D149
:1013F30002120AC268D102120AC28BD102120AC2B5
:10140300B8D102120AC214D202120AC25BBC02127F
:101413000AC2D9BC02120AC20FBD02120AC27BBDA4
:1014230002120AC2EEBE02120AC20ABF02120AC2A4
:101433004FBF02120AC2DDBF02120AC236C0021235
:101443000AC263C102120AC275C202120AC2D2C21E
:1014530002120AC23EC302120AC29FC302120AC286
:10146300E0C302120AC28DC402120AC29FC502124D
:101473000AC2CAC502120AC215C602120AC25CC651
:1014830002120AC2EEC602120AC2A9C702120AC295
:10149300DAA503120AC20AA603120AC25FA603123E
:1014A3000AC283AC03120AC294AC03120AC2E5ACAB
:1014B30003120AC22AAD03120AC2D4AD03120AC22E
:1014C30021B603120AC24FA903120AC2A7AA031222
:1014D3000AC2287500120AC2CD7500120AC2ED7540
:1014E30000120AC20D7600120AC2217600120AC245
:1014F300797600120AC2A97600120AC22A7800126B
:101503000AC2D07800120AC2B27900120AC2037A60
:1015130000120AC2467A00120AC2897A00120AC26B
:10152300EF7A00120AC2107B00120AC29C7B0012DF
:101533000AC2CD7B00120AC2417C00120AC2EF7DAF
:1015430000120AC2C97E00120AC20B7F00120AC22D
:10155300657F00120AC2FFA303120AC220A403126A
:101563000AC259A503120AC283A503120AC2DAB139
:1015730003120AC255B203120AC260B203120AC2AC
:1015830081B203120AC21EB002120AC221B00212B1
:101593000AC2DBB002120AC206B102120AC24DB17C
:1015A30002120AC272B102120AC293B102120AC231
:1015B300C7B102120AC200B202120AC229B302124E
:1015C3000AC260B302120AC280B302120AC21BB477
:1015D30002120AC2E0B402120AC217B502120AC208
:1015E3008CB602120AC22FB702120AC228B802121C
:1015F3000AC251B802120AC2A5B802120AC26BB9D2
:1016030002120AC299B902120AC22EBB02120AC2FC
:10161300AFBB02120AC2E2BB02120AC260D20212BA
:101623000AC26AD202120AC2B6D202120AC224D370
:1016330002120AC245D302120AC25CD302120AC2C0
:101643000CD402120AC2A0D602120AC2A9D60212EE
:101653000AC2FCD602120AC225D702120AC28CD7CA
:1016630002120AC21DD802120AC25FD802120AC2AB
:10167300D8AA01120AC208D902120AC299D90212BF
:101683000AC2D8D902120AC217DA02120AC24CDA03
:1016930002120AC25EDA02120AC270DA02120AC225
:1016A3008FDA02120AC298DA02120AC24EDB02125F
:1016B3000AC28EDB02120AC259FB02120AC22CFCB6
:1016C30002120AC246FC02120AC257FC02120AC2E2
:1016D3006CFE02120AC28BFE02120AC2EADB01127C
:1016E3000AC2EF9F03120AC238A003120AC288A1DA
:1016F30003120AC2DA6000120AC2196200120AC295
:10170300556200120AC2146400120AC23D64001238
:101713000AC2D06600120AC2146700120AC29D6888
:1017230000120AC2356900120AC29D6900120AC278
:101733003E6A00120AC2806A00120AC2C06A00121C
:101743000AC24B6C00120AC2BB6D00120AC2E06FE0
:1017530000120AC20E7000120AC2357000120AC2C9
:101763003E7000120AC2997000120AC22C71001254
:101773000AC24A7400120AC2CB7400120AC2E4FFFE
:1017830002120AC215BA03120AC2EA8C03120AC26F
:10179300FD8C03120AC29A8D03120AC2D58D03125D
:1017A3000AC2F08D03120AC2158E03120AC25A8EA0
:1017B30003120AC28B8E03120AC2BC8E03120AC220
:1017C300429003120AC24CAF03120AC282AF031241
:1017D3000AC29EAF03120AC2E0AF03120AC2F0AFFD
:1017E30003120AC285B003120AC28FB003120AC2DF
:1017F3004AEB02120AC2F5EB02120AC2C6ED02124A
:101803000AC20BEE02120AC266EE02120AC2DAEE34
:1018130002120AC2BAEF02120AC279F002120AC213
:101823000CF102120AC28FA002120AC2E7A002122E
:101833000AC291A102120AC239A202120AC296A2D4
:1018430002120AC2EFA202120AC203A302120AC2BE
:10185300CDA402120AC248A502120AC272A502123C
:101863000AC22FA702120AC24AA702120AC299A7E2
:1018730002120AC2AFA702120AC2BCA702120AC20C
:10188300F0A702120AC206A802120AC28CA8021208
:101893000AC29BA802120AC2F4A802120AC24EA9E3
:1018A30002120AC29CA902120AC2A6AA02120AC200
:1018B30028AD02120AC2C2AD02120AC204AE02125B
:1018C3000AC299AE02120AC2B6AE02120AC2B9AE77
:1018D30002120AC2BCAE02120AC22FAF02120AC21D
:1018E3004AAF02120AC276AF02120AC2B1AF0212A3
:1018F3000AC2B4AF02120AC2C7AF02120AC2EEAFE3
:1019030002120AC2797F00120AC2857F00120AC23C
:10191300BF7F00120AC2BE9002120AC2E9900212ED
:101923000AC2B59102120AC23A9202120AC2A392E1
:1019330002120AC2EF9202120AC26E9302120AC282
:10194300009402120AC28C9402120AC2CE940212AA
:101953000AC23A9902120AC2BA9A02120AC2F99A3E
:1019630002120AC2C29B02120AC2769C02120AC265
:10197300269E02120AC2B29E02120AC200800212FC
:101983000AC2BA8002120AC22C8102120AC23B8125
:1019930002120AC2B58102120AC2248202120AC2C8
:1019A3002E8302120AC2578302120AC2F78302125B
:1019B3000AC2458402120AC2B58402120AC2E98528
:1019C30002120AC2C58602120AC2368702120AC26C
:1019D300B38802120AC2758902120AC2108A02125D
:1019E3000AC26B8A02120AC2D68A02120AC2DA8BAE
:1019F30002120AC29B8D02120AC23A8E02120AC254
:101A0300AC8E02120AC2698F02120AC26F930312CA
:101A13000AC2C39303120AC21B9403120AC2669436
:101A230003120AC2C89403120AC2619503120AC2BE
:101A3300C99503120AC2D59503120AC2639D031204
:101A43000AC2949D03120AC24E9E03120AC2B49E96
:101A530003120AC2259F03120AC273A203120AC207
:101A6300DFB703120AC264B803120AC2EDBA031243
:101A73000AC204BB03120AC214BB03120AC214B77C
:101A830003120AC225B703120AC2C5B703120AC258
:101A930097A703120AC2A5A703120AC20DBC031219
:101AA3000AC22EB903120AC23EB903120AC259B9B5
:101AB30003120AC2BAB903120AC21FB503120AC239
:101AC300A4B503120AC208B603120AC20DB4031264
:101AD3000AC22FB403120AC299B403120AC2A4B4ED
:101AE30003120AC2E8B403120AC2F3E402120AC2DE
:101AF30001E502120AC242E502120AC263E50212BA
:101B03000AC2EDE502120AC250E602120AC272E6E6
:101B130002120AC28DE602120AC2A8E602120AC221
:101B2300B2E602120AC2BCE602120AC2CFE60212EF
:101B33000AC2E8E602120AC284E702120AC240E8B5
:101B430002120AC2C0E802120AC23AE902120AC227
:101B5300A0E902120AC24BFC01120AC259FC01128B
:101B63000AC2D3FC01120AC2B7FD01120AC270FFF6
:101B730001120AC2CDBB03120AC269F102120AC2E0
:101B8300D6F102120AC297F202120AC207F3021234
:101B93000AC210F402120AC288F502120AC2ECF554
:101BA30002120AC241F602120AC24AF602120AC21B
:101BB30059F602120AC26CF602120AC282F6021225
:101BC3000AC28BF602120AC29EF602120AC2F3F688
:101BD30002120AC2EFF802120AC221F902120AC261
:101BE30043F902120AC25CF902120AC275F902121F
:101BF3000AC27FFA02120AC21AFB02120AC2EBAD30
:101C030003120AC20FAE03120AC228AE03120AC29B
:101C13005BAE03120AC28CAE03120AC2BAAE03123F
:101C23000AC21CAF03120AC22BAF03120AC235AF9A
:101C330003120AC242AF03120AC2109603120AC267
:101C4300369603120AC2739603120AC282960312CD
:101C53000AC2A19603120AC2099703120AC2129773
:101C630003120AC2719703120AC2959703120AC29A
:101C7300549803120AC2619803120AC2729803129B
:101C83000AC22EBB03120AC24BBB03120AC238801C
:101C930003120AC2968103120AC2A38103120AC263
:101CA300B68103120AC2D58103120AC2EB81031261
:101CB3000AC2FF8103120AC2748203120AC2D982C2
:101CC30003120AC2898303120AC25E8403120AC280
:101CD3006E8403120AC27D8403120AC295B80312EA
:101CE3000AC2B9B803120AC2E1B803120AC209B997
:101CF30003120AC2A09803120AC2C79803120AC2A7
:101D0300E89803120AC24D9903120AC2069B0312F2
:101D13000AC21F9B03120AC22B9B03120AC23F9BD8
:101D230003120AC25D9B03120AC2679B03120AC213
:101D3300719B03120AC2849B03120AC2D79B03122C
:101D43000AC2109C03120AC23F9C03120AC28D9C52
:101D530003120AC2DC9C03120AC2F79C03120AC2D2
:101D6300019D03120AC2129D03120AC2589D031257
:101D73000AC2C4B903120AC2B7DB02120AC2E1DB08
:101D830002120AC2FDDB02120AC210DC02120AC2EC
:101D930026DC02120AC283DC02120AC2B6DC021279
:101DA3000AC2F2E002120AC218E202120AC24BE2AB
:101DB30002120AC297E202120AC2C3E302120AC261
:101DC300EBE302120AC200E402120AC210E4021296
:101DD3000AC254E402120AC2B5E402120AC2C5E4FA
:101DE30002120AC2A7B003120AC2C2B003120AC285
:101DF300EBB003120AC205B103120AC22AB10312DD
:101E03000AC249B103120AC261B103120AC28FB1F5
:101E130003120AC2A9B103120AC2A9BA03120AC25F
:101E23006A8903120AC2718903120AC27D8A0312E4
:101E33000AC2AD8A03120AC2D38A03120AC2F68AFD
:101E430003120AC2188B03120AC2528B03120AC26C
:101E5300B88B03120AC2F18B03120AC23D8C031220
:101E63000AC26A8C03120AC28A8C03120AC2F6AA35
:101E730003120AC208AB03120AC2F3AB03120AC26B
:101E830080AC03120AC2FAB203120AC26CB3031281
:101E93000AC2AAB303120AC2EBB303120AC24F90D7
:101EA30003120AC26B9003120AC2BA9003120AC247
:101EB300D69003120AC2079103120AC217910312A2
:101EC3000AC2039203120AC20D9203120AC21A92A1
:101ED30003120AC22A9303120AC23E9303120AC2CE
:101EE300479303120AC2B68403120AC2FB88031281
:101EF3000AC2008903120AC2A0BB03120AC26ABB48
:101F030003120AC2D5FF01120AC2EFBB03120AC2AF
:101F13004BAA01120AC23EAA01120AC24CA701121D
:101F23000AC29EA401120AC272A301120AC2C6A265
:101F330001120AC217A101120AC2D29E01120AC2D9
:101F4300599E01120AC2D8DB01120AC25CB3011204
:101F53000AC2009E01120AC2949D01120AC23EB334
:101F630001120AC2F3B101120AC26B9D01120AC225
:101F73005E9B01120AC22A9B01120AC2F79A01123E
:101F83000AC2DB9A01120AC2019A01120AC2B99962
:101F930001120AC2EE9701120AC26E9701120AC217
:101FA3006B9701120AC2729601120AC2409601127D
:101FB3000AC27D9501120AC2A89301120AC239937B
:101FC30001120AC20B9301120AC250B101120AC2D2
:101FD300FDAF01120AC2AEAD01120AC2B7AC0112C3
:101FE3000AC29BAC01120AC2089301120AC2F592FB
:101FF30001120AC28D9201120AC27C9201120AC214
:102003002BAC01120AC25D9101120AC2279101127F
:102013000AC2EA9001120AC28B9001120AC2E2AB11
:1020230001120AC2B99F03120AC25A9001120AC2CC
:10203300158D01120AC2068C01120AC2958B011278
:102043000AC25A8B01120AC2258B01120AC2198BCA
:1020530001120AC2798A01120AC2C08901120AC294
:10206300938701120AC21F8501120AC2DD8401127D
:102073000AC2A88301120AC25D8301120AC28F82B7
:1020830001120AC2E68101120AC2828101120AC246
:10209300BC8101120AC29AAB01120AC2A9D802007A
:1020A300000080FBE473000000000000000000005B
:1020B300000000000000101010101010000030305D
:1020C3000000001428500000000000000000000081
:1020D3000000002828FC284850FC50500000000055
:1020E300103854543018145454381000000000446D
:1020F300A8A8B0541A2A2A44000000000020505017
:1021030060ACA898927C000000606020C0000000D2
:102113000000000000000004080810101010101048
:1021230008080400000040201008040810204000A4
:1021330000000000001010D63838D6101000000040
:10214300000000101010FE1010100000000000002E
:102153000000000000000000606020C000000000DC
:102163000000FC0000000000000000000000000070
:10217300000000006060000000020404040808106E
:102183001020202040000000003048848484848490
:102193004830000000000010701010101010107C68
:1021A300000000000038444404081020447C000070
:1021B300000000384444180404444438000000007C
:1021C300080818284848887C081C00000000007C88
:1021D300404078440444443800000000003C4480FC
:1021E300B8C48484847800000000007C444808104C
:1021F3001010101000000000007884844878848454
:1022030084780000000000788484848C740488F04F
:1022130000000000000000303000000030300000FB
:10222300000000000000100000000010102000005B
:1022330004081020402010080400000000000000E3
:1022430000FC0000FC00000000000000402010081B
:1022530004081020400000000000788484840810E3
:1022630010003030000000000038449AAAAAAAB433
:10227300423C00000000001010282828384444EE97
:102283000000000000F844447844444444F800004B
:102293000000003C448480808080443800000000BB
:1022A30000F048444444444448F00000000000FC6B
:1022B30044404878484044FC0000000000FC424091
:1022C3004878484040E000000000003C448480809F
:1022D3008E8444380000000000EE4444447C4444AF
:1022E30044EE00000000007C101010101010107C51
:1022F30000000000007C101010101010101090E06F
:10230300000000EE44485070484844EE00000000CE
:1023130000E040404040404044FC0000000000EE2C
:102323006C6C6C54545454D60000000000EE64648A
:102333005454544C4CE4000000000030488484841E
:10234300848448300000000000F84444447840404E
:1023530040E00000000000304884848484B448389E
:102363000C00000000F844447850484844E600005C
:102373000000003C4440201804044478000000009E
:1023830000FE92101010101010380000000000EE34
:1023930044444444444444380000000000EE4444B0
:1023A3002828282810100000000000D65454545444
:1023B3006C2828280000000000EE44282810282854
:1023C30044EE0000000000EE4428281010101038DE
:1023D30000000000007C88081020204044FC00001E
:1023E300001C101010101010101010101C000070A2
:1023F300101010101010101010107000007010103A
:1024030010101010101010107000001028000000A1
:1024130000000000000000000000000000000000B9
:102423000000000000FE00606020C000000000000B
:102433000000000000000000000038441C24443E5B
:102443000000000000C04040784444444478000049
:102453000000000000003C444040443800000000FD
:10246300000C04043C444444443E000000000000CB
:10247300000038447C40443800000000001C242045
:10248300F8202020207800000000000000003C48D5
:10249300483040784438000000C040405864444409
:1024A30044EE000000000010000070101010107CBB
:1024B3000000000000080000380808080808087039
:1024C300000000C040405C48507048EC0000000031
:1024D3000070101010101010107C0000000000009D
:1024E3000000F854545454D60000000000000000CB
:1024F300D864444444EE0000000000000000384467
:10250300444444380000000000000000F844444400
:10251300447840E00000000000003C444444443C54
:10252300040E000000000000EC30202020F8000022
:102533000000000000003C44300844780000000024
:10254300000010107C101010100C000000000000A0
:102553000000CC444444443E00000000000000005E
:10256300EE44282828100000000000000000D65484
:10257300545428280000000000000000DC483030DC
:1025830048EC0000000000000000EE442828101072
:1025930020E00000000000007C481010247C0000B4
:1025A3001010101010101010101010101010000147
:1025B300363601010001020100010301000104019B
:1025C300060605020000070100340801000F090494
:1025D30001010D0100FF0E080000170200001901A0
:1025E30000FF1A0100011B0100FE1C0100081D026F
:1025F30000001F010001200100012102000023014E
:10260300000F240200002601000127010008280210
:1026130000FF2A0100072B0102402C0100002D01BD
:1026230000012E0100012F0100FF30010B1C3108B6
:1026330000003A0100083B01000F2F0100000302D4
:1026430071023001600211027002010202020202F1
:102653008002100261023A004100630273027202B7
:102663006202430200021302380000020002040265
:1026730012020002000200020002040204023700F8
:1026830037003C02440200023900000200026502E6
:102693000002350281020002050282028302000267
:1026A300030071003001600011007000310220034B
:1026B30050048000100061000000140063007300E8
:1026C30072006200430000001300060000000000D7
:1026D30004001200000000000000000004000400D9
:1026E300370037003C0244000000000000000000F7
:1026F3006500000035008100000005000000830034
:10270300000001037103010301030103010301033A
:102713002203020301031003000300030003000369
:102723000003000300034203000324030603000322
:1027330000030403120325032303250323030403D4
:102743000403000300030003440300030003230303
:102753000003650321003503810300030503000320
:1027630000030003010171010101010111010101D4
:102773003101010101018001100161013B001400DD
:102783006301730172016201430100011301060138
:102793003D013500040112010001000100010001A7
:1027A30004010401330133013C01440132013600C9
:1027B30000010001650100013500810100010501EF
:1027C30082018301000136000100060000000F00B2
:1027D30000000000000000000000000003FFFF00F5
:1027E300000403FFFF0000FFFF0FF4010005C40412
:1027F3000320000100030B000000000000000003A1
:10280300010F0100B81902002E1903003419040046
:102813003A190500401906004C19110064191400F7
:102823006A1915005E19FFFF0000081238120E1214
:1028330014123212261220123E1244124A12561257
:102843001A120212FC1103EAF5E5D5D5C5B5A59513
:102853009585857575656555554545353525251525
:1028630015050AD40F029E0F05B00F07A40F0C80A5
:102873000F0D920FFF000000160F00000B150B0247
:102883000002220F32000006F21204130A13D211BF
:102893001013CC11D81152137013761358136413F9
:1028A3005E1300034948424D18172505020C0E021A
:1028B3000B040B0A0708000F00011916181616154A
:1028C30023030000383C3E363B3B352B432C303052
:1028D30016181920231A1C1E3030301718192130EE
:1028E3001B1D1F302C1250126A135C126212461306
:1028F30016131C13281322130204020101010109F8
:102903000200000000000000BE040A0E00150004CF
:1029130000280008050C0A030908FF1E1E0F040403
:10292300100C74F712059AE99003B0F0900365E474
:10293300F0121E6E9003B5E4F0A3F09003B1F0A380
:10294300F012110C121E74900334E4F0A3F09029DA
:102953002093FA7902121ED40255BB74F212059A1F
:10296300EAFEEBFF548060699003B0E0F912165E53
:102973008A088B09EA4509604F7C0080010CEC75DD
:10298300F003A4F8A9F0746528F582742839F58357
:10299300E493F4602CE493F88508828B83E06870F9
:1029A300DCAA08EC75F003A4F8746628F582742891
:1029B30039F583E493C0E0740193F583D082122048
:1029C300A7AA08AB09121652EEFAEF6480FB022B9A
:1029D3002BEF5420601D12102E8A088B09EA45093B
:1029E300600A120F92AA08AB09121652EEFAEF64AC
:1029F3002080DAEEA2E0501A90036AE0640F700BB5
:102A03007900120F5CE96003122B2EEE6401FAEFDA
:102A130080BB54207003022AF9750C001240008B0E
:102A230009EA450970107C027D007A207B0090033F
:102A3300B0E0F91217A87C0079047A007B00121029
:102A43000A8A088B098018850882850983A3A3A3B2
:102A5300A3A3A3A3A3A37401F0850A08850B09E527
:102A6300084509606D7C007904AA08AB0912100AB5
:102A73008A0A8B0B750C01E5082404F8E509123D5D
:102A8300A424FFF0A3E034FF12609770CC85088282
:102A9300850983A3A3A3A3A3A3A3A3A3A3E064017F
:102AA30070A5850882850983A3A3A3A3A3A3E054E8
:102AB300047094850882850983A3A3A3A3A3A3A376
:102AC300A3A37406F07AB7850882850983122C5A6A
:102AD3008087120FDA7C0079017A007B0012100ADA
:102AE3008B09EA45097009E50C70057A20124F5AE3
:102AF300EE6420022A11EF5402600B121106EEFA63
:102B0300EF64020229D0EF540460191250F11250FD
:102B1300117901900363125375120EA2EEFAEF645A
:102B2300040229D07A007B00022D61900D8C1233B0
:102B3300F8120F7422C082C08374EA120B8B8518BB
:102B430082851983AA82AB83794B121EAA74081259
:102B53000DCF7402F07409120DCFAA82AB837950A2
:102B6300121EAA7413120DCFE4125544121EC87418
:102B73001602451E74F712059A74E1120B8BEAFED6
:102B8300EBFFEE4F6033851882851983AC82AD83EA
:102B93001210527406120DCFE0601E7417120DCF7F
:102BA300E0FD7401120DCFE0FCEEFAEFFB790012A9
:102BB3001F5EE9600479A4800279000255B674F6B9
:102BC30012059AEAFEEBFF8E828F83A3A3A3A3A32E
:102BD300A3E05440601B125A33122D2860067AFF7B
:102BE3007BFF801A8E828F831241AAFAA3E0FB80B7
:102BF3000312107674FE6A700374FF6B6041125AFD
:102C030033124F9E1210CAE98E828F836006122CF4
:102C130053E48005122C537401F07C627D0F8E8285
:102C23008F83125375121ECEE9F5087015EE4F60AF
:102C3300097901EEFAEFFB120FE6A908024FCF75EF
:102C430008CDAA088E828F83122C5AE960DF80EAAE
:102C5300E0240D12467922E0240C124679E0F912A1
:102C63000F6E2274F612059AE9FEEAFF7A0F7B00D3
:102C730012164CEA4B60198A828B83740CF0EEA314
:102C8300A3F0EF8A828B83A3F0124FFA7900802F8F
:102C9300EEF91210108A088B09A808A909E84960FF
:102CA3001C88828983A3A3A3A3A3A3A3A3A37406BA
:102CB300125CBEE0F9120F26EEF9120FEC79100246
:102CC3004FCFC082C08390036AE0640F7014EA4B55
:102CD3006010900365E064086005E064047003120B
:102CE3002CE8024548EAFCEBFD7A017B009003B037
:102CF300E0F91217A222C082C0837900EA241DF5ED
:102D030082EB1241A724FD600B14600824FD6004CC
:102D130024FD7001090245488E828F83A3A3A3A3D8
:102D2300A3A3A3A3A3122D2C221241EFFB1210CABB
:102D3300E9228E828F83A3A3A3A3A3A3A3A3A31296
:102D43002D2C6402228E828F83A3A3A3A3A3A3A308
:102D5300A3A312453F900356E06822120B277F0678
:102D630002085774F412059A74FD120B8B8A088BB0
:102D7300098A828B83A3A3E0F91210108A0A8B0BB2
:102D8300AE0AAF0BEE4F7003022E6D8508828509E4
:102D930083A3E064F16030850882850983A3E0643E
:102DA300CD6024850882850983A3E0641A601885B1
:102DB3000882850983A3E064E9600C85088285099C
:102DC30083A3E064E170087900120FE6E9706C8573
:102DD3000882850983A3E0C0E07402120DCFD0E01E
:102DE300124523EEF0A3EF12384E8518828519831E
:102DF300AA82AB837005120E8A80031210B274028A
:102E0300120DCFE064E970338E828F83122E7975B1
:102E13000A01780A120AE3750AE9780A120AE3E555
:102E230008240CF582E50912334012382BFCA3E089
:102E3300FD8A828B83123845120B278E828F83A3E0
:102E4300A3A3A3A3A3A3A3A3E0640270108E828F02
:102E530083A3A3A3A3A3A3A3A3A37406F0850882B8
:102E6300850983A3A3E0F9120FEC120FDA900D90FA
:102E7300122B310233FDE0F8A3E0F9E8FAE9FB2273
:102E830074F412059AEAFEEBFF7508008E828F83B5
:102E9300A3A3A3A3A3E060427508088E828F83A334
:102EA300A3A3A3A3A3A3A31244528B0BEA450B60D2
:102EB3001075082C8E828F83A3A3A3A3A3E0D2E073
:102EC300F08E828F83A3A3A3A3A3E05403640160C2
:102ED30003022F6C430811022F6CEE241812340ADC
:102EE3006033EE241A12340A700F122D487003A3B4
:102EF300E06970757508228070EE241BF582EF126D
:102F03002F71241AF582EF123856EE2419125A67DC
:102F1300120F148054122D357003750801122D48B9
:102F23007003A3E0697006E508D2E1F508E50860DF
:102F3300158E828F83A3A3E07006E508D2E5800493
:102F4300E508D2E6F508122D1B64017006E508D2E8
:102F5300E0F5088E828F83A3A3E0600D122F7F64B8
:102F6300016006E508C2E0F508A90802340212412F
:102F730095122F7822E0FCA3E0FDEE2212418F127E
:102F830041C7F91210B8E922C082C08379018A824D
:102F93008B83A3A3E0C394024001198A828B83A38A
:102FA300A3A3A3E0C39402400279008A828B83A384
:102FB300A3A3A3A3A3A3A3A3E064F87003A3E0F4D0
:102FC30060458A828B83A3A3A3A3A3A3A3A3A3E0A4
:102FD30064F97003A3E0F4602E8A828B83A3A3A316
:102FE300A3A3A3A3A3A3E064FA7003A3E0F460176D
:102FF3008A828B83A3A3A3A3A3A3A3A3A3E064FBBA
:103003007003A3E0F4700279008A828B83A3A3A3E5
:10301300E0F8900353E0686002790002454874F0D9
:1030230012059A74DE120B8BEAFEEBFF8E828F83FE
:10303300A3A3A3A3E0600E900D8E124FC66006906B
:103043000D8E122B317403120DCFAC82AD838E82A1
:103053008F83A3A3A3125048125881E9600F74030E
:10306300120DCFAA82AB83120F8CE970087901127B
:103073001E80023335EE241B12419A7410120DCFB9
:103083001250117409120DCFE06021741A120DCF82
:10309300E0FD7404120DCFE0FC8E828F8312537314
:1030A3007901121F5EE96004790280C37403120D73
:1030B300CFAA82AB83120F86E9F50A7409120DCFEA
:1030C300E0702A90034DE060247422550A64226064
:1030D3001C7442550A644270CF7420120DCF123310
:1030E30053600A7420120DCF12334C70BBE9A2E671
:1030F30050417403120DCFAA82AB83120F7AE97089
:10310300030230707420120DCF1241AA6403700FB2
:103113007420120DCFA3124FB8A3E0640D60147492
:1031230003120DCFAA82AB831210DCE96401700392
:10313300023335EE242C12333D1236617003A3E0C3
:1031430069701C7508007808120AE37808120AE30C
:10315300EE242E125A67123359123845120B277474
:1031630009120DCFE0700302321212335912537554
:103173001211308A088B09EA450970030232AF74D1
:1031830004120DCFE0F88E828F83A3A3E028F8A367
:10319300E03400F9E8240D1233448A828B83A3A31D
:1031A300A3E068601CE88A828B83A3A3A3F09081C9
:1031B30037120DA4850882850983A3A3A3A3120D47
:1031C300987904E9120DCF12585E2AF8A3E034006F
:1031D3008882F583A3AA82AB8312163A8A0C8B0DDD
:1031E3008C0E8D0F850882850983A3A3A3A3780C76
:1031F300120A7B4003023335908177780C120CCC92
:10320300850882850983A3A3A3A3780C120D40909C
:103213000365E064046008E064096003023335E594
:103223000AA2E540030232EDEE242E12340A851879
:1032330082851983F0EE242F12340AC0E074011240
:103243000DCFD0E0F0EE243012340AC0E074021245
:103253000DCFD0E0F07414120DCFE0640170277429
:103263000E120DCF1241A0EE241212340A6870031D
:10327300A3E0697011740C120DCF122D4270077404
:1032830014120DCFE4F0EE242412333D12094374DB
:1032930004120DCFAC82AD837407120DCFAA82AB9B
:1032A30083120E907404120B270233359003AAE0A5
:1032B300640160030232127420120DCF1233537073
:1032C30009E50AA2E650030232127410120DCFE090
:1032D300F47003A3E0F4605AEEFCEFFD7403120DE7
:1032E300CFAA82AB83120F988048A2E65044742081
:1032F300120DCF125384701A741A120DCFE06402A8
:1033030070307403120DCFAA82AB8379001210A61A
:1033130080207420120DCF12334C7016741A120DC4
:10332300CFE06404700C7403120DCFAA82AB831236
:1033330010A07422025730EE240BF582EF12419550
:1033430022F582E912502AF822125A45E064072234
:103353001241C7640622EE242A124192122F7824C6
:10336300121241922274F412059AEAFEEBFF8C08C2
:103373008D0990065BE0600F122D487003A3E0698E
:103383007005120F02804F7900125368120F328AB0
:10339300828B83E58245836035A3A3A3A3A3A3E024
:1033A3005418602AE508241BF582E50912334012FC
:1033B3000947123A3E123340120947EE2418125AB3
:1033C300671233DB120F447404120B278008790051
:1033D3001233DB120F0880278E828F83A3A3A3A34C
:1033E300A3A3A3A3A3122F78240BF582EF1233F424
:1033F300223400F5831241EFFB227403120B277F63
:1034030004020857EE2417F582EF12502A2274F7AC
:1034130012059A74F7120B8BEAFEEBFF900365E03B
:103423006403600DE064016008E064096003023432
:10343300DB8E828F83A3E0707E7C007D007A027B2B
:1034430000121E7AEE2402FAEF123DAB1241A09055
:1034530003561250117953121EB079001234E0E072
:103463006409600312387385188285198374011205
:103473004FE79003657404F07401120DCFAA82AB79
:1034830083794A121EAA7401120DCFAC82AD837ADE
:103493005B7B03121E989003561258777A031238F7
:1034A3007D900350E0A2E35004D2F08002C2F012F8
:1034B3004FD4122B2E801E8E828F83A3AE82AF83B6
:1034C300FC7D007A037B10121E7A8E828F83E0F9D3
:1034D3001234E0E4F0120FC274090255B89003638A
:1034E3001233F8120EA290036522C082C0839003A8
:1034F30034124FC6701F900365E014600924FC600A
:103503000A14600C800F90033C8032900338802DA6
:1035130090033A8028E849600890033512382570F3
:103523000C8A828B83A3E0F9120E96801B900335DD
:10353300123ADA70051210FA800E9003D2124FC6B7
:103543006006124FB81220A702454874F412059A78
:1035530074FB120B8B8A088B097A0F7B0012164CB3
:103563008A0A8B0BAE0AAF0BEE4F70030236558EF1
:10357300828F831255427950121EAA8508828509CB
:1035830083A3E0600302363D900363E0F47003A37A
:10359300E0F46034900363E064FE7003A3E0F4603E
:1035A300278518828519831236617003A3E0696049
:1035B30017850882850983A374EA12385B7A637BD3
:1035C300037950121EB08072851882851983125AAE
:1035D300261250117A567B037953121EAA90035672
:1035E3001250421250117A597B03794B121EAA7A58
:1035F300587B0379E1121EAA90036AE0C3940F502B
:1036030021900358E0C0E07402120DCFD0E0F074B3
:1036130004120DCF7401F004120DCFAA82AB8312F2
:103623001EC2750A00780A120AE3780A120AE390A6
:103633000DB6E0F912383C120B2785088285098301
:1036430012365AA3F09003657403F0EEFAEFFB12FF
:103653004FFA74050233FFA3E08E828F8322125A3E
:103663002AE068221246802274F512059A74D81251
:103673000B8B8A088B098A828B83A3A3A31241CC69
:103683007415120DCFAC82AD838A828B83A3A3A35F
:10369300A3A3A3A3A312382BFAA3E0FB120FC874AE
:1036A30015120DCFE0706B850882850983A3A3A350
:1036B300A3A3A3A3A3E0C3940B40578E828F83A33A
:1036C300A3A3A3A3A3A3A3E064027046EE240B1257
:1036D300340AF4703D900365E06402603AE06406E6
:1036E3006035900334124FC66005123825604F9041
:1036F3000365E064086005E0640470167417120D36
:10370300CFE0F9741C120DCFAC82AD831253681253
:103713000FCE7428025F44900334124FC6701F7596
:1037230008007808120AE37808120AE3EE2410125C
:10373300333D125A7F123E93123845120B278E8265
:103743008F831252E4123DBD1241A07402120DCFB9
:10375300125011EE240D12340AC0E07404120DCF7E
:10376300D0E012384EF508A3E0F509740F7808127B
:103773000D5E7405120DCFE508F07419120DCFE03C
:10378300C0E07406120DCFD0E0F0741B120DCFE031
:10379300C0E07407120DCFD0E0F07416120DCFE025
:1037A300C0E07409120DCFD0E0F07417120DCFE012
:1037B300C0E07408120DCFD0E0F0EE241012340AEA
:1037C300C0E0740A120DCFD0E0F0741A120DCFE0EE
:1037D300C0E0740B120DCFD0E0F07427120DCFE0D0
:1037E300C0E0740C120DCFD0E0F0741C120DCFA901
:1037F30082AA8389088A09750A007808120ADB7C81
:10380300087D007410120DCFAA82AB83124B751280
:103813000B27851882851983AA82AB83120E9C021B
:103823003715123AE0640122E0F98A828B83A3A35D
:10383300A3A3A3A3A3A3A3E02290036312587B90A3
:1038430003591233F8121088740222F0EE240B127B
:1038530050272212502AFA22F07A567B0379531208
:10386300386622121EB07A597B03794B121EB0229E
:103873009003631233F812112A227B00121E7A90EE
:10388300035912587B7A047B00121E7A22F0125AD3
:103893008A2274F212059A74F8120B8BEAFEEBFF7C
:1038A3008C0A8D0B890C851882851983AC82AD83B4
:1038B30075838175821B7408120A3BF50DEEFCEFCC
:1038C300FD851882851983AA82AB83125245700342
:1038D300750D019003B1803BEEFCEFFDE508240B71
:1038E300FAE5093400125244601E85088285098373
:1038F300A3A3E0650C7011850882850983E0650A3E
:103903007004A3E0650B6038E5082414F582E5092B
:10391300123340123DB5E50845096024E50DA2E0E8
:1039230040B6850882850983E0650A7004A3E065D3
:103933000B70D5850882850983A3A3E0650C70C845
:10394300AA08AB097408022D5EC082C0839003B13C
:1039530002454574F712059A9003B11241EF8012A4
:10396300EA2414F582EB1233401241CC1216EEEE28
:10397300FAEFFBEA4B70E99003B1E4F0A3F00255D0
:10398300BB7F0702085774F112059AEAFEEBFF8921
:103993000A8C088D098E828F83E08C828D8312447A
:1039A3005CAE82AF83E0124C35124BA6C4124C3589
:1039B300123A47E054038C828D83124BA4A2E2E4B3
:1039C300338C828D83124BA3131313541F124C3564
:1039D300124BA2A2E7E4338C828D83A3A3A3A31289
:1039E3003A478E0C8F0D750E00780C120ADB7C089B
:1039F3007D00E50824071257EA120B271258558E4B
:103A03000C8F0D780C120ADB7C037D00E508240F74
:103A13001257EA120B27E50AC3940F40148E828FC4
:103A230083A3A3A3E0C0E0123A3E123340D0E08068
:103A330006123A3E125CB2F0023984E5082412F50C
:103A430082E50922A3A31244600EAF832274F41209
:103A5300059A74F9120B8BEAFEEBFF890890033485
:103A6300124FC6600E123ADA7009EEFAEFFB12102B
:103A7300F4805F900363E06E7003A3E06F70537490
:103A830001650860097A777B0312524570447A0016
:103A93007B021240048B0BEA450B703690036612CF
:103AA3000DA4851882851983120D9890036CE0C0CC
:103AB300E07404120DCFD0E0F07405120DCF740141
:103AC300F07406120DCF125542120E66E9609B1276
:103AD3000E6C74070233FF123AE0640222125A4654
:103AE300A3A3A3A3A3A3E02274F512059A8A088BC8
:103AF300098A828B83A3AE82AF83E0F9120EBA8E5A
:103B0300828F83E064EB600C850882850983A3E0E0
:103B130064E17009850882850983A3E4F0122B2EE2
:103B2300750A01780A120AE3850882850983A3E0EE
:103B3300F5087808120AE3790012383C120B2712B1
:103B43000FDA025F47EAF0A3EBF002454874F6127E
:103B5300059A9003B4E0701B7C0079017A007B0026
:103B630012100AEA4B600C8A828B83124FC66003E1
:103B7300120F68024FCFC082C083123FEC4010790E
:103B8300FF121004E9F8902924E493C398500479B0
:103B9300018002790002454874F012059A8A088B65
:103BA30009890B750C008A828B83A3A3A3A3A3A308
:103BB300A3A3E0F91210108A0E8B0FAE0EAF0F7590
:103BC3000A01EE4F6003023C79850882850983A3CD
:103BD300A3A3A3A3A3125877850882850983A3A36C
:103BE300A3A3A3A3A3124975125375120FF88A0C4A
:103BF3008B0DAE0CAF0DEE4F7003023D9C8E828F8A
:103C030083A3A3A3A3E4F0A3F0E508240B123DA828
:103C1300E0C0E012333AD0E0F01210D0EE240CF5FD
:103C230082EF124F9AE508240EF582E50912419DB1
:103C3300EE240EF582EF12500E750C01EE2406F8F9
:103C4300EF123DA4547FF0A3E054FC125ADCE0547D
:103C5300046003023CFF900D9412496674077808D0
:103C6300120CB98E828F83A3A3A3A3A3A3E0450859
:103C7300F0A3E04509F08E828F83A3A3A3A3123D93
:103C8300B374077808120D5EE5085407F508E50BD1
:103C9300607A8E828F83A3A3A3A3A3A3A3A3A374F6
:103CA30002124BA7240D124675E0A2E2500B9003BB
:103CB30051125042A3A3125011E5087003023D7143
:103CC300EE2406F8EF3400F9E8FAE9FB8A828B83E5
:103CD300E0547FFCA3E054FCFDE50824FFF508E471
:103CE30034FFF50974077808120CB9EC4508F8EDB0
:103CF3004509F98A828B8312501180728E828F83D9
:103D0300A3A3A3A3A3A3E04480023C78E508700522
:103D1300750A0080598E828F83A3A3A3A3A3A3E074
:103D230054206012121646EA547F245F8E828F83DA
:103D3300A3A3A3A380238E828F83A3A3A3A3A3A35D
:103D4300E05410600A121646EA540F240A80DD8EEE
:103D5300828F83A3A3A3A37401F0A3E4123DBD74D4
:103D630004123FFB8B09EA45097003124F8DE50CE2
:103D7300A2E050288E828F83A3A3A3A31255A8F990
:103D8300EEFAEFFB120FFEE96012124FBC60031252
:103D93004185EEFAEFFB1216EE750A00A90A0257E7
:103DA3003312510522FAE5093400FB8A828B832200
:103DB300A3A3E0F508A3E0F50922123DC12212589E
:103DC30006A3A3A3A3A32274F412059A74F7120BF8
:103DD3008B7E00121010EA4B7003023E8C8A828B9A
:103DE30083A3A3A3A3A3A3A3A3A3E06406600302E3
:103DF3003E8C8A828B83A3A3A3A3A3A3A3E0FF8AFE
:103E0300828B83124688E0C0E07408120DCFD0E0A5
:103E13001241C012524B125011121022EF5408607B
:103E2300668518828519831258777A007B00120FF2
:103E3300F28B0BEA450B704F9003631242B0121ED4
:103E4300DA7C007D007A007B0080288E828F8312CB
:103E530041AAF47003A3E0F4602D900363123E9330
:103E6300125375121BCEE9641A601C7C007D00EEB0
:103E7300FAEFFB120FF28A0A8B0BAE0AAF0BEE4F6F
:103E830070C97900121EE07E01EEF974090233FF56
:103E9300123E9722E0FCA3E0FD8E828F8322C08234
:103EA300C083EA4B70059003B580068A828B83A397
:103EB300A31240B060258A828B83A3A3A3A3A3A3E9
:103EC300A3E0540860E5EC4D60158A828B831241B0
:103ED300AA6C7003A3E06D70D280047A007B0002A9
:103EE300454874F212059AEAFEEBFF890A8C088DA5
:103EF300097A107B001216E8EA4B603F8A828B83B3
:103F0300A3A3A3A3A3A3A3A3A3E41241AEA3E50A7C
:103F1300125A4CA3123F488A828B83A3A3A3A3E420
:103F2300F0A31241BAA3F01258E0EA240CF582EB95
:103F330012444C123F41A3A3F0A3F0022D61A3F05E
:103F43008A828B8322A3A3E508F0A3E509F02274F8
:103F5300F412059AEAFEEBFF89088C0A8D0BEE4FEB
:103F630060557401650870147901121004E9F89022
:103F7300291CE493C398500F7911806A740465086F
:103F8300702F123FEC40F18E828F83A3A3A3A3A3D0
:103F9300A3A3A3A3E50812445CA3125FD18E828F6F
:103FA30083A3A3E4F0A3F09003B5124FC66021806E
:103FB3000D7402650860D079C1802BE0F8A312501C
:103FC3003BA3A31240B088828983A3A370ED80032F
:103FD3009003B5EEF0A3EF123FFB8B0BEA450B709A
:103FE30003124F8D79000234027904121004E9F8A8
:103FF300902917E493C39822F0124000227A207B81
:10400300009003B0E0F91217B422C082C083E9F82C
:1040130079009003B5801D8A828B83A3A3A3A3A3F6
:10402300A3A3A3A3E068600574FF687001098A82F3
:104033008B83A3A31240B070DE02454874F71205C8
:104043009AEA4B70059003B580068A828B83A3A3FB
:104053001240B060248A828B83A3A3A3A3A3A3A348
:10406300A3A3E06970E4EC60148A828B83E0240DDF
:10407300125868A2E240D380047A007B000255BB49
:10408300C082C0839003B580068A828B83A3A31268
:1040930040B060128A828B83A3A3A3A3A3A3A3A389
:1040A300E06970E580047A007B000245481233F82A
:1040B300EA4B2274F212059A8A0A8B0B8C0C8D0D33
:1040C300750800750900EA450B602E9003B580065C
:1040D3008E828F83A3A3124103601EAC0CAD0DEE41
:1040E300FAEFFB850A82850B831220A7E96401702E
:1040F300DFEEF8EFF988088909AA08AB09022D61F8
:10410300E0FEA3E0FFEE4F2274F712059A9003B589
:104113001241A07C007D00800DE8FCE9FD888289C6
:1041230083A3A31241A0E8496030EA687002EB69F7
:1041330070E79003B5125375E86A7002E96B8882E1
:104143008983A3A370081241A09003B5800912418B
:10415300A08C828D83A3A31250110255BB74F71256
:10416300059AEAFEEBFFEE4F601512101C1241D2C6
:10417300124FBC6003124185EEFAEFFB1216EE02FA
:1041830055BBEE240C1241921241E722EE241DF599
:1041930082EF3400F58322F582EF12419512453FF9
:1041A30022F582EF1241951241C7221241B2221227
:1041B3005A54A3A3A3A3221241B2A3A322123F42A0
:1041C3001241C722125A3FE022E0FEA3E0FF228EF3
:1041D300828F83E0241C1246791241E78E828F83FB
:1041E3001241E7221241EFFB1216EE22E0FAA3E09E
:1041F30022C082C083EAFCEBFDEC4D70047905809C
:1042030044EC24FBF582ED34FF124FC470071242D5
:104213004BE0F4600512165280E39003B0E0C0E077
:1042230012424BD0E0F0902919E493F97AB77B035B
:1042330012167CE96401700B7A007B20124F91798E
:104243000080027904024548EC24FFF582ED34FF37
:10425300F5832274F412059AA2AFE433F508C2AFD2
:104263009003B71241036038EE24FBF582EF34FF6D
:10427300124FC47A007B209003B06005124F9480E4
:1042830005E0F9121688E4F50AF50B780A120ADF3D
:10429300EEFCEFFD7AB77B031216767402120B273E
:1042A300E508A2E092AFEEFAEFFB02340212587B6C
:1042B300851882851983AA82AB832274F212059A28
:1042C30074FC120B8BEAFEEBFF750AFE750BFF12F3
:1042D3000FE0E960057911024441EE241512340A16
:1042E3006037900DA8E0C43354E0F8E0333354FC56
:1042F30048C0E0EE241512333DD0E012445C124472
:10430300528B09EA45096011750AFFEE240F123436
:104313000A440412501FD2E0F08E828F83122D269E
:104323006006EE2412124449EE241312340A70106C
:1043330090291FE493C0E0EE241312333DD0E0F044
:104343008E828F83E0A2E750045403801CEE241472
:1043530012340A7015900342E0C0E0EE24141233C5
:104363003DD0E0F0900342E004F0EE241112340A51
:1043730064017016900652E0600D90034DE0700AE0
:104383008E828F83E070031244468E828F83E064B3
:10439300017013EE240B1241A464027009EE240F82
:1043A30012340A4440F0851882851983AC82AD83A8
:1043B300EEFAEFFB1210468A088B0974FE650A7049
:1043C3000374FFF470098E828F83A3A31257F6EA56
:1043D300450960668E828F83E0C0E07401120DCFC1
:1043E300D0E0F07402120DCF1258E47401120DCF15
:1043F30085820C85830D780C120ADFEE240F1233AD
:104403003D120947EE240E12340AF50C780C120AF9
:10441300E39003561209477407120DCFE0F9AC0A73
:10442300AD0B1210407407120B27E9FE74106E7067
:104433000BAA08AB091216EE80027E10EEF9740483
:10444300022D5EEE2411F582EF124195E4F022A3D2
:104453001233F879FF1220962212446022F08E82E2
:104463008F83A322C082C08374DE120B8B8A828B5C
:1044730083A3A3A3A31241A0740E120DCFE8F0A34C
:10448300E9124536740C120DCF12452F240DF58217
:10449300EB12340DC0E0741A120DCFD0E0F01257B6
:1044A30043EB12419D7420120DCF12452F2415F5B5
:1044B30082EB12340DC0E07408120DCFD0E0F0EAA5
:1044C300241CF582EB12419D7412120DCF12452F5D
:1044D3002411F582EB12340DC0E07409120DCFD014
:1044E300E012452374FFF07401120DCF74FFF074D2
:1044F30002120DCF74FFF090813712094374041236
:104503000DCFAC82AD837407120DCFAA82AB831299
:104513000E907404120B2779007422120B27802546
:1045230012452722F085188285198322E8F0A3E932
:10453300F0EA22123F42A312453E22A3E0F8A3E091
:10454300F922125375D083D082020ABF74EC12058C
:104553009A74EE120B8B8A128B13ECFEEDFF890912
:104563007426120DCF1257F67428120DCFE0F510F2
:104573007429120DCF12466A742B120DCFE0F50E7B
:10458300A3E0F50F7508107A1E7B001216E874027B
:10459300120DCF124F9E7402120DCF124FC670032D
:1045A300024663851882851983AA82AB83795012E8
:1045B3004E791253757402120DCF124688A3124F0F
:1045C3009E7410120DCF125FD37402120DCFE0242C
:1045D3000B1246757402F0120DCF1246887402F066
:1045E300120DCF125A371258E47402120DCF125320
:1045F3008AE509F07402120DCFE0240C124675E52A
:1046030010F07402120DCF124672E512F0A3E513F7
:10461300F07408120DCFE50CF0A3E50DF0740A1247
:104623000DCFE510F0850E82850F83C082C08374A1
:104633000D120DCFAC82AD83D083D0827403120AE6
:104643003BF97402120DCFAA82AB83120FE6E96421
:1046530001700575080080087402120DCF12418B9A
:10466300A908741202580DE0F50CA3E0F50D22E041
:10467300241C12467922F8A3E0124680223400F962
:10468300888289832212537DA3A3A3A3A32274EE5A
:1046930012059AEAFEEBFF8C088D098E828F83A3A5
:1046A300740812505AE060088E828F83A37410F04E
:1046B30012340760098E828F83A3E02408F0EE246E
:1046C3001512340A60088E828F83A3E004F08E8271
:1046D3008F83A3A3A3A3A3A3E060198E828F83A3D5
:1046E300A3A3A3A3A3A3E0C3332402F88E828F83DF
:1046F300A3E028F0EE241112340A6005750B0E8036
:1047030003750B008E828F83A3C082C083EE240DBA
:1047130012340AD083D082F8E028250B8C828D8353
:10472300F0EE241112340A6005124B8528F0850837
:1047330082850983E0C394754009750800750900F3
:10474300024873E0FA7B001259927003024873EE39
:10475300FAEFFB12104CEA850882850983124F9FFA
:10476300EE2402F8EF12366712496D1248AFF0EEED
:1047730024040808EF123667124DAFA31248AFA303
:10478300A3F0EE2413124895F0EE2414124895A3D7
:10479300F0750A08EE241612340A6010EE2418127B
:1047A3005874E5082408125A75750A101234076004
:1047B30016EE241A125874850A0CE508250C125AB1
:1047C300757408250AF50A8E828F83A3A3A3A3A376
:1047D300A3E06059EE2407F510EF3400F5118510BE
:1047E30082F583E0C0E012487C123340D0E01248E7
:1047F3009FE0C0E012487C123340D0E012489FA3F0
:10480300124888120ADB851082851183E0C333FCCA
:10481300E433FD850A0CE508250C1257EA120B2731
:10482300851082851183E0C333250AF50AEE24152A
:1048330012340A600BC0E012487C123340D0E0F01F
:1048430012333A124888120ADBEE240D12340AFCA2
:104853007D00850B0A8E828F83A3E0F8E50828F894
:10486300E5093400F9E8250AFAE91257ED120B2796
:10487300AA08AB097F0A020857850A0CE508250C2C
:10488300F582E50922E0F50CA3E0F50D750E00783D
:104893000C221241921248B9A3A3A322F0050A8E57
:1048A300828F83A3A3A3A3A3A3A3A322A3A3125A85
:1048B300E0A31248B922124DB3A3A32274F6120542
:1048C3009A8A828B83E0FC900353124966740278C0
:1048D30008120CB9EC4508FCAD09EA241212496030
:1048E30074067808120CB9EC4508FCED4509FDEA9D
:1048F3002415F582EB12340D6004780180027800F0
:10490300E4C8F9ED49FDEA2411F582EB12340DF503
:1049130008880974097808120CB9ED4509FDEA24E1
:1049230016124960740B7808120CB9ED4509FDEABB
:104933002417124960740C7808120CB9ED4509FD6F
:104943008A828B83A3A3A3A3A3A3124966740A78C1
:1049530008120CB9ECFAED4509FB024FCFF582EBD7
:10496300124195E0F50875090022E0850882850962
:104973008322A3E0F98508828509832274EE120558
:104983009A8A0A8B0BECFEEDFF750F01E9C39408BD
:1049930050057900024B728E828F83E9F0124DD855
:1049A300E96003750F00124DBC8E828F83124E0691
:1049B300EE125744EF124DFBC0E0EE241112333DCB
:1049C300D0E0124DF3C0E0EE241212333DD0E012DA
:1049D300445C74081257FEA3A3A3E06015124DA410
:1049E300EE2413F582EF12500E8E828F83A3E02400
:1049F30008F08E828F83A3A3A3A3A3A3A3A3E06042
:104A0300218E828F83A3858208858309124DE7EE69
:104A13002415F582EF12500E850882850983E02460
:104A230008F08E828F83A3A3A3A3A3E0601A8E82D0
:104A33008F83A3858208858309124DCB8E828F8352
:104A4300A3A3A3A3A3124B97EE2419124449EE2464
:104A53001B124449A3125052E07003024B06EE248A
:104A630019F8EF3400F98E828F83A385820885833A
:104A730009E0FAE50A2AF582E50B12340D888289EA
:104A830083124B97FAE50A2AF582E50B12340DC01F
:104A9300E0EE241A12333DD0E0124B9788828983CB
:104AA300E06059F8902918E493C398500575110CE8
:104AB3008008EE241912340AF5118E828F83A3E045
:104AC300F8E50A28F50CE50B124B7B120ADBE5111E
:104AD300C333FCE433FD7A337B0C124B75120B2783
:104AE300EE241B12333D7433F0A3740CF0E511C3B1
:104AF30033F8850882850983E0288006EE2418129E
:104B03005CAFF08E828F83A3E0F88E828F83E0C345
:104B1300985003024995A3E0FA8A08E50A2508F8A4
:104B2300E50B3400F9EE241DF582EF12511A124BF6
:104B3300A7C39AC0E0EE241712333DD0E0125017FA
:104B4300602BEE2417F8EF3400F98808890988826E
:104B5300F583E024F21250FB240EFAA3E03400FBA9
:104B630088828983124F9E124B85C398F0A90F0246
:104B730048771216227403223400F50D750E00785F
:104B83000C2290034EE0F9121F4CE9F88508828548
:104B93000983E022F0850882850983E004F022A3DB
:104BA300A3A3A3A3F08E828F83E02274F412059A49
:104BB3008A088B09EA124C3CF0EA1313543F124C57
:104BC30035A3A3A3F0EAC41313124C3CA3A3F0EB45
:104BD300124C2E124C467409780A120D5E124C2C9C
:104BE300124C45740A780A120D5EE50A5401C0E0BE
:104BF300EC2418F582ED123340D0E0124C4B740BC9
:104C0300780A120D5E124C2CA3124C45740C780AD0
:104C1300120D5E124C2CA3A3A3A3A3A3A3A3F0740E
:104C23000D7808120D5E022F6CE50A54018C828DFB
:104C33008322540F8C828D832254038C828D83A311
:104C4300A322A3A3A3A3A3A3F08A0A8B0B22C0824C
:104C5300C08379008A828B83A3A3A3A3A3A3E09039
:104C6300034D600FE070228A828B83A3A3E0701947
:104C7300098016E060138A828B8312536C9003566B
:104C8300E06A7003A3E06B70E702454874F0120515
:104C93009A8A0A8B0B890C8C088D09124DD8124DF8
:104CA300BC850882850983124E06E508125744E540
:104CB30009124DFBC0E0E5082411F582E509123322
:104CC30040D0E0124DF3C0E0123A3E123340D0E040
:104CD300125122740812513B6011124DA4E50824AD
:104CE30013125116125122E02408F0850882850917
:104CF30083A3A3A3A3A3A3A3A3E06017850882852B
:104D03000983A3124DE3E5082415125116124BA78C
:104D13002408F0850882850983A3A3A3A3A3E060E5
:104D230019850882850983A3AE82AF83124DCB8593
:104D33000882850983124BA204F0AA08AB0912105A
:104D43005EE9F50D7056850882850983A3A3A3A3A5
:104D5300A3A3124DAF7014E0FA8A0EE50A250EF8EC
:104D6300E50B125003E50CC39A8021124DE3E824AE
:104D73000EF8E912500390034EE0F9121F4C8E8295
:104D83008F83E0F8E50CC39824F2C399C0E0E508EB
:104D93002417F582E509123340D0E0F0A90D02573C
:104DA30033E50A2408F8E50B3400F922124DB32247
:104DB300E0850882850983A322850A82850B83A364
:104DC300A3124E1CE0F9EA22E0F8E50A28F582E591
:104DD3000B12502A228A828B8312573812105822C0
:104DE300AE82AF83E0F8E50A28F8E50B3400F92238
:104DF300124E2FA3A3A3E022124195E8124E28A33B
:104E0300A3E022A3A3A3A3A3A3A3A3A3124E2812A5
:104E13004E1CA3A3E0F9EAF822E0FA850A82850B87
:104E230083A3A3A322F0A3E9124E2F22F0850A82C3
:104E3300850B83A3A3A3A322C082C0837AC57B036C
:104E430079E2121EAA7AC57B03024548C082C08359
:104E5300900356024545C082C08374FE120B8B85B6
:104E63001882851983AA82AB83794B124E79125328
:104E730075740202451E121EAA85188285198322A3
:104E8300C082C083794A121EAA02454874F61205ED
:104E93009A9003CDE0FE04F0EEF91210108B09EAAC
:104EA300450970EDEE60EAF9024FCF74F012059AEE
:104EB300EAFEEBFF8C088D09890A7410120DCFE00E
:104EC300F50B7411120DCFE0F50C121130EA4B7093
:104ED30013E50C7042A90AAC08AD09EEFAEFFB1218
:104EE3001148806EE50A6021EA2402F582EB123450
:104EF3000D850A082508F8E4340013E813F0700957
:104F03008A828B83A3A37401F0E50C6045E50B70E3
:104F1300068A828B83E4F07401650C7035E50B908F
:104F230003D47004E4F0802AE004F0900D95E0F8D7
:104F33009003D4E0C398401AE4F0900359E06E70F4
:104F430003A3E06F700CEEFAEFFB7901120EB412BB
:104F53004F580257337A017B009003B0E0F91217E0
:104F6300AE22C082C08374016A7001EB70077A01BC
:104F7300124F8F8012900D8C124F9EEA4B600512D8
:104F83002CE88003124F580245487A207B00900397
:104F9300B0E0F9121682223400F583EAF0A3EBF0B5
:104FA30022C082C083900D8E023B48C082C0839092
:104FB3000D90023B48125A4622EE240CF582EF3440
:104FC30000F58312453FE84922120B277F020208AE
:104FD30057A2F0E433851882851983124FF0795272
:104FE300121EB022124FF07942121EB022F0AA8292
:104FF300AB8322AA08AB099003B0E0F9121658223A
:105003003400F9E508241DF582E509124195E8F01D
:10501300A3E9F022125802A3A3E022A3F0EE241581
:1050230012502722F582EF3400F583E02212503428
:10503300223400F583E0F8A3E0F98882898322E033
:10504300F812504822A3E0F98E828F83A3A322F0A3
:10505300EE241812419222F0EE2416124192227489
:10506300F412059AEAFEEBFF7A007B04124F5C12FE
:1050730050F11250119003657409F012106A8A08F6
:105083008B09AC08AD09EE241312333D125375128C
:105093005245640170487A0F1250E460418A828B52
:1050A3008374021250FBFAA3E0FB8A828B83A3E092
:1050B300FC8A828B83A3A3E0FBEC850882850983AA
:1050C300A3A3124F9F8882898312537912496D12C9
:1050D300501EFAA3E0FB794A121EB0124FF60234B7
:1050E300027B0012164C8A088B09EA4509229003B9
:1050F3003612453F900D9022F0EE241DF8EF125129
:105103000522124680E02212510E223400F58374E8
:1051130001F022F582E509124195E8F0A3E9221294
:1051230051262212512A22F0850882850983A3225F
:1051330012512AA3A3A3A322125133A3A3E0221241
:10514300554C1210BE22EE2417F582EF12510E12A7
:10515300106AEE241A124192EAF0A3EBF02274F4DF
:1051630012059A74F3120B8B8908EAFEEBFF7C0D90
:105173007D007900851882851983AA82AB83121674
:105183002EEE241D12333D125A37A3E0F8741F5834
:10519300600A7901121E80790002523CE8A2E550B0
:1051A30008740C120DCF7401F0E8A2E75008740BD9
:1051B300120DCF7401F0E8A2E6740A5008120DCF65
:1051C3007401F08008120DCFE064017005EE241322
:1051D3008003EE24151258747402120DCFAA82AB09
:1051E30083121E9812333A12524A125011740A1241
:1051F3000DCFE064017033122D1B703B1210768AC1
:105203000A8B0BA80AA90BEE240B12340A6870034D
:10521300A3E069702212106AEAFCEBFD7402120D1E
:10522300CFAA82AB83125245600D851882851983FC
:10523300AA82AB83120EAEA908740D0233FFEEFAF5
:10524300EFFB121E92E922E012524F22F8A3E0F97B
:105253008518828519832274F612059A74F3120B4A
:105263008B8A088B09ECFEEDFF7C0D7D00790085B0
:105273001882851983AA82AB83125BDCA3A3A3A341
:10528300A3A3A3A3A31252E41252EDF8A2E550087C
:10529300740B120DCF7401F0E8A2E75008740A12E0
:1052A3000DCF7401F0E8A2E6EE500424138002242B
:1052B300151258747402120DCF1252D6A3A3E0C074
:1052C300E0740C120DCFD0E0125544120EA8740DE9
:1052D300024FCCAA82AB83121E988508828509836C
:1052E30022E012524FE8F0A3E922F012418F125A42
:1052F3003BA3E02274F712059A74E1120B8BEAFECA
:10530300EBFF8E828F83125379A3A3A3E0A2E05015
:10531300518E828F83122E7B8A828B83A3A3A3A3B6
:10532300A3A3E054FE1253918A828B8312538AE023
:10533300F98A828B83E0241CFAA3E0123DAB12535B
:1053430075121064E9701B741D120DCF1253847013
:1053530011851882851983AC82AD83EEFAEFFB12B7
:1053630010AC0255B68E828F83A3A3A3A3A3A3A3DA
:10537300A3A31233F82212537D22125A3FA3A3A3ED
:10538300221241C7640422E0241B124679221245EB
:1053930027AC82AD8322E9F87900740468600A744B
:1053A3000A686005740368700109020ABF74F61283
:1053B300059A8A828B837420F0A3A37401F0120EE2
:1053C3005A8A088B09AE08AF09EE4F60108E828FA0
:1053D300837401F09003A3E07003125149EEFAEFD6
:1053E300FB024FCFC082C0839003B97401F0E9A2DE
:1053F300E350037403F0E9A2E15004E0D2E2F002C7
:10540300454874F612059A79007C008A088B09785E
:1054130008120811F8FF07385436543654365436F8
:10542300542F54335438542C540C80097C04800575
:105433000C80F67C089003B9E05C6003098003EC00
:10544300600109024FCF74F612059A8A828B83E0BA
:105453007012A3124FC6600C8A828B83125374128C
:10546300200680047A007B00024FCF74F512059A60
:1054730074F3120B8B8A088B09ECFEEDFF750A128D
:10548300EA45097005790002553D900356E0650829
:105493007004A3E06509701412106AEAFCEBFD12B4
:1054A30052417005750A018003750A0085188285CB
:1054B3001983E4F004120DCFE508F0A3E5091255B2
:1054C30044120E1EE960277403120DCFAA82AB8328
:1054D300120E00E964017016750A017403120DCFF0
:1054E300AC82AD831252416021750A00801C741294
:1054F300650A70169003A2E06402700EEEFCEFFDE5
:10550300AA08AB09120E36E970DFEEFCEFFDAA081C
:10551300AB09121136E9F8740A687005750A01803F
:105523001774A0687012EEFCEFFDAA08AB09121104
:1055330042AA08AB09121154A90A740D025F4474FC
:10554300021255482212554C22124527AA82AB83D8
:105553002274F712059AEAFEEBFF8E828F83A3A3D0
:10556300A3A3A3A3A3A3E06015EE241512333D1256
:1055730033E81210D6E964017004790180258E8224
:105583008F83A3A3A3A3A3A3A3E06015EE24131205
:10559300333D1255A8FAA3E0FB1210D6E96401606B
:1055A300D979008013123E97A3A3A3A3A3A3A3A314
:1055B300A3E022741F120B277F0102085774F01215
:1055C300059A74FD120B8B8A088B09ECFEEDFF899B
:1055D3000B7413120DCFE0F50C750A017401120D53
:1055E300CF7404125A6F6048E50C601DEA2417F566
:1055F30082EB125CB2125A5D8A828B83E0D2E7F0AF
:10560300EA2414F582EB12444C125743EB12503048
:105613007403125FD5EE88828983A3A3F0EF888297
:105623008983A3A3123F41123F48120E54E9F50A9E
:10563300A90A740302573074EC12059A74F5120B1D
:105643008B8A0A8B0B890C8C0E8D0F741F120DCF56
:10565300E0F50D7420120DCFE0F510A3E0F5117EF7
:1056630001EE120DCF740AF0E97007E50DC3332480
:105673000AF0125815700302571712582A7409F0CA
:10568300A3E50CC43354E0450D12583CE50C702DD2
:105693007C008023ECC333F8E433F9E51028F8E504
:1056A3001139F988828983125724888289831236B3
:1056B3005AF0A30EAF830CECC3950D40D7E5082435
:1056C30017F582E50912510A12106AE508241AF542
:1056D30082E509124F9A7403120DCFAC82AD83AAEF
:1056E3000AAB0B120E06E96019E5082416F582E5EC
:1056F3000912571E120DCFA882A983E50824181298
:10570300500A850882850983125FD1AA08AB091262
:105713000E54E9FEEEF9740B02580D12510E740388
:1057230022E08E828F83F0A3AE82AF8322120B27F7
:105733007F080208571241EFF9EA2400E439FB22FB
:10574300EA240BF5822274EE12059A8A0C8B0D89DA
:105753000E8C088D097412120DCFE0F50F7413121D
:105763000DCF1257F69005C1124FC66077E50FC3F0
:1057730033F8E433F9E8240EFAE93400FB12164C4B
:105783008A108B11AE10AF11EE4F60588E828F834B
:1057930074D4F0A3A3E50CF0A3E50D1257FEE50EB8
:1057A300F0AC08AD09EE2405FAEF125A78EE240D99
:1057B30012333DE50FF0850A08850B09750A007859
:1057C30008120ADBE50FC333FCE433FDEE240EFAC3
:1057D300EF1257ED120B27EEFAEFFB9005C1125AA9
:1057E300371220A7024877FAE5093400FB12162284
:1057F300740322E0F50AA3E0F50B221258022212E9
:10580300580622124460A3A3A322120B277F0C0283
:105813000857851882851983AA82AB831210BE8A22
:10582300088B09EA450922EA240BF582EB12502A78
:10583300FEA3E0FF8E828F8322F0A3AE82AF83AC00
:105843000EAD0FEEFAEFFB12584E22121E981258AD
:105853005522EE2408FEEF3400FF22E0FA8E828FF9
:1058630083A3A3E022FEA3E03400FF8E828F83E0B4
:105873002212419212587B22E0FCA3E0FD22123354
:10588300F81210522274F612059AEAFEEBFF900307
:10589300BA801388828983E06E7003A3E06F603A55
:1058A30088828983A3A3124FC670E87A047B00120F
:1058B30016E88A088B09A808A909E849601C8882A8
:1058C30089831258E49003BA12537588828983A39B
:1058D300A3124F9E9003BA125011024FCF8A828BAC
:1058E30083EEF0A3EFF02274F412059A7E00900386
:1058F300BA80070E88828983A3A3124FC670F4EE81
:10590300C333FAE433FB125992607E7F009003BAEB
:10591300802488828983125877EFC333FAE433FBF8
:10592300E5082AF582E5093BF583ECF0A3EDF00FDA
:1059330088828983A3A3124FC670D79003AB122D1D
:10594300557003A3E06978087019120ADFEEF50AAF
:10595300780A120AE37C777D0379009003AB12592E
:105963009D801A120ADFEEF50A780A120AE37C77A1
:105973007D0379009003AB1253751210E874031280
:105983000B27AA08AB091216EE120E6C0234021290
:1059930016E88A088B09EA4509221233F81210EE39
:1059A30022C082C08380128A828B83A3A31241A068
:1059B3009003BA1250111216EE9003BA1240B0704F
:1059C300E602454874F612059A9003631241CC909F
:1059D30003CE125A261250117ACE7B037950121E2F
:1059E300B09003CE122F74FAEFFB12114E9003CE38
:1059F3001241CC9005C3124FC660257A067B001274
:105A0300164CEA4B601A8A828B8374D5F0A3A3E405
:105A1300125A4C04125A5D9005C3125A371220A72A
:105A2300024FCF125A2A22E0F8A3E0F9900363222F
:105A33008E828F83125A3B22125A3F22E0F8125A67
:105A43004522A3E0F583888222125A5022125A5427
:105A530022F08A828B83A3A3A322125A50A3EEF0CF
:105A6300A3EFF022F582EF12502AF922125142EAF3
:105A73004B22FAE5093400FB121E9822125049A367
:105A8300A3A3A3A3A3A32290291AE4932401F8E4D4
:105A93003400F97A027B002274F712059A7E0080A3
:105AA300041260880E125BAC40F77E00EE125AC7F8
:105AB30074FEF0A304125ADCE4F00EEEC394034028
:105AC300EB0255BB75F003A4F8A9F074BC28F87475
:105AD3000339F988828983A322125AE022F088824B
:105AE30089832274F712059A7F0080010F9029227F
:105AF300E493F8EFC3985026EF125C986A7003A3FF
:105B0300E06B70E81260356C7003A3E06D600A749B
:105B1300FF6C700374FF6D70D3125BA380047A0073
:105B23007B000255BB74F612059A7CFF7DFF7AFE5B
