:100000000211BF8F99D2002000FD22020C37E4FFBD
:10001000FE120046600C0FEF70010E09E970F20A43
:1000200080EF2202132975985053890F4389207558
:100030008DFA758BFA438780D2ACD28ED29CD2AF28
:01004000229D
:100043000212C8BB010689828A83E0225002E7229A
:10005300BBFE02E32289828A83E49322BB010CE57F
:100063008229F582E5833AF583E0225006E9258269
:10007300F8E622BBFE06E92582F8E222E58229F5AD
:1000830082E5833AF583E49322BB010689828A835E
:10009300F0225002F722BBFE01F322F8BB010DE56B
:1000A3008229F582E5833AF583E8F0225006E925B3
:1000B30082C8F622BBFE05E92582C8F222BC000BEA
:1000C300BE0029EF8DF084FFADF022E4CCF875F08B
:1000D30008EF2FFFEE33FEEC33FCEE9DEC9840056A
:1000E300FCEE9DFE0FD5F0E9E4CEFD22EDF8F5F030
:1000F300EE8420D21CFEADF075F008EF2FFFED3338
:10010300FD4007985006D5F0F222C398FD0FD5F0B5
:10011300EA22C2D5EC30E709B2D5E4C39DFDE49CE5
:10012300FCEE30E715B2D5E4C39FFFE49EFE120058
:10013300C0C3E49DFDE49CFC80031200C030D507DE
:10014300C3E49FFFE49EFE22C5F0F8A3E028F0C5B8
:10015300F0F8E582158270021583E038F022A3F8E7
:10016300E0C5F025F0F0E582158270021583E0C842
:1001730038F0E822E88FF0A4CC8BF0A42CFCE98EB5
:10018300F0A42CFC8AF0EDA42CFCEA8EF0A4CDA8FC
:10019300F08BF0A42DCC3825F0FDE98FF0A42CCD05
:1001A30035F0FCEB8EF0A4FEA9F0EB8FF0A4CFC5E5
:1001B300F02ECD39FEE43CFCEAA42DCE35F0FDE46F
:1001C3003CFC2275F008758200EF2FFFEE33FECD65
:1001D30033CDCC33CCC58233C5829BED9AEC99E504
:1001E3008298400CF582EE9BFEED9AFDEC99FC0F94
:1001F300D5F0D6E4CEFBE4CDFAE4CCF9A88222B85C
:1002030000C1B90059BA002DEC8BF084CFCECDFCE0
:10021300E5F0CBF97818EF2FFFEE33FEED33FDEC6D
:1002230033FCEB33FB10D703994004EB99FB0FD856
:10023300E5E4F9FA227818EF2FFFEE33FEED33FDF4
:10024300EC33FCC933C910D7059BE99A4007EC9BF3
:10025300FCE99AF90FD8E0E4C9FAE4CCFB2275F083
:1002630010EF2FFFEE33FEED33FDCC33CCC833C894
:1002730010D7079BEC9AE899400AED9BFDEC9AFC9A
:10028300E899F80FD5F0DAE4CDFBE4CCFAE4C8F949
:1002930022EB9FF5F0EA9E42F0E99D42F0E89C458F
:1002A300F022ECF0A3EDF0A3EEF0A3EFF022A8828E
:1002B3008583F0D083D0821202C81202C81202C80A
:1002C3001202C8E473E493A3C583C5F0C583C8C50C
:1002D30082C8F0A3C583C5F0C583C8C582C822A45C
:1002E3002582F582E5F03583F5832290019FECF0BA
:1002F300A3EDF0A3EAF0A3EBF090019DEEF0A3EFE2
:10030300F09001ACEEF0A3EFF09001A5E0FBA3E0C9
:10031300FAA3E0F91200467003020575C3948050F6
:1003230003020568E49001AAF0A3F09001AAE0FE9D
:10033300A3E0FFC3941CEE9400400302054D90011B
:10034300A5E0FBA3E0FAA3E0F9120046FD9018BC78
:1003530075F022EF1202E2EE75F022A42583F583F5
:10036300E4936D600302053C90000112005FFF906F
:1003730001AAE0FCA3E09018BD75F0221202E2ECA2
:1003830075F022A42583F583E4936F600302053C93
:100393009001A8F0E49001A9F09001AAE0FEA3E087
:1003A3009018BE75F0221202E2EE75F022A42583A6
:1003B300F583C083C0829001A8E0FDD082D083750D
:1003C300F0021202E2E493FB3395E0FA9001A9E014
:1003D300FC74807E00A804088006CEA2E713CE1327
:1003E300D8F8FFEE5AFEEF5B4E6021ECFF90019EC2
:1003F300E02FFF90019DE03400FE9001A0E02DFD71
:1004030090019FE03400FC9001A1803B9001A3E0A8
:10041300FEA3E0FF9001A1E06E7003A3E06F602AEA
:100423009001A9E0FF90019EE02FFF90019DE03431
:1004330000FE9001A8E0FD9001A0E02DFD90019F3A
:10044300E03400FC9001A31214399001A9E004F0F8
:10045300E0C39408500302039CE49001A9F09001C7
:10046300AAE0FEA3E09018BF75F0221202E2EE7537
:10047300F022A42583F583C083C0829001A8E0FD08
:10048300D082D08375F0021202E2E493FB3395E04D
:10049300FA9001A9E0FC74807E00A804088006CECF
:1004A300A2E713CE13D8F8FFEE5AFEEF5B4E602798
:1004B300ECFF90019EE02FFF90019DE03400CF24DC
:1004C30008CF3400FE9001A0E02DFD90019FE034A1
:1004D30000FC9001A180419001A3E0FEA3E0FF9006
:1004E30001A1E06E7003A3E06F60309001A9E0FF0B
:1004F30090019EE02FFF90019DE03400CF2408CFB0
:100503003400FE9001A8E0FD9001A0E02DFD9001D4
:100513009FE03400FC9001A31214399001A9E00478
:10052300F0E0C3940850030204619001A8E004F0D2
:10053300E0C3941050030203979001ABE004F07002
:10054300069001AAE004F002032E9001A6E475F0E0
:100553000212014B90019EE02410F090019DE034C3
:1005630000F002030C9001A6E475F00112014B02A6
:10057300030C2290010DEEF0A3EFF0A3ECF0A3ED3A
:10058300F0A3EBF0A3EAF0A3E9F0E4900118F0A3E1
:10059300F0900111E0FBA3E0FAA3E0F912000E9042
:1005A3000118E0FCA3E0FDC39FEC9E400302075D3E
:1005B300900111E0FBA3E0FAA3E0F98D828C831292
:1005C300005FFFC394A14009900144EFF0E4A3F05E
:1005D30022900111E0FBA3E0FAA3E0F9900118E0F7
:1005E300FEA3E0F5828E8312005FFFE4FCFDFE7B39
:1005F30010FAF9F81201779001201202A5E4FBFA30
:10060300900120A3A3E0FEA3E02BFFEE3AFE74DCEF
:100613002FF582741A3EF583E493FF74242BF5823D
:1006230074013AF583EFF00BBB00010AEB64104A47
:1006330070CEE490011CF0A3F0E490011AF0A3F053
:1006430090011AE0FEA3E0FFC39408EE6480948057
:10065300400302072A7C007D0812011574807E0086
:10066300A805088006CEA2E713CE13D8F8FF9001A1
:100673001CE0FCA3E0FD2424F58274013CF583E037
:10068300FB3395E05EFEEF5B4E604190011AE0FEA6
:10069300A3E0FF90010EE02FFB90010DE03EFA90E6
:1006A3000118E0FEA3E07803C333CE33CED8F92B91
:1006B300FFEA3EFE90011EF0A3EFF090010FE0FA77
:1006C300A3E02DFDEC3AFC900114804790011AE061
:1006D300FEA3E0FF90010EE02FFD90010DE03EFC34
:1006E300900118E0FEA3E07803C333CE33CED8F9EC
:1006F3002DFFEC3EFE90011EF0A3EFF090010FE002
:10070300FCA3E0FD90011DE02DFD90011CE03CFCED
:1007130090011612143990011BE004F07006900149
:100723001AE004F002064390011DE004F070069005
:10073300011CE004F0C390011DE0941090011CE043
:1007430064809480500302063C900119E004F07029
:1007530006900118E004F0020594221218817F111B
:1007630012189A7F787E0012176E7FB112189A7F43
:100773000112184D7F2C12184D7F2D12184D7FB288
:1007830012189A7F0112184D7F2C12184D7F2D12CB
:10079300184D7FB312189A7F0112184D7F2C12182F
:1007A3004D7F2D12184D7F0112184D7F2C12184DBD
:1007B3007F2D12184D7FB412189A7F0712184D7FA0
:1007C300C012189A7FA212184D7F0212184D7F840F
:1007D30012184D7FC112189A7FC512184D7FC2128D
:1007E300189A7F0A12184DE4FF12184D7FC312188E
:1007F3009A7F8A12184D7F2A12184D7FC412189AB5
:100803007F8A12184D7FEE12184D7FC512189A7FFA
:100813000E12184D7F3612189A7FC812184D7FE0BA
:1008230012189A7F0F12184D7F1A12184D7F0F124C
:10083300184D7F1812184D7F2F12184D7F2812184C
:100843004D7F2012184D7F2212184D7F1F12184D15
:100853007F1B12184D7F2312184D7F3712184DE45A
:10086300FF12184D7F0712184D7F0212184D7F108B
:1008730012184D7FE112189A7F0F12184D7F1B1229
:10088300184D7F0F12184D7F1712184D7F33121812
:100893004D7F2C12184D7F2912184D7F2E12184DA3
:1008A3007F3012184D7F3012184D7F3912184D7F4B
:1008B3003F12184DE4FF12184D7F0712184D7F03A6
:1008C30012184D7F1012184D1218467F0212184D40
:1008D300E4FF12184D7F8212184D7F2B1218487FA8
:1008E3000312184DE4FF12184D7F8312184D7FF049
:1008F30012189A7F0112184D7FF61218487F3A1288
:10090300189A7F0512184D7F2902189A900155EE07
:10091300F0A3EFF0A3ECF0A3EDF0A3EBF0A3EAF068
:10092300A3E9F0E4A3F0A3F0900159E0FBA3E0FAFC
:10093300A3E0F912000E90015CE0FCA3E0FDC39F6D
:10094300EC9E4003020AA6900159E0FBA3E0FAA340
:10095300E0F98D828C8312005FFFC394A14009905C
:100963000186EFF0E4A3F022900159E0FBA3E0FA43
:10097300A3E0F9A3E0FEA3E0F5828E8312005FFFFC
:10098300E4FCFDFE7B10FAF9F81201779001621284
:1009930002A5E4FBFA900162A3A3E0FEA3E02BFF10
:1009A300EE3AFE74DC2FF582741A3EF583E493FF6E
:1009B30074662BF58274013AF583EFF00BBB0001EB
:1009C3000AEB64104A70CEE4900160F0A3F0E49067
:1009D300015EF0A3F090015EE0FEA3E0FFC3940884
:1009E300EE648094804003020A707C007D0812014B
:1009F3001574807E00A805088006CEA2E713CE13E7
:100A0300D8F8FF900160E0FCA3E0FD2466F5827452
:100A1300013CF583E0FB3395E05EFEEF5B4E603C0B
:100A230090015EE0FEA3E0FF900156E02FFB9001F2
:100A330055E03EFA90015CE0FEA3E07803C333CEB9
:100A430033CED8F92BFFEA3EFE900157E0FAA3E03C
:100A53002DFDEC3AFC7B007AF812143E90015FE026
:100A630004F0700690015EE004F00209D890016181
:100A7300E004F07006900160E004F0C3900161E0CF
:100A83009410900160E06480948050030209D19037
:100A9300015DE004F0600302092B90015CE004F0C7
:100AA30002092B22900107EEF0A3EFF0A3ECF0A3D1
:100AB300EDF0A3EAF0A3EBF0900114E4F0A37410BB
:100AC300F090010FE0FBA3E0FAA3E0F912004670F7
:100AD30003020C36C394805003020C29E4900112E4
:100AE300F0A3F0900114E0FEA3E0FF900112E0FCFC
:100AF300A3E0FDC39FEC9E4003020C0E90010FE0A8
:100B0300FBA3E0FAA3E0F9120046FF9018BC75F0CE
:100B130022ED1202E2EC75F022A42583F583E4931F
:100B23006F6003020BFD90000112005FFF90011242
:100B3300A3E09018BD75F0221202E2EC75F022A436
:100B43002583F583E4936F6003020BFD900107E0B7
:100B5300FAA3E0FBFFAE02C006C007A3E0FCA3E0DC
:100B6300FDEB240FFBE43AFA900109E0FEA3E02435
:100B73000FFFE43E900152F0A3EFF0D007D006122E
:100B83001570E4FBE4FA900112E0FEA3E09018BEB6
:100B930075F0221202E2EE75F022A42583F583E5B7
:100BA300822BF582E43583F583E493FD3395E0FCF2
:100BB30074807E00A802088006CEA2E713CE13D865
:100BC300F8FFEE5CFEEF5D4E600590010B80179021
:100BD300010DE0FEA3E0FF90010BE06E7003A3E0C4
:100BE3006F600B90010DE0FEA3E0FF1217CD0AEA40
:100BF300640870920BEB6420708A900113E004F098
:100C03007006900112E004F0020AE6900110E47508
:100C1300F00212014B900108E02410F0900107E06C
:100C23003400F0020AC4900110E475F00112014B84
:100C3300020AC422C0E0C0F0C083C082C0D075D015
:100C430000C000C001C002C003C004C005C006C08C
:100C530007758C4C758A00E47F307E75FDFC90012E
:100C6300AEE0F8A3E0F9A3E0FAA3E0FBC312029419
:100C73009001AE501EE0FCA3E0FDA3E0FEA3E02440
:100C830001FFE43EFEE43DFDE43CFC9001AE1202B4
:100C9300A580071202B100000000E47B28FAF9F8EE
:100CA3009001AEE0FCA3E0FDA3E0FEA3E0FF12028F
:100CB30002AC00AD01AE02AF03E4FBFAF9F8C312D4
:100CC300029470059001B404F0E47B1EFAF9F890E5
:100CD30001AEE0FCA3E0FDA3E0FEA3E0FF120202ED
:100CE300AC00AD01AE02AF03E4FBFAF9F8C31202A4
:100CF3009470059001B504F0E47B50FAF9F8900183
:100D0300AEE0FCA3E0FDA3E0FEA3E0FF120202AC11
:100D130000AD01AE02AF03E4FBFAF9F8C31202948B
:100D230070059001B204F0E47B64FAF9F89001AE27
:100D3300E0FCA3E0FDA3E0FEA3E0FF120202AC008F
:100D4300AD01AE02AF03E4FBFAF9F8C312029470EB
:100D5300059001B304F0900000E06018900083E078
:100D6300D394004005E014F0800A900000E4F09072
:100D7300008104F0900085E06018900084E0D39433
:100D8300004005E014F0800A900085E4F09001062D
:100D930004F0D007D006D005D004D003D002D00190
:100DA300D000D0D0D082D083D0F0D0E03290010DEB
:100DB300EBF0A3EAF0A3E9F01217467FCC12178EEB
:100DC3007F4412178E7F7D7E0012188F1217467F85
:100DD300CC12178E7FBE12178E12171D9001B7EF1C
:100DE300F012171D9001B6EFF0D3947F400DA3E0EE
:100DF300F4F09001B6E0F404F0C2029001B7E0FD14
:100E0300C4540FFB7A009001B6E075F010A42BFEDA
:100E1300EA35F09001B9F0A3CEF0ED540FFD75F073
:100E23000AA4FFE5F0C4F854F0C8EFC4540F489087
:100E330001BCF0ED75F064A4FFE5F0C4F854F0C80C
:100E4300EFC4540F4875F00A84AFF0A3EFF090019C
:100E5300BCE075F00AA42F9001B8F0A3E0FEA3E074
:100E6300FF7C007D0A1200C0EF2430FF90010DE0EB
:100E7300FBA3E0FAA3E0F9EF12008C9001B9E0FEC6
:100E8300A3E0FF7C007D0A1200C0ED2430FF900137
:100E93000DE0FBA3E0FAA3E0F9900001EF12009E3E
:100EA300900002742E12009E9001BCE075F00A843B
:100EB300E5F0243090000312009E90000474431266
:100EC300009E900005E412009E9001B9E0FEA3E0AD
:100ED300FF2290010DEBF0A3EAF0A3E9F0E4A3F005
:100EE300A3F0FF1215ED900110EEF0A3EFF09001C7
:100EF30010E0FEA3E0FF7C037DE81200C0EF243086
:100F0300FF90010DE0FBA3E0FAA3E0F9EF12008CE0
:100F1300900110E0FEA3E0FF7C037DE81200C07E99
:100F2300007F64CFCDCFCECCCE1200C0EF2430FFF4
:100F330090010DE0FBA3E0FAA3E0F9900001EF12AA
:100F4300009E900110E0FEA3E0FF7C007D64120090
:100F5300C07E007F0ACFCDCFCECCCE1200C0EF240F
:100F630030FF90010DE0FBA3E0FAA3E0F99000024B
:100F7300EF12009E900110E0FEA3E0FF7C007D0ACB
:100F83001200C0ED2430FF90010DE0FBA3E0FAA3B3
:100F9300E0F9900003EF12009E900004E412009E1B
:100FA3009001D3E0FF229001C4EBF0A3EAF0A3E9A0
:100FB300F07F011215ED9001C8EEF0A3EFF0900160
:100FC300C8E0FEA3E0FF7C037DE81200C0EF2430FD
:100FD300FF9001C4E0FBA3E0FAA3E0F9EF12008C59
:100FE3009001C8E0FEA3E0FF7C037DE81200C07E11
:100FF300007F64CFCDCFCECCCE1200C0EF2430FF24
:101003009001C4E0FBA3E0FAA3E0F9900001EF1222
:10101300009E9001C8E0FEA3E0FF7C007D64120007
:10102300C07E007F0ACFCDCFCECCCE1200C0EF243E
:1010330030FF9001C4E0FBA3E0FAA3E0F9900002C3
:10104300EF12009E9001C8E0FEA3E0FF7C007D0A42
:101053001200C0ED2430FF9001C4E0FBA3E0FAA32B
:10106300E0F9900003EF12009E900004E412009E4A
:101073009001C7E0FF2212186F9001B4E0600812DC
:1010830013E4E49001B4F09001B5E0600812148D0C
:10109300E49001B5F09001B2E060081214DCE49032
:1010A30001B2F09001B3E06008121526E49001B399
:1010B300F090019AE06047900081E060127B017A32
:1010C30000790112124BE4900081F0900080F090BF
:1010D300019CE0FF9001D3E0D39F4004D2818002C2
:1010E300C28190019BE0FFC39001C3E09F9001C2C6
:1010F300E094005004D2828080C28202107C90006F
:1011030081E0700302107C7B017A00790112124B9B
:10111300E4900081F0900080F002107C74FFFFFEE9
:1011230012162774FF90010DF0A3F0A3F0A3742A05
:10113300F0A374DDF07B1F7A007D0A7C007F217EA3
:1011430000120AA774FF90010DF0A3F0A3F0A3749B
:101153002AF0A374E6F0E4FBFA7D28FC7F05FE1277
:101163000AA774FF90010DF0A3F0A3F0A3742AF073
:10117300A374ECF0E4FBFA7D3CFC7F05FE120AA7A6
:1011830074FF90010DF0A3F0A3F0A3742AF0A374ED
:10119300F2F0E4FBFA7D50FC7F05FE120AA774FF10
:1011A30090010DF0A3F0A3F0A3742AF0A374F8F058
:1011B300E4FBFA7D64FC7F05FE020AA7787FE4F670
:1011C300D8FD758120021206021079E493A3F8E496
:1011D30093A34003F68001F208DFF48029E493A38C
:1011E300F85407240CC8C333C4540F4420C88340A5
:1011F30004F456800146F6DFE4800B010204081074
:10120300204080901388E47E019360BCA3FF543F89
:1012130030E509541FFEE493A360010ECF54C025AB
:10122300E060A840B8E493A3FAE493A3F8E493A39B
:10123300C8C582C8CAC583CAF0A3C8C582C8CAC5FF
:1012430083CADFE9DEE780BE12004664EE70759064
:10125300000112005F64CC706B90001112005FF408
:10126300706290000912005FFFB42A1E90001012F2
:10127300005F90019AF090000E12005F90019BF0C6
:1012830090000F12005F90019CF0EF648070359026
:10129300000A12005F24EF601724FE7027900010ED
:1012A30012005F6004D2818002C2819001B3801179
:1012B30090001012005F6004D2828002C28290010B
:1012C300B27401F022C0E0C083C082C0D075D008E0
:1012D300E59A30E03E539AFE900106E070059000D7
:1012E3008504F0900105E0C3947F501C9000847442
:1012F30001F0900105E0FF04F074862FF582E434D9
:1013030000F583E59BF0800B9001067401F09001DA
:1013130005E4F0E59A30E105539AFDC201D0D0D03F
:1013230082D083D0E032C0E0C083C082C0D075D009
:1013330000C00730983DC298900081E0700590008E
:101343000004F0900080E0C3947F501C90008374ED
:1013530001F0900080E0FF04F074012FF582E43483
:1013630000F583E599F0800B9000817401F0900003
:1013730080E4F0309904C299C200D007D0D0D08263
:10138300D083D0E0324101B4004101B5004101B244
:10139300004101B3004401BE000000004201C2004D
:1013A3000041019A0041019C0541019B14520188AF
:1013B300EECC000000000000006A00000000000006
:1013C30000FF41008100410106004101B7004101D6
:1013D300B6004101BC004101BD004101B800C1821A
:1013E300007B017A017907120DB09001C2EEF0A3E0
:1013F300EFF07B017A01790790011474F8F0A3E40C
:10140300F074FFA3F0A3F07D287C007F327E0012EE
:101413000576E49001BEF0A3F09001C2E0FCA3E0E6
:10142300FDEC9001C0F0A3EDF07B017A0179BEE4FD
:10143300FD7F080215B3E0FAA3E0FB900146EEF04E
:10144300A3EFF090014AEAF0A3EBF0900148ECF02F
:10145300A3EDF0900146E0FAA3E0FFAE02C006C0A0
:10146300072401FBE43AFAA3E0FEA3E02401FFE42E
:101473003E900152F0A3EFF0D007D0061215709002
:10148300014AE0FEA3E0FF0217CD7B017A01790751
:10149300120ED590010CEFF07B017A0179079001D0
:1014A3001474F8F0A3E4F074FFA3F0A3F07D3C7C84
:1014B300007F327E00120576E49001BEF0A3F09027
:1014C300010CE0FF9001C0E4F0A3EFF07B017A018F
:1014D30079BEE4FD7F0A0215B37BFF30820E7A2AC0
:1014E30079FE90011474F8F0A3E4800A7A2B790250
:1014F300E4900114F0A3F074FFA3F0A3F07D507CFB
:10150300007F327E00120576E49001BEF0A3F0A3C3
:10151300F0A28233A3F07B017A0179BEE4FD7F114F
:101523000215B37BFF30810E7A2A79FE9001147481
:10153300F8F0A3E4800A7A2B7902E4900114F0A373
:10154300F074FFA3F0A3F07D647C007F327E001271
:101553000576E49001BEF0A3F0A3F0A28133A3F0DB
:101563007B017A0179BEE4FD7F130215B390014C30
:10157300EEF0A3EFF012184690014CA3E02402FF13
:1015830012184DE4FF12184DEB2402FF12184D7F81
:101593002B121848ED2403FF12184DE4FF12184DC7
:1015A300900152A3E02403FF12184D7F2C02189AD6
:1015B300900193EDF0120046900195F09000011216
:1015C300005F900196F090000212005F900197F087
:1015D30090000312005F900198F0900192EFF07B6E
:1015E300017A0179887D120216C37EFAE4F5BDF50E
:1015F300BEE5BC54E044084FF5BCE5BC30E41E53E3
:10160300BCEFAFBDEFFD7C007E007802C333CE3369
:10161300CED8F9FFE5BE5403FDEF4DFF22DEDB7E9E
:10162300047F0022900107EEF0A3EFF0900152E453
:10163300F0A3747FF0FB7A00E4FDFCFFFE1215704B
:10164300E4FBE4FA900107E0FEA3E0FF1217CD0AE2
:10165300EAB480F00BEBB480E9229001CAEBF0A36B
:10166300EAF0A3E9F09001CAE0FBA3E0FAA3E0F9F2
:1016730012004660179001CAA3E475F001120161DC
:10168300A9F0FA120046FF12000380D9229001CD7F
:10169300EBF0A3EAF0A3E9F09001CDE0FBA3E0FABD
:1016A300A3E0F912004660179001CDA3E475F001A1
:1016B300120161A9F0FA120046FF1218AD80D92277
:1016C30090010DEBF0A3EAF0A3E9F0E4FEEEC39D75
:1016D300501A90010DE0FBA3E0FAA3E0F98E8275A6
:1016E300830012005FFF1200030E80E1229001D0FD
:1016F300EBF0A3EAF0A3E9F0E4FEEEC39D501A90E9
:1017030001D0E0FBA3E0FAA3E0F98E827583001217
:10171300005FFF1218AD0E80E122E4FB7D08D2A228
:101723007F017E0012188FC2A2EBC313FBD2A2303B
:10173300A2034480FB7F047E0012188FDDE0AF0319
:101743007E0022E4FDD2A27F08FE12188FC2A27F80
:10175300507E0012188FD2A27F057E0012188FA22E
:10176300A2E433FD7F147E0002188FE4FDFCC3ED79
:101773009FEC9E5015E4FBFA0BBB00010AEB64FAE5
:101783004A70F50DBD00010C80E422AD077B08C251
:10179300A2ED1392A27F057E0012188FD2A2EDC391
:1017A30013FDDBEB7F047E0002188FE4FFFE740160
:1017B3002FF58274003EF583E4F0900080F00FBFB4
:1017C30000010EEF647F4E70E522AD07AC06E49096
:1017D300014CF0C2A0D2A2ECFF12182FAF051218D1
:1017E3002FD2A022AD07AC06D3ED9400EC940040B9
:1017F3000A1218A4ED1D70F01C80ED22438E08E53B
:101803009A543F4440F59A439A10438E10759CFABC
:1018130043AF0122E4FF74862FF582E43400F5839D
:10182300E4F0900105F00FEFB47FEB227E08EF3078
:10183300E704D2A38002C2A3C2A5D2A5EF25E0FF8D
:10184300DEEC227F2A12189AE4FFE4900154F0C2DE
:10185300A0D2A212182FD2A0225389F04389017576
:101863008C4CE4F58AD28CD2A9D2AF221200261274
:1018730017FF12185C1218B512075E02111FC2A1DE
:101883007F647E0012176ED2A102176EEF1FAC06A3
:1018930070011E4C70F622C2A0C2A212182FD2A051
:1018A300227F0C7EA9DEFEDFFC228F9BD20120016A
:1018B300FD22759D0775BCA022CBAE01000100017E
:1018C30000010801087D9005A0094009401120117D
:1018D3001021084106810005000200D6C720003E02
:1018E3007C48440844FF441444227C40001FF01009
:1018F3001010101FF0101010101FF01010C4DC1087
:101903004024444248FF70014000427E42423E422E
:10191300007E44424842707E4042424A42443ED3A3
:10192300E3040004000FE0102020407FF8A1082109
:10193300083FF8210821083FF800000000FFFE00DF
:1019430000B8D7200020003F7E481088100810FF01
:1019530010081008104910491049104F1079FE0162
:10196300000000CEC2000023F81208120883F842D8
:1019730008420813F8100027FCE4A424A424A42498
:10198300A42FFE0000B6C8010000803FFE222022E3
:10199300203FFC2220222023E020002FF0241042AD
:1019A3002041C08630380ECEBB0880084008401066
:1019B3000017FC3000300852089208111011101162
:1019C30010112010201FFE1000D6B5084008400F4C
:1019D300FC1040104033F8320853F8920813F81201
:1019E3000813F8120812081FFE1000B1C30000FF0D
:1019F300FE040008001FF02810C8100FF0010001BA
:101A0300047D88095011202118C5060200B4F21084
:101A130000100013FE1020FC2010201020142018AA
:101A2300203020D02010201020102050A02040BFB4
:101A3300AA00007FFC08200820082008200820FFB7
:101A4300FE08200820082008201020102020204015
:101A530020B9D810100810082000003FF801000139
:101A6300000100FFFE0100028002800440082030D4
:101A730018C006B1D5200017FC0004408440845FE1
:101A8300F4408441844284448448845084428441A1
:101A93000440144008C8C8104010401040FDF8101E
:101AA3004810481CC83048D0AA10AA510622020088
:101AB30000488844448444B5C61000100013FE1047
:101AC300205420582050209020102010201020282F
:101AD300202420442040A08040000000000000009B
:101AE30000000000000000000000000000000000F3
:101AF30000000000000000000000000000000000E3
:101B030000000000000000000000000000000000D2
:101B130000000000000000000000000000000000C2
:101B230000000000000000000000000000000000B2
:101B330000000000000000000000000000000000A2
:101B43000000000000000000000000000000000092
:101B53000000000000000000000000001808C80892
:101B630008000000000000000000007F606060606B
:101B730060606060E0602000000000000000000082
:101B830000000000000000000000001818181010EA
:101B93001000000000000000000000000000000032
:101BA300000808080C0C0C000000000000000000F6
:101BB30000000000000000000000006C3810007CF2
:101BC300C6701CC67C00000000000010386C007852
:101BD3000C7CCCCC76000000000000000000007CF0
:101BE300C670C0C67C000000000000000000006C4E
:101BF300967CD0D66C000000000000000000007C42
:101C0300C60606C67C00000000000000386CC6C68D
:101C1300FEC6C66C3800000000000000000010384B
:101C2300286C44C6C6000000000000000000007CD1
:101C3300C606FEC67C00000000000000000000DCB9
:101C4300666666F60606663C000000006C38F80C13
:101C53007EC6C6C67C000000000000000E1B1818DC
:101C63001818181818D87000000000000000FE862D
:101C73000C180C0606C67C0000000076DC00007819
:101C83000C7CCCCC7600000000000076DC00007CED
:101C9300C60606C67C00000000000076DC0000DCFF
:101CA30066666666660000000000000000000076BD
:101CB300999F98996F000000000000000000000049
:101CC300000000000C0606000000000000000000F9
:101CD3000000003C66663C000000000000000000BD
:101CE300000000000000000000000000183C3C3C25
:101CF3001818001818000000000000C6C6C64400EB
:101D03000000000000000000000000006C6CFE6C8E
:101D13006C6CFE6C6C000000000018187CC6C2C01E
:101D23007C0686C67C181800000000000000C3C6AD
:101D33000C183063C300000000000000386C6C38DE
:101D430076DCCCCC76000000000000303030600040
:101D53000000000000000000000000001830606078
:101D6300606060301800000000000000180C0606D8
:101D73000606060C180000000000000000006C3886
:101D8300FE386C0000000000000000000018181866
:101D93007E1818180000000000000000000000007A
:101DA30000001818183000000000000000000000B8
:101DB300FE00000000000000000000000000000022
:101DC30000000018180000000000000002060C18B4
:101DD3003060C08000000000000000007CC6CEDE42
:101DE300F6E6C6C67C00000000000000183878182C
:101DF300181818187E000000000000007CC6060CAE
:101E0300183060C6FE000000000000007CC6060615
:101E13003C0606C67C000000000000000C1C3C6C65
:101E2300CCFE0C0C1E00000000000000FEC0C0C071
:101E3300FC0606C67C000000000000003860C0C03D
:101E4300FCC6C6C67C00000000000000FEC6060CEF
:101E53001830303030000000000000007CC6C6C6D9
:101E63007CC6C6C67C000000000000007CC6C6C657
:101E73007E06060C78000000000000000018180021
:101E830000001818000000000000000000181800EF
:101E9300000018183000000000000000060C183085
:101EA3006030180C06000000000000000000007EF7
:101EB30000007E0000000000000000006030180CED
:101EC300060C183060000000000000007CC6C60C41
:101ED3001818001818000000000000007CC6C6DEB9
:101EE300DEDEDCC07C0000000000000010386CC6A1
:101EF300C6FEC6C6C600000000000000FC6666669B
:101F03007C666666FC000000000000003C66C2C000
:101F1300C0C0C2663C00000000000000F86C6666AA
:101F23006666666CF800000000000000FE666268EA
:101F330078686266FE00000000000000FE666268CA
:101F430078686060F0000000000000003C66C2C0DA
:101F5300C0DEC6663A00000000000000C6C6C6C662
:101F6300FEC6C6C6C6000000000000003C181818D4
:101F7300181818183C000000000000001E0C0C0C80
:101F83000C0CCCCC7800000000000000E6666C6C02
:101F9300786C6C66E600000000000000F060606092
:101FA30060606266FE00000000000000C6EEFED620
:101FB300C6C6C6C6C600000000000000C6E6F6FEA0
:101FC300DECEC6C6C600000000000000386CC6C6E0
:101FD300C6C6C66C3800000000000000FC666666DA
:101FE3007C606060F0000000000000007CC6C6C694
:101FF300D6DE7C0C0E00000000000000FC66666666
:102003007C6C6666E6000000000000007CC6C660CB
:10201300380CC6C67C000000000000007E5A181869
:10202300181818183C00000000000000C6C6C6C6F9
:10203300C6C6C6C67C00000000000000C6C6C6C6F1
:10204300C6C66C381000000000000000C6C6C6C635
:10205300C6D6FEEEC600000000000000C6C6C66C71
:10206300386CC6C6C600000000000000C6C6C66CB9
:10207300383838387C00000000000000FEC68C1899
:102083003060C2C6FE000000000000003C3030306B
:10209300303030303C0000000000000080C0E070B1
:1020A300381C0E0602000000000000003C0C0C0C63
:1020B3000C0C0C0C3C000000000010386CC6000037
:1020C300000000000000000000000000000000000D
:1020D300000000000000FE00000000303018000087
:1020E3000000000000000000000000000000007875
:1020F3000C7CCCCC7600000000000000E06060782F
:102103006C666666DC000000000000000000007CD6
:10211300C6C0C0C67C000000000000001C0C0C3CC4
:102123006CCCCCCC76000000000000000000007CEA
:10213300C6FEC0C67C000000000000001C36323022
:102143007C30303078000000000000000000007692
:10215300CCCCCC7C0CCC780000000000E060606C40
:1021630076666666E6000000000000001818003876
:10217300181818183C000000000000000606000EA6
:102183000606060666663C0000000000E060606626
:102193006C786C66E6000000000000003818181820
:1021A300181818183C00000000000000000000444C
:1021B300FED6D6D6D600000000000000000000DCEA
:1021C3006666666666000000000000000000007C92
:1021D300C6C6C6C67C00000000000000000000DC8C
:1021E3006666667C6060F000000000000000007618
:1021F300CCCCCC7C0C0C1E0000000000000000DCEA
:1022030076666060F0000000000000000000007CC3
:10221300C6701CC67C00000000000000103030FCBB
:10222300303030361C00000000000000000000CCFD
:10223300CCCCCCCC7600000000000000000000C62F
:10224300C6C66C381000000000000000000000C685
:10225300C6C6D6FE6C00000000000000000000C6E9
:102263006C38386CC600000000000000000000C697
:10227300C6C6C67E060C780000000000000000FE03
:10228300CC183066FE000000000000000E1818187D
:10229300701818180E000000000000001818181815
:1022A3000018181818000000000000007018181813
:1022B3000E181818700000000000000076DC000003
:1022C300000000000000000000000000000000000B
:1022D30000000000000000000000000000000000FB
:1022E30000000000000000000000000000000000EB
:1022F30000000000000000000000000000000000DB
:102AD30000000000000000000000D6C7C4DCD3E300
:102AE300B8D700CEC2B6C83A00CBAECEBB3A00C808
:102AF300C8B5C63A00CBAEB1C33A004F4E20004F23
:032B030046460043
:00000001FF
