:100000000211FE8F99D2002000FD2202090FE4FFA9
:10001000FE120046600C0FEF70010E09E970F20A43
:1000200080EF220213C8E49001BFF0A3F0A3F0A276
:100030008333A3F07B017A0179BFE4FD7F0C0215C5
:01004000F6C9
:10004300021307BB010689828A83E0225002E7225A
:10005300BBFE02E32289828A83E49322BB010CE57F
:100063008229F582E5833AF583E0225006E9258269
:10007300F8E622BBFE06E92582F8E222E58229F5AD
:1000830082E5833AF583E49322BB010689828A835E
:10009300F0225002F722BBFE01F322F8BB010DE56B
:1000A3008229F582E5833AF583E8F0225006E925B3
:1000B30082C8F622BBFE05E92582C8F222BC000BEA
:1000C300BE0029EF8DF084FFADF022E4CCF875F08B
:1000D30008EF2FFFEE33FEEC33FCEE9DEC9840056A
:1000E300FCEE9DFE0FD5F0E9E4CEFD22EDF8F5F030
:1000F300EE8420D21CFEADF075F008EF2FFFED3338
:10010300FD4007985006D5F0F222C398FD0FD5F0B5
:10011300EA22C2D5EC30E709B2D5E4C39DFDE49CE5
:10012300FCEE30E715B2D5E4C39FFFE49EFE120058
:10013300C0C3E49DFDE49CFC80031200C030D507DE
:10014300C3E49FFFE49EFE22C5F0F8A3E028F0C5B8
:10015300F0F8E582158270021583E038F022A3F8E7
:10016300E0C5F025F0F0E582158270021583E0C842
:1001730038F0E822E88FF0A4CC8BF0A42CFCE98EB5
:10018300F0A42CFC8AF0EDA42CFCEA8EF0A4CDA8FC
:10019300F08BF0A42DCC3825F0FDE98FF0A42CCD05
:1001A30035F0FCEB8EF0A4FEA9F0EB8FF0A4CFC5E5
:1001B300F02ECD39FEE43CFCEAA42DCE35F0FDE46F
:1001C3003CFC2275F008758200EF2FFFEE33FECD65
:1001D30033CDCC33CCC58233C5829BED9AEC99E504
:1001E3008298400CF582EE9BFEED9AFDEC99FC0F94
:1001F300D5F0D6E4CEFBE4CDFAE4CCF9A88222B85C
:1002030000C1B90059BA002DEC8BF084CFCECDFCE0
:10021300E5F0CBF97818EF2FFFEE33FEED33FDEC6D
:1002230033FCEB33FB10D703994004EB99FB0FD856
:10023300E5E4F9FA227818EF2FFFEE33FEED33FDF4
:10024300EC33FCC933C910D7059BE99A4007EC9BF3
:10025300FCE99AF90FD8E0E4C9FAE4CCFB2275F083
:1002630010EF2FFFEE33FEED33FDCC33CCC833C894
:1002730010D7079BEC9AE899400AED9BFDEC9AFC9A
:10028300E899F80FD5F0DAE4CDFBE4CCFAE4C8F949
:1002930022EB9FF5F0EA9E42F0E99D42F0E89C458F
:1002A300F022ECF0A3EDF0A3EEF0A3EFF022A8828E
:1002B3008583F0D083D0821202C81202C81202C80A
:1002C3001202C8E473E493A3C583C5F0C583C8C50C
:1002D30082C8F0A3C583C5F0C583C8C582C822A45C
:1002E3002582F582E5F03583F5832290019FECF0BA
:1002F300A3EDF0A3EAF0A3EBF090019DEEF0A3EFE2
:10030300F09001ACEEF0A3EFF09001A5E0FBA3E0C9
:10031300FAA3E0F91200467003020575C3948050F6
:1003230003020568E49001AAF0A3F09001AAE0FE9D
:10033300A3E0FFC3941CEE9400400302054D90011B
:10034300A5E0FBA3E0FAA3E0F9120046FD90191A19
:1003530075F022EF1202E2EE75F022A42583F583F5
:10036300E4936D600302053C90000112005FFF906F
:1003730001AAE0FCA3E090191B75F0221202E2EC43
:1003830075F022A42583F583E4936F600302053C93
:100393009001A8F0E49001A9F09001AAE0FEA3E087
:1003A30090191C75F0221202E2EE75F022A4258347
:1003B300F583C083C0829001A8E0FDD082D083750D
:1003C300F0021202E2E493FB3395E0FA9001A9E014
:1003D300FC74807E00A804088006CEA2E713CE1327
:1003E300D8F8FFEE5AFEEF5B4E6021ECFF90019EC2
:1003F300E02FFF90019DE03400FE9001A0E02DFD71
:1004030090019FE03400FC9001A1803B9001A3E0A8
:10041300FEA3E0FF9001A1E06E7003A3E06F602AEA
:100423009001A9E0FF90019EE02FFF90019DE03431
:1004330000FE9001A8E0FD9001A0E02DFD90019F3A
:10044300E03400FC9001A312147C9001A9E004F0B5
:10045300E0C39408500302039CE49001A9F09001C7
:10046300AAE0FEA3E090191D75F0221202E2EE75D8
:10047300F022A42583F583C083C0829001A8E0FD08
:10048300D082D08375F0021202E2E493FB3395E04D
:10049300FA9001A9E0FC74807E00A804088006CECF
:1004A300A2E713CE13D8F8FFEE5AFEEF5B4E602798
:1004B300ECFF90019EE02FFF90019DE03400CF24DC
:1004C30008CF3400FE9001A0E02DFD90019FE034A1
:1004D30000FC9001A180419001A3E0FEA3E0FF9006
:1004E30001A1E06E7003A3E06F60309001A9E0FF0B
:1004F30090019EE02FFF90019DE03400CF2408CFB0
:100503003400FE9001A8E0FD9001A0E02DFD9001D4
:100513009FE03400FC9001A312147C9001A9E00435
:10052300F0E0C3940850030204619001A8E004F0D2
:10053300E0C3941050030203979001ABE004F07002
:10054300069001AAE004F002032E9001A6E475F0E0
:100553000212014B90019EE02410F090019DE034C3
:1005630000F002030C9001A6E475F00112014B02A6
:10057300030C2290010DEEF0A3EFF0A3ECF0A3ED3A
:10058300F0A3EBF0A3EAF0A3E9F0E4900118F0A3E1
:10059300F0900111E0FBA3E0FAA3E0F912000E9042
:1005A3000118E0FCA3E0FDC39FEC9E400302075D3E
:1005B300900111E0FBA3E0FAA3E0F98D828C831292
:1005C300005FFFC394A14009900144EFF0E4A3F05E
:1005D30022900111E0FBA3E0FAA3E0F9900118E0F7
:1005E300FEA3E0F5828E8312005FFFE4FCFDFE7B39
:1005F30010FAF9F81201779001201202A5E4FBFA30
:10060300900120A3A3E0FEA3E02BFFEE3AFE743A91
:100613002FF582741B3EF583E493FF74242BF5823C
:1006230074013AF583EFF00BBB00010AEB64104A47
:1006330070CEE490011CF0A3F0E490011AF0A3F053
:1006430090011AE0FEA3E0FFC39408EE6480948057
:10065300400302072A7C007D0812011574807E0086
:10066300A805088006CEA2E713CE13D8F8FF9001A1
:100673001CE0FCA3E0FD2424F58274013CF583E037
:10068300FB3395E05EFEEF5B4E604190011AE0FEA6
:10069300A3E0FF90010EE02FFB90010DE03EFA90E6
:1006A3000118E0FEA3E07803C333CE33CED8F92B91
:1006B300FFEA3EFE90011EF0A3EFF090010FE0FA77
:1006C300A3E02DFDEC3AFC900114804790011AE061
:1006D300FEA3E0FF90010EE02FFD90010DE03EFC34
:1006E300900118E0FEA3E07803C333CE33CED8F9EC
:1006F3002DFFEC3EFE90011EF0A3EFF090010FE002
:10070300FCA3E0FD90011DE02DFD90011CE03CFCED
:1007130090011612147C90011BE004F07006900106
:100723001AE004F002064390011DE004F070069005
:10073300011CE004F0C390011DE0941090011CE043
:1007430064809480500302063C900119E004F07029
:1007530006900118E004F0020594221218DF7F11BD
:100763001218F87F787E001217B17FB11218F87F44
:10077300011218AB7F2C1218AB7F2D1218AB7FB26E
:100783001218F87F011218AB7F2C1218AB7F2D12B1
:1007930018AB7FB31218F87F011218AB7F2C121815
:1007A300AB7F2D1218AB7F011218AB7F2C1218AB45
:1007B3007F2D1218AB7FB41218F87F071218AB7F86
:1007C300C01218F87FA21218AB7F021218AB7F84F5
:1007D3001218AB7FC11218F87FC51218AB7FC21273
:1007E30018F87F0A1218ABE4FF1218AB7FC3121874
:1007F300F87F8A1218AB7F2A1218AB7FC41218F83D
:100803007F8A1218AB7FEE1218AB7FC51218F87FE0
:100813000E1218AB7F361218F87FC81218AB7FE0A0
:100823001218F87F0F1218AB7F1A1218AB7F0F1232
:1008330018AB7F181218AB7F2F1218AB7F28121832
:10084300AB7F201218AB7F221218AB7F1F1218AB9D
:100853007F1B1218AB7F231218AB7F371218ABE440
:10086300FF1218AB7F071218AB7F021218AB7F1071
:100873001218AB7FE11218F87F0F1218AB7F1B120F
:1008830018AB7F0F1218AB7F171218AB7F331218F8
:10089300AB7F2C1218AB7F291218AB7F2E1218AB2B
:1008A3007F301218AB7F301218AB7F391218AB7F31
:1008B3003F1218ABE4FF1218AB7F071218AB7F038C
:1008C3001218AB7F101218AB1218A47F021218ABC8
:1008D300E4FF1218AB7F821218AB7F2B1218A67F8E
:1008E300031218ABE4FF1218AB7F831218AB7FF02F
:1008F3001218F87F011218AB7FF61218A67F3A126E
:1009030018F87F051218AB7F290218F8C0E0C0F071
:10091300C083C082C0D075D000C000C001C002C077
:1009230003C004C005C006C007758C4C758A00E47B
:100933007F307E75FDFC9001AEE0F8A3E0F9A3E003
:10094300FAA3E0FBC31202949001AE501EE0FCA395
:10095300E0FDA3E0FEA3E02401FFE43EFEE43DFD51
:10096300E43CFC9001AE1202A580071202B1000024
:100973000000E47B28FAF9F89001AEE0FCA3E0FD67
:10098300A3E0FEA3E0FF120202AC00AD01AE02AF92
:1009930003E4FBFAF9F8C312029470059001B5045D
:1009A300F0E47B1EFAF9F89001AEE0FCA3E0FDA3AE
:1009B300E0FEA3E0FF120202AC00AD01AE02AF0302
:1009C300E4FBFAF9F8C312029470059001B604F03F
:1009D300E47B50FAF9F89001AEE0FCA3E0FDA3E05C
:1009E300FEA3E0FF120202AC00AD01AE02AF03E4CE
:1009F300FBFAF9F8C312029470059001B204F0E413
:100A03007B64FAF9F89001AEE0FCA3E0FDA3E0FEFD
:100A1300A3E0FF120202AC00AD01AE02AF03E4FBA0
:100A2300FAF9F8C312029470059001B404F0E47B60
:100A3300907A01F9F89001AEE0FCA3E0FDA3E0FE9B
:100A4300A3E0FF120202AC00AD01AE02AF03E4FB70
:100A5300FAF9F8C312029470059001B304F0900000
:100A630000E06018900083E0D394004005E014F0A8
:100A7300800A900000E4F090008104F0900085E08B
:100A83006018900084E0D394004005E014F0800ADD
:100A9300900085E4F090010604F0D007D006D0055D
:100AA300D004D003D002D001D000D0D0D082D083E4
:100AB300D0F0D0E032900155EEF0A3EFF0A3ECF0CC
:100AC300A3EDF0A3EBF0A3EAF0A3E9F0E4A3F0A312
:100AD300F0900159E0FBA3E0FAA3E0F912000E90B5
:100AE300015CE0FCA3E0FDC39FEC9E4003020C4FBE
:100AF300900159E0FBA3E0FAA3E0F98D828C831205
:100B0300005FFFC394A14009900186EFF0E4A3F0D6
:100B130022900159E0FBA3E0FAA3E0F9A3E0FEA3CE
:100B2300E0F5828E8312005FFFE4FCFDFE7B10FA8A
:100B3300F9F81201779001621202A5E4FBFA900121
:100B430062A3A3E0FEA3E02BFFEE3AFE743A2FF577
:100B530082741B3EF583E493FF74662BF582740164
:100B63003AF583EFF00BBB00010AEB64104A70CE39
:100B7300E4900160F0A3F0E490015EF0A3F0900133
:100B83005EE0FEA3E0FFC39408EE6480948040031C
:100B9300020C197C007D0812011574807E00A805E3
:100BA300088006CEA2E713CE13D8F8FF900160E0C9
:100BB300FCA3E0FD2466F58274013CF583E0FB337E
:100BC30095E05EFEEF5B4E603C90015EE0FEA3E0CD
:100BD300FF900156E02FFB900155E03EFA90015C37
:100BE300E0FEA3E07803C333CE33CED8F92BFFEA7C
:100BF3003EFE900157E0FAA3E02DFDEC3AFC7B00AA
:100C03007AF812148190015FE004F0700690015E9F
:100C1300E004F0020B81900161E004F070069001A2
:100C230060E004F0C3900161E09410900160E0641F
:100C33008094805003020B7A90015DE004F060031E
:100C4300020AD490015CE004F0020AD42290010766
:100C5300EEF0A3EFF0A3ECF0A3EDF0A3EAF0A3EB27
:100C6300F0900114E4F0A37410F090010FE0FBA3E3
:100C7300E0FAA3E0F91200467003020DDFC394808B
:100C83005003020DD2E4900112F0A3F0900114E09E
:100C9300FEA3E0FF900112E0FCA3E0FDC39FEC9EE6
:100CA3004003020DB790010FE0FBA3E0FAA3E0F9C4
:100CB300120046FF90191A75F022ED1202E2EC754C
:100CC300F022A42583F583E4936F6003020DA690BD
:100CD300000112005FFF900112A3E090191B75F051
:100CE300221202E2EC75F022A42583F583E4936FCC
:100CF3006003020DA6900107E0FAA3E0FBFFAE023A
:100D0300C006C007A3E0FCA3E0FDEB240FFBE43A1D
:100D1300FA900109E0FEA3E0240FFFE43E900152A4
:100D2300F0A3EFF0D007D0061215B3E4FBE4FA907A
:100D33000112E0FEA3E090191C75F0221202E2EE0C
:100D430075F022A42583F583E5822BF582E43583B0
:100D5300F583E493FD3395E0FC74807E00A80208DC
:100D63008006CEA2E713CE13D8F8FFEE5CFEEF5D4C
:100D73004E600590010B801790010DE0FEA3E0FF8C
:100D830090010BE06E7003A3E06F600B90010DE028
:100D9300FEA3E0FF12182B0AEA640870920BEB64BF
:100DA30020708A900113E004F07006900112E004B1
:100DB300F0020C8F900110E475F00212014B9001C8
:100DC30008E02410F0900107E03400F0020C6D906D
:100DD3000110E475F00112014B020C6D2290010D1C
:100DE300EBF0A3EAF0A3E9F01217897FCC1217D135
:100DF3007F441217D17F7D7E001218ED1217897F71
:100E0300CC1217D17FBE1217D11217609001B8EF21
:100E1300F01217609001B7EFF0D3947F400DA3E079
:100E2300F4F09001B7E0F404F0C2029001B8E0FDE1
:100E3300C4540FFB7A009001B7E075F010A42BFEA9
:100E4300EA35F09001BAF0A3CEF0ED540FFD75F042
:100E53000AA4FFE5F0C4F854F0C8EFC4540F489057
:100E630001BDF0ED75F064A4FFE5F0C4F854F0C8DB
:100E7300EFC4540F4875F00A84AFF0A3EFF090016C
:100E8300BDE075F00AA42F9001B9F0A3E0FEA3E042
:100E9300FF7C007D0A1200C0EF2430FF90010DE0BB
:100EA300FBA3E0FAA3E0F9EF12008C9001BAE0FE95
:100EB300A3E0FF7C007D0A1200C0ED2430FF900107
:100EC3000DE0FBA3E0FAA3E0F9900001EF12009E0E
:100ED300900002742E12009E9001BDE075F00A840A
:100EE300E5F0243090000312009E90000474431236
:100EF300009E900005E412009E9001BAE0FEA3E07C
:100F0300FF2290010DEBF0A3EAF0A3E9F0E4A3F0D4
:100F1300A3F0FF121630900110EEF0A3EFF0900152
:100F230010E0FEA3E0FF7C037DE81200C0EF243055
:100F3300FF90010DE0FBA3E0FAA3E0F9EF12008CB0
:100F4300900110E0FEA3E0FF7C037DE81200C07E69
:100F5300007F64CFCDCFCECCCE1200C0EF2430FFC4
:100F630090010DE0FBA3E0FAA3E0F9900001EF127A
:100F7300009E900110E0FEA3E0FF7C007D64120060
:100F8300C07E007F0ACFCDCFCECCCE1200C0EF24DF
:100F930030FF90010DE0FBA3E0FAA3E0F99000021B
:100FA300EF12009E900110E0FEA3E0FF7C007D0A9B
:100FB3001200C0ED2430FF90010DE0FBA3E0FAA383
:100FC300E0F9900003EF12009E900004E412009EEB
:100FD3009001D4E0FF229001C5EBF0A3EAF0A3E96E
:100FE300F07F011216309001C9EEF0A3EFF09001EB
:100FF300C9E0FEA3E0FF7C037DE81200C0EF2430CC
:10100300FF9001C5E0FBA3E0FAA3E0F9EF12008C27
:101013009001C9E0FEA3E0FF7C037DE81200C07EDF
:10102300007F64CFCDCFCECCCE1200C0EF2430FFF3
:101033009001C5E0FBA3E0FAA3E0F9900001EF12F1
:10104300009E9001C9E0FEA3E0FF7C007D641200D6
:10105300C07E007F0ACFCDCFCECCCE1200C0EF240E
:1010630030FF9001C5E0FBA3E0FAA3E0F990000292
:10107300EF12009E9001C9E0FEA3E0FF7C007D0A11
:101083001200C0ED2430FF9001C5E0FBA3E0FAA3FA
:10109300E0F9900003EF12009E900004E412009E1A
:1010A3009001C8E0FF221218CD9001B5E06008124C
:1010B3001427E49001B5F09001B6E060081214D053
:1010C300E49001B6F09001B2E0600812151FE490BD
:1010D30001B2F09001B4E06008121569E49001B424
:1010E300F09001B3E06008120026E49001B3F090A1
:1010F300019AE06048900081E060127B017A0079F8
:101103000112128AE4900081F0900080F090019C1B
:10111300E0FF9001D4E0D39F4004D2818002C281DA
:1011230090019BE0FFC39001C4E09F9001C3E09452
:10113300005005D2820210ACC2820210AC90008132
:10114300E070030210AC7B017A00790112128AE489
:10115300900081F0900080F00210AC74FFFFFE124B
:10116300166A74FF90010DF0A3F0A3F0A3742BF0A3
:10117300A3743BF07B1F7A007D0A7C007F217E00F5
:10118300120C5074FF90010DF0A3F0A3F0A3742B85
:10119300F0A37444F0E4FBFA7D28FC7F05FE120CF7
:1011A3005074FF90010DF0A3F0A3F0A3742BF0A3F0
:1011B300744AF0E4FBFA7D3CFC7F05FE120C50748C
:1011C300FF90010DF0A3F0A3F0A3742BF0A37450D0
:1011D300F0E4FBFA7D50FC7F05FE120C5074FF9087
:1011E300010DF0A3F0A3F0A3742BF0A37456F0E465
:1011F300FBFA7D64FC7F05FE020C50787FE4F6D891
:10120300FD7581200212450210A9E493A3F8E4932B
:10121300A34003F68001F208DFF48029E493A3F8E6
:101223005407240CC8C333C4540F4420C883400458
:10123300F456800146F6DFE4800B01020408102017
:101243004080901368E47E019360BCA3FF543F3059
:10125300E509541FFEE493A360010ECF54C025E0BB
:1012630060A840B8E493A3FAE493A3F8E493A3C873
:10127300C582C8CAC583CAF0A3C8C582C8CAC58304
:10128300CADFE9DEE780BE12004664EE70759000A7
:101293000112005F64CC706B90001112005FF47058
:1012A3006290000912005FFFB42A1E900010120022
:1012B3005F90019AF090000E12005F90019BF090F6
:1012C300000F12005F90019CF0EF64807035900076
:1012D3000A12005F24EF601724FE7027900010129B
:1012E300005F6004D2818002C2819001B4801190BA
:1012F300001012005F6004D2828002C2829001B2A9
:101303007401F022C0E0C083C082C0D075D008E56C
:101313009A30E03E539AFE900106E07005900085F6
:1013230004F0900105E0C3947F501C900084740185
:10133300F0900105E0FF04F074862FF582E4340099
:10134300F583E59BF0800B9001067401F090010595
:10135300E4F0E59A30E105539AFDC201D0D0D08282
:10136300D083D0E0324101B5004101B6004101B262
:10137300004101B4004101B3004401BF000000007B
:101383004201C3000041019A0041019C0541019BB8
:1013930014520188EECC000000000000006A000037
:1013A3000000000000FF41008100410106004101EF
:1013B300B8004101B7004101BD004101BE00410138
:1013C300B900C18200C0E0C083C082C0D075D00024
:1013D300C00730983DC298900081E07005900000EE
:1013E30004F0900080E0C3947F501C90008374014C
:1013F300F0900080E0FF04F074012FF582E43400E4
:10140300F583E599F0800B9000817401F0900080E2
:10141300E4F0309904C299C200D007D0D0D082D072
:1014230083D0E0327B017A017907120DE09001C38A
:10143300EEF0A3EFF07B017A01790790011474F8C1
:10144300F0A3E4F074FFA3F0A3F07D287C007F32C7
:101453007E00120576E49001BFF0A3F09001C3E093
:10146300FCA3E0FDEC9001C1F0A3EDF07B017A0158
:1014730079BFE4FD7F080215F6E0FAA3E0FB9001D3
:1014830046EEF0A3EFF090014AEAF0A3EBF09001EF
:1014930048ECF0A3EDF0900146E0FAA3E0FFAE02C2
:1014A300C006C0072401FBE43AFAA3E0FEA3E0244C
:1014B30001FFE43E900152F0A3EFF0D007D00612F3
:1014C30015B390014AE0FEA3E0FF02182B7B017ADB
:1014D300017907120F0590010CEFF07B017A017976
:1014E3000790011474F8F0A3E4F074FFA3F0A3F0E1
:1014F3007D3C7C007F327E00120576E49001BFF0D4
:10150300A3F090010CE0FF9001C1E4F0A3EFF07BA6
:10151300017A0179BFE4FD7F0A0215F67BFF308271
:101523000E7A2B795C90011474F8F0A3E4800A7AA4
:101533002B7960E4900114F0A3F074FFA3F0A3F0FF
:101543007D507C007F327E00120576E49001BFF06F
:10155300A3F0A3F0A28233A3F07B017A0179BFE465
:10156300FD7F110215F67BFF30810E7A2B795C909B
:10157300011474F8F0A3E4800A7A2B7960E49001F3
:1015830014F0A3F074FFA3F0A3F07D647C007F321A
:101593007E00120576E49001BFF0A3F0A3F0A281D0
:1015A30033A3F07B017A0179BFE4FD7F130215F6C3
:1015B30090014CEEF0A3EFF01218A490014CA3E0BD
:1015C3002402FF1218ABE4FF1218ABEB2402FF1244
:1015D30018AB7F2B1218A6ED2403FF1218ABE4FF00
:1015E3001218AB900152A3E02403FF1218AB7F2C17
:1015F3000218F8900193EDF0120046900195F090D7
:10160300000112005F900196F090000212005F90BB
:101613000197F090000312005F900198F0900192FF
:10162300EFF07B017A0179887D120217067EFAE4D6
:10163300F5BDF5BEE5BC54E044084FF5BCE5BC3050
:10164300E41E53BCEFAFBDEFFD7C007E007802C308
:1016530033CE33CED8F9FFE5BE5403FDEF4DFF2261
:10166300DEDB7E047F0022900107EEF0A3EFF09013
:101673000152E4F0A3747FF0FB7A00E4FDFCFFFE6B
:101683001215B3E4FBE4FA900107E0FEA3E0FF12B6
:10169300182B0AEAB480F00BEBB480E9229001CB5B
:1016A300EBF0A3EAF0A3E9F09001CBE0FBA3E0FAAF
:1016B300A3E0F912004660179001CBA3E475F00193
:1016C300120161A9F0FA120046FF12000380D92229
:1016D3009001CEEBF0A3EAF0A3E9F09001CEE0FB9A
:1016E300A3E0FAA3E0F912004660179001CEA3E449
:1016F30075F001120161A9F0FA120046FF12190BED
:1017030080D92290010DEBF0A3EAF0A3E9F0E4FE07
:10171300EEC39D501A90010DE0FBA3E0FAA3E0F99C
:101723008E8275830012005FFF1200030E80E12298
:101733009001D1EBF0A3EAF0A3E9F0E4FEEEC39D40
:10174300501A9001D1E0FBA3E0FAA3E0F98E827571
:10175300830012005FFF12190B0E80E122E4FB7D70
:1017630008D2A27F017E001218EDC2A2EBC313FBC5
:10177300D2A230A2034480FB7F047E001218EDDD69
:10178300E0AF037E0022E4FDD2A27F08FE1218ED33
:10179300C2A27F507E001218EDD2A27F057E0012F6
:1017A30018EDA2A2E433FD7F147E000218EDE4FDE0
:1017B300FCC3ED9FEC9E5015E4FBFA0BBB00010A42
:1017C300EB64FA4A70F50DBD00010C80E422AD070D
:1017D3007B08C2A2ED1392A27F057E001218EDD200
:1017E300A2EDC313FDDBEB7F047E000218EDE4FFE3
:1017F300FE74012FF58274003EF583E4F0900080BF
:10180300F00FBF00010EEF647F4E70E52275985014
:1018130053890F438920758DFA758BFA438780D2DC
:10182300ACD28ED29CD2AF22AD07AC06E490014C71
:10183300F0C2A0D2A2ECFF12188DAF0512188DD200
:10184300A022AD07AC06D3ED9400EC9400400A123D
:101853001902ED1D70F01C80ED22438E08E59A54A9
:101863003F4440F59A439A10438E10759CFA43AF58
:101873000122E4FF74862FF582E43400F583E4F05B
:10188300900105F00FEFB47FEB227E08EF30E70401
:10189300D2A38002C2A3C2A5D2A5EF25E0FFDEEC4E
:1018A300227F2A1218F8E4FFE4900154F0C2A0D278
:1018B300A212188DD2A0225389F0438901758C4C52
:1018C300E4F58AD28CD2A9D2AF2212181012185D75
:1018D3001218BA12191312075E02115EC2A17F64B5
:1018E3007E001217B1D2A10217B1EF1FAC0670012F
:1018F3001E4C70F622C2A0C2A212188DD2A0227F63
:101903000C7EA9DEFEDFFC228F9BD2012001FD228B
:10191300759D0775BCA022CBAE010001000100013B
:101923000801087D9005A0094009401120111021EC
:10193300084106810005000200D6C720003E7C480E
:10194300440844FF441444227C40001FF01010104C
:10195300101FF0101010101FF01010C4DC104024E2
:10196300444248FF70014000427E42423E42007EB4
:1019730044424842707E4042424A42443ED3E304DA
:101983000004000FE0102020407FF8A10821083F49
:10199300F8210821083FF800000000FFFE0000B80E
:1019A300D7200020003F7E481088100810FF100841
:1019B3001008104910491049104F1079FE0100001A
:1019C30000CEC2000023F81208120883F84208422E
:1019D3000813F8100027FCE4A424A424A424A42FAF
:1019E300FE0000B6C8010000803FFE222022203FF7
:1019F300FC2220222023E020002FF024104220414B
:101A0300C08630380ECEBB0880084008401000174F
:101A1300FC300030085208920811101110111011F7
:101A23002010201FFE1000D6B5084008400FFC1000
:101A330040104033F8320853F8920813F812081391
:101A4300F8120812081FFE1000B1C30000FFFE04C5
:101A53000008001FF02810C8100FF0010001047DDA
:101A630088095011202118C5060200B4F210001095
:101A73000013FE1020FC201020102014201820300A
:101A830020D02010201020102050A02040BFAA00FA
:101A9300007FFC08200820082008200820FFFE08FB
:101AA300200820082008201020102020204020B9E2
:101AB300D810100810082000003FF80100010001B1
:101AC30000FFFE010002800280044008203018C09D
:101AD30006B1D5200017FC0004408440845FF44025
:101AE3008441844284448448845084428441044031
:101AF300144008C8C8104010401040FDF8104810AA
:101B0300481CC83048D0AA10AA5106220200004837
:101B13008844448444B5C61000100013FE102054BA
:101B230020582050209020102010201020282024FE
:101B330020442040A080400000000000000000007E
:101B43000000000000000000000000000000000092
:101B53000000000000000000000000000000000082
:101B63000000000000000000000000000000000072
:101B73000000000000000000000000000000000062
:101B83000000000000000000000000000000000052
:101B93000000000000000000000000000000000042
:101BA3000000000000000000000000000000000032
:101BB300000000000000000000001808C80808002A
:101BC3000000000000000000007F60606060606053
:101BD3006060E060200000000000000000000000E2
:101BE300000000000000000000181818101010007A
:101BF30000000000000000000000000000000008DA
:101C030008080C0C0C00000000000000000000009D
:101C13000000000000000000006C3810007CC6705B
:101C23001CC67C00000000000010386C00780C7C9F
:101C3300CCCC76000000000000000000007CC670E1
:101C4300C0C67C000000000000000000006C967C11
:101C5300D0D66C000000000000000000007CC60627
:101C630006C67C00000000000000386CC6C6FEC635
:101C7300C66C380000000000000000001038286C1B
:101C830044C6C6000000000000000000007CC60639
:101C9300FEC67C00000000000000000000DC666659
:101CA30066F60606663C000000006C38F80C7EC63B
:101CB300C6C67C000000000000000E1B1818181890
:101CC300181818D87000000000000000FE860C18D9
:101CD3000C0606C67C0000000076DC0000780C7C55
:101CE300CCCC7600000000000076DC00007CC60649
:101CF30006C67C00000000000076DC0000DC66669F
:101D03006666660000000000000000000076999FF0
:101D130098996F0000000000000000000000000020
:101D230000000C0606000000000000000000000098
:101D3300003C66663C00000000000000000000005C
:101D430000000000000000000000183C3C3C181894
:101D5300001818000000000000C6C6C644000000BA
:101D6300000000000000000000006C6CFE6C6C6C56
:101D7300FE6C6C000000000018187CC6C2C07C0614
:101D830086C67C181800000000000000C3C60C18AB
:101D93003063C300000000000000386C6C3876DC50
:101DA300CCCC760000000000003030306000000032
:101DB3000000000000000000000018306060606058
:101DC30060301800000000000000180C060606062C
:101DD300060C180000000000000000006C38FE38FC
:101DE3006C000000000000000000001818187E18A6
:101DF30018180000000000000000000000000000B0
:101E03001818183000000000000000000000FE0059
:101E130000000000000000000000000000000000BF
:101E23000018180000000000000002060C183060C3
:101E3300C08000000000000000007CC6CEDEF6E695
:101E4300C6C67C0000000000000018387818181877
:101E530018187E000000000000007CC6060C183035
:101E630060C6FE000000000000007CC606063C06BB
:101E730006C67C000000000000000C1C3C6CCCFE7D
:101E83000C0C1E00000000000000FEC0C0C0FC06D9
:101E930006C67C000000000000003860C0C0FCC61D
:101EA300C6C67C00000000000000FEC6060C183009
:101EB300303030000000000000007CC6C6C67CC67F
:101EC300C6C67C000000000000007CC6C6C67E06B5
:101ED300060C780000000000000000181800000045
:101EE300181800000000000000000018180000008F
:101EF30018183000000000000000060C1830603095
:101F0300180C06000000000000000000007E000026
:101F13007E0000000000000000006030180C060C7A
:101F2300183060000000000000007CC6C60C1818C2
:101F3300001818000000000000007CC6C6DEDEDECC
:101F4300DCC07C0000000000000010386CC6C6FE38
:101F5300C6C6C600000000000000FC6666667C661C
:101F63006666FC000000000000003C66C2C0C0C002
:101F7300C2663C00000000000000F86C66666666FE
:101F8300666CF800000000000000FE666268786876
:101F93006266FE00000000000000FE66626878686A
:101FA3006060F0000000000000003C66C2C0C0DEBC
:101FB300C6663A00000000000000C6C6C6C6FEC6DC
:101FC300C6C6C6000000000000003C181818181808
:101FD30018183C000000000000001E0C0C0C0C0C38
:101FE300CCCC7800000000000000E6666C6C786CD6
:101FF3006C66E600000000000000F0606060606056
:102003006266FE00000000000000C6EEFED6C6C6F3
:10201300C6C6C600000000000000C6E6F6FEDECE1F
:10202300C6C6C600000000000000386CC6C6C6C69F
:10203300C66C3800000000000000FC6666667C6029
:102043006060F0000000000000007CC6C6C6D6DE5B
:102053007C0C0E00000000000000FC6666667C6CD1
:102063006666E6000000000000007CC6C660380C0F
:10207300C6C67C000000000000007E5A181818181D
:1020830018183C00000000000000C6C6C6C6C6C63D
:10209300C6C67C00000000000000C6C6C6C6C6C691
:1020A3006C381000000000000000C6C6C6C6C6D6C5
:1020B300FEEEC600000000000000C6C6C66C386C09
:1020C300C6C6C600000000000000C6C6C66C38388D
:1020D30038387C00000000000000FEC68C18306019
:1020E300C2C6FE000000000000003C30303030303B
:1020F30030303C0000000000000080C0E070381C5D
:102103000E0602000000000000003C0C0C0C0C0C3E
:102113000C0C3C000000000010386CC600000000EE
:1021230000000000000000000000000000000000AC
:1021330000000000FE000000003030180000000026
:1021430000000000000000000000000000780C7C8C
:10215300CCCC7600000000000000E06060786C6684
:102163006666DC000000000000000000007CC6C0C2
:10217300C0C67C000000000000001C0C0C3C6CCCB2
:10218300CCCC76000000000000000000007CC6FEFE
:10219300C0C67C000000000000001C3632307C30DA
:1021A3003030780000000000000000000076CCCC46
:1021B300CC7C0CCC780000000000E060606C76669C
:1021C3006666E600000000000000181800381818C2
:1021D30018183C000000000000000606000E06066A
:1021E300060666663C0000000000E06060666C78EE
:1021F3006C66E60000000000000038181818181874
:1022030018183C0000000000000000000044FED647
:10221300D6D6D600000000000000000000DC666691
:10222300666666000000000000000000007CC6C671
:10223300C6C67C00000000000000000000DC6666EB
:10224300667C6060F0000000000000000076CCCCEB
:10225300CC7C0C0C1E0000000000000000DC766645
:102263006060F0000000000000000000007CC67009
:102273001CC67C00000000000000103030FC303031
:1022830030361C00000000000000000000CCCCCC65
:10229300CCCC7600000000000000000000C6C6C6DB
:1022A3006C381000000000000000000000C6C6C625
:1022B300D6FE6C00000000000000000000C66C3871
:1022C300386CC600000000000000000000C6C6C64F
:1022D300C67E060C780000000000000000FECC184B
:1022E3003066FE000000000000000E181818701879
:1022F30018180E0000000000000018181818001825
:1023030018181800000000000000701818180E18A4
:102313001818700000000000000076DC00000000C8
:1023230000000000000000000000000000000000AA
:10233300000000000000000000000000000000009A
:10234300000000000000000000000000000000008A
:10235300000000000000000000000000000000007A
:102B33000000000000000000D6C7C4DCD3E3B8D710
:102B430000CEC2B6C83A00CBAECEBB3A00C8C8B5B9
:102B5300C63A00CBAEB1C33A004F4E20004F4646B3
:012B63000071
:00000001FF
