:100000000210AF8F99D2002000FD22020C37E4FFCE
:10001000FE120046600C0FEF70010E09E970F20A43
:1000200080EF2202127F75985053890F4389207503
:100030008DFA758BFA438780D2ACD28ED29CD2AF28
:01004000229D
:1000430002121EBB010689828A83E0225002E72244
:10005300BBFE02E32289828A83E49322BB010CE57F
:100063008229F582E5833AF583E0225006E9258269
:10007300F8E622BBFE06E92582F8E222E58229F5AD
:1000830082E5833AF583E49322BB010689828A835E
:10009300F0225002F722BBFE01F322F8BB010DE56B
:1000A3008229F582E5833AF583E8F0225006E925B3
:1000B30082C8F622BBFE05E92582C8F222BC000BEA
:1000C300BE0029EF8DF084FFADF022E4CCF875F08B
:1000D30008EF2FFFEE33FEEC33FCEE9DEC9840056A
:1000E300FCEE9DFE0FD5F0E9E4CEFD22EDF8F5F030
:1000F300EE8420D21CFEADF075F008EF2FFFED3338
:10010300FD4007985006D5F0F222C398FD0FD5F0B5
:10011300EA22C2D5EC30E709B2D5E4C39DFDE49CE5
:10012300FCEE30E715B2D5E4C39FFFE49EFE120058
:10013300C0C3E49DFDE49CFC80031200C030D507DE
:10014300C3E49FFFE49EFE22C5F0F8A3E028F0C5B8
:10015300F0F8E582158270021583E038F022A3F8E7
:10016300E0C5F025F0F0E582158270021583E0C842
:1001730038F0E822E88FF0A4CC8BF0A42CFCE98EB5
:10018300F0A42CFC8AF0EDA42CFCEA8EF0A4CDA8FC
:10019300F08BF0A42DCC3825F0FDE98FF0A42CCD05
:1001A30035F0FCEB8EF0A4FEA9F0EB8FF0A4CFC5E5
:1001B300F02ECD39FEE43CFCEAA42DCE35F0FDE46F
:1001C3003CFC2275F008758200EF2FFFEE33FECD65
:1001D30033CDCC33CCC58233C5829BED9AEC99E504
:1001E3008298400CF582EE9BFEED9AFDEC99FC0F94
:1001F300D5F0D6E4CEFBE4CDFAE4CCF9A88222B85C
:1002030000C1B90059BA002DEC8BF084CFCECDFCE0
:10021300E5F0CBF97818EF2FFFEE33FEED33FDEC6D
:1002230033FCEB33FB10D703994004EB99FB0FD856
:10023300E5E4F9FA227818EF2FFFEE33FEED33FDF4
:10024300EC33FCC933C910D7059BE99A4007EC9BF3
:10025300FCE99AF90FD8E0E4C9FAE4CCFB2275F083
:1002630010EF2FFFEE33FEED33FDCC33CCC833C894
:1002730010D7079BEC9AE899400AED9BFDEC9AFC9A
:10028300E899F80FD5F0DAE4CDFBE4CCFAE4C8F949
:1002930022EB9FF5F0EA9E42F0E99D42F0E89C458F
:1002A300F022ECF0A3EDF0A3EEF0A3EFF022A8828E
:1002B3008583F0D083D0821202C81202C81202C80A
:1002C3001202C8E473E493A3C583C5F0C583C8C50C
:1002D30082C8F0A3C583C5F0C583C8C582C822A45C
:1002E3002582F582E5F03583F583229001A0ECF0B9
:1002F300A3EDF0A3EAF0A3EBF090019EEEF0A3EFE1
:10030300F09001ADEEF0A3EFF09001A6E0FBA3E0C7
:10031300FAA3E0F91200467003020575C3948050F6
:1003230003020568E49001ABF0A3F09001ABE0FE9B
:10033300A3E0FFC3941CEE9400400302054D90011B
:10034300A6E0FBA3E0FAA3E0F9120046FD901759DB
:1003530075F022EF1202E2EE75F022A42583F583F5
:10036300E4936D600302053C90000112005FFF906F
:1003730001ABE0FCA3E090175A75F0221202E2EC05
:1003830075F022A42583F583E4936F600302053C93
:100393009001A9F0E49001AAF09001ABE0FEA3E084
:1003A30090175B75F0221202E2EE75F022A425830A
:1003B300F583C083C0829001A9E0FDD082D083750C
:1003C300F0021202E2E493FB3395E0FA9001AAE013
:1003D300FC74807E00A804088006CEA2E713CE1327
:1003E300D8F8FFEE5AFEEF5B4E6021ECFF90019FC1
:1003F300E02FFF90019EE03400FE9001A1E02DFD6F
:100403009001A0E03400FC9001A2803B9001A4E0A5
:10041300FEA3E0FF9001A2E06E7003A3E06F602AE9
:100423009001AAE0FF90019FE02FFF90019EE0342E
:1004330000FE9001A9E0FD9001A1E02DFD9001A037
:10044300E03400FC9001A41213399001AAE004F0F7
:10045300E0C39408500302039CE49001AAF09001C6
:10046300ABE0FEA3E090175C75F0221202E2EE759A
:10047300F022A42583F583C083C0829001A9E0FD07
:10048300D082D08375F0021202E2E493FB3395E04D
:10049300FA9001AAE0FC74807E00A804088006CECE
:1004A300A2E713CE13D8F8FFEE5AFEEF5B4E602798
:1004B300ECFF90019FE02FFF90019EE03400CF24DA
:1004C30008CF3400FE9001A1E02DFD9001A0E0349F
:1004D30000FC9001A280419001A4E0FEA3E0FF9004
:1004E30001A2E06E7003A3E06F60309001AAE0FF09
:1004F30090019FE02FFF90019EE03400CF2408CFAE
:100503003400FE9001A9E0FD9001A1E02DFD9001D2
:10051300A0E03400FC9001A41213399001AAE00476
:10052300F0E0C3940850030204619001A9E004F0D1
:10053300E0C3941050030203979001ACE004F07001
:10054300069001ABE004F002032E9001A7E475F0DE
:100553000212014B90019FE02410F090019EE034C1
:1005630000F002030C9001A7E475F00112014B02A5
:10057300030C2290010FEEF0A3EFF0A3ECF0A3ED38
:10058300F0A3EBF0A3EAF0A3E9F0E490011AF0A3DF
:10059300F0900113E0FBA3E0FAA3E0F912000E9040
:1005A300011AE0FCA3E0FDC39FEC9E400302075D3C
:1005B300900113E0FBA3E0FAA3E0F98D828C831290
:1005C300005FFFC394A14009900146EFF0E4A3F05C
:1005D30022900113E0FBA3E0FAA3E0F990011AE0F3
:1005E300FEA3E0F5828E8312005FFFE4FCFDFE7B39
:1005F30010FAF9F81201779001221202A5E4FBFA2E
:10060300900122A3A3E0FEA3E02BFFEE3AFE749B2E
:100613002FF58274193EF583E493FF74262BF5823C
:1006230074013AF583EFF00BBB00010AEB64104A47
:1006330070CEE490011EF0A3F0E490011CF0A3F04F
:1006430090011CE0FEA3E0FFC39408EE6480948055
:10065300400302072A7C007D0812011574807E0086
:10066300A805088006CEA2E713CE13D8F8FF9001A1
:100673001EE0FCA3E0FD2426F58274013CF583E033
:10068300FB3395E05EFEEF5B4E604190011CE0FEA4
:10069300A3E0FF900110E02FFB90010FE03EFA90E2
:1006A300011AE0FEA3E07803C333CE33CED8F92B8F
:1006B300FFEA3EFE900120F0A3EFF0900111E0FA73
:1006C300A3E02DFDEC3AFC900116804790011CE05D
:1006D300FEA3E0FF900110E02FFD90010FE03EFC30
:1006E30090011AE0FEA3E07803C333CE33CED8F9EA
:1006F3002DFFEC3EFE900120F0A3EFF0900111E0FE
:10070300FCA3E0FD90011FE02DFD90011EE03CFCE9
:1007130090011812133990011DE004F07006900146
:100723001CE004F002064390011FE004F070069001
:10073300011EE004F0C390011FE0941090011EE03D
:1007430064809480500302063C90011BE004F07027
:100753000690011AE004F0020594221217267F1175
:100763001217347F787E001215E77FB11217347F9A
:10077300011216F27F2C1216F27F2D1216F27FB29F
:100783001217347F011216F27F2C1216F27F2D12EC
:1007930016F27FB31217347F011216F27F2C121652
:1007A300F27F2D1216F27F011216F27F2C1216F22F
:1007B3007F2D1216F27FB41217347F071216F27FC1
:1007C300C01217347FA21216F27F021216F27F8430
:1007D3001216F27FC11217347FC51216F27FC212AE
:1007E30017347F0A1216F2E4FF1216F27FC31217B0
:1007F300347F8A1216F27F2A1216F27FC41217343C
:100803007F8A1216F27FEE1216F27FC51217347F1B
:100813000E1216F27F361217347FC81216F27FE0DB
:100823001217347F0F1216F27F1A1216F27F0F126D
:1008330016F27F181216F27F2F1216F27F28121665
:10084300F27F201216F27F221216F27F1F1216F287
:100853007F1B1216F27F231216F27F371216F2E471
:10086300FF1216F27F071216F27F021216F27F10A2
:100873001216F27FE11217347F0F1216F27F1B124A
:1008830016F27F0F1216F27F171216F27F3312162B
:10089300F27F2C1216F27F291216F27F2E1216F215
:1008A3007F301216F27F301216F27F391216F27F62
:1008B3003F1216F2E4FF1216F27F071216F27F03BD
:1008C3001216F27F101216F21216EB7F021216F2B4
:1008D300E4FF1216F27F821216F27F2B1216ED7FBF
:1008E300031216F2E4FF1216F27F831216F27FF060
:1008F3001217347F011216F27FF61216ED7F3A12A9
:1009030017347F051216F27F29021734900157EE30
:10091300F0A3EFF0A3ECF0A3EDF0A3EBF0A3EAF068
:10092300A3E9F0E4A3F0A3F090015BE0FBA3E0FAFA
:10093300A3E0F912000E90015EE0FCA3E0FDC39F6B
:10094300EC9E4003020AA690015BE0FBA3E0FAA33E
:10095300E0F98D828C8312005FFFC394A14009905C
:100963000188EFF0E4A3F02290015BE0FBA3E0FA3F
:10097300A3E0F9A3E0FEA3E0F5828E8312005FFFFC
:10098300E4FCFDFE7B10FAF9F81201779001641282
:1009930002A5E4FBFA900164A3A3E0FEA3E02BFF0E
:1009A300EE3AFE749B2FF58274193EF583E493FFB0
:1009B30074682BF58274013AF583EFF00BBB0001E9
:1009C3000AEB64104A70CEE4900162F0A3F0E49065
:1009D3000160F0A3F0900160E0FEA3E0FFC3940880
:1009E300EE648094804003020A707C007D0812014B
:1009F3001574807E00A805088006CEA2E713CE13E7
:100A0300D8F8FF900162E0FCA3E0FD2468F582744E
:100A1300013CF583E0FB3395E05EFEEF5B4E603C0B
:100A2300900160E0FEA3E0FF900158E02FFB9001EE
:100A330057E03EFA90015EE0FEA3E07803C333CEB5
:100A430033CED8F92BFFEA3EFE900159E0FAA3E03A
:100A53002DFDEC3AFC7B007AF812133E900161E025
:100A630004F07006900160E004F00209D89001637D
:100A7300E004F07006900162E004F0C3900163E0CB
:100A83009410900162E06480948050030209D19035
:100A9300015FE004F0600302092B90015EE004F0C3
:100AA30002092B22900107EEF0A3EFF0A3ECF0A3D1
:100AB300EDF0A3EAF0A3EBF0900114E4F0A37411BA
:100AC300F090010FE0FBA3E0FAA3E0F912004670F7
:100AD30003020C36C394805003020C29E4900112E4
:100AE300F0A3F0900114E0FEA3E0FF900112E0FCFC
:100AF300A3E0FDC39FEC9E4003020C0E90010FE0A8
:100B0300FBA3E0FAA3E0F9120046FF90175975F032
:100B130022ED1202E2EC75F022A42583F583E4931F
:100B23006F6003020BFD90000112005FFF90011242
:100B3300A3E090175A75F0221202E2EC75F022A49A
:100B43002583F583E4936F6003020BFD900107E0B7
:100B5300FAA3E0FBFFAE02C006C007A3E0FCA3E0DC
:100B6300FDEB240FFBE43AFA900109E0FEA3E02435
:100B73000FFFE43E900154F0A3EFF0D007D006122C
:100B830013D7E4FBE4FA900112E0FEA3E090175BB5
:100B930075F0221202E2EE75F022A42583F583E5B7
:100BA300822BF582E43583F583E493FD3395E0FCF2
:100BB30074807E00A802088006CEA2E713CE13D865
:100BC300F8FFEE5CFEEF5D4E600590010B80179021
:100BD300010DE0FEA3E0FF90010BE06E7003A3E0C4
:100BE3006F600B90010DE0FEA3E0FF1216440AEACA
:100BF300640870920BEB6420708A900113E004F098
:100C03007006900112E004F0020AE6900110E47508
:100C1300F00212014B900108E02410F0900107E06C
:100C23003400F0020AC4900110E475F00112014B84
:100C3300020AC422C0E0C0F0C083C082C0D075D015
:100C430000C000C001C002C003C004C005C006C08C
:100C530007758C4C758A00E47F307E75FDFC90012E
:100C6300AFE0F8A3E0F9A3E0FAA3E0FBC312029418
:100C73009001AF501EE0FCA3E0FDA3E0FEA3E0243F
:100C830001FFE43EFEE43DFDE43CFC9001AF1202B3
:100C9300A580071202B100000000E47B28FAF9F8EE
:100CA3009001AFE0FCA3E0FDA3E0FEA3E0FF12028E
:100CB30002AC00AD01AE02AF03E4FBFAF9F8C312D4
:100CC300029470059001B504F0E47B1EFAF9F890E4
:100CD30001AFE0FCA3E0FDA3E0FEA3E0FF120202EC
:100CE300AC00AD01AE02AF03E4FBFAF9F8C31202A4
:100CF3009470059001B604F0E47B3CFAF9F8900196
:100D0300AFE0FCA3E0FDA3E0FEA3E0FF120202AC10
:100D130000AD01AE02AF03E4FBFAF9F8C31202948B
:100D230070059001B304F0900000E0601890008318
:100D3300E0D394004005E014F0800A900000E4F052
:100D430090008104F0900085E06018900084E0D367
:100D530094004005E014F0800A900085E4F09001CF
:100D63000604F0D007D006D005D004D003D002D0BB
:100D730001D000D0D0D082D083D0F0D0E032C2AF47
:100D83001216D430B703020E6830B7FD7F2812174E
:100D9300561215C99001151215C1A31215C1A3EF5F
:100DA300F07F19121756900116E0FF900115E02FFE
:100DB300FFE433FE900117E07C002FFFEC3EFEA31F
:100DC300E02FFFEC3EFEA3E0B50724ECB506209030
:100DD3000115E09001C6F0900116E09001C8F09073
:100DE3000117E09001C7F0900118E09001C9F0905D
:100DF30001C7E075F00A84243012008C9001C7E02B
:100E030075F00A84E5F0243090000112009E9000F2
:100E130002744312009E900003E412009E9001C6E8
:100E2300E075F00A842430FF900112E0FBA3E0FA9E
:100E3300A3E0F9EF12008C9001C6E075F00A84E597
:100E4300F02430FF900112E0FBA3E0FAA3E0F99055
:100E53000001EF12009E900002742512009E900084
:100E630003E412009ED2AF229001BDEBF0A3EAF09F
:100E7300A3E9F0E4A3F0A3F0FF1214919001C0EEF4
:100E8300F0A3EFF09001C0E0FEA3E0FF7C037DE858
:100E93001200C0EF2430FF9001BDE0FBA3E0FAA3F2
:100EA300E0F9EF12008C9001C0E0FEA3E0FF7C03A9
:100EB3007DE81200C07E007F64CFCDCFCECCCE12B2
:100EC30000C0EF2430FF9001BDE0FBA3E0FAA3E0F4
:100ED300F9900001EF12009E9001C0E0FEA3E0FF35
:100EE3007C007D641200C07E007F0ACFCDCFCECCC4
:100EF300CE1200C0EF2430FF9001BDE0FBA3E0FA67
:100F0300A3E0F9900002EF12009E9001C0E0FEA35F
:100F1300E0FF7C007D0A1200C0ED2430FF9001BD8C
:100F2300E0FBA3E0FAA3E0F9900003EF12009E9028
:100F33000004E412009E9001D3E0FF229001B7EB7E
:100F4300F0A3EAF0A3E9F07F011214919001BBEE44
:100F5300F0A3EFF09001BBE0FEA3E0FF7C037DE88C
:100F63001200C0EF2430FF9001B7E0FBA3E0FAA327
:100F7300E0F9EF12008C9001BBE0FEA3E0FF7C03DD
:100F83007DE81200C07E007F64CFCDCFCECCCE12E1
:100F930000C0EF2430FF9001B7E0FBA3E0FAA3E029
:100FA300F9900001EF12009E9001BBE0FEA3E0FF69
:100FB3007C007D641200C07E007F0ACFCDCFCECCF3
:100FC300CE1200C0EF2430FF9001B7E0FBA3E0FA9C
:100FD300A3E0F9900002EF12009E9001BBE0FEA394
:100FE300E0FF7C007D0A1200C0ED2430FF9001B7C2
:100FF300E0FBA3E0FAA3E0F9900003EF12009E9058
:101003000004E412009E9001BAE0FF2274FFFFFE89
:101013001214CB74FF90010DF0A3F0A3F0A3742975
:10102300F0A3749CF07B1F7A007D0A7C007F0F7E07
:1010330000120AA774FF90010DF0A3F0A3F0A374AC
:1010430029F0A374A9F0E4FBFA7D28FC7F05FE12C6
:101053000AA774FF90010DF0A3F0A3F0A37429F085
:10106300A374AFF0E4FBFA7D3CFC7F05FE120AA7F4
:1010730074FF90010DF0A3F0A3F0A37429F0A374FF
:10108300B5F0E4FBFA7D50FC7F05FE120AA774FF5E
:1010930090010DF0A3F0A3F0A37429F0A374BBF0A7
:1010A300E4FBFA7D64FC7F05FE020AA7787FE4F681
:1010B300D8FD7581200210F60211B7E493A3F8E47A
:1010C30093A34003F68001F208DFF48029E493A39D
:1010D300F85407240CC8C333C4540F4420C88340B6
:1010E30004F456800146F6DFE4800B010204081085
:1010F30020408090141AE47E019360BCA3FF543F08
:1011030030E509541FFEE493A360010ECF54C025BC
:10111300E060A840B8E493A3FAE493A3F8E493A3AC
:10112300C8C582C8CAC583CAF0A3C8C582C8CAC510
:1011330083CADFE9DEE780BE9001127401F0A37475
:1011430001F0A37407F07B017A01790B120D817B07
:10115300017A01790B90011674F8F0A3E4F074FF9F
:10116300A3F0A3F07D287C007F327E001205767BFE
:10117300017A01790790011674F8F0A3E4F074FF83
:10118300A3F0A3F07D3C7C007F327E00120576E461
:101193009001C2F09001C7E09001C3F0E4A3F09086
:1011A30001C6E09001C5F07B017A0179C2E4FD7FBD
:1011B300040214571217149001B5E0600812113B92
:1011C300E49001B5F09001B6E060081216A6E49031
:1011D30001B6F09001B3E0600812138DE49001B3FF
:1011E300F090019CE0601A900081E060CA7B017A74
:1011F3000079011212DEE4900081F0900080F0800B
:10120300B6900081E060B07B017A0079011212DEB2
:10121300E4900081F0900080F0809CC0E0C083C027
:1012230082C0D075D008E59A30E03E539AFE900113
:1012330006E0700590008504F0900105E0C3947FFB
:10124300501C9000847401F0900105E0FF04F074D9
:10125300862FF582E43400F583E59BF0800B900143
:10126300067401F0900105E4F0E59A30E105539A24
:10127300FDC201D0D0D082D083D0E032C0E0C083A1
:10128300C082C0D075D000C00730983DC29890008E
:1012930081E0700590000004F0900080E0C3947F2B
:1012A300501C9000837401F0900080E0FF04F07400
:1012B300012FF582E43400F583E599F0800B90006B
:1012C300817401F0900080E4F0309904C299C20067
:1012D300D007D0D0D082D083D0E03212004664EE63
:1012E300705390000112005F64CC7049900011129A
:1012F300005FF4704090000912005FFFB42A14905D
:10130300001012005F90019CF090000F12005F909C
:10131300019DF0EFB4801E90000A12005F24F0706C
:101323001490001012005F6004D2818002C2819089
:1013330001B37401F022E0FAA3E0FB900148EEF060
:10134300A3EFF090014CEAF0A3EBF090014AECF02C
:10135300A3EDF0900148E0FAA3E0FFAE02C006C09F
:10136300072401FBE43AFAA3E0FEA3E02401FFE42F
:101373003E900154F0A3EFF0D007D0061213D7909C
:10138300014CE0FEA3E0FF0216447BFF30810E7A9E
:101393002979C090011674F8F0A3E4800A7A2979B8
:1013A300C4E4900116F0A3F074FFA3F0A3F07D64EE
:1013B3007C007F327E00120576E49001C2F0A3F038
:1013C300A3F0A28133A3F07B017A0179C2E4FD7F0C
:1013D3001002145790014EEEF0A3EFF01216EB90AB
:1013E300014EA3E02402FF1216F2E4FF1216F2EB01
:1013F3002402FF1216F27F2B1216EDED2403FF12C7
:1014030016F2E4FF1216F2900154A3E02403FF1234
:1014130016F27F2C0217344101B5004101B6004199
:1014230001B3004101B4004401C2000000004101C6
:101433009C0041019D0552018AEECC000000000092
:1014430000006A00000000000000FF41008100412D
:1014530001060000900195EDF0120046900197F00F
:1014630090000112005F900198F090000212005F5B
:10147300900199F090000312005F90019AF090019F
:1014830094EFF07B017A01798A7D120215677EFA67
:10149300E4F5BDF5BEE5BC54E044084FF5BCE5BC3E
:1014A30030E41E53BCEFAFBDEFFD7C007E0078023D
:1014B300C333CE33CED8F9FFE5BE5403FDEF4DFF62
:1014C30022DEDB7E047F0022900107EEF0A3EFF023
:1014D300900154E4F0A3747FF0FB7A00E4FDFCFF79
:1014E300FE1213D7E4FBE4FA900107E0FEA3E0FF4A
:1014F3001216440AEAB480F00BEBB480E92290019F
:10150300CAEBF0A3EAF0A3E9F09001CAE0FBA3E081
:10151300FAA3E0F912004660179001CAA3E475F03C
:1015230001120161A9F0FA120046FF12000380D9EB
:10153300229001CDEBF0A3EAF0A3E9F09001CDE016
:10154300FBA3E0FAA3E0F912004660179001CDA3D4
:10155300E475F001120161A9F0FA120046FF1217B7
:101563004780D92290010FEBF0A3EAF0A3E9F0E45E
:10157300FEEEC39D501A90010FE0FBA3E0FAA3E037
:10158300F98E8275830012005FFF1200030E80E163
:10159300229001D0EBF0A3EAF0A3E9F0E4FEEEC35E
:1015A3009D501A9001D0E0FBA3E0FAA3E0F98E82EC
:1015B30075830012005FFF1217470E80E122EFF0E0
:1015C3001215C9A3EFF0E4FEFD30B7FD7F08121733
:1015D30056EE25E0FE30B7010E20B7FD0DEDB40841
:1015E300E8AF0622E4FDFCC3ED9FEC9E5015E4FB3F
:1015F300FA0BBB00010AEB64FA4A70F50DBD00015A
:101603000C80E422E4FFFE74012FF58274003EF5A2
:1016130083E4F0900080F00FBF00010EEF647F4E73
:1016230070E522D3EF9400EE940040147D6E7C00AD
:10163300ED1D70011CED4C70F7EF1F70E61E80E38B
:1016430022AD07AC06E490014EF0C2A0D2A2ECFF9B
:101653001216BDAF051216BDD2A022AD07AC06D33C
:10166300ED9400EC9400400A12173EED1D70F01C3F
:1016730080ED22438E08E59A543F4440F59A439AFD
:1016830010438E10759CFA43AF0122E4FF74862F3A
:10169300F582E43400F583E4F0900105F00FEFB434
:1016A3007FEB22E49001C2F0A3F0A3F0A3F07B014F
:1016B3007A0179C2FD7F030214577E08EF30E704F5
:1016C300D2A38002C2A3C2A5D2A5EF25E0FFDEEC20
:1016D30022D2B77F02121756C2B77F147E001216AA
:1016E30026D2B77F1E0217567F2A121734E4FFE46F
:1016F300900156F0C2A0D2A21216BDD2A0225389E5
:10170300F0438901758C4CE4F58AD28CD2A9D2AF0F
:101713002212002612167612170112174F12075EB5
:1017230002100FC2A17F647E001215E7D2A1021539
:10173300E7C2A0C2A21216BDD2A0227F0C7EA9DEF0
:10174300FEDFFC228F9BD2012001FD22759D0775D0
:10175300BCA022DFFE22CBAE010001000100010884
:1017630001087D9005A009400940112011102108AE
:101773004106810005000200B5BE081E1DE0F022EF
:1017830011121094FC80102031CE3902550255CE2F
:1017930091021102110211FE1102BBB700000000F9
:1017A300FDFE10101010102010207C6810A41122D0
:1017B300122210201C20E02040200020BEB32080F5
:1017C300204023F82110F8A027FE200023F8220848
:1017D30023F822083BF8E120412202220C1EBCE040
:1017E30004402440247C24402490248825080400B9
:1017F30000003FF82448244824482448FFFE000002
:10180300B2E2000427C41444145485544554455487
:10181300155415542554E5542104228422442414D8
:101823000808CFB500F83F000400082010403F80AF
:101833000100061018087FFC01040920111021087B
:1018430045040200CDB310401020202023FE484061
:10185300F888110423FE4092F890409000901912EA
:10186300E112420E0400CEC2000023F8120812084F
:1018730083F84208420813F8100027FCE4A424A4C8
:1018830024A424A42FFE0000B6C8010000803FFE5C
:10189300222022203FFC2220222023E020002FF0C0
:1018A3002410422041C08630380ECEBB0880084049
:1018B3000840100017FC300030085208920811103D
:1018C30011101110112010201FFE1000D6B5084072
:1018D30008400FFC1040104033F8320853F89208C8
:1018E30013F8120813F8120812081FFE1000B1C3F0
:1018F3000000FFFE040008001FF02810C8100FF0BE
:10190300010001047D88095011202118C506020039
:10191300B4F21000100013FE1020FC201020102041
:10192300142018203020D02010201020102050A088
:101933002040BFAA00007FFC0820082008200820C0
:101943000820FFFE0820082008200820102010206F
:1019530020204020B9D810100810082000003FF8BC
:10196300010001000100FFFE01000280028004402B
:1019730008203018C006B1D5200017FC00044084AD
:1019830040845FF440844184428444844884508486
:10199300428441044014400800000000000000009D
:1019A3000000000000000000000000000000000034
:1019B3000000000000000000000000000000000024
:1019C3000000000000000000000000000000000014
:1019D3000000000000000000000000000000000004
:1019E30000000000000000000000000000000000F4
:1019F30000000000000000000000000000000000E4
:101A030000000000000000000000000000000000D3
:101A130000000000000000000000001808C80808CB
:101A2300000000000000000000007F606060606054
:101A3300606060E060200000000000000000000023
:101A4300000000000000000000001818181010101B
:101A53000000000000000000000000000000000083
:101A63000808080C0C0C0000000000000000000037
:101A7300000000000000000000006C3810007CC66D
:101A8300701CC67C00000000000010386C00780C4D
:101A93007CCCCC76000000000000000000007CC677
:101AA30070C0C67C000000000000000000006C96BF
:101AB3007CD0D66C000000000000000000007CC653
:101AC3000606C67C00000000000000386CC6C6FE97
:101AD300C6C66C3800000000000000000010382863
:101AE3006C44C6C6000000000000000000007CC675
:101AF30006FEC67C00000000000000000000DC665B
:101B03006666F60606663C000000006C38F80C7E3C
:101B1300C6C6C67C000000000000000E1B18181883
:101B230018181818D87000000000000000FE860C7A
:101B3300180C0606C67C0000000076DC0000780C5A
:101B43007CCCCC7600000000000076DC00007CC674
:101B53000606C67C00000000000076DC0000DC66A0
:101B630066666666000000000000000000007699CB
:101B73009F98996F00000000000000000000000023
:101B83000000000C0606000000000000000000003A
:101B930000003C66663C00000000000000000000FE
:101BA3000000000000000000000000183C3C3C184E
:101BB30018001818000000000000C6C6C644000044
:101BC30000000000000000000000006C6CFE6C6C64
:101BD3006CFE6C6C000000000018187CC6C2C07C50
:101BE3000686C67C181800000000000000C3C60C5F
:101BF300183063C300000000000000386C6C3876B6
:101C0300DCCCCC76000000000000303030600000F7
:101C13000000000000000000000000183060606059
:101C23006060301800000000000000180C06060673
:101C330006060C180000000000000000006C38FECF
:101C4300386C000000000000000000001818187E27
:101C53001818180000000000000000000000000039
:101C6300001818183000000000000000000000FEFB
:101C73000000000000000000000000000000000061
:101C8300000018180000000000000002060C1830C5
:101C930060C08000000000000000007CC6CEDEF6BD
:101CA300E6C6C67C0000000000000018387818184B
:101CB3001818187E000000000000007CC6060C18EF
:101CC3003060C6FE000000000000007CC606063C33
:101CD3000606C67C000000000000000C1C3C6CCC17
:101CE300FE0C0C1E00000000000000FEC0C0C0FC83
:101CF3000606C67C000000000000003860C0C0FC7F
:101D0300C6C6C67C00000000000000FEC6060C1814
:101D130030303030000000000000007CC6C6C67CB6
:101D2300C6C6C67C000000000000007CC6C6C67E96
:101D330006060C78000000000000000018180000E0
:101D43000018180000000000000000001818000030
:101D53000018183000000000000000060C18306066
:101D630030180C06000000000000000000007E0098
:101D7300007E0000000000000000006030180C0628
:101D83000C183060000000000000007CC6C60C1870
:101D930018001818000000000000007CC6C6DEDE34
:101DA300DEDCC07C0000000000000010386CC6C6FA
:101DB300FEC6C6C600000000000000FC6666667C26
:101DC300666666FC000000000000003C66C2C0C0FE
:101DD300C0C2663C00000000000000F86C66666646
:101DE30066666CF800000000000000FE666268781A
:101DF300686266FE00000000000000FE666268780C
:101E0300686060F0000000000000003C66C2C0C0D3
:101E1300DEC6663A00000000000000C6C6C6C6FE65
:101E2300C6C6C6C6000000000000003C18181818FB
:101E33001818183C000000000000001E0C0C0C0CCD
:101E43000CCCCC7800000000000000E6666C6C78D7
:101E53006C6C66E600000000000000F060606060EB
:101E6300606266FE00000000000000C6EEFED6C6FB
:101E7300C6C6C6C600000000000000C6E6F6FEDEC9
:101E8300CEC6C6C600000000000000386CC6C6C639
:101E9300C6C66C3800000000000000FC6666667C65
:101EA300606060F0000000000000007CC6C6C6D67B
:101EB300DE7C0C0E00000000000000FC6666667C01
:101EC3006C6666E6000000000000007CC6C6603851
:101ED3000CC6C67C000000000000007E5A181818CB
:101EE3001818183C00000000000000C6C6C6C6C68D
:101EF300C6C6C67C00000000000000C6C6C6C6C633
:101F0300C66C381000000000000000C6C6C6C6C676
:101F1300D6FEEEC600000000000000C6C6C66C3840
:101F23006CC6C6C600000000000000C6C6C66C38FA
:101F33003838387C00000000000000FEC68C1830E2
:101F430060C2C6FE000000000000003C30303030AC
:101F53003030303C0000000000000080C0E07038EA
:101F63001C0E0602000000000000003C0C0C0C0CD0
:101F73000C0C0C3C000000000010386CC600000084
:101F8300000000000000000000000000000000004E
:101F93000000000000FE00000000303018000000C8
:101FA3000000000000000000000000000000780CAA
:101FB3007CCCCC7600000000000000E06060786C10
:101FC300666666DC000000000000000000007CC6BE
:101FD300C0C0C67C000000000000001C0C0C3C6C60
:101FE300CCCCCC76000000000000000000007CC6D2
:101FF300FEC0C67C000000000000001C3632307CAE
:10200300303030780000000000000000000076CC83
:10201300CCCC7C0CCC780000000000E060606C76D7
:10202300666666E600000000000000181800381815
:102033001818183C000000000000000606000E06F9
:1020430006060666663C0000000000E06060666C01
:10205300786C66E6000000000000003818181818B5
:102063001818183C0000000000000000000044FEA7
:10207300D6D6D6D600000000000000000000DC66C3
:1020830066666666000000000000000000007CC673
:10209300C6C6C67C00000000000000000000DC662D
:1020A30066667C6060F0000000000000000076CCF3
:1020B300CCCC7C0C0C1E0000000000000000DC7681
:1020C300666060F0000000000000000000007CC6B5
:1020D300701CC67C00000000000000103030FC3093
:1020E3003030361C00000000000000000000CCCCA3
:1020F300CCCCCC7600000000000000000000C6C677
:10210300C66C381000000000000000000000C6C6C6
:10211300C6D6FE6C00000000000000000000C66C84
:1021230038386CC600000000000000000000C6C67E
:10213300C6C67E060C780000000000000000FECC3E
:10214300183066FE000000000000000E181818701A
:102153001818180E000000000000001818181800C6
:102163001818181800000000000000701818180E46
:10217300181818700000000000000076DC00000052
:10218300000000000000000000000000000000004C
:10219300000000000000000000000000000000003C
:1021A300000000000000000000000000000000002C
:1021B300000000000000000000000000000000001C
:10299300000000000000000000D6C7C4DCC9A2C8C4
:1029A300C8CFB5CDB300CEC2B6C83A00CAAAB6C81E
:1029B3003A00B7DBB3BE3A00B5E7BBFA004F4E208F
:0529C300004F46460034
:00000001FF
